:020000040800F2
:10000000D00E0024490300080B3C0008613B0008A7
:10001000093C0008E10D0008FF4B0008000000004B
:10002000000000000000000000000000513E000839
:10003000F10D0008000000000D3C0008533E0008D0
:1000400063030008630300086303000863030008F8
:1000500063030008630300086303000863030008E8
:10006000630300086303000863030008E50D00084C
:1000700063030008630300086303000863030008C8
:1000800063030008630300086303000863030008B8
:1000900063030008630300086303000863030008A8
:1000A0006303000863030008630300086303000898
:1000B0006303000863030008630300086303000888
:1000C0006303000863030008630300086303000878
:1000D0006303000863030008630300086303000868
:1000E00063030008630300080000000063030008C6
:1000F0006303000863030008630300086303000848
:100100006303000863030008630300086303000837
:100110001D40000863030008630300086303000830
:100120006303000863030008630300086303000817
:100130006303000863030008630300086303000807
:1001400000000000000000000000000000000000AF
:1001500063030008630300086303000863030008E7
:1001600063030008630300086303000863030008D7
:1001700063030008630300086303000863030008C7
:1001800063030008630300086303000863030008B7
:1001900063030008630300086303000863030008A7
:1001A0006303000863030008630300086303000897
:1001B0006303000863030008630300086303000887
:1001C0006303000863030008630300086303000877
:1001D0006303000863030008630300086303000867
:1001E0006303000863030008630300086303000857
:1001F0006303000863030008630300086303000847
:100200006303000863030008630300086303000836
:100210006303000863030008630300086303000826
:100220006303000863030008630300080000000084
:100230006303000863030008000000006303000874
:1002400063030008630300086303000863030008F6
:1002500063030008630300086303000863030008E6
:1002600063030008630300086303000863030008D6
:100270006303000863030008630300080000000034
:100280006303000863030008630300080000000024
:10029000000000006303000800F002F800F044F8DA
:1002A0000AA090E8000C82448344AAF10107DA45D1
:1002B00001D100F039F8AFF2090EBAE80F0013F0DF
:1002C000010F18BFFB1A43F001031847604A0000F2
:1002D000804A0000103A24BF78C878C1FAD8520783
:1002E00024BF30C830C144BF04680C6070470000B0
:1002F0000023002400250026103A28BF78C1FBD82F
:10030000520728BF30C148BF0B6070471FB504F0CB
:10031000E5FC9DE8030000F039FB00F015F91FBD76
:1003200010B500F07AF910BD00F0E2F91146FFF7C0
:10033000EDFF04F085FC00F0FBFA03B4FFF7F0FFDB
:1003400003BC00F0B5FC000009488047094800479D
:10035000FEE7FEE7FEE7FEE7FEE7FEE7FEE7FEE775
:10036000FEE7FEE704480549054A064B70470000D2
:10037000413F000899020008D0080024D00E002454
:10038000D00A0024D00A002453EA020C00F069804D
:100390002DE9F04B4FF00006002B1FBFB3FA83F599
:1003A00003FA05F424FA05F65E4012BF1643B2FACA
:1003B00082F502FA05F4C5F120051EBF22FA05FCFC
:1003C00044EA0C04203556EA044C4FEA144418BFA2
:1003D000641C4FF000084FF00009904271EB030CD1
:1003E00039D3002919BFB1FA81F701FA07F6B0FA3B
:1003F00080F700FA07F6C7F120071EBF20FA07FCB6
:1004000046EA0C062037B6FBF4FCA7EB0507103FC5
:1004100007F01F0BCBF120060CFA0BFB2CFA06F6AB
:1004200044BFB3460026202FA4BF5E464FF0000B0A
:100430005BEA060C08BF4FF0010B19EB0B09ABFB95
:10044000027C48EB0608C01B06FB02CC0BFB03CC6E
:1004500071EB0C01C1E70B46024641464846BDE838
:10046000F08B13B54FF000004FF00001AFF30080A8
:10047000BDE81C40704700000FB4044910B503AA42
:10048000029800F02FF810BC5DF814FBC807002498
:100490004FF0000200B5134694469646203922BF1D
:1004A000A0E80C50A0E80C50B1F12001BFF4F7AF68
:1004B000090728BFA0E80C5048BF0CC05DF804EB4A
:1004C000890028BF40F8042B08BF704748BF20F8B8
:1004D000022B11F0804F18BF00F8012B70477047B6
:1004E00070477047074B70B50D467B4400F015F818
:1004F0000446284600F024F810B14FF0FF3070BDDC
:10050000204670BD3747000000487047700800243F
:1005100001694A1C02610878704700B58FB0CDE9C7
:1005200001310021059105497944CDE903101146B7
:10053000684600F029F90FB000BD0000E5FFFFFF9D
:10054000007B00F08000704710B542485421FFF74F
:100550009FFF41485421FFF79BFF40485421FFF77C
:1005600097FF3F493B483C4A3F4B08603D490A6082
:100570003A491960531C0365481C10650120086541
:100580003B48344A39A1784400F036F920B938485C
:1005900078440A3800F0D5F937482F4A35A1784415
:1005A00000F02AF920B9344878440A3800F0C9F933
:1005B00032482A4A2FA1784400F01EF920B92F486A
:1005C00078440A3800F0BDF940232248DC000021BD
:1005D000224600F0EDF820B125487844543800F068
:1005E000B0F91D4822464023002100F0E1F820B177
:1005F00021487844543800F0A4F9184822461023C2
:10060000002100F0D5F8002806D01C487844BDE849
:100610001040563800F095B910BD104870B5006D07
:1006200020F001040B4800F05DF90B4800F05AF986
:100630000A4800F057F909E0206D20F00105204636
:1006400000F050F9204600F078F82C46002CF3D149
:1006500070BD000074070024C80700241C08002493
:100660002000002424000024280000247200000040
:100670009447000077000000804700006C470000AE
:100680000EB5CDE9000100F0F3FA029069460120B1
:10069000ABBE0EBD08B5694600900220ABBE08BDDA
:1006A0001FB58DE8070069460520ABBE04B010BD3C
:1006B0001FB58DE80F0069460620ABBEF6E708B50A
:1006C000694600900920ABBE08BD1CB5CDE900010C
:1006D00069460A20ABBE1CBD704708B5694600904C
:1006E0000C20ABBE08BD0000004870477008002415
:1006F0007546FFF7F9FFAE4605006946534620F000
:100700000700854618B020B5FFF72CFEBDE8204055
:100710004FF000064FF000074FF000084FF0000BBD
:1007200021F00701AC46ACE8C009ACE8C009ACE870
:10073000C009ACE8C0098D46704770B50446051F76
:1007400000F008F90068002C14BF446870BD002C4C
:1007500018BFAC423CBF20466468F8D301680A1851
:10076000AA4218BF456003D12A68054611440160BA
:1007700028684119A1421CBF6C6070BD6168696046
:1007800021680844286070BD2DE9F0410646002428
:10079000D6E90170F5688046304603E04146B84727
:1007A000641C3046A8470028F8D12046BDE8F081F7
:1007B00070B5C468A50713D0650211D4B2F5807F67
:1007C00009D0B2F5007F06D0B2F5806F08D10123C1
:1007D00000F1240106E05D1E6FF07F46B54201D3B3
:1007E000012070BD0161C361416024F47061114357
:1007F000C160002070BD00002DE9F0410C460746A5
:100800001646104600F06EF82078611C61280AD068
:10081000722802D077283CD102E00125002405E0AF
:100820000225042402E0082448F2020511F8010B15
:100830002B2806D0622809D011F8010C74280AD0A0
:100840000BE045F0030544F00204EFE745F0040532
:1008500044F00104EAE744F0100438462146FFF76B
:100860000FFF411C15D00021316171604FF4007100
:10087000F560F1617061200704D530460222002145
:1008800000F0E2F8306D40F0010030653046BDE820
:10089000F0810020FBE72DE9F0410D460646104CA3
:1008A000206DC10704D0410804D020F00104F7E70F
:1008B00022460EE0542000F098F807000ED0206D7C
:1008C00047F001010843542120653846FFF7E0FD59
:1008D0003A4629463046BDE8F0418DE70020D6E78C
:1008E000740700242DE9F04704464FF000094FF04B
:1008F000FF37C568D4E90486A80707D0204600F072
:1009000053F93046FFF7C6FE002802DA3846BDE844
:10091000F087280502D54046FFF70FFF4C212046FF
:10092000FFF7B6FD206D20F0010020654846EEE798
:1009300010B50446AFF300802046BDE81040FFF735
:10094000FCBC10B500F07AF9BDE8104000F070B9B9
:1009500070470000004870477808002470477047CF
:100960007047704738B504460A4600206946AFF321
:100970000080002808BF38BD02460099204600F0DC
:10098000A4F9012038BD012000F0F3B9F8B5AFF3A8
:100990000080054600200C46102000BF0646A8191E
:1009A000A0420DD9324669460020AFF3008007000F
:1009B00008BF00F0DEF90098A04218BF0546C41930
:1009C000FFF7C8FF05600746F01D20F00700461935
:1009D000284600F073F9B44208BFF8BDA21B3146A7
:1009E0003868BDE8F84000F070B970B50646FFF70A
:1009F000B1FF056806F10B0020F00704B4429CBF6C
:100A0000002070BD2B466A68BAB11068A04210D3AE
:100A100004F1080188423CBF5068586007D3516810
:100A2000101941601168091B016058601460101DA5
:100A300070BD13465268002AE7D121462846FFF7C9
:100A400091FF0028DED170BD2DE9F0410446164625
:100A50000D464769007B80072ED03846FFF72FFEF2
:100A600050BB3EB3012E02D0022E25D104E0204619
:100A700000F045F905441DE03846FFF72EFEE16819
:100A8000002841F01001E16005DA204600F058F836
:100A90000120BDE8F081C9030BD56268E16A91428B
:100AA00000D81146A26911442269891A814200DDE9
:100AB00008460544002D01DA0220EAE7E16A606891
:100AC000E268814206D29103E06203D522F400314C
:100AD00041F01002A6690027AE4213DCE16A8142B0
:100AE00001D90B4600E0034603EB060C2369ACEB8F
:100AF000030CAC4506DD814201D98C4600E08446FA
:100B00009C4505D1A760276042F02000A5620DE05A
:100B1000AD1BE669AE1B8142A66000D90846C01A2B
:100B2000281A20605819606022F02000034908400C
:100B3000E060002084F84870ABE70000BFCFD7FF2B
:100B4000C16821F4001141F08001C1600021816081
:100B5000016070472DE9F047814614460E464FF07C
:100B6000FF383248D5685769054209D03846A1692F
:100B7000FFF7ABFD002811DB2C48C0430540E560C2
:100B80002B46324649463846FFF78AFDA16920F0D8
:100B90000042B21A11440028A16103D02046FFF799
:100BA000CFFF4046BDE8F08770B504460569C06ACE
:100BB0006168884200D80846E16821F42011E160AC
:100BC000C90312D5A84208D02246411B2846FFF788
:100BD000C1FF10B14FF0FF3070BD0020E562C4E9E5
:100BE0000150E06820F48030E060002070BD10B556
:100BF0000446C06820F02000E060A16AA069884235
:100C00000DD02046FFF7D0FFE06820F4405040F0C0
:100C10001000E060A06AA0612069E062606044F2B8
:100C20004001E0688843E06010BD00001000020051
:100C3000002801D000F03CB87047000010B5014614
:100C400002A000F07DF8012010BD0000534947527A
:100C5000545245443A2052656469726563743A207F
:100C600063616E2774206F70656E3A20000000008B
:100C700010B5431C02E010F8011B71B18107FAD1D5
:100C80004FF0013202C88C1A8C4314EAC211F9D019
:100C9000C01A0A0603D0C01E10BDC01A10BD0A0437
:100CA00001D0801E10BD0902FCD0401E10BD000006
:100CB00001491820ABBEFEE72600020000210160BA
:100CC000C0E90110704710207047034640688C4609
:100CD000002818BF88423CBF03464068F8D3186814
:100CE0001844884207D00CF1030020F00700001DD3
:100CF000411A521A0146081D0A60FFF71EBD10B5C1
:100D00000146C268900703D0900607D5886A0AE0BA
:100D1000FFF7FAFB01210160881E10BD8B6948684E
:100D200018440B69C01A91F848301BB191F849106A
:100D3000401A10BD1103FCD50028FADD401E10BD7D
:100D400070B505460C460A2000E06D1C00F018F84E
:100D500035B128780028F8D102E0641C00F010F8C2
:100D600014B120780028F8D1BDE870400A2000F0C6
:100D700007B810B500F00CF8BDE81040FFF758BFF9
:100D800008B569468DF800000320ABBE08BD000021
:100D900010B5012805D0002103A0FFF7D1FF0120E5
:100DA00010BD09A1F8E7000053494752544D454D85
:100DB0003A204F7574206F662068656170206D65FC
:100DC0006D6F7279000000003A2048656170206DF7
:100DD000656D6F727920636F7272757074656400EF
:100DE000FEE70000014800F0F9BA0000900000247E
:100DF000704772B6FEE700002DE9F84F044600F098
:100E00008FFF00903CB194F83500022806D0802175
:100E100061650020E4E00120BDE8F88FC74DC74EB2
:100E2000C649183520683036DFF81483DFF814938C
:100E30008842DFF814A3DFF814B32ED0A8422CD0D8
:100E4000B0422AD0404528D0484526D0504524D02D
:100E5000584522D0BD4A183290421ED0BC4A90421A
:100E60001BD0BB4A1832904217D0B94A3032904258
:100E700013D0B74A483290420FD0B54A6032904200
:100E80000BD0B34A7832904207D0B14A90329042A8
:100E900003D0AF4AA832904209D1026822F01E0264
:100EA00002602068426922F08002426103E0026829
:100EB00022F00E02026027688F4238464DD0A842C9
:100EC0004BD0B04249D0404547D0484545D0504529
:100ED00043D0584541D09D4A183290423DD09C4A5B
:100EE00090423AD09A4A1832904236D0984A3032DC
:100EF000904232D0964A483290422ED0944A603284
:100F000090422AD0924A7832904226D0904A90322B
:100F1000904222D08E4AA83290421ED08D4A9042F2
:100F20001BD08C4A1432904217D08A4A2832904201
:100F300013D0884A3C3290420FD0864A50329042B9
:100F40000BD0844A6432904207D0824A7832904271
:100F500003D0804A8C32974204D1206E026822F47A
:100F60008072026075492068884228D0A84226D045
:100F7000B04224D0404522D0484520D050451ED014
:100F800058451CD071491831884218D070498842A0
:100F900015D06F491831884211D06D4930318842DF
:100FA0000DD06B494831884209D069496031884287
:100FB00005D067497831884201D065499031016890
:100FC00021F0010101600EE000F0AAFE0099401A34
:100FD000052808D9202262650321002084F83510F5
:100FE00084F8340017E73868C007EDD1534A01216F
:100FF000206890422ED0A8422CD0B0422AD0404542
:1010000028D0484526D0504524D0584522D04F4BB3
:10101000183398421ED04E4B98421BD04C4B18337D
:10102000984217D04A4B3033984213D0484B48333C
:1010300098420FD0464B603398420BD0444B7833E4
:10104000984207D0424B9033984203D0404BA8338C
:10105000984208D194F85C703F23A06D07F01F07F9
:10106000BB40836007E094F85C30A06D03F01F0381
:1010700001FA03F34360206890424DD0A8424BD060
:10108000B04249D0404547D0484545D0504543D06F
:10109000584541D02D4A183290423DD02C4A9042BA
:1010A0003AD02B4A1832904236D0294A30329042F8
:1010B00032D0274A483290422ED0254A60329042A0
:1010C0002AD0234A7832904226D0214A9032904248
:1010D00022D01F4AA83290421ED01E4A90421BD0F6
:1010E0001C4A1432904217D01A4A2832904213D028
:1010F000184A3C3290420FD0164A503290420BD0E0
:10110000144A6432904207D0124A7832904203D097
:10111000104A8C3290420BD1D4E919024260E06E41
:1011200030B1026822F480720260D4E91C0242608D
:10113000002084F8351084F834006DE61000024079
:10114000580002407000024088000240A0000240A7
:1011500010040240085402582DE9F05F28B190F8BD
:101160003510022904D0802141650120BDE8F09F9F
:10117000904C904B0168183C18338E4ADFF83C9233
:10118000A1428D4CDFF838E28E4FDFF83CB2DFF839
:101190003CA28F4D8F4E31D091422FD099422DD00D
:1011A000A1422BD0494529D0714527D0B94225D03D
:1011B000DFF810C20CF1180C61451FD0DFF808C22F
:1011C000ACF1600C614519D0DFF8FCC1ACF1480C02
:1011D000614513D0DFF8F0C1ACF1300C61450DD0A2
:1011E000DFF8E4C1ACF1180C614507D0594505D0D2
:1011F000514503D0A94201D0B1422CD1DFF8B4C18E
:101200004FF0040880F83580ACF1180C61451DD012
:1012100091421BD0994219D0A14217D0494515D00F
:10122000714513D0B94211D06648183081420DD0B3
:1012300065486038814209D063484838814205D00A
:1012400061483038814201D05F481838086820F082
:1012500001000860ABE0D1F800C02CF00E08DFF808
:1012600054C1C1F80080ACF1180C0168614527D069
:10127000914225D0994223D0A14221D049451FD087
:1012800071451DD0B9421BD0DFF838C10CF1180CE4
:10129000614515D0DFF830C1ACF1600C61450FD06D
:1012A000DFF824C1ACF1480C614509D0DFF818C162
:1012B000ACF1300C614503D0DFF80CC1ACF1180C77
:1012C000D1F800C02CF0010CC1F800C0DFF8E480B8
:1012D0004FF0010C0168A8F11808414546D0914231
:1012E00044D0994242D0A14240D049453ED07145B8
:1012F0003CD0B9423AD0334A1832914236D0324AC1
:10130000603A914232D0304A483A91422ED02E4A29
:10131000303A91422AD02C4A183A914226D0594567
:1013200024D0514522D0A94220D0B1421ED02A4A11
:1013300091421BD0284A1432914217D0264A2832B3
:10134000914213D0244A3C3291420FD0224A50326B
:1013500091420BD0204A6432914207D01E4A783223
:10136000914203D01C4A8C32914218D1016E0A6816
:1013700022F480720A6090F85C20816D02F01F02F6
:101380000CFA02F24A60D0E919124A60C16E31B11A
:101390000A6822F480720A60D0E91C124A600022B6
:1013A000016D80F835C080F8342001B188470020F5
:1013B000DCE60000280002405800024070000240B5
:1013C00088000240A00002407004024088040240ED
:1013D000A0040240B8040240085402582DE9FC5F02
:1013E0000446F74E0020DFF8D88300904FF41652E1
:1013F000F44808F11808A56DDFF8C493DFF8C0A31E
:10140000016809F1300920680AF1480AB1FBF2F1DC
:10141000B04201912F68D5F800C0DFF8ACB335D0E9
:101420004146884232D0484530D050452ED05845AC
:101430002CD0E5491831884228D0E3493031884220
:1014400024D0E1494831884220D0E04988421DD06B
:10145000DE491831884219D0DC493031884215D034
:10146000DA494831884211D0DFF860E30EF1600EAE
:1014700070450BD0D54A7832904207D0D34B903389
:10148000984203D0D149A83188427DD194F85C209C
:10149000082102F01F0201FA02F23A424AD0B04299
:1014A00032D0404530D048452ED050452CD05845FC
:1014B0002AD0C54A1832904226D0C34A30329042D0
:1014C00022D0C14A483290421ED0C04A90421BD01E
:1014D000BE4A1832904217D0BC4A3032904213D0E4
:1014E000BA4A483290420FD0B84A603290420BD08C
:1014F000B64A7832904207D0B44A9032904203D034
:10150000B24AA832904203D1026802F0040202E01B
:10151000026802F008026AB1026822F00402026066
:1015200094F85C0000F01F008140A960606D40F0FD
:101530000100606594F85C00012100F01F0081400B
:10154000394240D02068B04234D0404532D048457E
:1015500030D050452ED058452CD09B4A183290425E
:1015600028D0994A3032904224D0974A483290424B
:1015700020D0964A90421DD0944A1832904219D0F9
:10158000924A3032904200E0AFE113D08F4A4832A5
:1015900090420FD08D4A603290420BD08B4A783205
:1015A000904207D0894A9032904203D0874AA832AD
:1015B00090427DD1406910F0800F04D0A960606D29
:1015C00040F00200606594F85C00042100F01F0008
:1015D000814039423ED02068B04232D0404530D0C0
:1015E00048452ED050452CD058452AD0764A18323E
:1015F000904226D0744A3032904222D0724A483209
:1016000090421ED0714A90421BD0704A18329042CC
:1016100017D06E4A3032904213D06C4A4832904212
:101620000FD06A4A603290420BD0684A78329042BA
:1016300007D0664A9032904203D0644AA832904262
:101640004ED1006810F0020F04D0A960606D40F028
:101650000400606594F85C00102100F01F008140D8
:10166000394258D02068B04234D0404532D0484545
:1016700030D050452ED058452CD0534A1832904285
:1016800028D0514A3032904224D04F4A48329042BA
:1016900020D04E4A90421DD04C4A1832904219D068
:1016A0004A4A3032904215D0484A4832904200E0CF
:1016B00014E00FD0454A603290420BD0434A783252
:1016C000904207D0414A9032904203D03F4AA8321C
:1016D000904207D1006800F0080006E0006872E759
:1016E0000068B7E7006800F00400A0B1A9602068B6
:1016F0000168490304D50068000308D5A16C07E020
:101700000168C90503D4016821F008010160216C5A
:1017100009B12046884794F85C00202100F01F00A2
:101720008140394279D02068B04232D0404530D033
:1017300048452ED050452CD058452AD0224A183240
:10174000904226D0204A3032904222D01E4A48325F
:1017500090421ED01D4A90421BD01C4A1832904223
:1017600017D01A4A3032904213D0184A4832904269
:101770000FD0164A603290420BD0144A7832904211
:1017800007D0124A9032904203D0104AA8329042B9
:1017900003D1006800F0100002E0006800F00200D1
:1017A000B0B3A96094F835000428206801680FD010
:1017B00049037ED5006800032BD4616C2AE0000049
:1017C000100002400C00002470000240100402408F
:1017D00021F0160101602068416921F0800141611A
:1017E000206C08B9A06C20B12068016821F00801C4
:1017F000016094F85C303F21012003F01F030022B8
:101800009940A96084F8350084F83420216D65E0A2
:1018100003E0E16B09B120468847606D00287DD068
:10182000606DC00759D02068042184F83510B0429B
:101830002BD0404529D0484527D0504525D0584584
:1018400023D09D49884220D09B49183188421CD022
:1018500099493031884218D09849884215D0974923
:101860001831884211D09549303188420DD09349C2
:101870004831884209D091496031884205D08F496A
:101880007831884201D08D499031016821F0010101
:10189000016020680099019A491C0091914202D888
:1018A0000168C907F6D10068C00710D003200FE017
:1018B000FFE70168C905ACD403680121002223F0C9
:1018C0001003036084F8351084F83420A1E7012068
:1018D00084F83500002084F83400E16C00291DD024
:1018E00002B02046BDE8F05F0847754988421DD028
:1018F00073491431884219D071492831884215D072
:101900006F493C31884211D06D49503188420DD029
:101910006B496431884209D0694900E084E078313C
:10192000884203D066498C3188427DD194F85C802E
:101930000427016808F01F0807FA08F717EA0C0FD8
:10194000009746D04F0744D500980F04686003D530
:10195000C8033CD4A16CC1E7880638D42068B042E3
:101960002DD055496039884229D0484527D0504567
:1019700025D0584523D05049884220D04E491831AF
:1019800088421CD04C493031884218D04B4988429B
:1019900015D04A491831884211D04849303188421F
:1019A0000DD046494831884209D0704507D0904251
:1019B00005D0984203D04149A831884203D101683B
:1019C00021F0080102E0016821F004010160216CAE
:1019D00084E7022707FA08F717EA0C0F00974ED0A2
:1019E0008F074CD500980F04686003D5C80344D412
:1019F000616C73E7880640D42068B0422FD02E492E
:101A0000603988422BD0484529D0504527D05845C9
:101A100025D02949884222D02749183188421ED032
:101A200025493031884200E044E018D023498842FB
:101A300015D022491831884211D0204930318842CE
:101A40000DD01E494831884209D0704507D09042D8
:101A500005D0984203D01949A831884203D10168C2
:101A600021F0140102E0016821F00A010160012166
:101A700084F83510002084F83400E16B2EE708224A
:101A800002FA08F212EA0C0F14D0090712D5016805
:101A900021F00E01016094F85C100120002201F099
:101AA0001F0100FA01F16960606584F8350084F86F
:101AB000342012E7BDE8FC9F880002401004024079
:101AC0000854025870B5044600F02AF90546601C17
:101AD00002D004480078044400F022F9401BA042E0
:101AE000FAD370BD000000242DE9F84F03247D4D8A
:101AF00000234FF001094FF0B04B4FF00F0AE9E01F
:101B000009FA03F73A4076D00E7906F00306012E63
:101B100001D0022E18D1D0F808C04FEA430ECE688B
:101B200004FA0EF82CEA080C06FA0EF646EA0C0641
:101B30008660D0F804C00E792CEA070CC6F30016B4
:101B40009E4046EA0C0646600E79F643B6070BD077
:101B5000C6684FEA43088F6804FA08FC26EA0C06B8
:101B600007FA08F73743C7600E7906F00306022E1E
:101B700012D1DE080F694FEA437C00EB8606B646B9
:101B8000366A4FEADC6C0AFA0CF807FA0CF726EA18
:101B900008063743CEF820700F7906684FEA4308ED
:101BA00007F0030704FA08FC07FA08F726EA0C0610
:101BB000374307604E6816F4403F1CD04A4E3768E2
:101BC00047F00207376036689F0706F00206009666
:101BD00023F0030606F1B046B6463F0FD6F8086478
:101BE000DFF808810AFA07FC404526EA0C0603D113
:101BF0004FF0000C41E06CE0DFF8F4C0604502D12A
:101C00004FF0010C39E0DFF8ECC0604502D14FF035
:101C1000020C32E0DFF8E0C0604502D14FF0030C67
:101C20002BE0DFF8D8C0604502D14FF0040C24E06F
:101C3000DFF8CCC0604502D14FF0050C1DE0DFF8A5
:101C4000C4C0604502D14FF0060C16E0DFF8B8C002
:101C5000604502D14FF0070C0FE0DFF8B0C06045DF
:101C600002D14FF0080C08E0DFF8A4C0604502D1B3
:101C70004FF0090C01E04FF00A0C0CFA07FC4CEA9B
:101C8000060CCEF808C44F68DBF80060FF0226EAB5
:101C9000020600D516435F46CBF80060D1F804C0B9
:101CA000DBF804605FEA8C2C26EA020600D51643B6
:101CB0007E606E684F6826EA0206BF0300D51643B1
:101CC0006E602E684F6826EA0206FF0300D51643B1
:101CD0002E605B1C0A6832FA03F67FF411AFBDE890
:101CE000F88F000080000058F444025800000258A9
:101CF0000004025800080258000C02580010025854
:101D00000014025800180258001C02580020025803
:101D10000024025801480068000C70470010005C65
:101D20000148806870470000000000240248816874
:101D3000027811448160704700000024032010B530
:101D400000F0E2F801F050F80F4A104914681368E7
:101D5000C4F3032203F00F038A5CC95C02F01F0284
:101D600001F01F01D0400A4A20FA01F1116009492F
:101D700008600F2000F010F808B1012010BD00F03D
:101D800079F8002010BD0000184402580E4D0008DC
:101D9000100000240C00002470B50D4D0446287876
:101DA000A0B14FF47A71B1FBF0F00A490968B1FBB8
:101DB000F0F001F05FFB48B9102C07D20022214659
:101DC000501E00F081F800206C6070BD012070BDD5
:101DD000000000240C000024F0B5154C4378211DB0
:101DE0000A1D23600378F3B143680B60057BC67A54
:101DF000817A437B2D07847B45EA0665C77B90F893
:101E000009C0067A90F800E045EAC14040EA834004
:101E100040EA444040EA074040EA0C2040EA4600DD
:101E200040EA0E0001E0002008601060F0BD0000F4
:101E300098ED00E0BFF35F8F044800210368034A78
:101E400023F48033036070321160704724ED00E0AA
:101E5000074A40F00100064970321060086840F4FB
:101E600080300860BFF34F8FBFF36F8F7047000063
:101E700024ED00E00C4808B5016841F00201016062
:101E8000016801F002010091016841F40041016024
:101E9000006800F40040009001F0DAFABDE8084064
:101EA000022001F0DDBA0000F4440258002809DBEA
:101EB000410900F01F028900012001F1E02190405A
:101EC000C1F80001704700000E4BF0B41B680D46CE
:101ED000C3F30223C3F10706042E00D90426191DFB
:101EE000072901D2002300E0DB1E012404FA06F1D9
:101EF0009C40491E2940641E994014402143F0BC77
:101F000002F07EBE0CED00E0064900F0070210B5BD
:101F10004FF6FF040868044B204040EA02201843B3
:101F2000086010BD0CED00E00000FA05134970B523
:101F30000A68D243520705D5096801F007018142BA
:101F400013D118E00A6822F0070202430A60FFF783
:101F5000E7FE0A4D4FF47A760446083D07E000BFDD
:101F6000FFF7DEFE001BB04201D9012070BD2868DA
:101F7000C0438004F4D4002070BD00000C48025817
:101F800010B500F0EBFE05490968054AC1F30211DE
:101F9000515C01F01F01C84010BD000020440258F0
:101FA0000E4D0008494930B5484C0B1D0A681434E1
:101FB00009681D68246802F00303C5F30012C1F329
:101FC0000531C4F3CC04002914FB02F200EE102A00
:101FD000F8EE400A75D03F4A9FED3D1AB7EE000A71
:101FE0006BB1DFED3D1A012B01D0022B64D002EE64
:101FF000101A1168F8EE422A81EEA22A21E0334C31
:10200000283C23689B0612D5344B246801EE901AB5
:102010001168C4F3C104F8EE612AE34001EE903A7E
:10202000C1F30801F8EE611A81EEA22A0BE001EE7D
:10203000901ADFED2B2A00BFF8EE611A116882EECC
:10204000A12AC1F3080101EE901A1168F8EE611A95
:1020500040EE811A71EE800A62EE200AC1F3462139
:1020600001EE101AB8EE411A31EE001AC0EE811AD4
:10207000BCEEE11A80ED001A1168C1F3064101EED1
:10208000101AB8EE411A31EE001AC0EE811ABCEEF9
:10209000E11A80ED011A1168C1F3066101EE101A10
:1020A000B8EE411A31EE000A80EE801ABCEEC10A89
:1020B00080ED020A30BD04E001EE901ADFED092A3E
:1020C000BAE70021016041608160F3E728440258CB
:1020D00000000039384402580024744A0090D003AC
:1020E0000024744C20BCBE4B494930B5484C0B1DF4
:1020F0000A681C3409681D68246802F00303C5F3EC
:102100000022C1F30551C4F3CC04002914FB02F2F0
:1021100000EE102AF8EE400A75D03F4A9FED3D1AB6
:10212000B7EE000A6BB1DFED3D1A012B01D0022B97
:1021300064D002EE101A1168F8EE422A81EEA22A4B
:1021400021E0334C283C23689B0612D5344B24688D
:1021500001EE901A1168C4F3C104F8EE612AE3405D
:1021600001EE903AC1F30801F8EE611A81EEA22A5D
:102170000BE001EE901ADFED2B2A00BFF8EE611A9A
:10218000116882EEA12AC1F3080101EE901A1168CC
:10219000F8EE611A40EE811A71EE800A62EE200AB2
:1021A000C1F3462101EE101AB8EE411A31EE001AC1
:1021B000C0EE811ABCEEE11A80ED001A1168C1F37D
:1021C000064101EE101AB8EE411A31EE001AC0EEC7
:1021D000811ABCEEE11A80ED011A1168C1F30661A3
:1021E00001EE101AB8EE411A31EE000A80EE801AA4
:1021F000BCEEC10A80ED020A30BD04E001EE901A87
:10220000DFED092ABAE70021016041608160F3E750
:102210002844025800000039404402580024744AFF
:102220000090D0030024744C20BCBE4B2DE9FC5F11
:10223000044650F8241B002500902E460801FE4F4E
:10224000DFF8F8831DD5606E50B1B0F5801F0CD05B
:10225000B0F5001F0ED0B0F5401F1DD001250FE0D6
:10226000386840F40030386016E00221201D01F08B
:10227000CFFC03E00098022101F05AFD05000BD0CD
:102280002E462088C00523D5606D05281ED2DFE8C4
:1022900000F00C11161B1B00626ED8F8001021F420
:1022A00040111143C8F80010EBE7386840F40030E3
:1022B000386009E00021201D01F0AAFC03E000982D
:1022C000002101F035FD05466DB100E001252E46E7
:1022D0002088800528D5A06D80281ED00CDC90B108
:1022E00040280ED114E0626DD8F8001021F00701EB
:1022F0001143C8F80010EBE7C02813D0B0F5807F79
:1023000010D001250FE0386840F40030386009E053
:102310000021201D01F07CFC03E00098002101F069
:1023200007FD054695B12E462088DFF8109340053D
:1023300009F108092CD5D4F8A400B0F5800F20D0FD
:102340000DDCA0B1B0F5001F0FD115E0A26DD8F8DB
:10235000001021F4E0711143C8F80010E4E7B0F573
:10236000C00F13D0B0F5000F10D001250FE0386872
:1023700040F40030386009E00021201D01F048FCE5
:1023800003E00098002101F0D3FC054675B12E460C
:10239000208800052DD5D4F8A800B0F1007F21D009
:1023A0000EDCA8B1B0F1807F10D116E0D4F8A420E3
:1023B000D9F8001021F460011143C9F80010E7E7D3
:1023C000B0F1407F13D0B0F1806F10D001250FE045
:1023D000386840F40030386009E00021201D01F029
:1023E00017FC03E00098002101F0A2FC05466DB146
:1023F0002E46206880011FD5A06CD8B110280FD0C0
:10240000202812D0302815D0012514E0D4F8A820B7
:10241000D9F8001021F0E0611143C9F80010E8E795
:10242000386840F40030386004E00221201D01F0DB
:10243000EFFB05466DB12E462088C0042BD5E06D1C
:10244000B0F5005F20D00DDCA0B1B0F5805F0FD1FA
:1024500015E07A48A26C001F016821F03001114399
:102460000160E9E7B0F5405F13D0B0F5804F10D0C0
:1024700001250FE0386840F40030386009E00021A1
:10248000201D01F0C5FB03E00098002101F050FC85
:10249000054685B12E462088800429D5206EB0F5EA
:1024A000403F23D010DC08B3B0F5803F14D0B0F526
:1024B000003F0FD115E0E26DD8F8001021F4E041A3
:1024C0001143C8F80010E6E7B0F5802F0ED0B0F544
:1024D000A02F0BD001250AE00121201D01F098FB5F
:1024E00003E00098012101F023FC05468DB12E4642
:1024F000208840042AD5D4F8AC00B0F1405F23D046
:1025000010DC08B3B0F1805F14D0B0F1005F0FD1E0
:1025100015E0226ED8F8001021F4E0211143C8F82C
:102520000010E5E7B0F1804F0ED0B0F1A04F0BD016
:1025300001250AE00121201D01F06AFB03E000985B
:10254000012101F0F5FB05466DB12E4620880004FF
:102550001FD5E06ED8B1B0F1805F0ED0B0F1005F52
:1025600010D0012514E0D4F8AC20D9F8001021F0E7
:10257000E0411143C9F80010E8E7386840F4003042
:10258000386004E00121201D01F042FB05466DB1D9
:102590002E462068C0011ED5606CD0B101280ED037
:1025A000022811D0032814D0012513E0E26ED8F8D8
:1025B000001021F040511143C8F80010E9E73868D5
:1025C00040F40030386004E00221201D01F020FBBF
:1025D000054685B12E462068DFF85CB04002ABF1BD
:1025E0001C0B57D51648016841F480710160FFF754
:1025F00097FB82460EE01148626C001F016821F0D3
:10260000030111430160E6E7FFF78AFBA0EB0A0034
:1026100064283DD80A480068C005F5D57DBBDFF8C1
:102620001CA0B4F8B0200AF1200ADAF8001002F475
:10263000407001F4407105E02C44025850440258A7
:1026400000480258814211D0DAF80010DAF8002070
:1026500021F4407142F48032CAF80020DAF80020F8
:1026600022F48032CAF80020CAF80010D4F8B00072
:10267000B0F5807F21D1FFF753FB019019E008E00E
:10268000FFF74EFB0199411A41F28830814210D97F
:1026900003252E462078DFF844A4C0073DD0A06F64
:1026A000182838D026DC80B3082829D0102825D156
:1026B0002CE0DAF800008007E2D5D4F8B010C1F3BE
:1026C0000120032858460DD0016821F47C51016097
:1026D000B4F8B020DAF80010C2F30B021143CAF8C4
:1026E0000010D7E7FE4A036802EA111223F47C5176
:1026F0001143ECE720280ED028280CD001250BE050
:102700000121201D01F084FA04E004E00098012179
:1027100001F00EFB05465DB12E46207880071ED5E0
:10272000606F062819D2DFE800F0160C1116161695
:10273000A26FDAF8001021F038011143CAF8001036
:10274000EBE70121201D01F063FA03E0009801216D
:1027500001F0EEFA054675B100E001252E4620781D
:1027600040071FD5D4F89000062819D2DFE800F002
:10277000160C11161616626FDAF8001021F0070118
:102780001143CAF80010EAE70121201D01F040FAC8
:1027900003E00098012101F0CBFA05469DB100E06D
:1027A00001252E46207880062BD5D4F88C00B0F178
:1027B000405F24D011DC10B3B0F1805F15D0B0F1D0
:1027C000005F10D116E0D4F89020D9F8001021F065
:1027D00007011143C9F80010E4E7B0F1804F0ED0B3
:1027E000B0F1A04F0BD001250AE00021201D01F01F
:1027F0000FFA03E00098022101F09AFA05468DB124
:102800002E46207840062BD5D4F89800B0F5406FBE
:1028100024D011DC10B3B0F5806F15D0B0F5006F87
:1028200010D116E0D4F88C20DAF8001021F0E04145
:102830001143CAF80010E4E7B0F5805F0ED0B0F5A0
:10284000A05F0BD001250AE00021201D01F0E0F976
:1028500003E00098022101F06BFA05468DB12E4687
:10286000207800062BD5D4F89C00B0F5C04F24D0BA
:1028700011DC10B3B0F5005F15D0B0F5804F10D16A
:1028800016E0D4F89820D9F8001021F4E051114353
:10289000C9F80010E4E7B0F5004F0ED0B0F5204FB6
:1028A0000BD001250AE00021201D01F0B1F903E061
:1028B0000098022101F03CFA05464DB12E462078E1
:1028C00000071ED5D4F88000B0F5805F0AD00FE075
:1028D000D4F89C20D9F8001021F460411143C9F8C4
:1028E0000010ECE70098022101F022FA00B1012665
:1028F000D4F88020DAF8001021F440511143CAF8CE
:1029000000102078C00613D5D4F89400B0F5807F6D
:1029100005D10098022101F00BFA00B10126D4F88C
:102920009420D9F8001021F440711143C9F8001027
:102930002068000316D5D4F8A00038B1B0F5803F68
:1029400009D0B0F5003F0BD001250AE00021201D81
:1029500001F05EF903E00098022101F0E9F9054673
:1029600085B12E462068400322D5D4F88400B0F506
:10297000801F11D0B0F5001F13D0B0F5401F15D047
:10298000012514E0D4F8A020D9F8001021F440313A
:102990001143C9F80010E5E7386840F400303860AA
:1029A00004E00098012101F0C3F9054655B12E4617
:1029B0002068C0031CD5E06C70B1B0F5803F10D02A
:1029C000012514E0D4F88420DAF8001021F4401135
:1029D0001143CAF80010EBE7386840F40030386063
:1029E00004E00221201D01F013F90546CDB12E4669
:1029F0002068800005D50098022101F099F900B106
:102A00000126206880031BD5E06FB8B1B0F5807F48
:102A100010D0B0F5007F11D0B0F5407F0ED0012569
:102A20000DE02E48E26C0838016821F48031114332
:102A30000160DDE7386840F400303860F5B32E46B9
:102A40002068C00207D5226FD8F8001021F000419D
:102A50001143C8F800102068C00008D5D4F8B4208D
:102A6000DBF8001021F480411143CBF800102068FE
:102A7000800207D5A26ED8F8001021F080711143B2
:102A8000C8F80010206840000CD5DBF8001021F4D5
:102A90000041CBF80010DBF80010D4F8B820114347
:102AA000CBF800102068002807DA0C48226D08389F
:102AB000016821F040511143016000E014E02068FA
:102AC000000208D5D4F88820DAF8001021F440017B
:102AD0001143CAF8001086B1012003E054440258A3
:102AE000CFFFFF00BDE8FC9FE26FDAF8001021F491
:102AF00040711143CAF80010A2E70020EDE7000082
:102B00002DE9F05F04000F467ED0DFF83882D8F858
:102B1000000000F00F00B8420CD2D8F8001021F0ED
:102B20000F013943C8F80010D8F8000000F00F007A
:102B3000B84269D12078844D40070AD520692968B8
:102B400001F07001884204D9296821F07001014325
:102B5000296020787C4E361D00070AD560693168EF
:102B600001F07001884204D9316821F070010143FD
:102B700031602078C0060AD5A069316801F4E061AF
:102B8000884204D9316821F4E06101433160207842
:102B9000DFF8B4B180060BF1080B0CD5E16958469B
:102BA000DBF8002002F07002914204D9026822F0A2
:102BB00070020A430260207880070AD5E06829681D
:102BC00001F00F01884204D9296821F00F01014367
:102BD00029602078C0073ED05B49A2682868183970
:102BE00020F47060104328606068022818D0032821
:102BF00019D00968012819D0490700294ADADFF8F5
:102C000048A1AAF1080A00E044E0DAF8002022F026
:102C100007020243CAF80020FFF782F8814612E05B
:102C200009688903E9E709688901E6E7C905E4E776
:102C3000FFF776F8A0EB090141F28830814202D912
:102C40000320BDE8F09F6168DAF8000000F038006A
:102C5000B0EBC10FECD1207880070AD5E068296875
:102C600001F00F01884204D2296821F00F010143CD
:102C70002960D8F80010404601F00F01B9420BD985
:102C8000016821F00F0139430160006800F00F0076
:102C9000B84201D00120D4E7207840070AD5206946
:102CA000296801F07001884204D2296821F070017E
:102CB00001432960207800070AD56069316801F076
:102CC0007001884204D2316821F070010143316003
:102CD0002078C0060AD5A069316801F4E061884215
:102CE00004D2316821F4E06101433160207880062C
:102CF0000CD5E1695846DBF8002002F070029142E1
:102D000004D2026822F070020A43026000F06CF8FC
:102D10000E492A682B68C2F3032203F00F038A5C72
:102D2000C95C02F01F0201F01F01D040084A20FADE
:102D300001F111600749086007480068BDE8F05FCD
:102D4000FFF72AB800200052184402580E4D000820
:102D5000100000240C0000240400002430B500F012
:102D600043F80B4A0B490C4B15681468C5F3032252
:102D700004F00F048A5C095D02F01F0201F01F01DC
:102D8000D040064A20FA01F119601060084630BDB3
:102D9000184402580E4D0008100000240C000024B6
:102DA00000B5FFF7DBFF05490968054AC1F30211C9
:102DB000515C01F01F01C84000BD00001C440258D6
:102DC0000E4D000800B5FFF7C9FF05490968054A1F
:102DD000C1F30221515C01F01F01C84000BD000099
:102DE0001C4402580E4D0008454970B54548096815
:102DF000434B103B11F0380208D00111082A03D0D0
:102E0000102A0BD0182A0BD0084670BD1968890605
:102E1000FBD51968C1F3C101C84070BD3A4870BD07
:102E20003749374D18310C1D24350A680968266862
:102E30002D6802F0030406F00102C1F30511C5F389
:102E4000CC0515FB02F200EE102AB8EE400AE9B3F9
:102E50002F4ADFED2E0AB7EE001A6CB1DFED2D1A06
:102E6000012C01D0022C43D002EE101A1068F8EEAB
:102E7000422A81EEA22A1EE01C68A40611D51B6816
:102E800001EE901A1168C3F3C103F8EE612AD8402D
:102E900001EE900AC1F30800F8EE611A81EEA22A51
:102EA0000BE001EE901ADFED1C2A00BFF8EE611A6C
:102EB000106882EEA12AC0F3080001EE900AF8EE35
:102EC000611A40EE201A31EE810A00E015E022EE90
:102ED000000A1068C0F34620401C00EE900AF8EE8D
:102EE000600A80EE201ABCEEC10A10EE100A70BD16
:102EF00001EE901ADFED092AD8E7002070BD00002E
:102F0000104402580090D00340787D010000003941
:102F1000304402580024744A0024744C20BCBE4B38
:102F20002DE9F05F04007DD0FF4F2078FE4D18376B
:102F3000DFF8F493103DC00748D0D9F80000396895
:102F400000F03800102815D0182803D101F0030034
:102F500002280FD06068B0F5803F12D010B1B0F5F4
:102F6000A02F18D0286820F480302860286820F42A
:102F7000802009E02868800328D560680028D2D026
:102F800024E0286840F480302860606888B1FEF74B
:102F9000C7FE064609E0286840F480202860F0E774
:102FA000FEF7BEFE801B64286FD828688003F7D523
:102FB0000CE0FEF7B5FE064605E000BFFEF7B0FEEA
:102FC000801B6428F0D828688003F7D4207841F269
:102FD0000308D54E0C3E800769D5D9F80000396842
:102FE00010F038000ED0182801D188070AD0E06808
:102FF00090B3296821F0190101432960FEF790FE82
:10300000824631E02868400702D5E06800288AD06F
:10301000E168286820F0190008432860FEF780FE68
:10302000824607E0DFE000BFFEF77AFEA0EB0A0071
:103030000228B9D828684007F6D500BFFEF76AFE17
:1030400040451BD82069402812D0316821F47C31DA
:1030500041EA003030602AE018E000BFFEF760FE71
:10306000A0EB0A0002289FD828684007F6D5E5E7BC
:10307000306820F47C3040F40030EBE7207C31688D
:1030800021F0FE4141EA0060E4E70DE1286820F00C
:1030900001002860FEF744FE824605E0FEF740FE90
:1030A000A0EB0A0002288DD828684007F6D42078C3
:1030B000C0065DD5D9F80000DFF86CB2396800F0C1
:1030C0003800ABF1040B082810D0182803D101F008
:1030D000030001280AD0E0690028286838D040F0B1
:1030E00080002860FEF71CFE824623E02868C005A9
:1030F00023D5E069802876D11FE0206A202821D0DE
:10310000316821F0F84141EA8060306030E000BF72
:1031100094F82010DBF8002022F07C5242EA016192
:10312000CBF8001024E000BFFEF7FAFDA0EB0A0088
:10313000022898D82868C005F6D5FEF7EBFD404573
:10314000E6D8DAE7306820F0F84040F08040DCE76D
:1031500020F080002860FEF7E3FD064605E000BF92
:10316000FEF7DEFD801B02289DD82868C005F7D435
:103170002078000729D56C486169643000298046B1
:10318000016811D041F001010160FEF7C9FD06465A
:1031900005E000BFFEF7C4FD801B0228C9D8D8F89F
:1031A00000008007F6D510E021F001010160FEF774
:1031B000B7FD064605E000BFFEF7B2FD801B022802
:1031C00072D8D8F800008007F6D42078800623D57E
:1031D000A0690028286810D040F480502860FEF7CD
:1031E0009FFD064605E02CE1FEF79AFD801B0228B4
:1031F0005AD828688004F7D50EE020F48050286063
:10320000FEF78EFD064604E0FEF78AFD801B0228CD
:103210004AD828688004F7D4207840074FD5DFF8D3
:103220000C81D8F8001041F48071C8F80010FEF746
:1032300077FD064605E000BFFEF772FD801B64289F
:1032400032D8D8F80000C005F6D5374EA0686036F1
:1032500001280AD008B1052813D0306820F00100F9
:103260003060306820F0040002E0306840F0010077
:103270003060A06841F2883A90B1FEF751FD804677
:103280000AE0306840F004003060EEE7FEF748FDE9
:10329000A0EB0801514507D830688007F6D50EE04D
:1032A000FEF73EFD804607E084E000BFFEF738FDF4
:1032B000A0EB080151457DD830688007F6D4606ADC
:1032C000B0B3DFF86480D9F8001008F12008C1F32A
:1032D000C20103296FD00228286820F0807028607E
:1032E00003D0FEF71DFD044680E0FEF719FD0646FB
:1032F00005E000BFFEF714FD801B022873D8286884
:103300008001F7D4E26A40F2F331386854F8283F7C
:10331000884340EA021018433860217B4FF4FE0CCA
:1033200022894FF0FE4704E010440258004802583A
:1033300089E0208A4902521E267DA1F5007189B2DA
:10334000401EC2F308021143761E0CEA00400143FE
:103350003E4807EA066211433C4AC8F800100832AA
:10336000016821F00101016011684FF6F876236AC7
:10337000B14341EAC30111600168A26921F00C0167
:10338000114301600168E26921F00201114301600B
:10339000016841F480310160016841F4003101604D
:1033A000016841F480210160016841F00101016080
:1033B000286801E017E01DE040F080702860FEF70B
:1033C000AFFC044605E000BFFEF7AAFC001B022884
:1033D00009D828688001F7D535E000BFFEF7A0FCCA
:1033E000001B022802D90320BDE8F09F2868800155
:1033F000F4D428E039680128D8F8000021D0A26A66
:1034000001F0030393421CD1E26AC1F305118A4221
:1034100017D1216BC0F30802491E8A4211D1616B9A
:10342000C0F34622491E91420BD1A16BC0F3064264
:10343000491E914205D1E16BC0F30660491E8142ED
:1034400001D00120D0E70020CEE700002C44025834
:103450000248016821F0010101607047003C0058FA
:1034600003490A6822F0020202430A607047000022
:10347000003C0058401EB0F1807F10B501D3012000
:1034800010BD4FF0E02460610F21601701F0B8FB20
:103490000020A0610721216110BD30B590F8801097
:1034A000012918D0012280F880202421C0F884103E
:1034B0000022202450F8641B0B680D6823F0005391
:1034C00025F001050D60026050F8641C0B60046279
:1034D0000277104630BD022030BD7047704770B58E
:1034E000044690F8800001281DD0012284F8802035
:1034F0002420C4F8840020680568026822F00102D4
:1035000002602068826822F060620A43826020467E
:1035100000F0ACFD2268202100201560C4F8841062
:1035200084F8800070BD022070BD70B5044690F82C
:10353000800001281DD0012284F880202420C4F8B6
:10354000840020680568026822F001020260206899
:10355000826822F060420A438260204600F086FDC5
:103560002268202100201560C4F8841084F88000AF
:1035700070BD022070BD7047704770470146D0F89B
:103580008400D1F888100843704700002DE9F0410D
:1035900003680446002540F60F06D86919689A6842
:1035A000304209D186067DD501F0200602F0805711
:1035B0003E4377D0216F62E1C64EC74F16400F40A1
:1035C00037436FD0C70709D0CF0507D501271F6242
:1035D000D4F88C3043F00103C4F88C3083070AD54B
:1035E000D30708D0276802233B62D4F88C3043F01D
:1035F0000403C4F88C3043070AD5D30708D02768E2
:1036000004233B62D4F88C3043F00203C4F88C30BE
:1036100003070CD501F02003334308D026680823A4
:103620003362D4F88C3043F00803C4F88C300305BF
:103630000BD54B0109D526684FF400633362D4F8EB
:103640008C3043F02003C4F88C30D4F88C30002B3D
:103650003AD0800609D501F0200002F080510843DD
:1036600003D0216F09B1204688472168D4F88C0027
:103670008968490602D410F0280F27D0204600F0B0
:10368000B5FD2068806840061BD52068083050E8EA
:10369000001F21F0400140E80012002AF5D1E06F40
:1036A00078B100E018E08D490165E06FFDF754FD49
:1036B000002809D0E06F016D00E02046BDE8F04130
:1036C00008472046FFF759FFBDE8F0812046FFF785
:1036D00054FFC4F88C50F7E7E76E2026012F7CD109
:1036E000C7067AD5CF0678D5102018622068806882
:1036F00040067DD5E16F7A4A0868904234D0784A16
:103700001832904230D0764A303290422CD0744AEF
:103710004832904228D0724A6032904224D0704A97
:103720007832904220D06E4A903290421CD06C4A3F
:10373000A832904218D06B4A904215D0694A18328C
:10374000904211D0674A303290420DD0654A4832DB
:10375000904209D0634A6032904205D0614A783283
:10376000904201D05F4A903240680004000CABD018
:10377000B4F85C208242A7D9A4F85E00C869B0F50D
:10378000807F2ED0216851E8000F20F4807041E83E
:103790000002002AF6D12068083050E8001F21F00E
:1037A000010140E80012002AF5D12068083050E8F5
:1037B000001F21F0400140E80012002AF5D1C4F8B2
:1037C0008860E566216851E8000F20F0100041E8AC
:1037D0000002002AF6D1E06F01E03BE008E0FDF7CF
:1037E0000BFBB4F85C00B4F85E10401A81B22DE017
:1037F000B4F85C00B4F85E10B4F85E20401A81B2F0
:10380000002AB4D00029B2D0226852E8000F20F478
:10381000907042E80003002BF6D1334B226802F18E
:10382000080252E8000F00EA030042E80007002FF8
:10383000F4D1C4F88860E5662567226852E8000F75
:1038400020F0100042E80003002BF6D12046FFF7DD
:1038500044FE39E7C70209D5570207D54FF4801057
:1038600018622046BDE8F041FFF786BE03060AD580
:1038700001F0800302F40002134304D0616F0029B9
:103880007FF41BAF20E7420611D54A060FD520462C
:10389000026852E8001F21F0400142E80013002BAB
:1038A000F6D1C0F88460456700F059F90CE70202D0
:1038B00006D54A0004D52046BDE8F041FFF75BBEBF
:1038C000C001C6D50029C4DA2046BDE8F041FFF7A3
:1038D00005BE00000100001020010004D9410008CD
:1038E0001000024010040240FEFFFFEF10B504007C
:1038F00003D0D4F8840010B107E0012010BD0020EF
:1039000084F88000204600F027F82420C4F88400C2
:103910002068016821F001010160204600F0A8FE46
:103920000128EBD0A06A10B1204600F0C1FB20684E
:10393000416821F4904141602068816821F02A01AA
:1039400081602068016841F0010101602046BDE806
:10395000104000F011BC000030B5B5B00446142191
:103960002FA8FCF795FDBC216846FCF791FD1B498B
:10397000206888422FD102256846002400951D94B6
:10398000FEF754FC08B1FDF734FA1548016841F41C
:1039900000210160006800F40020349010480838CD
:1039A000016841F00101016000680821CDE930544F
:1039B00000F00100349003202F90CDE932410948F6
:1039C0002FA9FEF791F8002204213420FEF77CFA9B
:1039D0003420FEF76BFA35B030BD0000004C0040DB
:1039E000E84402580000025870B4D0F88830202B08
:1039F00020D1E1B1DAB190F88030012B1AD0036800
:103A000001260D4D002480F88060C466AB420BD0C7
:103A10005B681B0208D5046854E8003F43F08063EC
:103A200044E80035002DF6D170BC00F0F7BF01204E
:103A300070BC70470220FBE7000C0058F0B400682F
:103A4000144988420CD1144881880A0408D40246DB
:103A50004FF000034C04127807D50A2A02D0838065
:103A6000F0BC704741F4004112E00D2A0ED00B4E1D
:103A7000C1F30D054C1CA1B240F2DB54A1427255BA
:103A80008180EDD98380F0BC01F014B941F480410C
:103A90008180E5E7004C00401400002498010024D8
:103AA0002DE9F8430446D0F884001F4616460D461B
:103AB000202852D1DDB1D6B194F8800001284CD035
:103AC000012084F8800021224FF00008C4F88C8087
:103AD000C4F884201834FEF723F9814654F8100CFA
:103AE000A687E687183CB0F5805F03D004E001208C
:103AF000BDE8F883206920B12E46002584F8808037
:103B000010E00026FAE78021204601F013F8B8B94A
:103B1000C6B116F8010B21688862B4F85600401E41
:103B2000A4F85600B4F856004B464FF00002009738
:103B30000028E8D14FF04001204600F0FBFF38B1EB
:103B40000320D5E735F8020B2168C0F30800E3E74E
:103B50002020C4F884000020CAE70220C8E770478C
:103B6000FEE700000D4808B5016841F080010160E2
:103B7000016801F080010091016841F001010160DC
:103B8000016801F001010091016841F0020101604A
:103B9000006800F00200009008BD0000E0440258F8
:103BA0001848002110B5164C0C224FF4E133046084
:103BB000C0E90131C160C0E904128161C1610162E3
:103BC00041628162FFF792FE08B1FDF712F90D48DC
:103BD0000021FFF7AAFC08B1FDF70BF90948002105
:103BE000FFF77DFC08B1FDF704F90648FFF755FC27
:103BF000002803D0BDE81040FDF7FBB810BD000061
:103C0000004C004008010024FEE7FEE7704700007A
:103C10002DE9F047454D044689464FF0000A2868D3
:103C2000C04380070AD0414E283E306820F08060B3
:103C30003060FEF775F80746B04608E00120BDE8A1
:103C4000F08700BFFEF76CF8C01B022867D8D8F8D1
:103C500000000001F6D4206829684FF4FE0721F423
:103C60007C313E0241EA00302860207AA389B4F812
:103C700004C040022D4D2D495B1E227CACF1010C8D
:103C80001035091DA0F5007080B2521ECCF3080C4F
:103C900007EA034340EA0C00184306EA02621043B5
:103CA00028600868626920F0C000104308600A6854
:103CB000A06922F0200202430A60281D0A6822F04F
:103CC00010020A6002684FF6F873E4699A4342EA08
:103CD000C40202600868B9F1000F40F010020A60E7
:103CE00011D00868B9F1010F11D040F4001008603C
:103CF000D8F80000444640F08060C8F80000FEF7A5
:103D00000FF805460DE0086840F40020EFE740F4A6
:103D10008010ECE7FEF704F8401B022801D90320CD
:103D20008DE720680001F5D5504688E72844025801
:103D30002DE9F047454D044689464FF0000A2868B2
:103D4000C04380070AD0414E283E306820F08050A2
:103D50003060FDF7E5FF0746B04608E00120BDE80A
:103D6000F08700BFFDF7DCFFC01B022867D8D8F83A
:103D700000008000F6D4208829684FF4FE0721F067
:103D80007C713E0241EA00502860207AA389B4F891
:103D900004C040022D4D2D495B1E227CACF1010C6C
:103DA0001835091DA0F5007080B2521ECCF3080C26
:103DB00007EA034340EA0C00184306EA0262104394
:103DC00028600868626920F44060104308600A684F
:103DD000A06922F4007202430A60281D0A6822F4D6
:103DE00080720A6002684FF6F873E4699A4342EA07
:103DF000C40202600868B9F1000F40F480720A60E2
:103E000011D00868B9F1010F11D040F0807008603E
:103E1000D8F80000444640F08050C8F80000FDF794
:103E20007FFF05460DE0086840F48000EFE740F4AE
:103E30000000ECE7FDF774FF401B022801D90320C6
:103E40008DE720688000F5D5504688E72844025861
:103E50007047FDF76BBF0000F0B59DB04C21684680
:103E6000FCF716FB202113A8FCF712FB0220FEF73B
:103E70005DF83049002430480A6822F001020A60E7
:103E80000A68026842F440420260026802F440425A
:103E90001B9202689204FCD5284A136843F002037F
:103EA0001360126802F002021B92026842F4404260
:103EB000026002680A6842F001020A60096801F0C3
:103EC00001011B9101688904FCD51C49CC390220F1
:103ED0000A6808250123C603052722F00302921C65
:103EE0000A60C0210990CDE90A07CDE90C100F90B6
:103EF000CDE91054CDE900360E9068461294FFF7D4
:103F00000FF808B172B6FEE740201A903F21030176
:103F1000CDE916500322CDE9180313AB13A883E8AB
:103F200016000421FEF7ECFD002801D072B6FEE772
:103F30001DB0F0BD2C04005818480258F444025833
:103F40002C48F0B52C4A016841F4700101601068FA
:103F500000F00F00072804D2106820F00F00C01DE9
:103F6000106026490020254C10340B68244D43F086
:103F700001030B6020600B682B400B60136803F09B
:103F80000F03072B04D9136823F00F03DB1D136005
:103F90001A4C1C4A18341C4B261D371D2060174C28
:103FA0001A4D28343060261D3860371D23603B1DB4
:103FB00035601C1D3A60251D2E1D1860331D2260C2
:103FC0002860326018600A680C4B114C22F4802281
:103FD00060330A60186020686FF30F00B0F1005F73
:103FE00003D20C490120C1F8080143F2D2000A496A
:103FF0000860F0BD88ED00E0002000520044025847
:104000007FEDF6EA80020101000202020000FF01DA
:104010000010005C008000510040005270B5114C4F
:104020000025114EA068FFF7B1FA05E06D1CB542FE
:1040300002D900F03FFE04E0A068FFF79FFA2028B5
:10404000F4D1002506E06D1CB54203D9BDE87040EF
:1040500000F030BE03490122A068FFF7C5FC00282C
:10406000F1D170BD14000024FFFF010030B5416E96
:10407000B9B101680D4B03F108048A688968C2F37D
:104080004262490F5D5C615C2D01B5FBF1F1A0F866
:104090006A10995CA25C0901B1FBF2F1A0F868100A
:1040A00030BD0121A0F86A10F8E70000FE4C0008BE
:1040B00090F82810C90706D00168C36A4A6822F43C
:1040C00000321A434A6090F82810890706D5016823
:1040D000036B4A6822F480321A434A6090F8281031
:1040E000490706D50168436B4A6822F480221A43C7
:1040F0004A6090F82810090706D50168836B4A6862
:1041000022F400421A434A6090F82810C90606D5E6
:104110000168C36B8A6822F480521A438A6090F85F
:104120002810890606D50168036C8A6822F40052BB
:104130001A438A6090F82810490611D50168436C2B
:104140004A6822F480121A434A60416CB1F5801F1C
:1041500006D10168836C4A6822F4C0021A434A609F
:1041600090F82810090606D50168C26C486820F44A
:104170000020104348607047F8B500260446C0F898
:104180008C60FDF7CDFD054620686FF07E47006826
:10419000000708D500222B464FF400112046009757
:1041A00000F0C8FC60B92068006840070AD500220A
:1041B0002B464FF480012046009700F0BBFC08B16D
:1041C0000320F8BD2020C4F88400C4F88800E66607
:1041D000002084F88060F8BD10B5806B0021A0F845
:1041E0005E10A0F85610FFF7C8F910BD10B50268B0
:1041F00052E8001F21F4907142E80013002BF6D121
:104200000E4B0268083252E8001F194042E80014C1
:10421000002CF6D1C16E012908D1026852E8001FB6
:1042200021F0100142E80013002BF6D100212022DA
:10423000C0F88820C166016710BD0000FEFFFFEFD7
:1042400010B5D0F88810B0F860202229016804D099
:10425000886940F00800886110BD496A836D11408B
:104260001980816D891C8165B0F85E10491EA0F827
:104270005E10B0F85E100029EED1026852E8001F0F
:1042800021F4907142E80013002BF6D10168083147
:1042900051E8002F22F0010241E80023002BF5D164
:1042A0002022C0F888200021C26E0167012A02D0B6
:1042B000FFF7C4FB10BDC166026852E8001F21F081
:1042C000100142E80013002BF6D10168CA69D243FD
:1042D000D20601D410220A62B0F85C10FFF7FDF894
:1042E00010BD00002DE9F04704460068C569D0F80C
:1042F00000A0D0F80880D4F88810B4F860602229B3
:1043000005D0816941F008018161BDE8F087B4F80A
:1043100068704FF0000963E02068A16D406A30408A
:104320000880A06D801CA065B4F85E00401EA4F853
:104330005E002068C569690730D0E9070AD05FEAE6
:10434000CA5107D501210162D4F88C0040F0010068
:10435000C4F88C00A8070BD55FEAC87008D02168A4
:1043600002200862D4F88C0040F00400C4F88C00ED
:1043700068070BD55FEAC87008D02168042008627E
:10438000D4F88C0040F00200C4F88C00D4F88C0003
:1043900020B12046FFF7F1F8C4F88C90B4F85E0025
:1043A000F0B9216851E8000F20F4807041E8000264
:1043B000002AF6D1264A2068083050E8001F114034
:1043C00040E80013002BF6D120214846C4F888109D
:1043D000E16EC4F87090012923D02046FFF72EFB30
:1043E0000FB1A80698D4B4F85E0000288DD0B4F8B8
:1043F0006810814289D92068083050E8001F21F0F8
:10440000805140E80012002AF5D112482067216847
:1044100051E8000F40F0200041E80002002AF6D1E8
:1044200073E7E066216851E8000F20F0100041E8D2
:104430000002002AF6D12068C169C943C90601D427
:1044400010210162B4F85C102046FFF746F8C7E778
:10445000FEFFFFEF4142000810B5D0F88810B0F819
:1044600060202229016804D0886940F00800886132
:1044700010BD496A836D11401970816D491C8165B9
:10448000B0F85E10491EA0F85E10B0F85E1000296A
:10449000EED1026852E8001F21F4907142E8001347
:1044A000002BF6D10168083151E8002F22F00102FB
:1044B00041E80023002BF5D12022C0F888200021FC
:1044C000C26E0167012A02D0FFF7B8FA10BDC166BB
:1044D000026852E8001F21F0100142E80013002B8F
:1044E000F6D10168CA69D243D20601D410220A6209
:1044F000B0F85C10FEF7F1FF10BD00002DE9F047A9
:1045000004460068C569D0F800A0D0F80880D4F847
:104510008810B4F86060222905D0816941F0080153
:104520008161BDE8F087B4F868704FF0000963E07E
:104530002068A16D406A30400870A06D401CA065E5
:10454000B4F85E00401EA4F85E002068C5696907E3
:1045500030D0E9070AD05FEACA5107D501210162CC
:10456000D4F88C0040F00100C4F88C00A8070BD5EB
:104570005FEAC87008D0216802200862D4F88C0075
:1045800040F00400C4F88C0068070BD55FEAC870DF
:1045900008D0216804200862D4F88C0040F00200A2
:1045A000C4F88C00D4F88C0020B12046FEF7E5FF5B
:1045B000C4F88C90B4F85E00F0B9216851E8000F9F
:1045C00020F4807041E80002002AF6D1264A2068D3
:1045D000083050E8001F114040E80013002BF6D1CE
:1045E00020214846C4F88810E16EC4F87090012973
:1045F00023D02046FFF722FA0FB1A80698D4B4F8CA
:104600005E0000288DD0B4F86810814289D92068F6
:10461000083050E8001F21F0805140E80012002AC5
:10462000F5D112482067216851E8000F40F02000C2
:1046300041E80002002AF6D173E7E066216851E8FC
:10464000000F20F0100041E80002002AF6D1206897
:10465000C169C943C90601D410210162B4F85C10D4
:104660002046FEF73AFFC7E7FEFFFFEF5944000878
:104670002DE9F04304468068D84E87B0D84B2168B6
:10468000D4E90427D4F81CC010430A68002547EA7F
:104690000C073843324002430A602068E2684168F0
:1046A00021F44051114341602268A1699A4201D02E
:1046B000206A01439768DFF82CC3CB4ECB4807EA4A
:1046C0000C070F4397602168676ACA6A22F00F02DD
:1046D0003A43CA622268B2420ED1006800F0380044
:1046E000182873D047DCB8B3082879D010286FD1C8
:1046F00078E028287ED17BE0BD498A4209D1006854
:1047000000F00700062875D2DFE800F0546A6C6EEE
:104710007072B8498A4209D1006800F00700062883
:1047200068D2DFE800F0475D5F616365B2498A42A5
:1047300009D1006800F0070006285BD2DFE800F02E
:104740003A5052545658AD498A420BD1006800F095
:10475000070006284ED200E010E0DFE800F02B4111
:1047600043454749A6498A420AD1006800F038000B
:10477000182839D0B7DD2028BBD13CE001203AE031
:10478000A0498A4209D1006800F00700062831D20A
:10479000DFE800F01026282A2C2E9B498A420BD1F4
:1047A000006800F00700062824D2DFE800F00319B3
:1047B0001B1D1F2100201EE09A421BD18B48001DAB
:1047C000006800F00700062814D202E00CE007E0C1
:1047D00010E0DFE800F0030507090B0D02200AE0F6
:1047E000042008E0082006E0102004E0202002E079
:1047F000402000E080208549DFF814829A42854AF3
:104800004FF400434FEA21174FF000064ED1102815
:104810001AD006DC022809D004280BD008287CD145
:104820000DE020283ED0402877D13DE0FDF7A8FBE1
:10483000014610E06846FDF7B5FB01990BE003A8BF
:10484000FDF752FC049906E01068800605D5106853
:10485000C0F3C100C140002970D0606A676838F8B1
:10486000102007EB4703B1FBF2F0834255D8B0EBC1
:10487000073F52D8002308461946FBF785FD02463C
:104880007808130E120243EA012110183A467141CA
:104890000023FBF779FD604AA0F5407191423CD8B6
:1048A00021688FE03946D8E71946D6E7D4F81CC00E
:1048B0004FF6EF799C4546D1082819D005DC58B150
:1048C00001280CD0042875D10DE0102815D020281F
:1048D00035D040286ED134E0FEF762FA01E0FEF7F1
:1048E00071FA014610E06846FDF75CFB01990BE0A8
:1048F00003A8FDF7F9FB049906E01068800604D5CB
:104900001068C0F3C100C140C1B1636A606838F883
:104910001330B1FBF3F1490000E04BE001EB500133
:10492000B1FBF0F0A0F11001494543D84FF6F07308
:104930002168C0F342021840104343E043E0394687
:10494000E3E71946E1E7082819D005DC58B101284A
:104950000CD004282ED10DE0102815D020282BD003
:10496000402827D12AE0FEF71BFA01E0FEF72AFAD9
:10497000014610E06846FDF715FB01990BE003A81E
:10498000FDF7B2FB049906E01068800604D51068B4
:10499000C0F3C100C140B1B1636A606838F8133038
:1049A000B1FBF3F101EB5001B1FBF0F0A0F110010C
:1049B000494505D9012506E03946EDE71946EBE7FB
:1049C000216880B2C8600120A4F86A00A4F86800D9
:1049D00028462667666707B0BDE8F083F369FFCF16
:1049E000000C0058FFF4FF1100100140544402581D
:1049F0000044004000480040004C0040005000408F
:104A00000014014000780040007C00400090D0037A
:104A1000E64C000800440258FFFC0F0070B58468A3
:104A2000002381654FF48055A0F85C20AC42A0F8CB
:104A30005E204FF0FF01036704D1046904BB40F21C
:104A4000FF111DE04FF07F06C4B1B4F1805F1AD0B2
:104A5000A0F860302221C0F88C30C0F888100168BE
:104A6000083151E8004F44F0010441E80046002EAF
:104A7000F5D1416EB1F1005F0CD030E0046934B97A
:104A8000A0F86010E6E7016909B13F21F8E7A0F856
:104A90006060DFE7B0F86810914220D88168A942D1
:104AA00001D10169C9B11F490167016980F88030EE
:104AB00041B1026852E8001F41F4807142E80013DE
:104AC000002BF6D10168083151E8002F42F08052E6
:104AD00041E80023002BF5D121E01349E4E7816888
:104AE000A94201D1016979B110490167016980F8D2
:104AF000803059B1016851E8002F42F4907241E8CA
:104B00000023002BF6D10AE00949EEE7016851E8DD
:104B1000002F42F0200241E80023002BF6D10020B4
:104B200070BD0000FD440008E5420008594400083B
:104B3000414200082DE9F0479A4617460E460446C2
:104B4000089D4FF000094FF020084CE0681C4AD047
:104B5000FDF7E6F8A0EB0A00A8422AD84DB320687A
:104B6000016849073FD5C069C04300053BD42168AF
:104B70004FF400600862216851E8000F20F4D07003
:104B800041E80002002AF6D12068083050E8001FF2
:104B900021F0010140E80012002AF5D1C4F8848018
:104BA00084F88090C4F88880C4F88C800320BDE825
:104BB000F087206850E8001F21F4D07140E800120F
:104BC000002AF6D12068083050E8001F21F00101CA
:104BD00040E80012002AF5D1C4F8848084F880905F
:104BE000C4F88880E2E72068C06936EA000004D093
:104BF0000020B842AAD00020D9E70120F9E7FEE75B
:104C0000090700284FEA116104DB00F1E02080F879
:104C10000014704700F00F0000F1E02080F8141D30
:104C20007047000010B5044604480123411C1A4691
:104C300044708068FEF734FF204610BD1400002445
:104C40001FB500240094019402940394FDF7F2F838
:104C500001208DF80C001F218DF8081087228DF897
:104C600009208DF80D008DF8000068468DF80A4087
:104C70008DF80E408DF8014001948DF80B408DF8B1
:104C80000F40FDF7A9F80420FDF7E2F8FDF756F80C
:104C9000FFF7E2F8FEF766FFFEF782FF03A0FBF7DF
:104CA000EBFB1420FCF70EFFF8E70000746573744B
:104CB0000000000008490A2310B58C1E0222A068DB
:104CC000FEF7EEFEA0680068C169C9434906FBD43F
:104CD0000020A08010BD0000160000244FF040709E
:104CE000E1EE100A7047010002000400060008000F
:104CF0000A000C00100020004000800000010101AB
:104D0000010307010000080402040801010100007A
:104D100000000102030401020304060708093A74B3
:104D200074003A7474003A74740000004C4D00082A
:104D3000000000242C000000D4020008784D000878
:104D40002C000024A40E0000F00200080100000066
:104D500010000000000000000090D0030090D0037D
:104D6000000045520000000008010024000000007F
:084D700000000000000000003B
:040000050800029954
:00000001FF
