:020000040800F2
:10000000C006002439030008411E0008611C0008D6
:10001000391E000841040008C92100080000000042
:10002000000000000000000000000000511E000859
:100030004904000800000000491E0008591E00087D
:100040005303000853030008530300085303000838
:100050005303000853030008530300085303000828
:100060005303000853030008530300085303000818
:100070005303000853030008530300085303000808
:1000800053030008530300085303000853030008F8
:1000900053030008530300085303000853030008E8
:1000A00053030008530300085303000853030008D8
:1000B00053030008530300085303000853030008C8
:1000C00053030008530300085303000853030008B8
:1000D00053030008530300085303000853030008A8
:1000E00053030008530300080000000053030008F6
:1000F0005303000853030008530300085303000888
:100100005303000853030008530300085303000877
:100110005303000853030008530300085303000867
:100120005303000853030008530300085303000857
:100130005303000853030008530300085303000847
:1001400000000000000000000000000000000000AF
:100150005303000853030008530300085303000827
:100160005303000853030008530300085303000817
:100170005303000853030008530300085303000807
:1001800053030008530300085303000853030008F7
:1001900053030008530300085303000853030008E7
:1001A00053030008530300085303000853030008D7
:1001B00053030008530300085303000853030008C7
:1001C00053030008530300085303000853030008B7
:1001D00053030008530300085303000853030008A7
:1001E0005303000853030008530300085303000897
:1001F0005303000853030008530300085303000887
:100200005303000853030008530300085303000876
:100210005303000853030008530300085303000866
:1002200053030008530300085303000800000000B4
:1002300053030008530300080000000053030008A4
:100240005303000853030008530300085303000836
:100250005303000853030008530300085303000826
:100260005303000853030008530300085303000816
:100270005303000853030008530300080000000064
:100280005303000853030008530300080000000054
:10029000000000005303000800F002F800F03CF8F2
:1002A0000AA090E8000C82448344AAF10107DA45D1
:1002B00001D100F031F8AFF2090EBAE80F0013F0E7
:1002C000010F18BFFB1A43F001031847901F0000ED
:1002D000B01F0000103A24BF78C878C1FAD852077E
:1002E00024BF30C830C144BF04680C6070470000B0
:1002F0000023002400250026103A28BF78C1FBD82F
:10030000520728BF30C148BF0B6070471FB501F0CE
:1003100090FF1FBD10B510BD00F058F81146FFF753
:10032000F5FF01F055FF00F076F803B4FFF7F2FF98
:1003300003BC00F07DF800000948804709480047E9
:10034000FEE7FEE7FEE7FEE7FEE7FEE7FEE7FEE785
:10035000FEE7FEE704480549054A064B70470000E2
:10036000A11F000899020008C0000024C006002454
:10037000C0020024C00200244FF0000200B5134662
:1003800094469646203922BFA0E80C50A0E80C50B5
:10039000B1F12001BFF4F7AF090728BFA0E80C5066
:1003A00048BF0CC05DF804EB890028BF40F8042B5F
:1003B00008BF704748BF20F8022B11F0804F18BFCC
:1003C00000F8012B7047704770477047754600F082
:1003D0002BF8AE4605006946534620F007008546D7
:1003E00018B020B5FFF7B6FFBDE820404FF000067B
:1003F0004FF000074FF000084FF0000BAC46ACE8A0
:10040000C009ACE8C009ACE8C009ACE8C00921F0FB
:1004100007018D46704710B50446AFF300802046B3
:10042000BDE81040FFF781BF00487047100000246E
:1004300001491820ABBEFEE726000200704700000D
:10044000FEE7000000000000704700000000000010
:10045000EFF3108072B600BFFEE70000000000005E
:100460002DE9F04F85B08E4642F20042C5F60202F9
:100470000A2102909042DEF8005008BF0921002DA9
:10048000009100F0DD800298002400F126420098DF
:1004900002F1FF7201274FEAB2230026092B4FF029
:1004A000000838BF1846CDF80CE000900EE000BF01
:1004B000DEF8005008F1010835FA07F006F10206EF
:1004C00007F1010704F1040400F0BA80A7F1010A62
:1004D000012000FA0AF315EA0309E9D0DEF804B0B6
:1004E0000BF003056A1E012A22D802984FEA480140
:1004F000D0F808C00191032101FA06F203992CEA11
:10050000020CD1F80CE00EFA06F1DDF80CE041EA3D
:100510000C01816041686FEA020CCBF30012994331
:100520000346019802FA0AF2114359600CE000BF39
:100530000320032D00FA06F0029B6FEA000C304600
:1005400002D13046032526E0D968DEF8082001EA0A
:100550000C018240022D41EA0201D9601BD1024602
:100560006FF0030000EA5A010F20194404F01C0345
:1005700000FA03F51046D1F820E0039A2EEA0505AB
:10058000DDF80CE012699A40029B2A430A62DEF809
:1005900004B00BF00305196805FA00F001EA0C013C
:1005A0001BF4403F40EA010018603FF481AF44F281
:1005B000F44140F20845C5F60201C5F600050F23D7
:1005C000086840F002000860086800F0020004902B
:1005D0002AF00300049904F00C0142598B409A431D
:1005E000009B03FA01F1114341514FF0B0452868D7
:1005F000DEF8041040EA0902CB0258BF20EA0902E3
:100600008B022A6040F20405C5F60005286840EA1E
:10061000090258BF20EA09028B032A60D5F880003E
:1006200040EA090258BF20EA0902C903C5F8802040
:10063000E86F40EA090258BF20EA0902EA6737E793
:1006400005B0BDE8F08F000041F20000C5F60040A3
:100650000068000C7047000040F2BC00C2F200408D
:10066000006870470000000040F2000040F2BC014A
:10067000C2F20040C2F2004100780A6810440860EB
:10068000704700000000000080B5032000F0E8F88B
:1006900000F052FA44F2184142F24C23C5F602012E
:1006A000C0F600030A68096801F00F01C2F30322D3
:1006B000595C9A5C01F01F0102F01F02D04040F229
:1006C0000C02C2F2004220FA01F1116040F208016E
:1006D000C2F2004108600F2000F00AF800281CBF99
:1006E000012080BD00F07CF8002080BD00000000EB
:1006F00070B540F20006C2F200463178E1B104461E
:1007000040F20800C2F200404FF47A72B2FBF1F1FD
:100710000068B0FBF1F000F02BFD0F2C4FF001054D
:1007200008D838B94FF0FF3000222146002500F0EC
:1007300067F87460284670BD012070BD000000009D
:10074000B0B502784EF69C5CCEF2000C43784CF8C3
:10075000043CFAB14368CCF80030037BC17A90F8CE
:100760000AE0457B447A42EA0372837B42EA0161F4
:10077000C27B41EACE41007A41EA854141EA4341E8
:1007800041EA024141EA042141EA4000CCF8040078
:10079000B0BD00BF0020CCF80000CCF80400B0BD14
:1007A0004EF62450CEF20000BFF35F8F016821F4B3
:1007B00080310160002101677047000000000000E7
:1007C0004EF6245140F00100CEF20001086708689F
:1007D00040F480300860BFF34F8FBFF36F8F7047D6
:1007E00081B044F2F440C5F60200016841F0020114
:1007F0000160006800F002000090009801B07047AE
:10080000B0B54EF60C5C00F00F05CEF2000C043DC6
:100810006544DCF800304FF0FF3CC3F3022E8EF04D
:100820000703042B28BF0423BEF1030438BF0024B0
:100830000CFA03F3B0F1FF3F21EA030105F10C03C9
:1008400000F160450CFA04F0C8BF05F56443A1400F
:1008500022EA0000084300011870B0BD000000004B
:100860004EF60C514FF6FF03CEF200010A681A4013
:1008700060F30A2242F0806040F0FD70086070472B
:10088000B0B544F60C05C5F6020529684907296884
:1008900006D401F00701081A18BF0120B0BD00BF3F
:1008A00021F0070108432860FFF7D6FE044600BF89
:1008B00055F8080C800407D4FFF7CEFE001BB0F5F6
:1008C0007A7FF5D90120B0BD0020B0BD0000000046
:1008D0002DE9F04381B0002800F02A8142F200089F
:1008E0000446C5F200288946D8F8000000F00F0041
:1008F00088420ED2D8F8000020F00F0040EA09002C
:10090000C8F80000D8F8000000F00F00484540F09B
:100910000F81206844F218474107C5F602070AD53F
:1009200021693A6802F07002914204D93A6822F0D3
:1009300070021143396001070AD561697A6802F0D3
:100940007002914204D97A6822F0700211437960F2
:10095000C1060AD5A1697A6802F4E062914204D91D
:100960007A6822F4E0621143796081060AD5E16970
:10097000BA6802F07002914204D9BA6822F070029B
:100980001143B96010F002010AD0E2683B6803F03D
:100990000F039A4204D93B6823F00F031A433A60CD
:1009A000C20746D0386820F47061D4E901020128FA
:1009B00041EA0201396009D003280DD0022811D183
:1009C00057F8181C890340F1B38010E057F8181C41
:1009D000C90540F1AD800AE057F8181C890140F1C3
:1009E000A78004E057F8181C490740F1A18057F888
:1009F000081C21F00701084347F8080CFFF72CFEFC
:100A0000064641F2883500BF57F8080C616800F0CF
:100A10003800B0EBC10F09D0FFF71EFE801BA842C3
:100A2000F2D9032001B0BDE8F08300BF206800F0D8
:100A3000020151B1E1683A6802F00F02914204D21A
:100A40003A6822F00F0211433960D8F8001001F023
:100A50000F0149450DD9D8F8001021F00F0141EAE6
:100A60000901C8F80010D8F8001001F00F0149453D
:100A70005ED141070AD521693A6802F070029142BD
:100A800004D23A6822F070021143396001070AD596
:100A900061697A6802F07002914204D27A6822F0A9
:100AA000700211437960C1060AD5A1697A6802F41F
:100AB000E062914204D27A6822F4E06211437960E4
:100AC00080060AD5E069B96801F07001884204D255
:100AD000B96821F070010843B86000F02DF839685A
:100AE00042F24C233A68C0F60003C1F3032102F03E
:100AF0000F02595C9A5C01F01F0120FA01F102F02B
:100B00001F0040F20C0221FA00F0C2F20042106015
:100B100040F2040040F20802C2F20040C2F2004279
:100B20000068116001B0BDE8F043FFF7E1BD00BF10
:100B3000012001B0BDE8F08344F20041C5F6020196
:100B40000869C0F3C200032810D002282CD088BB4B
:100B50000868800649F20000C0F2D03058BF7047E4
:100B60000968C1F3C101C840704700BF8A6A886A3A
:100B7000C0F3051CC86ABCF1000F4B6B20D0C3F357
:100B8000CC0300F00100584302F00302022A00EEF9
:100B9000100AB8EE400A15D0C2B90868800619D408
:100BA0009FED281A23E000BF47F64000C0F27D10F9
:100BB000704700BF40F60010C0F23D00704700BF14
:100BC000002070479FED1E1A11E000BF9FED1B1A19
:100BD0000DE000BF086849F20002C0F2D032C0F355
:100BE000C10022FA00F001EE100AB8EE411A086BBB
:100BF0009FED153A6FF35F2002EE100A086BC0F309
:100C00004620B8EE422A013000EE032A00EE10CA58
:100C1000B7EE003AB8EE400A81EE000A32EE031A4F
:100C200020EE010A01EE100AB8EE411A80EE010A28
:100C3000BCEEC00A10EE100A704700BF0024744AD0
:100C400020BCBE4B0024744C0000003900000000A2
:100C5000F0B581B0002800F05B810446007844F2D2
:100C60000046C007C5F6020612D0306900F0380110
:100C7000B06A102905D018292ED100F003000228EF
:100C80002AD13068800303D56068002800F04081D5
:100C90002078800740F1A980306910F03801B06AEF
:100CA0002CD0182908BF5FEA807027D0E06831682F
:100CB00000284FD021F0190108433060FFF7CCFC29
:100CC000054600BF3068400734D4FFF7C5FC401B21
:100CD0000228F7D95BE100BF606800284CD0B0F56E
:100CE000A02F61D0B0F5803F62D0306820F4803012
:100CF0003060306820F480205DE000BF306840073D
:100D0000E06802D5002800F00381316821F0190164
:100D100008433060FFF7A0FC054600BF306840077D
:100D200008D4FFF799FC401B02284FF00300F5D9C7
:100D300019E200BFFFF788FC41F20301884249D85D
:100D400020697168402821F47C314BD141F4003096
:100D50004AE000BF21F001003060FFF77DFC05464E
:100D60003068400741D5FFF777FC401B02284FF061
:100D70000300F5D9F7E100BF306820F4803030601F
:100D8000306820F480203060FFF766FC054600BF25
:100D9000306880037FF57CAFFFF75EFC401B642862
:100DA0004FF00300F4D9DEE1306840F48020306079
:100DB000306840F480303060FFF74EFC054600BFDD
:100DC000306880033FF564AFFFF746FC401B6428A2
:100DD000F6D9DCE07068216920F0FE4040EA01604D
:100DE00002E000BF41EA003070602078C00654D5B0
:100DF000306900F03801B06A082905D0182919D1E6
:100E000000F00300012815D13068C00503D5E06962
:100E1000802840F07D80FFF717FC41F203018842F3
:100E20001ED8206A7168202821F0F84132D141F0A3
:100E3000804031E0E0690028306819D040F080003F
:100E40003060FFF709FC05463068C005E3D4FFF7C2
:100E500003FC401B02284FF00300F5D983E100BFDB
:100E6000F068216A20F07C5040EA0160F06014E0F4
:100E700020F080003060FFF7EFFB05463068C005CA
:100E80000BD5FFF7E9FB401B02284FF00300F5D913
:100E900069E100BF41EA80607060207800073BD4C0
:100EA000207880064CD4207840075DD4656A65B30D
:100EB000306900F03800182840F0A080012DB16A98
:100EC000306B25D001F00302A36A9A4220D1C1F30E
:100ED0000511E26A91421BD10146226B6FF35F213B
:100EE000013A914214D1C0F34622616B01398A4222
:100EF0000ED1C0F30642A16B01398A4208D1C0F37A
:100F00000660E16B0139884202D1002001B0F0BDDA
:100F1000012001B0F0BD00BF60690028706F39D0BA
:100F200040F001007067FFF797FB0546706F800780
:100F3000B6D4FFF791FB401B0228F7D927E000BF8A
:100F4000A0690028306847D040F480503060FFF737
:100F500083FB054630688004A5D4FFF77DFB401B6A
:100F60000228F7D913E000BFD6F8000440F48070DF
:100F7000C6F80004FFF770FB054600BFD6F8000472
:100F8000C00519D4FFF768FB401B6428F6D903207D
:100F900001B0F0BD20F001007067FFF75DFB054672
:100FA000706F80077FF57CAFFFF756FB401B022870
:100FB0004FF00300F4D9D6E0A068002840D00528FF
:100FC00058D001285AD0306F20F001003067306FC0
:100FD00020F0040055E000BF20F480503060FFF79F
:100FE0003BFB0546306880047FF55DAFFFF734FBBF
:100FF000401B02284FF00300F4D9B4E0306820F021
:1010000080703060FFF728FB022D05460CD100BF31
:101010003068800148D5FFF71FFB401B02284FF0C6
:101020000300F5D99FE000BF306880017FF56DAF08
:10103000FFF712FB401B02284FF00300F4D992E0A7
:10104000306F20F001003067306F20F0040030670F
:10105000FFF702FB054641F28837306F80077FF5C6
:1010600025AFFFF7F9FA401BB8424FF00300F4D95F
:1010700079E000BF306F40F004003067306F40F01F
:1010800001003067FFF7E8FA054641F2883700BFF4
:10109000306F80073FF50AAFFFF7DEFA401BB8421A
:1010A0004FF00300F4D95EE004F12807B06A40F283
:1010B000F33188438ECF0843591E40EA02104FF4A3
:1010C0007E426FF35F21B06202EB47204FF4FE02D5
:1010D00080B2E36B0844A16B02EB01414FF0FE428A
:1010E00001F4FE0102EB0362084402F0FE410844F1
:1010F0003063F06A4FF6F87120F00100F062706B17
:10110000A26C884340EAC2007063F06A216C20F050
:101110000C000843F062F06A616C20F002000843A2
:10112000F062F06A40F48030F062F06A40F400301F
:10113000F062F06A40F48020F062F06A40F0010052
:10114000F062306840F080703060FFF785FA044646
:10115000306880013FF5D9AEFFF77EFA001B022808
:101160004FF00300F4D901B0F0BD00000000000012
:10117000411E0020B0EB116F02D00120704700BF6C
:101180004EF21002F023CEF2000251604EF62351CF
:10119000CEF200010B7007219060116070470000D3
:1011A000B0B590F83C20012A02D10220B0BD00BFAA
:1011B000CB6848F2FF7ED1E901C223F47C5322F4CC
:1011C0007052CFF6F07E1A430CEA0E03D1F800C03D
:1011D00042EA030E2CF477230A6943EA0E0322F451
:1011E0007622D0F800E01A434B691A438B6A22F446
:1011F000742C23F470238A6940F200454EF4806415
:10120000C4F2010543EA0C03AC4243EA02430FD1A6
:10121000002523F07C724B6ACFF6F045CC6905EAD5
:1012200003531A4324F00073096A1A4342EA010384
:101230000021CEF8443080F83C100846B0BD0000D4
:10124000B0B590F83C20012A4FF002025BD080F844
:101250003D2040F2004C0268C4F2010C42F480636D
:1012600063455368D2F808E002BF23F470034C686A
:10127000234341F2FF740D68C4F2000423F07003AD
:10128000A24243EA050353600CDC40F2FF73C4F250
:1012900000039A4216DCB2F1804F29D040F200439D
:1012A00018E000BF40F2FF33C4F201039A4217DC9A
:1012B00041F60003C4F200039A4219D00023C4F29D
:1012C000010309E040F60003C4F200039A420FD084
:1012D00040F60043C4F200039A4209D00DE000BF7B
:1012E00044F20003C4F201039A4201D0624504D1E2
:1012F0002EF080038968194391600022012180F853
:101300003D1080F83C201046B0BD000000000000F9
:1013100060B310B5044690F83D0028B9002084F869
:101320003C00204600F024F8022084F83D002068AC
:10133000211D00F09DFE012084F8480084F83E0045
:1013400084F83F0084F8400084F8410084F84200AB
:1013500084F8430084F8440084F8450084F846008B
:1013600084F8470084F83D00002010BD012070473C
:1013700081B000210068C4F20101884202D001B0AE
:10138000704700BF44F2F040C5F60200016841F02A
:1013900001010160006800F001000090009801B0B8
:1013A000704700000000000080B590F83C20012A42
:1013B0004FF0020200F0A78080F83D208822D0F88C
:1013C00000C0CFF6CE72DCF808301A40CCF8082006
:1013D0000B686F2B0EDDB3F1101F37DAB3F5005F2A
:1013E00046DA702B00F09280B3F5805F00F08480C5
:1013F000D6E000BF2F2B33DD4F2B3FDC302B6FD0DF
:10140000402B40F0CD80D1F804E0C968DCF82030F2
:10141000DCF8202022F00102CCF82020DCF8182093
:1014200022F0F00242EA011123F00A02CCF818106F
:1014300042EA0E01CCF820104FF68872DCF8081052
:10144000CFF6CF721140473154E000BF2F21C0F2D8
:1014500010018B423ADCB3F1101F41D020213BE058
:10146000002B18BF102B3BD0202B39D098E000BFA9
:1014700060D0B3F5801F33D092E000BF502B6DD009
:10148000602B40F08D80D1F804E0C968DCF8203092
:1014900023F01003CCF82030DCF81830DCF82020E2
:1014A00023F4704322F0A00243EA0131CCF8181073
:1014B00042EA0E11CCF820104FF68872DCF80810C2
:1014C000CFF6CF721140673114E000BF3021C0F277
:1014D00010018B4204D04021C0F210018B425FD139
:1014E0004FF68872DCF80810CFF6CF72114019431E
:1014F00041F00701CCF808100022012180F83D10CE
:10150000002180F83C10104680BD00BFD1E901E306
:10151000C968DCF8082043EA0E0322F47F4243EA5C
:1015200001211143CCF80810DCF8081041F07701D4
:10153000E0E700BFD1E901E3C968DCF8082043EA2D
:101540000E0322F47F4243EA01211143CCF8081034
:10155000DCF8081041F48041CCE700BFD1F804E08A
:10156000C968DCF82030DCF8202022F00102CCF839
:101570002020DCF8182022F0F00242EA011123F0CA
:101580000A02CCF8181042EA0E01CCF820104FF6EF
:101590008872DCF80810CFF6CF7211405731A9E7F6
:1015A0000122AAE7000000002DE9F04190F83C304C
:1015B000012B03D10220BDE8F08100BF4FEAB20247
:1015C000052A31D8DFE812F0060038007600B400B2
:1015D000DA000001036843F6FF76C4F201061A6AD6
:1015E000B34222F001021A621A461C6AD3F804E0E0
:1015F00024F0020452F818CF8D6844EA0504D1F8AB
:10160000008040F3078144F20007C4F20107BB42A7
:1016100000F00B8144F60007C4F20107BB4200F062
:10162000048144F20047FCE00121002280F83C20C4
:101630000846BDE8F08100BF036840F2004E43F465
:101640008067C4F2010E1A6A774522F010021A620E
:101650001A461C6A5D6824F0200452F818CF8E6880
:1016600044EA061407D1CE686FF0400724F0C004A6
:1016700007EA0616344343F6FF76D1F80080C4F239
:101680000106B34240F3EC8044F20007C4F20107C4
:10169000BB4200F0EC8044F60007C4F20107BB42F5
:1016A00000F0E58044F20047C4F20107BB4200F0BD
:1016B000DE80E4E0036840F2004E43F48067C4F249
:1016C000010E1A6A774522F480721A621A461C6A61
:1016D0005D6824F4007452F81CCF8E6844EA062436
:1016E00007D1CE6840F2FF47360224F44064BE437F
:1016F000344343F6FF76D1F80080C4F20106B342CA
:1017000040F3D48044F20007C4F20107BB4200F06A
:10171000D48044F60007C4F20107BB4200F0CD803C
:1017200044F20047C4F20107BB4200F0C680CCE09F
:10173000036843F6FF77C4F201071A6ABB4222F43A
:1017400080521A621A46D3F820C05C6852F81C6FA7
:101750000D68D1F808E040F3CF8044F20007C4F2EE
:101760000107BB4200F0D38044F60007C4F2010732
:10177000BB4200F0CC8044F20047C4E0036843F66B
:10178000FF77C4F201071A6ABB4222F480321A6260
:101790001A46D3F820C05C6852F8546F0D68D1F82F
:1017A00008E040F3D38044F20007C4F20107BB42D3
:1017B00000F0D78044F60007C4F20107BB4200F0F6
:1017C000D08044F20047C8E0036843F6FF77C4F2D4
:1017D00001071A6ABB4222F480121A621A46D3F831
:1017E00020C05C6852F8546F0D68D1F808E040F3EF
:1017F000D98044F20007C4F20107BB4200F0DD804B
:1018000044F60007C4F20107BB4200F0D68044F260
:101810000047CEE00027C4F20107BB4205D040F2EA
:101820000047C4F20107BB4205D1CF6824F00C0485
:1018300027F004073C43B34240F3E28044F2000641
:10184000C4F20106B34200F0E68044F60006C4F29A
:101850000106B34200F0DF8044F20046D7E000BF4B
:101860000027C4F20107BB4201D0734507D14F697D
:1018700025F440658E6945EA870747EA860548F6FC
:10188000FF475D60CFF6FF6707EA0C0747EA0827C6
:101890009F614F6809699F631C629F6947F40067F5
:1018A0009F619F6927F480679F61A6E00027C4F2CB
:1018B0000107BB4201D0734507D14F6925F440555C
:1018C0008E6945EA071747EA06154FF68C775D6083
:1018D000CFF6FE7707EA0C0747EA0807DF614F6893
:1018E0000969DF631C62DF6947F00807DF61DF69B0
:1018F00027F00407DF61ACE00027C4F20107BB4218
:1019000005D040F20047C4F20107BB4204D14F6941
:1019100024F4804444EA871448F6FF475C60CFF61D
:10192000FF673E402CF4005746EA0524DC614E6810
:1019300009691E6447EA0E371F62DF6947F40067D2
:10194000DF61DF6927F48067DF6156E00027C4F2BA
:101950000107BB4205D040F20047C4F20107BB4279
:1019600004D14F6924F4803444EA07244FF68C777D
:101970005C60CFF6FE7703373E402CF4003746EA32
:1019800005045C654E6809699E6547EA0E471F625B
:101990005F6D47F008075F655F6D27F004075F65BF
:1019A00057E000BF0027C4F20107BB4205D040F258
:1019B0000047C4F20107BB4204D14F6924F48024DC
:1019C00044EA872448F6FF475C60CFF6FF6707F5D7
:1019D00040773E402CF4001746EA05245C654E68CB
:1019E0000969DE6547EA0E571F625F6D47F40067BD
:1019F0005F655F6D27F480675F65090229E000BFBE
:101A00000026C4F20106B34205D040F20046C4F2FB
:101A10000106B34206D12EF44077D1E9056537437C
:101A200047EA050E4FF68C75C3F804E0CFF6FE7555
:101A30000CEA050747EA08079F614F6809695F6379
:101A40001C629F6947F008079F619F6927F00407A0
:101A50009F611368194311600021002280F83C2027
:101A60000846BDE8F081000060B310B5044690F868
:101A70003D0028B9002084F83C00204600F024F8FE
:101A8000022084F83D002068211D00F0F1FA0120B9
:101A900084F8480084F83E0084F83F0084F8400051
:101AA00084F8410084F8420084F8430084F844003C
:101AB00084F8450084F8460084F8470084F83D0027
:101AC000002010BD0120704770470000000000009A
:101AD00071B10A1F4FEAB202032A11D8DFE802F0FF
:101AE00002161E2400F13F031B78012B13D120E0C6
:101AF00090F83E20012A0ED1022280F83E2032E0EA
:101B000000F143031B78012B05D112E000F14003E3
:101B10001B78012B0DD00120704700BF00F141035D
:101B20001B78012B05D0F6E700F142031B78012B4F
:101B3000F1D1032A08D8DFE802F0030B0F1300BF2E
:101B4000022280F83F200EE0022280F843200AE0C3
:101B5000022280F8402006E0022280F8412002E0C4
:101B6000022280F84220026801F01F00012101FAE0
:101B700000F0116A814311624FF6FF71C4F2000157
:101B80008A42116A40EA0100106219DC40F2FF70DB
:101B9000C4F2000082422FDD40F60000C4F20000D3
:101BA000824243D040F60040C4F2000082423DD061
:101BB00041F60000C4F20000824237D048E000BF86
:101BC00043F6FF700021C4F20100C4F20101824219
:101BD00044F20000C4F2010018DD82421ED044F637
:101BE0000003C4F201039A4218D044F20043C4F245
:101BF00001039A4212D02BE0B2F1804F16D040F28E
:101C00000040C4F20000824210D021E08A4205D098
:101C100040F20043C4F201039A4219D1536C8A4244
:101C200043F40041516418BF82420BD107219068F0
:101C3000C0F2010101400020062918BFB1F5803F24
:101C400006D1704740F20040C4F201008242EDD05C
:101C5000106840F001001060002070470000000094
:101C6000FEE700000000000082B044F2E040C5F64C
:101C70000200016841F080010160016801F080010B
:101C800001910199016841F001010160006800F0D3
:101C900001000090009802B07047000000000000B2
:101CA000B0B59EB0002568462C2100241894C4F2DB
:101CB0000105CDE916441494CDE91244CDE9104450
:101CC000CDE90E44CDE90C440B94FEF755FB40F2F0
:101CD000700045F6BF51C2F20040C0E90054846074
:101CE000C0E90314C0E90544FFF712FB08B1FEF791
:101CF000AFFB4FF48050159040F2700015A9C2F26E
:101D00000040FFF751FB08B1FEF7A2FB40F2700064
:101D1000C2F20040FFF7A8FE08B1FEF799FB40F2BF
:101D2000700012A9C2F200400024CDE912441494BC
:101D3000FFF786FA08B1FEF78BFB60200B9040F6A8
:101D40005F100BA9CDE90C0440F270000022C2F232
:101D50000040CDE90E44CDE91044FFF725FC08B161
:101D6000FEF776FB41F2BF200C9040F270000BA909
:101D7000C2F200400422FFF717FC08B1FEF768FB2F
:101D800042F27F500C9040F270000BA9C2F200406A
:101D90000822FFF709FC08B1FEF75AFB44F6FF20C2
:101DA0000C9040F270000BA9C2F200400C22FFF729
:101DB000FBFB08B1FEF74CFB40F270040020C2F2BE
:101DC00000440490CDE90200CDE900004FF4005139
:101DD0000790CDE905104FF000710A90CDE9081089
:101DE00069462046FFF7DCF908B1FEF731FB2068B1
:101DF000A84201D01EB0B0BD44F2E040C5F60200DA
:101E0000016841F001010160006819A900F00100BA
:101E1000199019984FF47060199002201A900020C0
:101E2000CDE91B0001201D900020C5F60200FEF741
:101E300017FB1EB0B0BD0000FEE700000000000070
:101E4000FEE70000000000007047000000000000F6
:101E50007047000000000000FEF706BC0000000014
:101E600070B59CB044F6180440F22C4509A84C21EA
:101E7000C5F60204C5F60005FEF77EFA022000262C
:101E8000CDE90766CDE90566CDE90366CDE90166D2
:101E9000FEF7F6FC0096286820F00100286028680C
:101EA00000F001000090206840F44040206020686D
:101EB00000F44040009000982068800409D4206815
:101EC00080045CBF20685FEA804002D42068800400
:101ED000F2D54FF6DC40CFF6FF70215841F00201F9
:101EE0002150205800F0020000900098002000903F
:101EF000206840F440402060206800F4404000909A
:101F0000286840F001002860286800F00100009077
:101F100000982068800409D4206880045CBF206891
:101F20005FEA804002D420688004F2D50120099045
:101F30004FF480300A9002200521CDE9120014915F
:101F4000C021CDE91510CDE9170009A8082419947E
:101F50000025CDE91A55FEF77BFE28B1EFF310807E
:101F600072B600BFFEE700BF3F20019003204FF490
:101F70008061CDE9020540200494CDE90500CDE95A
:101F8000071001A80421FEF7A3FC28B1EFF310808D
:101F900072B600BFFEE700BF1CB070BD00000000BD
:101FA0004EF6885042F2000CCEF20000C5F2002C32
:101FB000016841F470010160DCF8000000F00F00DE
:101FC000062806D8DCF80000072161F30300CCF8EE
:101FD000000044F200404EF67F52C5F60200CEF6F5
:101FE000F622016841F001010160002101610368EE
:101FF0001A400260DCF80020120706D5DCF8002049
:10200000072363F30302CCF8002040F20022816131
:10201000C161C0F20222016282620022C0F2FF129C
:10202000C26240F28022C0F2011202634163826305
:10203000C16302644164026822F480220260016686
:1020400041F20000C5F600400068B1EB507F05D1B9
:1020500048F208100121C5F20010016044F20000AE
:1020600043F2D201C5F20020016070470000000079
:1020700010B540F6FF32C4F20002904202680FDC55
:10208000B0F1804F1DD040F20043C4F200039842EB
:1020900017D040F60003C4F20003984211D014E0B8
:1020A00040F60043C4F2000398420AD040F20043D5
:1020B000C4F20103984204D00023C4F20103984201
:1020C00003D122F070024B681A434FF6FF7343F6B8
:1020D000FF7CC4F20003C4F2010C984214DD604599
:1020E00022DD44F20003C4F20103984234D044F6E6
:1020F0000003C4F2010398422ED044F20043C4F21C
:102100000103984228D02BE040F2FF73C4F2000391
:10211000984215DCB0F1804F1ED040F20043C4F26B
:102120000003984218D01BE00023C4F20103984238
:1021300012D040F20043C4F2010398420CD00FE0E9
:1021400040F60003C4F20003984205D040F6004375
:10215000C4F20003984203D122F44072CB681A43C0
:1021600022F080024C696045D1F800E08B6842EAB9
:1021700004020260C362C0F828E015DD44F20002E8
:10218000C4F2010290421AD044F60002C4F20102E5
:10219000904214D044F20042C4F2010290420ED0A8
:1021A0000121416110BD00BF0022C4F20102904232
:1021B00005D040F20042C4F201029042F0D1096918
:1021C00001630121416110BDFEE700000000000035
:1021D00084B001200090FEF7E3FA0020019048F25D
:1021E0001F70029040F2011003906846FEF7A8FAB3
:1021F0000420FEF7E5FAFEF747FAFFF731FEFFF796
:1022000033FDFFF74DFD40F270040021C2F200449F
:102210002046FFF75DFC04212046FFF759FC08210A
:102220002046FFF755FC0C212046FFF751FC00BF6C
:10223000FEE7F1EE100A4FF6FF71C0F2C03120EA5E
:10224000010040F04070E1EE100A7047000000000D
:1022500001020304010203040607080980220008A2
:102260000000002410000000D402000890220008A2
:1022700010000024B0060000F0020008000000007A
:1022800001000000100000000090D0030090D00377
:040000050800029954
:00000001FF
