:020000040800F2
:100000000807002439030008672A0008CF290008E0
:10001000652A00082F050008C3340008000000000E
:10002000000000000000000000000000AD2C0008EF
:100030003105000800000000692A0008AF2C000804
:100040005303000853030008530300085303000838
:100050005303000853030008530300085303000828
:100060005303000853030008530300085303000818
:100070005303000853030008530300085303000808
:1000800053030008530300085303000853030008F8
:1000900053030008530300085303000853030008E8
:1000A00053030008530300085303000853030008D8
:1000B00053030008530300085303000853030008C8
:1000C00053030008530300085303000853030008B8
:1000D00053030008530300085303000853030008A8
:1000E00053030008530300080000000053030008F6
:1000F0005303000853030008530300085303000888
:100100005303000853030008530300085303000877
:100110006D2E000853030008530300085303000822
:100120005303000853030008530300085303000857
:100130005303000853030008530300085303000847
:1001400000000000000000000000000000000000AF
:100150005303000853030008530300085303000827
:100160005303000853030008530300085303000817
:100170005303000853030008530300085303000807
:1001800053030008530300085303000853030008F7
:1001900053030008530300085303000853030008E7
:1001A00053030008530300085303000853030008D7
:1001B00053030008530300085303000853030008C7
:1001C00053030008530300085303000853030008B7
:1001D00053030008530300085303000853030008A7
:1001E0005303000853030008530300085303000897
:1001F0005303000853030008530300085303000887
:100200005303000853030008530300085303000876
:100210005303000853030008530300085303000866
:1002200053030008530300085303000800000000B4
:1002300053030008530300080000000053030008A4
:100240005303000853030008530300085303000836
:100250005303000853030008530300085303000826
:100260005303000853030008530300085303000816
:100270005303000853030008530300080000000064
:100280005303000853030008530300080000000054
:10029000000000005303000800F002F800F03CF8F2
:1002A0000AA090E8000C82448344AAF10107DA45D1
:1002B00001D100F031F8AFF2090EBAE80F0013F0E7
:1002C000010F18BFFB1A43F001031847D03200009A
:1002D000F0320000103A24BF78C878C1FAD852072B
:1002E00024BF30C830C144BF04680C6070470000B0
:1002F0000023002400250026103A28BF78C1FBD82F
:10030000520728BF30C148BF0B6070471FB503F0CC
:1003100023F91FBD10B510BD00F0CFF81146FFF74F
:10032000F5FF03F0E1F800F0EDF803B4FFF7F2FF9A
:1003300003BC00F0F5F80000094880470948004771
:10034000FEE7FEE7FEE7FEE7FEE7FEE7FEE7FEE785
:10035000FEE7FEE704480549054A064B70470000E2
:10036000912D0008990200080801002408070024C4
:10037000080300240803002453EA020C00F06980FB
:100380002DE9F04B4FF00006002B1FBFB3FA83F5A9
:1003900003FA05F424FA05F65E4012BF1643B2FADA
:1003A00082F502FA05F4C5F120051EBF22FA05FC0C
:1003B00044EA0C04203556EA044C4FEA144418BFB2
:1003C000641C4FF000084FF00009904271EB030CE1
:1003D00039D3002919BFB1FA81F701FA07F6B0FA4B
:1003E00080F700FA07F6C7F120071EBF20FA07FCC6
:1003F00046EA0C062037B6FBF4FCA7EB0507103FD6
:1004000007F01F0BCBF120060CFA0BFB2CFA06F6BB
:1004100044BFB3460026202FA4BF5E464FF0000B1A
:100420005BEA060C08BF4FF0010B19EB0B09ABFBA5
:10043000027C48EB0608C01B06FB02CC0BFB03CC7E
:1004400071EB0C01C1E70B46024641464846BDE848
:10045000F08B13B54FF000004FF00001AFF30080B8
:10046000BDE81C4070474FF0000200B513469446AB
:100470009646203922BFA0E80C50A0E80C50B1F1FC
:100480002001BFF4F7AF090728BFA0E80C5048BF10
:100490000CC05DF804EB890028BF40F8042B08BFAE
:1004A000704748BF20F8022B11F0804F18BF00F8AA
:1004B000012B7047704770477047754600F02CF865
:1004C000AE4605006946534620F00700854618B041
:1004D00020B5FFF73FFFBDE820404FF000064FF08A
:1004E00000074FF000084FF0000B21F00701AC4669
:1004F000ACE8C009ACE8C009ACE8C009ACE8C00988
:100500008D46704710B50446AFF300802046BDE825
:100510001040FFF70ABF000000487047A400002405
:1005200001491820ABBEFEE7260002007047FEE737
:10053000704772B6FEE700002DE9F84F044600F060
:1005400009FC00903CB194F83500022806D08021C7
:1005500061650020E4E00120BDE8F88FC74DC74E7B
:10056000C649183520683036DFF81483DFF8149355
:100570008842DFF814A3DFF814B32ED0A8422CD0A1
:10058000B0422AD0404528D0484526D0504524D0F6
:10059000584522D0BD4A183290421ED0BC4A9042E3
:1005A0001BD0BB4A1832904217D0B94A3032904221
:1005B00013D0B74A483290420FD0B54A60329042C9
:1005C0000BD0B34A7832904207D0B14A9032904271
:1005D00003D0AF4AA832904209D1026822F01E022D
:1005E00002602068426922F08002426103E00268F2
:1005F00022F00E02026027688F4238464DD0A84292
:100600004BD0B04249D0404547D0484545D05045F1
:1006100043D0584541D09D4A183290423DD09C4A23
:1006200090423AD09A4A1832904236D0984A3032A4
:10063000904232D0964A483290422ED0944A60324C
:1006400090422AD0924A7832904226D0904A9032F4
:10065000904222D08E4AA83290421ED08D4A9042BB
:100660001BD08C4A1432904217D08A4A28329042CA
:1006700013D0884A3C3290420FD0864A5032904282
:100680000BD0844A6432904207D0824A783290423A
:1006900003D0804A8C32974204D1206E026822F443
:1006A0008072026075492068884228D0A84226D00E
:1006B000B04224D0404522D0484520D050451ED0DD
:1006C00058451CD071491831884218D07049884269
:1006D00015D06F491831884211D06D4930318842A8
:1006E0000DD06B494831884209D069496031884250
:1006F00005D067497831884201D065499031016859
:1007000021F0010101600EE000F024FB0099401A85
:10071000052808D9202262650321002084F83510BD
:1007200084F8340017E73868C007EDD1534A012137
:10073000206890422ED0A8422CD0B0422AD040450A
:1007400028D0484526D0504524D0584522D04F4B7C
:10075000183398421ED04E4B98421BD04C4B183346
:10076000984217D04A4B3033984213D0484B483305
:1007700098420FD0464B603398420BD0444B7833AD
:10078000984207D0424B9033984203D0404BA83355
:10079000984208D194F85C703F23A06D07F01F07C2
:1007A000BB40836007E094F85C30A06D03F01F034A
:1007B00001FA03F34360206890424DD0A8424BD029
:1007C000B04249D0404547D0484545D0504543D038
:1007D000584541D02D4A183290423DD02C4A904283
:1007E0003AD02B4A1832904236D0294A30329042C1
:1007F00032D0274A483290422ED0254A6032904269
:100800002AD0234A7832904226D0214A9032904210
:1008100022D01F4AA83290421ED01E4A90421BD0BE
:100820001C4A1432904217D01A4A2832904213D0F0
:10083000184A3C3290420FD0164A503290420BD0A8
:10084000144A6432904207D0124A7832904203D060
:10085000104A8C3290420BD1D4E919024260E06E0A
:1008600030B1026822F480720260D4E91C02426056
:10087000002084F8351084F834006DE61000024042
:10088000580002407000024088000240A000024070
:1008900010040240085402582DE9F05F28B190F886
:1008A0003510022904D0802141650120BDE8F09F68
:1008B000904C904B0168183C18338E4ADFF83C92FC
:1008C000A1428D4CDFF838E28E4FDFF83CB2DFF802
:1008D0003CA28F4D8F4E31D091422FD099422DD0D6
:1008E000A1422BD0494529D0714527D0B94225D006
:1008F000DFF810C20CF1180C61451FD0DFF808C2F8
:10090000ACF1600C614519D0DFF8FCC1ACF1480CCA
:10091000614513D0DFF8F0C1ACF1300C61450DD06A
:10092000DFF8E4C1ACF1180C614507D0594505D09A
:10093000514503D0A94201D0B1422CD1DFF8B4C156
:100940004FF0040880F83580ACF1180C61451DD0DB
:1009500091421BD0994219D0A14217D0494515D0D8
:10096000714513D0B94211D06648183081420DD07C
:1009700065486038814209D063484838814205D0D3
:1009800061483038814201D05F481838086820F04B
:1009900001000860ABE0D1F800C02CF00E08DFF8D1
:1009A00054C1C1F80080ACF1180C0168614527D032
:1009B000914225D0994223D0A14221D049451FD050
:1009C00071451DD0B9421BD0DFF838C10CF1180CAD
:1009D000614515D0DFF830C1ACF1600C61450FD036
:1009E000DFF824C1ACF1480C614509D0DFF818C12B
:1009F000ACF1300C614503D0DFF80CC1ACF1180C40
:100A0000D1F800C02CF0010CC1F800C0DFF8E48080
:100A10004FF0010C0168A8F11808414546D09142F9
:100A200044D0994242D0A14240D049453ED0714580
:100A30003CD0B9423AD0334A1832914236D0324A89
:100A4000603A914232D0304A483A91422ED02E4AF2
:100A5000303A91422AD02C4A183A914226D0594530
:100A600024D0514522D0A94220D0B1421ED02A4ADA
:100A700091421BD0284A1432914217D0264A28327C
:100A8000914213D0244A3C3291420FD0224A503234
:100A900091420BD0204A6432914207D01E4A7832EC
:100AA000914203D01C4A8C32914218D1016E0A68DF
:100AB00022F480720A6090F85C20816D02F01F02BF
:100AC0000CFA02F24A60D0E919124A60C16E31B1E3
:100AD0000A6822F480720A60D0E91C124A6000227F
:100AE000016D80F835C080F8342001B188470020BE
:100AF000DCE600002800024058000240700002407E
:100B000088000240A00002407004024088040240B5
:100B1000A0040240B8040240085402582DE9F84FDE
:100B200003247D4D00234FF001094FF0B04B4FF0EF
:100B30000F0AE9E009FA03F73A4076D00E7906F099
:100B40000306012E01D0022E18D1D0F808C04FEABA
:100B5000430ECE6804FA0EF82CEA080C06FA0EF6DC
:100B600046EA0C068660D0F804C00E792CEA070C21
:100B7000C6F300169E4046EA0C0646600E79F64320
:100B8000B6070BD0C6684FEA43088F6804FA08FC22
:100B900026EA0C0607FA08F73743C7600E7906F015
:100BA0000306022E12D1DE080F694FEA437C00EBE8
:100BB0008606B646366A4FEADC6C0AFA0CF807FA83
:100BC0000CF726EA08063743CEF820700F7906683E
:100BD0004FEA430807F0030704FA08FC07FA08F78E
:100BE00026EA0C06374307604E6816F4403F1CD0D7
:100BF0004A4E376847F00207376036689F0706F0AD
:100C00000206009623F0030606F1B046B6463F0FF3
:100C1000D6F80864DFF808810AFA07FC404526EA9E
:100C20000C0603D14FF0000C41E06CE0DFF8F4C09B
:100C3000604502D14FF0010C39E0DFF8ECC06045AF
:100C400002D14FF0020C32E0DFF8E0C0604502D183
:100C50004FF0030C2BE0DFF8D8C0604502D14FF015
:100C6000040C24E0DFF8CCC0604502D14FF0050C45
:100C70001DE0DFF8C4C0604502D14FF0060C16E05D
:100C8000DFF8B8C0604502D14FF0070C0FE0DFF885
:100C9000B0C0604502D14FF0080C08E0DFF8A4C0F6
:100CA000604502D14FF0090C01E04FF00A0C0CFA3C
:100CB00007FC4CEA060CCEF808C44F68DBF800606D
:100CC000FF0226EA020600D516435F46CBF8006015
:100CD000D1F804C0DBF804605FEA8C2C26EA020637
:100CE00000D516437E606E684F6826EA0206BF0391
:100CF00000D516436E602E684F6826EA0206FF0391
:100D000000D516432E605B1C0A6832FA03F67FF4A6
:100D100011AFBDE8F88F000080000058F44402587D
:100D2000000002580004025800080258000C025843
:100D3000001002580014025800180258001C0258F3
:100D4000002002580024025801480068000C704737
:100D50000010005C0148806870470000000000241B
:100D600002488168027811448160704700000024C5
:100D7000032010B500F0D4F801F042F80F4A1049F2
:100D800014681368C4F3032203F00F038A5CC95C80
:100D900002F01F0201F01F01D0400A4A20FA01F1BF
:100DA0001160094908600F2000F010F808B1012017
:100DB00010BD00F079F8002010BD00001844025862
:100DC0008A350008100000240C00002470B50D4D79
:100DD00004462878A0B14FF47A71B1FBF0F00A49CB
:100DE0000968B1FBF0F001F03FFB48B9102C07D2C5
:100DF00000222146501E00F073F800206C6070BD88
:100E0000012070BD000000240C000024F0B5154C3A
:100E10004378211D0A1D23600378F3B143680B60FA
:100E2000057BC67A817A437B2D07847B45EA06657C
:100E3000C77B90F809C0067A90F800E045EAC14007
:100E400040EA834040EA444040EA074040EA0C2040
:100E500040EA460040EA0E0001E000200860106011
:100E6000F0BD000098ED00E0BFF35F8F0448002163
:100E70000368034A23F480330360703211607047C3
:100E800024ED00E0074A40F001000649703210608E
:100E9000086840F480300860BFF34F8FBFF36F8F56
:100EA0007047000024ED00E0054808B5016841F0F6
:100EB00002010160006800F00200009008BD00001F
:100EC000F4440258002809DB410900F01F028900A0
:100ED000012001F1E0219040C1F8000170470000BD
:100EE0000E4BF0B41B680D46C3F30223C3F1070693
:100EF000042E00D90426191D072901D2002300E081
:100F0000DB1E012404FA06F19C40491E2940641EA0
:100F1000994014402143F0BC02F0D4BA0CED00E03B
:100F2000064900F0070210B54FF6FF040868044BAD
:100F3000204040EA02201843086010BD0CED00E09C
:100F40000000FA05134970B50A68D243520705D567
:100F5000096801F00701814213D118E00A6822F004
:100F6000070202430A60FFF7F5FE0A4D4FF47A7656
:100F70000446083D07E000BFFFF7ECFE001BB0424F
:100F800001D9012070BD2868C0438004F4D400203A
:100F900070BD00000C48025810B500F0EBFE05498A
:100FA0000968054AC1F30211515C01F01F01C840F4
:100FB00010BD0000204402588A350008494930B568
:100FC000484C0B1D0A68143409681D68246802F037
:100FD0000303C5F30012C1F30531C4F3CC040029A7
:100FE00014FB02F200EE102AF8EE400A75D03F4AD8
:100FF0009FED3D1AB7EE000A6BB1DFED3D1A012BF4
:1010000001D0022B64D002EE101A1168F8EE422AC9
:1010100081EEA22A21E0334C283C23689B0612D59E
:10102000344B246801EE901A1168C4F3C104F8EE41
:10103000612AE34001EE903AC1F30801F8EE611A2B
:1010400081EEA22A0BE001EE901ADFED2B2A00BF01
:10105000F8EE611A116882EEA12AC1F3080101EECF
:10106000901A1168F8EE611A40EE811A71EE800A4A
:1010700062EE200AC1F3462101EE101AB8EE411AC1
:1010800031EE001AC0EE811ABCEEE11A80ED001AB2
:101090001168C1F3064101EE101AB8EE411A31EEA3
:1010A000001AC0EE811ABCEEE11A80ED011A116837
:1010B000C1F3066101EE101AB8EE411A31EE000AD2
:1010C00080EE801ABCEEC10A80ED020A30BD04E059
:1010D00001EE901ADFED092ABAE7002101604160B4
:1010E0008160F3E728440258000000393844025870
:1010F0000024744A0090D0030024744C20BCBE4BE2
:10110000494930B5484C0B1D0A681C3409681D68F4
:10111000246802F00303C5F30022C1F30551C4F3B0
:10112000CC04002914FB02F200EE102AF8EE400A6B
:1011300075D03F4A9FED3D1AB7EE000A6BB1DFED67
:101140003D1A012B01D0022B64D002EE101A116857
:10115000F8EE422A81EEA22A21E0334C283C236893
:101160009B0612D5344B246801EE901A1168C4F323
:10117000C104F8EE612AE34001EE903AC1F30801A0
:10118000F8EE611A81EEA22A0BE001EE901ADFED73
:101190002B2A00BFF8EE611A116882EEA12AC1F372
:1011A000080101EE901A1168F8EE611A40EE811AFA
:1011B00071EE800A62EE200AC1F3462101EE101A98
:1011C000B8EE411A31EE001AC0EE811ABCEEE11AF7
:1011D00080ED001A1168C1F3064101EE101AB8EE55
:1011E000411A31EE001AC0EE811ABCEEE11A80ED10
:1011F000011A1168C1F3066101EE101AB8EE411A26
:1012000031EE000A80EE801ABCEEC10A80ED020ABF
:1012100030BD04E001EE901ADFED092ABAE70021A3
:10122000016041608160F3E7284402580000003902
:10123000404402580024744A0090D0030024744CA7
:1012400020BCBE4B2DE9FC5F044650F8241B002552
:1012500000902E460801FE4FDFF8F8831DD5606E22
:1012600050B1B0F5801F0CD0B0F5001F0ED0B0F516
:10127000401F1DD001250FE0386840F40030386071
:1012800016E00221201D01F0F1FB03E0009802218D
:1012900001F07CFC05000BD02E462088C00523D52C
:1012A000606D05281ED2DFE800F00C11161B1B0034
:1012B000626ED8F8001021F440111143C8F80010F4
:1012C000EBE7386840F40030386009E00021201D69
:1012D00001F0CCFB03E00098002101F057FC05462B
:1012E0006DB100E001252E462088800528D5A06D2F
:1012F00080281ED00CDC90B140280ED114E0626D25
:10130000D8F8001021F007011143C8F80010EBE7EE
:10131000C02813D0B0F5807F10D001250FE03868C9
:1013200040F40030386009E00021201D01F09EFBF0
:1013300003E00098002101F029FC054695B12E46F6
:101340002088DFF81093400509F108092CD5D4F85E
:10135000A400B0F5800F20D00DDCA0B1B0F5001FC7
:101360000FD115E0A26DD8F8001021F4E0711143FF
:10137000C8F80010E4E7B0F5C00F13D0B0F5000FC7
:1013800010D001250FE0386840F40030386009E0E3
:101390000021201D01F06AFB03E00098002101F00C
:1013A000F5FB054675B12E46208800052DD5D4F8ED
:1013B000A800B0F1007F21D00EDCA8B1B0F1807F91
:1013C00010D116E0D4F8A420D9F8001021F460015F
:1013D0001143C9F80010E7E7B0F1407F13D0B0F136
:1013E000806F10D001250FE0386840F4003038607D
:1013F00009E00021201D01F039FB03E000980021E5
:1014000001F0C4FB05466DB12E46206880011FD552
:10141000A06CD8B110280FD0202812D0302815D0B9
:10142000012514E0D4F8A820D9F8001021F0E061DB
:101430001143C9F80010E8E7386840F4003038601C
:1014400004E00221201D01F011FB05466DB12E467E
:101450002088C0042BD5E06DB0F5005F20D00DDCF6
:10146000A0B1B0F5805F0FD115E07A48A26C001FE3
:10147000016821F0300111430160E9E7B0F5405FF8
:1014800013D0B0F5804F10D001250FE0386840F43C
:101490000030386009E00021201D01F0E7FA03E088
:1014A0000098002101F072FB054685B12E46208888
:1014B000800429D5206EB0F5403F23D010DC08B35E
:1014C000B0F5803F14D0B0F5003F0FD115E0E26DCC
:1014D000D8F8001021F4E0411143C8F80010E6E705
:1014E000B0F5802F0ED0B0F5A02F0BD001250AE06B
:1014F0000121201D01F0BAFA03E00098012101F05A
:1015000045FB05468DB12E46208840042AD5D4F8E7
:10151000AC00B0F1405F23D010DC08B3B0F1805FC5
:1015200014D0B0F1005F0FD115E0226ED8F8001092
:1015300021F4E0211143C8F80010E5E7B0F1804F35
:101540000ED0B0F1A04F0BD001250AE00121201DE3
:1015500001F08CFA03E00098012101F017FB054629
:101560006DB12E46208800041FD5E06ED8B1B0F1D1
:10157000805F0ED0B0F1005F10D0012514E0D4F8E8
:10158000AC20D9F8001021F0E0411143C9F8001057
:10159000E8E7386840F40030386004E00121201D9D
:1015A00001F064FA05466DB12E462068C0011ED5D3
:1015B000606CD0B101280ED0022811D0032814D0BD
:1015C000012513E0E26ED8F8001021F040511143DC
:1015D000C8F80010E9E7386840F40030386004E0EB
:1015E0000221201D01F042FA054685B12E462068F1
:1015F000DFF85CB04002ABF11C0B57D51648016810
:1016000041F480710160FFF7A5FB82460EE01148AE
:10161000626C001F016821F0030111430160E6E7DD
:10162000FFF798FBA0EB0A0064283DD80A48006841
:10163000C005F5D57DBBDFF81CA0B4F8B0200AF1D9
:10164000200ADAF8001002F4407001F4407105E05D
:101650002C4402585044025800480258814211D08C
:10166000DAF80010DAF8002021F4407142F48032F8
:10167000CAF80020DAF8002022F48032CAF80020EC
:10168000CAF80010D4F8B000B0F5807F21D1FFF780
:1016900061FB019019E008E0FFF75CFB0199411A3A
:1016A00041F28830814210D903252E462078DFF898
:1016B00044A4C0073DD0A06F182838D026DC80B3E2
:1016C000082829D0102825D12CE0DAF8000080075E
:1016D000E2D5D4F8B010C1F30120032858460DD04C
:1016E000016821F47C510160B4F8B020DAF80010F0
:1016F000C2F30B021143CAF80010D7E7FE4A036891
:1017000002EA111223F47C511143ECE720280ED099
:1017100028280CD001250BE00121201D01F0A6F99D
:1017200004E004E00098012101F030FA05465DB1C3
:101730002E46207880071ED5606F062819D2DFE874
:1017400000F0160C11161616A26FDAF8001021F030
:1017500038011143CAF80010EBE70121201D01F008
:1017600085F903E00098012101F010FA054675B1F2
:1017700000E001252E46207840071FD5D4F89000C0
:10178000062819D2DFE800F0160C11161616626F43
:10179000DAF8001021F007011143CAF80010EAE757
:1017A0000121201D01F062F903E00098012101F000
:1017B000EDF905469DB100E001252E462078800612
:1017C0002BD5D4F88C00B0F1405F24D011DC10B3DD
:1017D000B0F1805F15D0B0F1005F10D116E0D4F801
:1017E0009020D9F8001021F007011143C9F800102A
:1017F000E4E7B0F1804F0ED0B0F1A04F0BD001253F
:101800000AE00021201D01F031F903E000980221D7
:1018100001F0BCF905468DB12E46207840062BD547
:10182000D4F89800B0F5406F24D011DC10B3B0F5B7
:10183000806F15D0B0F5006F10D116E0D4F88C2071
:10184000DAF8001021F0E0411143CAF80010E4E793
:10185000B0F5805F0ED0B0F5A05F0BD001250AE097
:101860000021201D01F002F903E00098022101F09F
:101870008DF905468DB12E46207800062BD5D4F87B
:101880009C00B0F5C04F24D011DC10B3B0F5005F60
:1018900015D0B0F5804F10D116E0D4F89820D9F8C3
:1018A000001021F4E0511143C9F80010E4E7B0F54D
:1018B000004F0ED0B0F5204F0BD001250AE00021DB
:1018C000201D01F0D3F803E00098022101F05EF939
:1018D00005464DB12E46207800071ED5D4F880006D
:1018E000B0F5805F0AD00FE0D4F89C20D9F8001042
:1018F00021F460411143C9F80010ECE7009802217F
:1019000001F044F900B10126D4F88020DAF8001083
:1019100021F440511143CAF800102078C00613D5B5
:10192000D4F89400B0F5807F05D10098022101F031
:101930002DF900B10126D4F89420D9F8001021F433
:1019400040711143C9F800102068000316D5D4F87F
:10195000A00038B1B0F5803F09D0B0F5003F0BD002
:1019600001250AE00021201D01F080F803E0009825
:10197000022101F00BF9054685B12E46206840038F
:1019800022D5D4F88400B0F5801F11D0B0F5001F27
:1019900013D0B0F5401F15D0012514E0D4F8A020D5
:1019A000D9F8001021F440311143C9F80010E5E7DF
:1019B000386840F40030386004E00098012101F0FC
:1019C000E5F8054655B12E462068C0031CD5E06CED
:1019D00070B1B0F5803F10D0012514E0D4F8842018
:1019E000DAF8001021F440111143CAF80010EBE7B7
:1019F000386840F40030386004E00221201D01F016
:101A000035F80546CDB12E462068800005D50098F2
:101A1000022101F0BBF800B10126206880031BD52C
:101A2000E06FB8B1B0F5807F10D0B0F5007F11D075
:101A3000B0F5407F0ED001250DE02E48E26C08384D
:101A4000016821F4803111430160DDE7386840F41A
:101A500000303860F5B32E462068C00207D5226FEB
:101A6000D8F8001021F000411143C8F80010206898
:101A7000C00008D5D4F8B420DBF8001021F4804170
:101A80001143CBF800102068800207D5A26ED8F869
:101A9000001021F080711143C8F800102068400048
:101AA0000CD5DBF8001021F40041CBF80010DBF876
:101AB0000010D4F8B8201143CBF80010206800289B
:101AC00007DA0C48226D0838016821F040511143B3
:101AD000016000E014E02068000208D5D4F88820F6
:101AE000DAF8001021F440011143CAF8001086B161
:101AF000012003E054440258CFFFFF00BDE8FC9FE3
:101B0000E26FDAF8001021F440711143CAF80010B6
:101B1000A2E70020EDE700002DE9F05F04000F468A
:101B20007ED0DFF83882D8F8000000F00F00B8420D
:101B30000CD2D8F8001021F00F013943C8F800107A
:101B4000D8F8000000F00F00B84269D12078844D29
:101B500040070AD52069296801F07001884204D93C
:101B6000296821F070010143296020787C4E361DE0
:101B700000070AD56069316801F07001884204D914
:101B8000316821F07001014331602078C0060AD528
:101B9000A069316801F4E061884204D9316821F418
:101BA000E061014331602078DFF8B4B180060BF1C9
:101BB000080B0CD5E1695846DBF8002002F07002F2
:101BC000914204D9026822F070020A430260207830
:101BD00080070AD5E068296801F00F01884204D91E
:101BE000296821F00F01014329602078C0073ED009
:101BF0005B49A2682868183920F470601043286097
:101C00006068022818D0032819D00968012819D063
:101C1000490700294ADADFF848A1AAF1080A00E0DA
:101C200044E0DAF8002022F007020243CAF800205C
:101C3000FFF790F8814612E009688903E9E709682F
:101C40008901E6E7C905E4E7FFF784F8A0EB09019D
:101C500041F28830814202D90320BDE8F09F6168DB
:101C6000DAF8000000F03800B0EBC10FECD12078BA
:101C700080070AD5E068296801F00F01884204D284
:101C8000296821F00F0101432960D8F8001040466F
:101C900001F00F01B9420BD9016821F00F0139435E
:101CA0000160006800F00F00B84201D00120D4E7C5
:101CB000207840070AD52069296801F07001884220
:101CC00004D2296821F070010143296020780007BF
:101CD0000AD56069316801F07001884204D2316828
:101CE00021F07001014331602078C0060AD5A06957
:101CF000316801F4E061884204D2316821F4E06186
:101D000001433160207880060CD5E1695846DBF844
:101D1000002002F07002914204D2026822F07002A8
:101D20000A43026000F06CF80E492A682B68C2F37F
:101D3000032203F00F038A5CC95C02F01F0201F06A
:101D40001F01D040084A20FA01F1116007490860DC
:101D500007480068BDE8F05FFFF738B80020005280
:101D6000184402588A350008100000240C00002492
:101D70000400002430B500F043F80B4A0B490C4B2B
:101D800015681468C5F3032204F00F048A5C095D2A
:101D900002F01F0201F01F01D040064A20FA01F1B3
:101DA00019601060084630BD184402588A35000892
:101DB000100000240C00002400B5FFF7DBFF0549EC
:101DC0000968054AC1F30211515C01F01F01C840C6
:101DD00000BD00001C4402588A35000800B5FFF71A
:101DE000C9FF05490968054AC1F30221515C01F0A8
:101DF0001F01C84000BD00001C4402588A3500087D
:101E0000454970B545480968434B103B11F038020D
:101E100008D00111082A03D0102A0BD0182A0BD0A1
:101E2000084670BD19688906FBD51968C1F3C10160
:101E3000C84070BD3A4870BD3749374D18310C1D48
:101E400024350A68096826682D6802F0030406F044
:101E50000102C1F30511C5F3CC0515FB02F200EE3A
:101E6000102AB8EE400AE9B32F4ADFED2E0AB7EE8A
:101E7000001A6CB1DFED2D1A012C01D0022C43D0D9
:101E800002EE101A1068F8EE422A81EEA22A1EE035
:101E90001C68A40611D51B6801EE901A1168C3F3E3
:101EA000C103F8EE612AD84001EE900AC1F30800A0
:101EB000F8EE611A81EEA22A0BE001EE901ADFED36
:101EC0001C2A00BFF8EE611A106882EEA12AC0F346
:101ED000080001EE900AF8EE611A40EE201A31EE89
:101EE000810A00E015E022EE000A1068C0F34620E7
:101EF000401C00EE900AF8EE600A80EE201ABCEE5C
:101F0000C10A10EE100A70BD01EE901ADFED092A29
:101F1000D8E7002070BD0000104402580090D003A4
:101F200040787D0100000039304402580024744A92
:101F30000024744C20BCBE4B2DE9F05F04007DD022
:101F4000FF4F2078FE4D1837DFF8F493103DC0079F
:101F500048D0D9F80000396800F03800102815D0B2
:101F6000182803D101F0030002280FD06068B0F5F3
:101F7000803F12D010B1B0F5A02F18D0286820F4FF
:101F800080302860286820F4802009E028688003D9
:101F900028D560680028D2D024E0286840F480303A
:101FA0002860606888B1FEF7D5FE064609E028681B
:101FB00040F480202860F0E7FEF7CCFE801B642808
:101FC0006FD828688003F7D50CE0FEF7C3FE0646FD
:101FD00005E000BFFEF7BEFE801B6428F0D828682D
:101FE0008003F7D4207841F20308D54E0C3E8007D9
:101FF00069D5D9F80000396810F038000ED01828DB
:1020000001D188070AD0E06890B3296821F019014E
:1020100001432960FEF79EFE824631E028684007B2
:1020200002D5E06800288AD0E168286820F019000D
:1020300008432860FEF78EFE824607E0DFE000BF1F
:10204000FEF788FEA0EB0A000228B9D828684007EE
:10205000F6D500BFFEF778FE40451BD82069402822
:1020600012D0316821F47C3141EA003030602AE03E
:1020700018E000BFFEF76EFEA0EB0A0002289FD812
:1020800028684007F6D5E5E7306820F47C3040F456
:102090000030EBE7207C316821F0FE4141EA00602E
:1020A000E4E70DE1286820F001002860FEF752FE09
:1020B000824605E0FEF74EFEA0EB0A0002288DD80E
:1020C00028684007F6D42078C0065DD5D9F800000E
:1020D000DFF86CB2396800F03800ABF1040B082867
:1020E00010D0182803D101F0030001280AD0E069BC
:1020F0000028286838D040F080002860FEF72AFECB
:10210000824623E02868C00523D5E069802876D17F
:102110001FE0206A202821D0316821F0F84141EAEF
:102120008060306030E000BF94F82010DBF80020C1
:1021300022F07C5242EA0161CBF8001024E000BF9B
:10214000FEF708FEA0EB0A00022898D82868C00510
:10215000F6D5FEF7F9FD4045E6D8DAE7306820F01D
:10216000F84040F08040DCE720F080002860FEF777
:10217000F1FD064605E000BFFEF7ECFD801B0228DE
:102180009DD82868C005F7D42078000729D56C4869
:102190006169643000298046016811D041F0010175
:1021A0000160FEF7D7FD064605E000BFFEF7D2FD51
:1021B000801B0228C9D8D8F800008007F6D510E0A7
:1021C00021F001010160FEF7C5FD064605E000BFF4
:1021D000FEF7C0FD801B022872D8D8F800008007E7
:1021E000F6D42078800623D5A0690028286810D06E
:1021F00040F480502860FEF7ADFD064605E02CE176
:10220000FEF7A8FD801B02285AD828688004F7D55D
:102210000EE020F480502860FEF79CFD064604E0A6
:10222000FEF798FD801B02284AD828688004F7D45E
:10223000207840074FD5DFF80C81D8F8001041F422
:102240008071C8F80010FEF785FD064605E000BF66
:10225000FEF780FD801B642832D8D8F80000C00546
:10226000F6D5374EA068603601280AD008B1052897
:1022700013D0306820F001003060306820F0040096
:1022800002E0306840F001003060A06841F2883A16
:1022900090B1FEF75FFD80460AE0306840F0040030
:1022A0003060EEE7FEF756FDA0EB0801514507D878
:1022B00030688007F6D50EE0FEF74CFD804607E05B
:1022C00084E000BFFEF746FDA0EB080151457DD834
:1022D00030688007F6D4606AB0B3DFF86480D9F85C
:1022E000001008F12008C1F3C20103296FD00228B1
:1022F000286820F08070286003D0FEF72BFD04468C
:1023000080E0FEF727FD064605E000BFFEF722FD50
:10231000801B022873D828688001F7D4E26A40F253
:10232000F331386854F8283F884340EA02101843D4
:102330003860217B4FF4FE0C22894FF0FE4704E009
:10234000104402580048025889E0208A4902521E6F
:10235000267DA1F5007189B2401EC2F30802114327
:10236000761E0CEA004001433E4807EA066211432C
:102370003C4AC8F800100832016821F001010160F0
:1023800011684FF6F876236AB14341EAC301116040
:102390000168A26921F00C01114301600168E26942
:1023A00021F0020111430160016841F480310160B4
:1023B000016841F400310160016841F4802101604D
:1023C000016841F001010160286801E017E01DE0AB
:1023D00040F080702860FEF7BDFC044605E000BFB9
:1023E000FEF7B8FC001B022809D828688001F7D541
:1023F00035E000BFFEF7AEFC001B022802D9032027
:10240000BDE8F09F28688001F4D428E039680128ED
:10241000D8F8000021D0A26A01F0030393421CD136
:10242000E26AC1F305118A4217D1216BC0F3080299
:10243000491E8A4211D1616BC0F34622491E914266
:102440000BD1A16BC0F30642491E914205D1E16B4D
:10245000C0F30660491E814201D00120D0E7002070
:10246000CEE700002C440258401EB0F1807F10B52A
:1024700001D3012010BD4FF0E02460610F216017EF
:1024800001F020F80020A0610721216110BD30B5C6
:1024900090F88010012918D0012280F88020242192
:1024A000C0F884100022202450F8641B0B680D68CB
:1024B00023F0005325F001050D60026050F8641C04
:1024C0000B6004620277104630BD022030BD7047B9
:1024D000704770B5044690F8800001281DD0012295
:1024E00084F880202420C4F88400206805680268ED
:1024F00022F0010202602068826822F060620A43D2
:102500008260204600F0B8FC22682021002015607F
:10251000C4F8841084F8800070BD022070BD70B5CE
:10252000044690F8800001281DD0012284F8802004
:102530002420C4F8840020680568026822F00102A3
:1025400002602068826822F060420A43826020466E
:1025500000F092FC2268202100201560C4F884104D
:1025600084F8800070BD022070BD704770477047CE
:102570002DE9F04103680446002540F60F06D869AE
:1025800019689A68304209D186067DD501F0200687
:1025900002F080573E4377D0216F62E1C64EC74FAD
:1025A00016400F4037436FD0C70709D0CF0507D576
:1025B00001271F62D4F88C3043F00103C4F88C303B
:1025C00083070AD5D30708D0276802233B62D4F8D3
:1025D0008C3043F00403C4F88C3043070AD5D3078A
:1025E00008D0276804233B62D4F88C3043F0020300
:1025F000C4F88C3003070CD501F02003334308D016
:10260000266808233362D4F88C3043F00803C4F8FA
:102610008C3003050BD54B0109D526684FF40063B8
:102620003362D4F88C3043F02003C4F88C30D4F8F3
:102630008C30002B3AD0800609D501F0200002F042
:102640008051084303D0216F09B120468847216893
:10265000D4F88C008968490602D410F0280F27D0DE
:10266000204600F0C9FC2068806840061BD5206821
:10267000083050E8001F21F0400140E80012002A15
:10268000F5D1E06F78B100E018E08D490165E06FA9
:10269000FEF702F9002809D0E06F016D00E0204646
:1026A000BDE8F04108472046FFF761FFBDE8F08133
:1026B0002046FFF75CFFC4F88C50F7E7E76E202652
:1026C000012F7CD1C7067AD5CF0678D510201862A5
:1026D0002068806840067DD5E16F7A4A086890429C
:1026E00034D0784A1832904230D0764A3032904214
:1026F0002CD0744A4832904228D0724A60329042BC
:1027000024D0704A7832904220D06E4A9032904263
:102710001CD06C4AA832904218D06B4A904215D017
:10272000694A1832904211D0674A303290420DD037
:10273000654A4832904209D0634A6032904205D0DF
:10274000614A7832904201D05F4A9032406800047A
:10275000000CABD0B4F85C208242A7D9A4F85E008C
:10276000C869B0F5807F2ED0216851E8000F20F4B1
:10277000807041E80002002AF6D12068083050E855
:10278000001F21F0010140E80012002AF5D1206865
:10279000083050E8001F21F0400140E80012002AF4
:1027A000F5D1C4F88860E566216851E8000F20F093
:1027B000100041E80002002AF6D1E06F01E03BE0A2
:1027C00008E0FDF7B9FEB4F85C00B4F85E10401AFA
:1027D00081B22DE0B4F85C00B4F85E10B4F85E206D
:1027E000401A81B2002AB4D00029B2D0226852E83F
:1027F000000F20F4907042E80003002BF6D1334B19
:10280000226802F1080252E8000F00EA030042E8E1
:102810000007002FF4D1C4F88860E56625672268B8
:1028200052E8000F20F0100042E80003002BF6D120
:102830002046FFF74CFE39E7C70209D5570207D5F6
:102840004FF4801018622046BDE8F041FFF78EBEBD
:1028500003060AD501F0800302F40002134304D0FA
:10286000616F00297FF41BAF20E7420611D54A06AD
:102870000FD52046026852E8001F21F0400142E8CF
:102880000013002BF6D1C0F88460456700F09EF875
:102890000CE7020206D54A0004D52046BDE8F04107
:1028A000FFF763BEC001C6D50029C4DA2046BDE8E3
:1028B000F041FFF70DBE00000100001020010004F0
:1028C000E52F00081000024010040240FEFFFFEF59
:1028D00010B5040003D0D4F8840010B107E0012043
:1028E00010BD002084F88000204600F027F8242046
:1028F000C4F884002068016821F0010101602046CD
:1029000000F0A4FB0128EBD0A06A10B1204600F033
:10291000D5FA2068416821F49041416020688168BF
:1029200021F02A0181602068016841F00101016005
:102930002046BDE8104000F025BB000030B5B5B022
:10294000044614212FA8FDF78EFDBC216846FDF733
:102950008AFD1B49206888422FD102256846002441
:1029600000951D94FEF76EFC08B1FDF7E2FD1548D9
:10297000016841F400210160006800F400203490F7
:1029800010480838016841F0010101600068082121
:10299000CDE9305400F00100349003202F90CDE9B0
:1029A000324109482FA9FEF7B9F80022032134204B
:1029B000FEF796FA3420FEF785FA35B030BD0000F8
:1029C000004C0040E8440258000002587047FEE7FF
:1029D000094808B5016841F080010160016801F013
:1029E00080010091016841F001010160006800F080
:1029F0000100009008BD0000E04402581848002182
:102A000010B5164C0C224FF4E1330460C0E90131DB
:102A1000C160C0E904128161C161016241628162E9
:102A2000FFF756FF08B1FDF784FD0D480021FFF7C1
:102A300076FD08B1FDF77DFD09480021FFF749FD4E
:102A400008B1FDF776FD0648FFF721FD002803D009
:102A5000BDE81040FDF76DBD10BD0000004C00400A
:102A600014000024FEE7FEE7704700002DE9F04760
:102A7000454D044689464FF0000A2868C043800748
:102A80000AD0414E283E306820F080603060FEF76A
:102A900061F90746B04608E00120BDE8F08700BFB5
:102AA000FEF758F9C01B022867D8D8F800000001CB
:102AB000F6D4206829684FF4FE0721F47C313E02E9
:102AC00041EA00302860207AA389B4F804C04002AB
:102AD0002D4D2D495B1E227CACF1010C1035091DDA
:102AE000A0F5007080B2521ECCF3080C07EA034335
:102AF00040EA0C00184306EA0262104328600868A6
:102B0000626920F0C000104308600A68A06922F0E2
:102B1000200202430A60281D0A6822F010020A609F
:102B200002684FF6F873E4699A4342EAC40202600D
:102B30000868B9F1000F40F010020A6011D008686F
:102B4000B9F1010F11D040F400100860D8F800006E
:102B5000444640F08060C8F80000FEF7FBF80546E8
:102B60000DE0086840F40020EFE740F48010ECE747
:102B7000FEF7F0F8401B022801D903208DE72068FA
:102B80000001F5D5504688E7284402582DE9F04762
:102B9000454D044689464FF0000A2868C043800727
:102BA0000AD0414E283E306820F080503060FEF759
:102BB000D1F80746B04608E00120BDE8F08700BF25
:102BC000FEF7C8F8C01B022867D8D8F800008000BC
:102BD000F6D4208829684FF4FE0721F07C713E026C
:102BE00041EA00502860207AA389B4F804C040026A
:102BF0002D4D2D495B1E227CACF1010C1835091DB1
:102C0000A0F5007080B2521ECCF3080C07EA034313
:102C100040EA0C00184306EA026210432860086884
:102C2000626920F44060104308600A68A06922F4D9
:102C3000007202430A60281D0A6822F480720A604A
:102C400002684FF6F873E4699A4342EAC4020260EC
:102C50000868B9F1000F40F480720A6011D008686A
:102C6000B9F1010F11D040F080700860D8F8000071
:102C7000444640F08050C8F80000FEF76BF8054667
:102C80000DE0086840F48000EFE740F40000ECE756
:102C9000FEF760F8401B022801D903208DE7206869
:102CA0008000F5D5504688E7284402587047FEF763
:102CB00057B8000070B59CB04C216846FDF7D3FBB7
:102CC000202113A8FDF7CFFB0220FEF73BF92D4989
:102CD00000242D480A6822F001020A600A6802688E
:102CE00042F440420260026802F440421B920268D1
:102CF0009204FCD5254A136843F00203136012685E
:102D000002F002021B92026842F440420260026832
:102D10000A6842F001020A60096801F001011B9192
:102D200001688904FCD50DF1280C022009900521C9
:102D3000C0228CE80700C3030F9008250D900126E0
:102D40000E90CDE91054CDE9006368461294FFF768
:102D5000F3F808B172B6FEE740201A903F21030154
:102D6000CDE916500322CDE9180313AB13A883E86D
:102D700016000421FEF7D0FE002801D072B6FEE74F
:102D80001CB070BD2C04005818480258F444025876
:102D90002C48F0B52C4A016841F4700101601068BC
:102DA00000F00F00072804D2106820F00F00C01DAB
:102DB000106026490020254C10340B68244D43F048
:102DC00001030B6020600B682B400B60136803F05D
:102DD0000F03072B04D9136823F00F03DB1D1360C7
:102DE0001A4C1C4A18341C4B261D371D2060174CEA
:102DF0001A4D28343060261D3860371D23603B1D76
:102E000035601C1D3A60251D2E1D1860331D226083
:102E10002860326018600A680C4B114C22F4802242
:102E200060330A60186020686FF30F00B0F1005F34
:102E300003D20C490120C1F8080143F2D2000A492B
:102E40000860F0BD88ED00E0002000520044025808
:102E50007FEDF6EA80020101000202020000FF019C
:102E60000010005C00800051004000520148FFF754
:102E70007FBB00001400002430B5416EB9B1016879
:102E80000D4B03F108048A688968C2F34262490F56
:102E90005D5C615C2D01B5FBF1F1A0F86A10995CF5
:102EA000A25C0901B1FBF2F1A0F8681030BD01216C
:102EB000A0F86A10F8E700007A35000890F82810AA
:102EC000C90706D00168C36A4A6822F400321A436F
:102ED0004A6090F82810890706D50168036B4A6894
:102EE00022F480321A434A6090F82810490706D528
:102EF0000168436B4A6822F480221A434A6090F8C2
:102F00002810090706D50168836B4A6822F400423D
:102F10001A434A6090F82810C90606D50168C36BA9
:102F20008A6822F480521A438A6090F82810890631
:102F300006D50168036C8A6822F400521A438A603D
:102F400090F82810490611D50168436C4A6822F4AC
:102F500080121A434A60416CB1F5801F06D10168A6
:102F6000836C4A6822F4C0021A434A6090F8281021
:102F7000090606D50168C26C486820F40020104399
:102F800048607047F8B500260446C0F88C60FDF72D
:102F9000E1FE054620686FF07E470068000708D50F
:102FA00000222B464FF400112046009700F024FA2F
:102FB00060B92068006840070AD500222B464FF40C
:102FC00080012046009700F017FA08B10320F8BDF1
:102FD0002020C4F88400C4F88800E666002084F845
:102FE0008060F8BD10B5806B0021A0F85E10A0F8DD
:102FF0005610FFF7BCFA10BD10B5026852E8001F6A
:1030000021F4907142E80013002BF6D10E4B0268B8
:10301000083252E8001F194042E80014002CF6D193
:10302000C16E012908D1026852E8001F21F0100189
:1030300042E80013002BF6D100212022C0F888209E
:10304000C166016710BD0000FEFFFFEF2DE9F043F0
:1030500004468068D84E87B0D84B2168D4E904274D
:10306000D4F81CC010430A68002547EA0C0738430F
:10307000324002430A602068E268416821F440510E
:10308000114341602268A1699A4201D0206A01433C
:103090009768DFF82CC3CB4ECB4807EA0C070F43E9
:1030A00097602168676ACA6A22F00F023A43CA62CF
:1030B0002268B2420ED1006800F03800182873D0A0
:1030C00047DCB8B3082879D010286FD178E02828D9
:1030D0007ED17BE0BD498A4209D1006800F007003B
:1030E000062875D2DFE800F0546A6C6E7072B84939
:1030F0008A4209D1006800F00700062868D2DFE89C
:1031000000F0475D5F616365B2498A4209D100689A
:1031100000F0070006285BD2DFE800F03A50525476
:103120005658AD498A420BD1006800F007000628C6
:103130004ED200E010E0DFE800F02B414345474964
:10314000A6498A420AD1006800F03800182839D010
:10315000B7DD2028BBD13CE001203AE0A0498A42FB
:1031600009D1006800F00700062831D2DFE800F03E
:103170001026282A2C2E9B498A420BD1006800F089
:103180000700062824D2DFE800F003191B1D1F21C9
:1031900000201EE09A421BD18B48001D006800F001
:1031A0000700062814D202E00CE007E010E0DFE898
:1031B00000F0030507090B0D02200AE0042008E0D7
:1031C000082006E0102004E0202002E0402000E07B
:1031D00080208549DFF814829A42854A4FF40043E3
:1031E0004FEA21174FF000064ED110281AD006DC06
:1031F000022809D004280BD008287CD10DE0202813
:103200003ED0402877D13DE0FDF7C6FE014610E0F4
:103210006846FDF7D3FE01990BE003A8FDF770FFA8
:10322000049906E01068800605D51068C0F3C10057
:10323000C140002970D0606A676838F8102007EB39
:103240004703B1FBF2F0834255D8B0EB073F52D8A9
:10325000002308461946FDF78FF802467808130E3A
:10326000120243EA012110183A4671410023FDF78A
:1032700083F8604AA0F5407191423CD821688FE004
:103280003946D8E71946D6E7D4F81CC04FF6EF798F
:103290009C4546D1082819D005DC58B101280CD02E
:1032A000042875D10DE0102815D0202835D04028ED
:1032B0006ED134E0FEF780FD01E0FEF78FFD0146A0
:1032C00010E06846FDF77AFE01990BE003A8FDF7D0
:1032D00017FF049906E01068800604D51068C0F353
:1032E000C100C140C1B1636A606838F81330B1FBF6
:1032F000F3F1490000E04BE001EB5001B1FBF0F0CD
:10330000A0F11001494543D84FF6F0732168C0F38E
:1033100042021840104343E043E03946E3E71946D0
:10332000E1E7082819D005DC58B101280CD00428A1
:103330002ED10DE0102815D020282BD0402827D1E1
:103340002AE0FEF739FD01E0FEF748FD014610E0F6
:103350006846FDF733FE01990BE003A8FDF7D0FEA8
:10336000049906E01068800604D51068C0F3C10017
:10337000C140B1B1636A606838F81330B1FBF3F152
:1033800001EB5001B1FBF0F0A0F11001494505D966
:10339000012506E03946EDE71946EBE7216880B2E2
:1033A000C8600120A4F86A00A4F8680028462667CF
:1033B000666707B0BDE8F083F369FFCF000C0058E3
:1033C000FFF4FF1100100140544402580044004033
:1033D00000480040004C00400050004000140140F4
:1033E00000780040007C00400090D0036235000867
:1033F00000440258FFFC0F002DE9F0479A4617469B
:103400000E460446089D4FF000094FF020084CE09E
:10341000681C4AD0FDF79EFCA0EB0A00A8422AD8FF
:103420004DB32068016849073FD5C069C043000516
:103430003BD421684FF400600862216851E8000F16
:1034400020F4D07041E80002002AF6D1206808304C
:1034500050E8001F21F0010140E80012002AF5D1D8
:10346000C4F8848084F88090C4F88880C4F88C8084
:103470000320BDE8F087206850E8001F21F4D071D8
:1034800040E80012002AF6D12068083050E8001FFA
:1034900021F0010140E80012002AF5D1C4F884802F
:1034A00084F88090C4F88880E2E72068C06936EA32
:1034B000000004D00020B842AAD00020D9E70120A3
:1034C000F9E7FEE7090700284FEA116104DB00F184
:1034D000E02080F80014704700F00F0000F1E020B9
:1034E00080F8141D704700001FB50024009401945B
:1034F00002940394FDF7B8FC01208DF80C001F2105
:103500008DF8081087228DF809208DF80D008DF8B0
:10351000000068468DF80A408DF80E408DF8014095
:1035200001948DF80B408DF80F40FDF76FFC0420DF
:10353000FDF7A8FCFDF71CFCFFF7BCFBFFF748FA02
:10354000FFF75CFA03480068016841F02001016060
:10355000FEE70000140000244FF04070E1EE100A76
:103560007047010002000400060008000A000C0079
:10357000100020004000800000010101010307014C
:10358000000008040204080101010000000001021B
:10359000030401020304060708090000BC35000803
:1035A0000000002414000000D4020008D0350008F8
:1035B00014000024F4060000F002000801000000DE
:1035C00010000000000000000090D0030090D00325
:040000050800029954
:00000001FF
