:020000040800F2
:100000000807002439030008B1340008E933000868
:10001000A934000831050008114100080000000063
:100020000000000000000000000000001137000880
:100030003905000800000000B9340008193700082D
:100040005303000853030008530300085303000838
:100050005303000853030008530300085303000828
:100060005303000853030008530300085303000818
:100070005303000853030008530300085303000808
:1000800053030008530300085303000853030008F8
:1000900053030008530300085303000853030008E8
:1000A00053030008530300085303000853030008D8
:1000B00053030008530300085303000853030008C8
:1000C00053030008530300085303000853030008B8
:1000D00053030008530300085303000853030008A8
:1000E00053030008530300080000000053030008F6
:1000F0005303000853030008530300085303000888
:100100005303000853030008530300085303000877
:100110003139000853030008530300085303000853
:100120005303000853030008530300085303000857
:100130005303000853030008530300085303000847
:1001400000000000000000000000000000000000AF
:100150005303000853030008530300085303000827
:100160005303000853030008530300085303000817
:100170005303000853030008530300085303000807
:1001800053030008530300085303000853030008F7
:1001900053030008530300085303000853030008E7
:1001A00053030008530300085303000853030008D7
:1001B00053030008530300085303000853030008C7
:1001C00053030008530300085303000853030008B7
:1001D00053030008530300085303000853030008A7
:1001E0005303000853030008530300085303000897
:1001F0005303000853030008530300085303000887
:100200005303000853030008530300085303000876
:100210005303000853030008530300085303000866
:1002200053030008530300085303000800000000B4
:1002300053030008530300080000000053030008A4
:100240005303000853030008530300085303000836
:100250005303000853030008530300085303000826
:100260005303000853030008530300085303000816
:100270005303000853030008530300080000000064
:100280005303000853030008530300080000000054
:10029000000000005303000800F002F800F03CF8F2
:1002A0000AA090E8000C82448344AAF10107DA45D1
:1002B00001D100F031F8AFF2090EBAE80F0013F0E7
:1002C000010F18BFFB1A43F001031847E43E00007A
:1002D000043F0000103A24BF78C878C1FAD852070A
:1002E00024BF30C830C144BF04680C6070470000B0
:1002F0000023002400250026103A28BF78C1FBD82F
:10030000520728BF30C148BF0B6070471FB503F0CC
:1003100020FF1FBD10B510BD00F0D0F81146FFF74B
:10032000F5FF03F0F9FE00F0EEF803B4FFF7F2FF7B
:1003300003BC00F0F5F80000094880470948004771
:10034000FEE7FEE7FEE7FEE7FEE7FEE7FEE7FEE785
:10035000FEE7FEE704480549054A064B70470000E2
:1003600061380008990200080801002408070024E9
:10037000080300240803002453EA020C00F06980FB
:100380002DE9F04B4FF00006002B1FBFB3FA83F5A9
:1003900003FA05F424FA05F65E4012BF1643B2FADA
:1003A00082F502FA05F4C5F120051EBF22FA05FC0C
:1003B00044EA0C04203556EA044C4FEA144418BFB2
:1003C000641C4FF000084FF00009904271EB030CE1
:1003D00039D3002919BFB1FA81F701FA07F6B0FA4B
:1003E00080F700FA07F6C7F120071EBF20FA07FCC6
:1003F00046EA0C062037B6FBF4FCA7EB0507103FD6
:1004000007F01F0BCBF120062CFA06F60CFA0BFBBB
:1004100044BFB3460026202FA4BF5E464FF0000B1A
:100420005BEA060C08BF4FF0010B19EB0B0948EB18
:100430000608ABFB027C06FB02CC0BFB03CCC01B0B
:1004400071EB0C01C1E70B46024641464846BDE848
:10045000F08B13B5084318BF4FF0FF300146AFF3E0
:100460000080BDE81C4070474FF0000200B5134605
:1004700094469646203922BFA0E80C50A0E80C50C4
:10048000B1F12001BFF4F7AF090728BFA0E80C5075
:1004900048BF0CC05DF804EB890028BF40F8042B6E
:1004A00008BF704748BF20F8022B11F0804F18BFDB
:1004B00000F8012B7047704770477047754600F091
:1004C0002BF8AE4605006946534620F007008546E6
:1004D00018B020B5FFF73EFFBDE820404FF0000602
:1004E0004FF000074FF000084FF0000BAC46ACE8AF
:1004F000C009ACE8C009ACE8C009ACE8C00921F00B
:1005000007018D46704710B50446AFF300802046C2
:10051000BDE81040FFF709BF0048704710000024F5
:1005200001491820ABBEFEE726000200704700001C
:10053000FEE700000000000070470000000000001F
:10054000EFF3108072B600BFFEE70000000000006D
:100550002DE9F041044600F0EFFC1CB3054694F889
:100560003500022822D140F20F462768C4F2020665
:1005700040F26F48B7426FF00E00C4F202081DDC73
:100580006F21C4F202018F422ADC3F21C4F2020132
:100590008F4241DC1021C4F202018F4263D0282136
:1005A0005CE000BF0120BDE8F08100BF80206065F5
:1005B0000120002184F83410BDE8F08147451BDCA0
:1005C00040F23F41C4F202018F422DDC40F2104163
:1005D000C4F202018F4246D040F228413EE000BF03
:1005E0009F21C4F202018F4228DC7021C4F2020173
:1005F0008F4238D0882131E040F29F41C4F202019D
:100600008F4223DC40F27041C4F202018F422AD0B3
:1006100040F2884122E000BF4021C4F202018F4233
:1006200021D058211AE000BF40F24041C4F202013B
:100630008F4218D040F2584110E000BFA021C4F210
:1006400002018F420FD0B82108E000BF40F2B8414C
:10065000C4F202018F4206D040F2A041C4F202016E
:100660008F42394607D13946386820F01E0041F8DC
:10067000140B6FF080000A68474500EA020008602A
:100680001ADC9F20C4F20200874233DC5720C4F2F8
:10069000020087425ADC1020C4F20200874200F0B8
:1006A00097802820C4F20200874200F09180402009
:1006B000C4F202008AE000BF45F22F40C5F60200F6
:1006C00087422DDC40F2B740C4F2020087424BDC87
:1006D00040F27040C4F20200874279D040F2884074
:1006E000C4F20200874273D040F2A040C4F202007C
:1006F0006CE000BF40F22740C4F20200874243DCB6
:10070000A020C4F20200874262D0B820C4F20200E6
:1007100087425DD040F21040C4F2020056E000BFB4
:1007200045F26B40C5F6020087423FDC45F230409F
:10073000C5F6020087424BD045F24440C5F60200A0
:10074000874245D045F258403EE000BF5820C4F2F1
:10075000020087423CD07020C4F20200874237D0AA
:100760008820C4F2020031E040F2B840C4F2020036
:1007700087422DD045F20840C5F60200874227D0B7
:1007800045F21C4020E000BF40F22840C4F20200C5
:1007900087421DD040F24040C4F20200874217D089
:1007A00040F25840C4F2020010E000BF45F26C4035
:1007B000C5F6020087420BD045F29440C5F6020010
:1007C000874205D045F28040C5F60200874204D139
:1007D000206E016821F480710160386820F001000A
:1007E000386000BF3868C00710D000F0A5FB401B80
:1007F0000628F7D320206065032084F83500012007
:10080000002184F83410BDE8F08100BF2068B042B8
:1008100010DC6F21C4F2020188421DDC3F21C4F2CA
:100820000201884234DC1021C4F20201884255D012
:1008300028214FE040451BDC40F23F41C4F2020159
:1008400088422DDC40F21041C4F20201884245D0BA
:1008500040F228413EE000BF9F21C4F202018842DD
:1008600028DC7021C4F20201884237D0882131E0AF
:1008700040F29F41C4F20201884223DC40F2704101
:10088000C4F20201884229D040F2884122E000BF30
:100890004021C4F20201884220D058211AE000BF52
:1008A00040F24041C4F20201884217D040F2584160
:1008B00010E000BFA021C4F2020188420ED0B8218E
:1008C00008E000BF40F2B841C4F20201884205D0FE
:1008D00040F2A041C4F2020188425BD1D4E9161271
:1008E00002F01F023F2303FA02F28A6040455BDCFC
:1008F0009F21C4F20201884214DC5721C4F2020194
:10090000884227DC1021C4F20201884200F0A28054
:100910002821C4F20201884200F09C804021C4F2E8
:10092000020195E040F22741C4F2020188421FDC37
:10093000A021C4F20201884200F08C80B821C4F2E8
:100940000201884200F0868040F21041C4F20201A8
:100950007EE000BF5821C4F2020188427AD07021A3
:10096000C4F20201884275D08821C4F202016FE00E
:1009700040F22841C4F2020188426BD040F240416B
:10098000C4F20201884265D040F25841C4F202012B
:100990005EE000BFD4E9161202F01F02012303FA41
:1009A00002F24A604045A3DD45F22F41C5F602013F
:1009B000884217DC40F2B741C4F20201884227DCCA
:1009C00040F27041C4F20201884243D040F28841B3
:1009D000C4F2020188423DD040F2A041C4F20201BB
:1009E00036E000BF45F26B41C5F6020188421FDCCC
:1009F00045F23041C5F6020188422BD045F2444110
:100A0000C5F60201884225D045F258411EE000BFDC
:100A100040F2B841C4F2020188421BD045F20841BD
:100A2000C5F60201884215D045F21C410EE000BF18
:100A300045F26C41C5F6020188420BD045F2944163
:100A4000C5F60201884205D045F28041C5F6020193
:100A500088420BD1616EA26EE06E4A6030B10168CF
:100A600021F480710160D4E91C014160012084F807
:100A700035000020002184F83410BDE8F08100002A
:100A800080B5D8B190F83510022919D140F20F4243
:100A90000168C4F20202914216DC6F23C4F2020321
:100AA000994227DC3F23C4F2020399423EDC102323
:100AB000C4F2020399425FD0282359E0012080BD8F
:100AC00080214165012080BD40F26F43C4F20203E2
:100AD00099421BDC40F23F43C4F2020399422DDCF1
:100AE00040F21043C4F20203994245D040F2284339
:100AF0003EE000BF9F23C4F20203994228DC70232A
:100B0000C4F20203994237D0882331E040F29F4378
:100B1000C4F20203994223DC40F27043C4F20203A0
:100B2000994229D040F2884322E000BF4023C4F21A
:100B30000203994220D058231AE000BF40F24043FC
:100B4000C4F20203994217D040F2584310E000BFAC
:100B5000A023C4F2020399420ED0B82308E000BFDC
:100B600040F2B843C4F20203994205D040F2A043D8
:100B7000C4F20203994275D191424FF0040280F809
:100B8000352011DC6F20C4F20200814222DC3F20BC
:100B9000C4F20200814239DC1020C4F2020081421A
:100BA00059D0282054E000BF40F26F40C4F2020048
:100BB00081421BDC40F23F40C4F2020081422DDC46
:100BC00040F21040C4F20200814244D040F228407A
:100BD0003EE000BF9F20C4F20200814228DC70206A
:100BE000C4F20200814236D0882031E040F29F40BA
:100BF000C4F20200814223DC40F27040C4F20200E1
:100C0000814228D040F2884022E000BF4020C4F258
:100C1000020081421FD058201AE000BF40F240403D
:100C2000C4F20200814216D040F2584010E000BFEA
:100C3000A020C4F2020081420DD0B82008E000BF1D
:100C400040F2B840C4F20200814204D040F2A04019
:100C5000C4F202008142086820F001000860002010
:100C600080BD00BF0A6822F00E020A6045F25742BA
:100C7000C5F6020291420A6822F001020A600FDC06
:100C800045F22F42C5F60202914219DC45F20842B4
:100C9000C5F60202914229D045F21C4222E000BF73
:100CA00045F27F42C5F60202914213DC45F25842FA
:100CB000C5F60202914219D045F26C4212E000BF23
:100CC00045F23042C5F6020291420FD045F244424D
:100CD00008E000BF45F29442C5F60202914205D0F9
:100CE00045F28042C5F6020291421AD1D0E9181CA1
:100CF000D0E916E30A6822F480720A6003F01F014B
:100D0000012202FA01F1CEF80410816ECCF8041031
:100D1000C16E31B10A6822F480720A60D0E91C12F7
:100D20004A60012180F83510026D002180F83410EE
:100D30000AB190470021084680BD00000000000075
:100D40002DE9F04F85B08E4642F20042C5F6020210
:100D50000A2102909042DEF8005008BF0921002DC0
:100D6000009100F0DD800298002400F126420098F6
:100D700002F1FF7201274FEAB2230026092B4FF040
:100D8000000838BF1846CDF80CE000900EE000BF18
:100D9000DEF8005008F1010835FA07F006F1020606
:100DA00007F1010704F1040400F0BA80A7F1010A79
:100DB000012000FA0AF315EA0309E9D0DEF804B0CD
:100DC0000BF003056A1E012A22D802984FEA480157
:100DD000D0F808C00191032101FA06F203992CEA28
:100DE000020CD1F80CE00EFA06F1DDF80CE041EA55
:100DF0000C01816041686FEA020CCBF30012994349
:100E00000346019802FA0AF2114359600CE000BF50
:100E10000320032D00FA06F0029B6FEA000C304617
:100E200002D13046032526E0D968DEF8082001EA21
:100E30000C018240022D41EA0201D9601BD1024619
:100E40006FF0030000EA5A010F20194404F01C035C
:100E500000FA03F51046D1F820E0039A2EEA0505C2
:100E6000DDF80CE012699A40029B2A430A62DEF820
:100E700004B00BF00305196805FA00F001EA0C0153
:100E80001BF4403F40EA010018603FF481AF44F298
:100E9000F44140F20845C5F60201C5F600050F23EE
:100EA000086840F002000860086800F00200049042
:100EB0002AF00300049904F00C0142598B409A4334
:100EC000009B03FA01F1114341514FF0B0452868EE
:100ED000DEF8041040EA0902CB0258BF20EA0902FA
:100EE0008B022A6040F20405C5F60005286840EA36
:100EF000090258BF20EA09028B032A60D5F8800056
:100F000040EA090258BF20EA0902C903C5F8802057
:100F1000E86F40EA090258BF20EA0902EA6737E7AA
:100F200005B0BDE8F08F000041F20000C5F60040BA
:100F30000068000C7047000040F20010C2F2004050
:100F4000006870470000000040F2000040F200110D
:100F5000C2F20040C2F2004100780A681044086002
:100F6000704700000000000080B5032000F0F8F892
:100F700001F062FA44F2184144F27813C5F6020116
:100F8000C0F600030A68096801F00F01C2F30322EA
:100F9000595C9A5C01F01F0102F01F02D04040F240
:100FA0000C02C2F2004220FA01F1116040F2080185
:100FB000C2F2004108600F2000F00AF800281CBFB0
:100FC000012080BD00F07CF8002080BD0000000002
:100FD00070B540F20006C2F200463178E1B1044635
:100FE00040F20800C2F200404FF47A72B2FBF1F115
:100FF0000068B0FBF1F001F03BFD0F2C4FF0010554
:1010000008D838B94FF0FF3000222146002500F003
:1010100077F87460284670BD012070BD00000000A4
:10102000B0B502784EF69C5CCEF2000C43784CF8DA
:10103000043CFAB14368CCF80030037BC17A90F8E5
:101040000AE0457B447A42EA0372837B42EA01610B
:10105000C27B41EACE41007A41EA854141EA4341FF
:1010600041EA024141EA042141EA4000CCF804008F
:10107000B0BD00BF0020CCF80000CCF80400B0BD2B
:101080004EF62450CEF20000BFF35F8F016821F4CA
:1010900080310160002101677047000000000000FE
:1010A0004EF6245140F00100CEF2000108670868B6
:1010B00040F480300860BFF34F8FBFF36F8F7047ED
:1010C00081B044F2F440C5F60200016841F002012B
:1010D0000160006800F002000090009801B07047C5
:1010E000002848BF704700F01F01012202FA01F1F9
:1010F0004EF200124009CEF2000242F82010704772
:10110000B0B54EF60C5C00F00F05CEF2000C043DBD
:101110006544DCF800304FF0FF3CC3F3022E8EF044
:101120000703042B28BF0423BEF1030438BF0024A7
:101130000CFA03F3B0F1FF3F21EA030105F10C03C0
:1011400000F160450CFA04F0C8BF05F56443A14006
:1011500022EA0000084300011870B0BD0000000042
:101160004EF60C514FF6FF03CEF200010A681A400A
:1011700060F30A2242F0806040F0FD700860704722
:10118000B0B544F60C05C5F602052968490729687B
:1011900006D401F00701081A18BF0120B0BD00BF36
:1011A00021F0070108432860FFF7C6FE044600BF90
:1011B00055F8080C800407D4FFF7BEFE001BB0F5FD
:1011C0007A7FF5D90120B0BD0020B0BD000000003D
:1011D00080B501F0A9F844F2204144F27812C5F636
:1011E0000201C0F600020968C1F30211515C01F06E
:1011F0001F01C84080BD000080B544F2384EC5F6DE
:10120000020E5EF8103C5EF8101CC1F3053C5EF85F
:101210000C1CBCF1000FDEF8042015D0C1F3001146
:10122000C2F3CC02514300EE101A03F0030102296D
:10123000B8EE400A0ED089B95EF8381C890611D480
:101240009FED361A1CE000BF00218160C0E900114B
:1012500080BD00BF9FED301A12E000BF9FED2D1A38
:101260000EE000BF5EF8381C49F20002C0F2D03236
:10127000C1F3C10122FA01F101EE101AB8EE411AD0
:10128000DEF800109FED263A6FF35F2102EE101A90
:10129000DEF80010C1F34621B8EE422A00EE032A20
:1012A00000EE10CAB7EE003AB8EE400A81EE000A2E
:1012B00032EE031A02EE101AB8EE422A20EE010AAC
:1012C00032EE031A80EE011ABCEEC11A80ED001A4C
:1012D000DEF80010C1F3064101EE101AB8EE411A13
:1012E00031EE031A80EE011ABCEEC11A80ED011A2C
:1012F000DEF80010C1F3066101EE101AB8EE411AD3
:1013000031EE031A80EE010ABCEEC00A10EE101A8C
:10131000816080BD0024744A20BCBE4B0024744C04
:10132000000000390000000080B544F2404EC5F6D0
:10133000020E5EF8183C5EF8181CC1F3055C5EF8FE
:10134000141CBCF1000FDEF8042015D0C1F30021FD
:10135000C2F3CC02514300EE101A03F0030102293C
:10136000B8EE400A0ED089B95EF8401C890611D447
:101370009FED361A1CE000BF00218160C0E900111A
:1013800080BD00BF9FED301A12E000BF9FED2D1A07
:101390000EE000BF5EF8401C49F20002C0F2D032FD
:1013A000C1F3C10122FA01F101EE101AB8EE411A9F
:1013B000DEF800109FED263A6FF35F2102EE101A5F
:1013C000DEF80010C1F34621B8EE422A00EE032AEF
:1013D00000EE10CAB7EE003AB8EE400A81EE000AFD
:1013E00032EE031A02EE101AB8EE422A20EE010A7B
:1013F00032EE031A80EE011ABCEEC11A80ED001A1B
:10140000DEF80010C1F3064101EE101AB8EE411AE1
:1014100031EE031A80EE011ABCEEC11A80ED011AFA
:10142000DEF80010C1F3066101EE101AB8EE411AA1
:1014300031EE031A80EE010ABCEEC00A10EE101A5B
:10144000816080BD0024744A20BCBE4B0024744CD3
:1014500000000039000000002DE9F0470446C07884
:1014600044F22C480007C5F6020845D5606E4FEAE5
:10147000305103290CD8DFE801F003112F3800BFE9
:10148000D8F8001041F40031C8F800102DE000BF7A
:1014900001266078C0070AD032E000BF201D02217B
:1014A00002F00EF80646F8B16078C00728D135463C
:1014B0003746607880073BD43E466078400750D47A
:1014C000B1466078000700F167804F46E0788007FA
:1014D00040F15F817AE000BF04F12400022102F0B4
:1014E00083F806460028DFD1606ED8F8241021F476
:1014F00040110843C8F8240000266078C007D6D001
:10150000606D042800F2A6803546DFE800F003ABEA
:10151000B10A0A00D8F80000354640F40030C8F897
:101520000000002D2F4600F0AD8060788007C3D505
:10153000A06D4FEAB010042800F2B480DFE800F09C
:1015400004BAC00A0A0000BFD8F8000040F4003016
:10155000C8F80000002D2E4600F0BC8060784007DF
:10156000AED5D4F8A4004FEA7050042800F2C2802F
:10157000DFE800F004C8CE0A0A0000BFD8F8000077
:1015800040F40030C8F80000002DA94600F0CA80E1
:10159000607800077FF599AFD4F8A8004FEA306073
:1015A000042800F2CF80DFE800F003D5DB09090052
:1015B000D8F8000040F40030C8F80000002D2F4695
:1015C00000F0D880E078800740F1E380A06C4FEA1B
:1015D000301003281AD8DFE800F003212B0300BFE6
:1015E0002E466DB36078C00600F1D880374660782B
:1015F000800600F1ED803E466078400600F1FC80F8
:1016000037466078000640F1BA8109E101250126DC
:101610006078C00600F1C280E8E700BFD8F800009B
:1016200040F40030C8F80000002D2E46DAD107E063
:10163000201D022101F044FF0546002D2E46D1D188
:10164000D8F82000A16C20F0300000250843C8F82D
:1016500020009EE001250127607880073FF568AFF4
:101660002AE700BF201D002101F02AFF05E000BF8E
:1016700004F12400002101F0B7FF0546002D2F469C
:101680007FF453AFD8F82400616D20F007000025E7
:101690000843C8F824003746607880077FF50CAF10
:1016A00046E700BF01250126607840073FF559AFA6
:1016B00006E700BF201D002101F002FF05E000BF8A
:1016C00004F12400002101F08FFF0546002D2E4675
:1016D0007FF444AFD8F82400A16D20F4E070002519
:1016E0000843C8F824003E46607840077FF5E8AE1E
:1016F00037E700BF01254FF00109607800073FF58B
:101700004BAFE2E6201D002101F0DAFE05E000BF4C
:1017100004F12400002101F067FF0546002DA946D1
:101720007FF436AFD8F82C00D4F8A41020F4600071
:1017300000250843C8F82C00B146607800077FF503
:10174000C4AE29E701250127E07880073FF53EAFC9
:101750001FE000BF201D002101F0B2FE05E000BF28
:1017600004F12400002101F03FFF0546002D2F4623
:101770007FF428AFD8F82C00D4F8A81020F0E0604F
:1017800000250843C8F82C004F46E07880073FF555
:101790001DAF3E466078C0067FF528AFE06D4FEA8A
:1017A0003030042800F26C80DFE800F00472780A20
:1017B0000A0000BFD8F8000040F40030C8F800006C
:1017C000002D2F4600F07480607880067FF513AFFF
:1017D000206E4FEA3040052800F27A80DFE800F002
:1017E00004808A04040400BF002D2E4600F08C8083
:1017F000607840067FF504AFD4F8AC004FEA307053
:10180000052800F29180DFE800F00397A1030303AD
:10181000002D2F4600F0A4806078000640F1AF80D4
:10182000E06E58B1B0F1005F10D0B0F1805F1FD111
:10183000D8F8000040F40030C8F800002E466DB122
:10184000E078C00700F0CF809DE000BF201D01219F
:1018500001F036FE0546002D2E46F1D1D8F82400C1
:10186000E16E20F0405000250843C8F8240086E0CF
:1018700001250126E078C00740F08580B3E000BF75
:1018800001250127607880063FF5A2AFB3E600BFCF
:10189000201D002101F014FE05E000BF04F124002A
:1018A000002101F0A1FE0546002D2F467FF48CAFEC
:1018B000D8F82400E16D20F4E04000250843C8F882
:1018C00024003746607880067FF595AE80E700BF3C
:1018D00001250126607840063FF58EAF90E600BFF7
:1018E000201D012101F0ECFD0546002D2E467FF460
:1018F0007FAF09E004F12400012101F075FE0546E7
:10190000002D2E467FF474AFD8F82400216E20F409
:10191000E02000250843C8F824003E4660784006D1
:101920007FF56EAE68E700BF0125012760780006ED
:101930003FF576AF23E000BF201D012101F0C0FD7F
:101940000546002D2F467FF467AF09E004F124001F
:10195000012101F049FE0546002D2F467FF45CAFC2
:10196000D8F82C00D4F8AC1020F0E0400025084353
:10197000C8F82C003746607800063FF551AF3E4668
:10198000E078C0072FD0606C032809D8DFE800F0AA
:1019900002101A02A946EDB1A07840062AD426E02A
:1019A00001254FF00109A078400620D522E000BFB4
:1019B000D8F8000040F40030C8F80000002DA94617
:1019C000EAD107E0201D022101F07AFD0546002D35
:1019D000A946E1D1D8F82000616C20F00300002571
:1019E0000843C8F82000B146A078400602D44F460C
:1019F00019E000BFD8F8D40340F48070C8F8D403CD
:101A0000FFF79AFA064600BFD8F8D403C00507D4FA
:101A1000FFF792FA801B6428F6D90325032702E01A
:101A2000002D2F4664D02078C00700F0B680A06F4C
:101A30004FEAF000052800F28D80DFE800F0039106
:101A40009B030303002D2E4600F09E802078800724
:101A500000F1A88037462078400700F1B7803E4665
:101A60002078800600F1C88037462078400600F1D3
:101A7000DB803E462078000600F1EE803746206885
:101A8000010740F10181D4F88000B0F5805F09D1F1
:101A900004F12400022101F0A7FD002818BF01274E
:101AA000D4F88000D8F8281021F440510843C8F831
:101AB00028002068C10640F1EA80D4F89400B0F50F
:101AC000807F09D104F12400022101F08DFD00285E
:101AD00018BF0127D4F89400D8F82C1021F44071D5
:101AE0000843C8F82C002068000340F1F780D0E0DC
:101AF000D8F84410D4F8B000414011F4407F11D020
:101B0000D8F84410D8F8442042F48032C8F8442071
:101B1000D8F8442021F4407122F48032C8F84420DF
:101B2000C8F84410B0F5807F40F0AC82FFF704FAAB
:101B3000064641F2883A0325032700BFD8F844003F
:101B4000800700F19D82FFF7F7F9801B5045F5D91A
:101B500069E700BF012501262078800722D479E7B4
:101B6000201D012101F0ACFC0546002D2E467FF41E
:101B70006DAF09E004F12400012101F035FD0546B7
:101B8000002D2E467FF462AFD8F82800A16F20F018
:101B9000380000250843C8F828003E462078800712
:101BA0007FF558AF606F052800F28E81DFE810F0F6
:101BB000060094019E01060006000600002D2F4637
:101BC00000F09E81207840077FF549AFD4F890005F
:101BD000052800F2A581DFE810F00700AB01B50190
:101BE00007000700070000BF002D2E4600F0B4815B
:101BF000207880067FF538AFD4F88C004FEA30703B
:101C0000052800F2B981DFE810F00700BF01C90123
:101C100007000700070000BF002D2F4600F0C88115
:101C2000207840067FF525AFD4F898004FEAB02021
:101C3000052800F2CD81DFE810F00700D301DD01B7
:101C400007000700070000BF002D2E4600F0DC81D2
:101C5000207800067FF512AFD4F89C004FEA703070
:101C6000052800F2E181DFE810F00700E701F1014B
:101C700007000700070000BF002D2F4600F0F0818D
:101C8000206801073FF5FFAEC1063FF516AF000320
:101C900024D5D4F8A000B0F5003F0FD0B0F5803FB8
:101CA00006D0B8BB201D002101F00AFC05E000BFF2
:101CB00004F12400022101F097FC05462E461DB1D7
:101CC000A07840073FD50DE0D8F82C00D4F8A0103C
:101CD00020F4403000250843C8F82C003E46A07888
:101CE000400730D5D4F88400B0F5401F0BD0B0F5D4
:101CF000001F15D0B0F5801F70D1D8F8000040F457
:101D00000030C8F800002F469DB1A078C0071ED152
:101D100069E000BF01260125A0784007E2D412E067
:101D200004F12400012101F05FFC0546002D2F463F
:101D3000EBD1D8F82800D4F8841020F44010002506
:101D40000843C8F828003746A078C0074BD0E06C9D
:101D5000B0F5803F2AD0D8BBD8F8000040F400305E
:101D6000C8F800002E464DB3206881003FD481039F
:101D700048D4C1025DD4C10065D481026FD4410052
:101D800078D4B0F1FF3F40F38680000208D5D8F840
:101D90002800D4F8881020F440000843C8F8280030
:101DA000002E18BF01263046BDE8F087201D022115
:101DB00001F086FB0546002D2E46D5D1D8F820002F
:101DC000E16C20F4803000250843C8F820000AE0C8
:101DD0000126012520688100C9D508E001270125D9
:101DE000A078C007B3D13E4620688100BFD504F17A
:101DF0002400022101F0F8FB002818BF012620680A
:101E00008103B6D5E16F6FF0010202EB3122022AA5
:101E10000AD34FEA31223AB1012A07D1D8F800207B
:101E200042F40032C8F80020002D41D00126C10242
:101E3000A1D5D8F82410226F21F000411143C8F831
:101E40002410C10099D558F81C1CD4F8B42021F4F2
:101E50008041114348F81C1C81027FF590AFD8F8EF
:101E60002410A26E21F080711143C8F824104100A3
:101E70007FF587AF58F81C1C21F4004148F81C1C62
:101E8000D4F8B81058F81C2C114348F81C1CB0F1B9
:101E9000FF3F3FF77AAFD8F82010226D21F0405174
:101EA0001143C8F8201000027FF57AAF6FE700BF3A
:101EB000D8F8282022F440721143C8F82810C10233
:101EC0007FF559AFB5E700BF01250127207840070E
:101ED0003FF57CAEC3E500BF201D012101F0F0FA03
:101EE0000546002D2F467FF46DAE09E004F1240075
:101EF000012101F079FB0546002D2F467FF462AEEB
:101F0000D8F82800616F20F0070000250843C8F8C2
:101F100028003746207840077FF5A1AD56E600BF80
:101F200001260125207880063FF566AE9CE500BFBE
:101F3000201D012101F0C4FA0546002D2E467FF434
:101F400057AE09E004F12400012101F04DFB0546E4
:101F5000002D2E467FF44CAED8F82C00D4F890100B
:101F600020F0070000250843C8F82C003E462078E2
:101F700080067FF579AD3FE60127012520784006F0
:101F80003FF552AE75E500BF201D002101F098FA23
:101F90000546002D2F467FF443AE09E004F12400EE
:101FA000022101F021FB0546002D2F467FF438AEBB
:101FB000D8F82800D4F88C1020F0E0400025084321
:101FC000C8F828003746207840067FF552AD2BE64A
:101FD00001260125207800063FF53EAE4EE500BF04
:101FE000201D002101F06CFA0546002D2E467FF4DD
:101FF0002FAE09E004F12400022101F0F5FA0546B4
:10200000002D2E467FF424AED8F82C00D4F898107A
:1020100020F4E05000250843C8F82C003E46207804
:1020200000067FF52BAD17E6012701252068010783
:102030007FF52AAE27E500BF201D002101F040FA00
:102040000546002D2F467FF41BAE09E004F1240065
:10205000022101F0C9FA0546002D2F467FF410AE8B
:10206000D8F82C00D4F89C1020F4604000250843D8
:10207000C8F82C003746206801077FF505AE02E559
:10208000D4F8B0004FF6CF7358F81C2CC0F2FF0301
:1020900000F4407122F47C5203EA10136FF31F30F6
:1020A000B1F5407F08BF1A43002548F81C2CD8F82A
:1020B00044100843C8F84400FFF799BC0000000032
:1020C0002DE9F04381B0002800F02A8142F2000897
:1020D0000446C5F200288946D8F8000000F00F0039
:1020E00088420ED2D8F8000020F00F0040EA090024
:1020F000C8F80000D8F8000000F00F00484540F094
:102100000F81206844F218474107C5F602070AD537
:1021100021693A6802F07002914204D93A6822F0CB
:1021200070021143396001070AD561697A6802F0CB
:102130007002914204D97A6822F0700211437960EA
:10214000C1060AD5A1697A6802F4E062914204D915
:102150007A6822F4E0621143796081060AD5E16968
:10216000BA6802F07002914204D9BA6822F0700293
:102170001143B96010F002010AD0E2683B6803F035
:102180000F039A4204D93B6823F00F031A433A60C5
:10219000C20746D0386820F47061D4E901020128F2
:1021A00041EA0201396009D003280DD0022811D17B
:1021B00057F8181C890340F1B38010E057F8181C39
:1021C000C90540F1AD800AE057F8181C890140F1BB
:1021D000A78004E057F8181C490740F1A18057F880
:1021E000081C21F00701084347F8080CFEF7A4FE7D
:1021F000064641F2883500BF57F8080C616800F0C8
:102200003800B0EBC10F09D0FEF796FE801BA84244
:10221000F2D9032001B0BDE8F08300BF206800F0D0
:10222000020151B1E1683A6802F00F02914204D212
:102230003A6822F00F0211433960D8F8001001F01B
:102240000F0149450DD9D8F8001021F00F0141EADE
:102250000901C8F80010D8F8001001F00F01494535
:102260005ED141070AD521693A6802F070029142B5
:1022700004D23A6822F070021143396001070AD58E
:1022800061697A6802F07002914204D27A6822F0A1
:10229000700211437960C1060AD5A1697A6802F417
:1022A000E062914204D27A6822F4E06211437960DC
:1022B00080060AD5E069B96801F07001884204D24D
:1022C000B96821F070010843B86000F0B5F83968CA
:1022D00044F278133A68C0F60003C1F3032102F018
:1022E0000F02595C9A5C01F01F0120FA01F102F023
:1022F0001F0040F20C0221FA00F0C2F2004210600E
:1023000040F2040040F20802C2F20040C2F2004271
:102310000068116001B0BDE8F043FEF759BE00BF90
:10232000012001B0BDE8F08380B500F085F844F2EB
:10233000184144F27813C5F60201C0F600030A689A
:10234000096801F00F01C2F30322595C9A5C02F0A4
:102350001F0220FA02F201F01F0040F20C0122FAE3
:1023600000F0C2F20041086040F20801C2F20041F0
:102370000A6080BD0000000080B500F05DF844F206
:10238000184C44F27811C5F6020CC0F60001DCF8D6
:102390000020DCF8003003F00F03C2F30322CB5C13
:1023A0008A5C02F01F02D04003F01F0240F20C03CF
:1023B00020FA02F2C2F200431A6040F20803C2F2AD
:1023C00000431860DCF80400C0F30210085C00F061
:1023D0001F0022FA00F080BD80B500F02DF844F215
:1023E000184C44F27811C5F6020CC0F60001DCF876
:1023F0000020DCF8003003F00F03C2F30322CB5CB3
:102400008A5C02F01F02D04003F01F0240F20C036E
:1024100020FA02F2C2F200431A6040F20803C2F24C
:1024200000431860DCF80400C0F30220085C00F0F0
:102430001F0022FA00F080BD44F20041C5F60201FF
:102440000869C0F3C200032810D002282CD088BB32
:102450000868800649F20000C0F2D03058BF7047CB
:102460000968C1F3C101C840704700BF8A6A886A21
:10247000C0F3051CC86ABCF1000F4B6B20D0C3F33E
:10248000CC0300F00100584302F00302022A00EEE0
:10249000100AB8EE400A15D0C2B90868800619D4EF
:1024A0009FED281A23E000BF47F64000C0F27D10E0
:1024B000704700BF40F60010C0F23D00704700BFFB
:1024C000002070479FED1E1A11E000BF9FED1B1A00
:1024D0000DE000BF086849F20002C0F2D032C0F33C
:1024E000C10022FA00F001EE100AB8EE411A086BA2
:1024F0009FED153A6FF35F2002EE100A086BC0F3F0
:102500004620B8EE422A013000EE032A00EE10CA3F
:10251000B7EE003AB8EE400A81EE000A32EE031A36
:1025200020EE010A01EE100AB8EE411A80EE010A0F
:10253000BCEEC00A10EE100A704700BF0024744AB7
:1025400020BCBE4B0024744C000000390000000089
:10255000F0B581B0002800F05B810446007844F2B9
:102560000046C007C5F6020612D0306900F03801F7
:10257000B06A102905D018292ED100F003000228D6
:102580002AD13068800303D56068002800F04081BC
:102590002078800740F1A980306910F03801B06AD6
:1025A0002CD0182908BF5FEA807027D0E068316816
:1025B00000284FD021F0190108433060FEF7BCFC21
:1025C000054600BF3068400734D4FEF7B5FC401B19
:1025D0000228F7D95BE100BF606800284CD0B0F555
:1025E000A02F61D0B0F5803F62D0306820F48030F9
:1025F0003060306820F480205DE000BF3068400724
:10260000E06802D5002800F00381316821F019014B
:1026100008433060FEF790FC054600BF3068400775
:1026200008D4FEF789FC401B02284FF00300F5D9BF
:1026300019E200BFFEF778FC41F20301884249D855
:1026400020697168402821F47C314BD141F400307D
:102650004AE000BF21F001003060FEF76DFC054646
:102660003068400741D5FEF767FC401B02284FF059
:102670000300F5D9F7E100BF306820F48030306006
:10268000306820F480203060FEF756FC054600BF1D
:10269000306880037FF57CAFFEF74EFC401B64285A
:1026A0004FF00300F4D9DEE1306840F48020306060
:1026B000306840F480303060FEF73EFC054600BFD5
:1026C000306880033FF564AFFEF736FC401B64289A
:1026D000F6D9DCE07068216920F0FE4040EA016034
:1026E00002E000BF41EA003070602078C00654D597
:1026F000306900F03801B06A082905D0182919D1CD
:1027000000F00300012815D13068C00503D5E06949
:10271000802840F07D80FEF707FC41F203018842EB
:102720001ED8206A7168202821F0F84132D141F08A
:10273000804031E0E0690028306819D040F0800026
:102740003060FEF7F9FB05463068C005E3D4FEF7BC
:10275000F3FB401B02284FF00300F5D983E100BFD3
:10276000F068216A20F07C5040EA0160F06014E0DB
:1027700020F080003060FEF7DFFB05463068C005C2
:102780000BD5FEF7D9FB401B02284FF00300F5D90B
:1027900069E100BF41EA80607060207800073BD4A7
:1027A000207880064CD4207840075DD4656A65B3F4
:1027B000306900F03800182840F0A080012DB16A7F
:1027C000306B25D001F00302A36A9A4220D1C1F3F5
:1027D0000511E26A91421BD10146226B6FF35F2122
:1027E000013A914214D1C0F34622616B01398A4209
:1027F0000ED1C0F30642A16B01398A4208D1C0F361
:102800000660E16B0139884202D1002001B0F0BDC1
:10281000012001B0F0BD00BF60690028706F39D0A1
:1028200040F001007067FEF787FB0546706F800778
:10283000B6D4FEF781FB401B0228F7D927E000BF82
:10284000A0690028306847D040F480503060FEF71F
:1028500073FB054630688004A5D4FEF76DFB401B72
:102860000228F7D913E000BFD6F8000440F48070C6
:10287000C6F80004FEF760FB054600BFD6F800046A
:10288000C00519D4FEF758FB401B6428F6D9032075
:1028900001B0F0BD20F001007067FEF74DFB05466A
:1028A000706F80077FF57CAFFEF746FB401B022868
:1028B0004FF00300F4D9D6E0A068002840D00528E6
:1028C00058D001285AD0306F20F001003067306FA7
:1028D00020F0040055E000BF20F480503060FEF787
:1028E0002BFB0546306880047FF55DAFFEF724FBC7
:1028F000401B02284FF00300F4D9B4E0306820F008
:1029000080703060FEF718FB022D05460CD100BF29
:102910003068800148D5FEF70FFB401B02284FF0BE
:102920000300F5D99FE000BF306880017FF56DAFEF
:10293000FEF702FB401B02284FF00300F4D992E09F
:10294000306F20F001003067306F20F004003067F6
:10295000FEF7F2FA054641F28837306F80077FF5BF
:1029600025AFFEF7E9FA401BB8424FF00300F4D957
:1029700079E000BF306F40F004003067306F40F006
:1029800001003067FEF7D8FA054641F2883700BFEC
:10299000306F80073FF50AAFFEF7CEFA401BB84212
:1029A0004FF00300F4D95EE004F12807B06A40F26A
:1029B000F33188438ECF0843591E40EA02104FF48A
:1029C0007E426FF35F21B06202EB47204FF4FE02BC
:1029D00080B2E36B0844A16B02EB01414FF0FE4271
:1029E00001F4FE0102EB0362084402F0FE410844D8
:1029F0003063F06A4FF6F87120F00100F062706BFE
:102A0000A26C884340EAC2007063F06A216C20F037
:102A10000C000843F062F06A616C20F00200084389
:102A2000F062F06A40F48030F062F06A40F4003006
:102A3000F062F06A40F48020F062F06A40F0010039
:102A4000F062306840F080703060FEF775FA04463E
:102A5000306880013FF5D9AEFEF76EFA001B022800
:102A60004FF00300F4D901B0F0BD000000000000F9
:102A7000411E0020B0EB116F02D00120704700BF53
:102A80004EF21002F023CEF2000251604EF62351B6
:102A9000CEF200010B7007219060116070470000BA
:102AA00090F88010012901D1022070472421C0F83C
:102AB000841002681368116823F0005321F00101AB
:102AC00011600021416613602022C0F8842080F844
:102AD00080100846704700007047000000000000AA
:102AE000704700000000000070B590F88020012AB7
:102AF00002D1022070BD00BF2422C0F884200268E9
:102B0000D0F864E0BEF1000FD2F800C0136823F0E3
:102B100001031360936823F0606341EA030191604D
:102B20001AD0916844F2A01E9368C0F6000E5B0FA5
:102B300044F2A815C1F34266C0F600051EF8034032
:102B4000E95C2301B3FBF1F11EF80630AE5D1B0119
:102B5000B3FBF6F302E000BF01210123A0F86A10E5
:102B60002021A0F86830C2F800C0C0F8841000210D
:102B700080F88010084670BD70B590F88020012A5A
:102B800002D1022070BD00BF2422C0F88420026858
:102B9000D0F864E0BEF1000FD2F800C0136823F053
:102BA00001031360936823F0604341EA03019160DD
:102BB0001AD0916844F2A01E9368C0F6000E5B0F15
:102BC00044F2A815C1F34266C0F600051EF80340A2
:102BD000E95C2301B3FBF1F11EF80630AE5D1B0189
:102BE000B3FBF6F302E000BF01210123A0F86A1055
:102BF0002021A0F86830C2F800C0C0F8841000217D
:102C000080F88010084670BD70470000000000008A
:102C10007047000000000000704700000000000046
:102C200070B50446006840F62F01C26911402029A2
:102C3000016886680CD101F0200306F080555B190D
:102C400018D0216F002957D02046BDE870400847B2
:102C500040F60F031A420DD0012340F22015C1F2B5
:102C60000003C0F2004506EA030C01EA050313EB7A
:102C70000C0343D1E36E012B05D112F0100318BFF2
:102C800011F0100326D1D3020AD516F4800307D021
:102C90004FF4801101622046BDE87040FFF7B8BFD5
:102CA000130606D501F0800306F400069B1940F0D8
:102CB000D780530602D511F040033CD1100240F1F9
:102CC000D58011F0804000F0D1802046BDE87040F2
:102CD000FFF79ABF102101628168490618D4B4F841
:102CE0005C10B4F85E20B4F85E30002B1CBF891A6B
:102CF0005FEA014240F04D8170BD00BFD30718BFAD
:102D000011F4807348D1930706F0010E50D45AE0B5
:102D1000E26F11684B6899B20029EDD0B4F85CC03D
:102D20006145E9D2A4F85E30D169B1F5807F00F049
:102D30009A82F0E1206850E8000F216820F04000FE
:102D400041E80002EAB1206850E8000F216820F055
:102D5000400041E80002A2B1206850E8000F21685D
:102D600020F0400041E80002002A1FBF206850E820
:102D7000000F216820F040001CBF41E80002002A3B
:102D8000D8D12020C4F88400002060672046BDE828
:102D9000704000F025BB00BF01230362D4F88C30E3
:102DA00043F00103C4F88C30930706F0010E0AD5F6
:102DB000BEF1000F07D002230362D4F88C3043F039
:102DC0000403C4F88C3053070AD5BEF1000F07D0B6
:102DD00004230362D4F88C3043F00203C4F88C302F
:102DE00013070CD501F0200353EA0C0307D0082386
:102DF0000362D4F88C3043F00803C4F88C30130518
:102E00000BD511F0806308D04FF400630362D4F84F
:102E10008C3043F02003C4F88C30D4F88C30002B75
:102E20003FF46AAF12F020020AD001F0200106F050
:102E30008052891804D0216F11B12046884720683C
:102E4000D4F88C10826802F0400201F02801891841
:102E500019D12046FFF7E0FE0020C4F88C0070BDB9
:102E6000616F00297FF4F0AE46E700BFD0017FF527
:102E700043AFB1F1FF3FC8BF70BD2046BDE8704011
:102E8000FFF72EBE206850E8000F216820F49070F4
:102E900041E80002EAB1206850E8000F216820F400
:102EA000907041E80002A2B1206850E8000F21684C
:102EB00020F4907041E80002002A1FBF206850E80B
:102EC000000F216820F490701CBF41E80002002A26
:102ED000D8D14FF6FE70CEF6FF70216851E8021F80
:102EE0002268014042E80213DBB1216851E8021F69
:102EF0002268014042E80213002B1FBF216851E8FD
:102F0000021F226801401CBF42E80213002B08D0B8
:102F1000216851E8021F2268014042E80213002B99
:102F2000DBD1E06E012827D1206850E8000F21682E
:102F300020F0100041E80002F2B1206850E8000FD4
:102F4000216820F0100041E80002002A1FBF20681D
:102F500050E8000F216820F010001CBF41E800027B
:102F6000002A09D0206850E8000F216820F01000E6
:102F700041E80002002AD7D12020C4F888000021AF
:102F8000E166206821678168490640F1BD8084E0E0
:102F9000206850E8000F226820F4907042E8000397
:102FA000EBB1206850E8000F226820F4907042E8EE
:102FB0000003A3B1206850E8000F226820F490704D
:102FC00042E80003002B1FBF206850E8000F226872
:102FD00020F490701CBF42E80003002BD8D14FF6BC
:102FE000FE70CEF6FF70226852E8022F236802407E
:102FF00043E80226DEB1226852E8022F236802402D
:1030000043E80226002E1FBF226852E8022F2368E1
:1030100002401CBF43E80226002E08D0226852E876
:10302000022F2368024043E80226002EDBD1202035
:10303000C4F888000020E0662067206850E8000F90
:10304000226820F0100042E80003F3B1206850E845
:10305000000F226820F0100042E80003002B1FBF81
:10306000206850E8000F226820F010001CBF42E8E2
:103070000003002B09D0206850E8000F226820F0E0
:10308000100042E80003002BD7D189B22046BDE8EA
:103090007040FFF721BD00BF206850E8020F216893
:1030A00020F0400041E80202EAB1206850E8020F37
:1030B000216820F0400041E80202A2B1206850E8F7
:1030C000020F216820F0400041E80202002A1FBFE1
:1030D000206850E8020F216820F040001CBF41E842
:1030E0000202002AD8D1E06F70B143F62121C0F668
:1030F00000010165FDF7C4FC00283FF4FDADE06F61
:10310000016DBDE8704008472046BDE87040FFF7FC
:1031100083BD00BF206850E8000F216820F4807054
:1031200041E80002EAB1206850E8000F216820F46D
:10313000807041E80002A2B1206850E8000F2168C9
:1031400020F4807041E80002002A1FBF206850E888
:10315000000F216820F480701CBF41E80002002AA3
:10316000D8D1206850E8020F216820F0010041E822
:103170000202F2B1206850E8020F216820F001003D
:1031800041E80202002A1FBF206850E8020F2168B0
:1031900020F001001CBF41E80202002A09D020688B
:1031A00050E8020F216820F0010041E80202002AE5
:1031B000D7D1206850E8020F216820F0400041E894
:1031C0000202F2B1206850E8020F216820F04000AE
:1031D00041E80202002A1FBF206850E8020F216860
:1031E00020F040001CBF41E80202002A09D02068FC
:1031F00050E8020F216820F0400041E80202002A56
:10320000D7D12020C4F888000020E066206850E86C
:10321000000F216820F0100041E80002F2B12068A0
:1032200050E8000F216820F0100041E80002002A59
:103230001FBF206850E8000F216820F010001CBF5D
:1032400041E80002002A09D0206850E8000F2168F8
:1032500020F0100041E80002002AD7D1E06FFDF70E
:1032600077F9B4F85CC0B4F85E00ACEB000081B252
:103270002046BDE87040FFF72FBC000000000000B2
:10328000B0B582B0B0B10446D0F8840028B90020AF
:1032900084F88000204600F057F82420C4F8840009
:1032A0002068016821F001010160204600F0C0FBA8
:1032B000012803D1012002B0B0BD00BFA06A10B147
:1032C000204600F03DFB2068416821F490414160B8
:1032D000816821F02A018160016841F001010160EB
:1032E0000020C4F88C00FDF727FE216805460A6817
:1032F00012070BD54FF4001100226FF07E400090B2
:1033000020462B4600F0F0FD70B9216808684007A0
:103310000ED54FF4800100226FF07E4000902046D1
:103320002B4600F0E1FD18B1032002B0B0BD00BF94
:103330002020C4F88400C4F888000020E06684F8E7
:10334000800002B0B0BD000010B5B4B069460446BC
:10335000081DB821FDF788F844F600412068C4F242
:103360000001884202D034B010BD00BF684602247C
:103370000094FEF771F808B1FDF7E2F844F2E0407E
:10338000C5F60200816841F400218160816801F482
:1033900000212F912F99016841F00201016000681E
:1033A0002FA900F002002F902F984FF44070CDE924
:1033B0002F040020CDE931000820339040F2004076
:1033C000C5F60200FDF7BCFC342004210022FDF705
:1033D00097FE3420FDF784FE34B010BD00000000DD
:1033E0007047000000000000FEE700000000000041
:1033F00082B044F2E040C5F60200016841F080016D
:103400000160016801F0800101910199016841F0BA
:1034100002010160006800F002000090009802B014
:10342000704700000000000080B540F2700044F6D4
:103430000041C2F20040C4F200010C2201604FF4CE
:10344000612141600021C0E902110161C0E905214B
:10345000C0E90711C0E90911FFF712FF08B1FDF734
:103460006FF840F270000021C2F20040FFF784FBC9
:1034700008B1FDF765F840F270000021C2F200408B
:10348000FFF732FB08B1FDF75BF840F27000C2F2C3
:103490000040FFF705FB002808BF80BDBDE8804065
:1034A000FDF74EB800000000FEE70000000000003D
:1034B000FEE7000000000000704700000000000070
:1034C000F0B581B044F22C47C5F6020757F8042C3A
:1034D00002F00302032A03D1012001B0F0BD00BFB6
:1034E000054657F82C0C0C4620F0806047F82C0C51
:1034F000FDF722FD064600BF57F82C0C000105D54C
:10350000FDF71AFD801B0228F6D964E057F8040C79
:10351000EE6895E80E0020F47C30012C40EA013082
:10352000A2F101016FF35F214FF47E4202EB4322CF
:1035300047F8040C92B24FF0FE4302EB01004FF447
:10354000FE012A6901EB064101F4FE0103EB026270
:10355000084402F0FE410844F8603868696920F0C8
:10356000C00040EA010038603868A96920F02000F6
:1035700040EA0100386038684FF6F87120F010001A
:1035800038603869EA6920EA01004FF4001140EA26
:10359000C2003861386808BF4FF4801140F0100055
:1035A000002C386008BF4FF40021386808433860A9
:1035B00057F82C0C40F0806047F82C0CFDF7BCFC51
:1035C000044600BF57F82C0C000107D4FDF7B4FCEB
:1035D000001B0328F6D3032001B0F0BD002001B08A
:1035E000F0BD000000000000F0B581B044F22C47AF
:1035F000C5F6020757F8042C02F00302032A03D190
:10360000012001B0F0BD00BF054657F82C0C0C4658
:1036100020F0805047F82C0CFDF78EFC064600BFCA
:1036200057F82C0C800005D5FDF786FC801B02287E
:10363000F6D964E057F8040CEE6895E80E0020F027
:103640007C70012C40EA0150A2F101016FF35F216F
:103650004FF47E4202EB432247F8040C92B24FF043
:10366000FE4302EB01004FF4FE012A6901EB064123
:1036700001F4FE0103EB0262084402F0FE4108443B
:1036800078613868696920F4406040EA0100386078
:103690003868A96920F4007040EA01003860386891
:1036A0004FF6F87120F480703860B869EA6920EA52
:1036B00001004FF0807140EAC200B861386808BF6D
:1036C0004FF4000140F48070002C386008BF4FF4C4
:1036D000800138680843386057F82C0C40F080505F
:1036E00047F82C0CFDF728FC044600BF57F82C0CBB
:1036F000800007D4FDF720FC001B0328F6D303202D
:1037000001B0F0BD002001B0F0BD000000000000DD
:103710007047000000000000FDF716BC000000002C
:1037200070B59CB044F6180440F22C4509A84C2111
:10373000C5F60204C5F60005FCF796FE0220002639
:10374000CDE90766CDE90566CDE90366CDE90166F9
:10375000FDF716FD0096286820F001002860286813
:1037600000F001000090206840F440402060206894
:1037700000F44040009000982068800409D420683C
:1037800080045CBF20685FEA804002D42068800427
:10379000F2D54FF6DC40CFF6FF70215841F0020120
:1037A0002150205800F00200009000980020009066
:1037B000206840F440402060206800F440400090C1
:1037C000286840F001002860286800F0010000909F
:1037D00000982068800409D4206880045CBF2068B9
:1037E0005FEA804002D420688004F2D5012009906D
:1037F0004FF480300A9002200521CDE91200149187
:10380000C021CDE91510CDE9170009A808241994A5
:103810000025CDE91A55FEF79BFE28B1EFF3108085
:1038200072B600BFFEE700BF3F20019003204FF4B7
:103830008061CDE9020540200494CDE90500CDE981
:10384000071001A80421FEF73BFC28B1EFF310801C
:1038500072B600BFFEE700BF1CB070BD00000000E4
:103860004EF6885042F2000CCEF20000C5F2002C59
:10387000016841F470010160DCF8000000F00F0005
:10388000062806D8DCF80000072161F30300CCF815
:10389000000044F200404EF67F52C5F60200CEF61C
:1038A000F622016841F00101016000210161036815
:1038B0001A400260DCF80020120706D5DCF8002070
:1038C000072363F30302CCF8002040F20022816159
:1038D000C161C0F20222016282620022C0F2FF12C4
:1038E000C26240F28022C0F201120263416382632D
:1038F000C16302644164026822F4802202600166AE
:1039000041F20000C5F600400068B1EB507F05D1E0
:1039100048F208100121C5F20010016044F20000D5
:1039200043F2D201C5F200200160704700000000A0
:1039300040F27000C2F20040FFF772B900000000D0
:10394000816ACA070CD18A0715D44A071ED40A0710
:1039500027D4CA0630D48A0639D44A0655D541E060
:103960000268D0F82CC0536823F4003343EA0C03F8
:1039700053608A07E9D50268D0F830C0536823F451
:10398000803343EA0C0353604A07E0D50268D0F85D
:1039900034C0536823F4802343EA0C0353600A07BE
:1039A000D7D50268D0F838C0536823F4004343EAFF
:1039B0000C035360CA06CED50268D0F83CC09368A9
:1039C00023F4805343EA0C0393608A06C5D502684A
:1039D000D0F840C0936823F4005343EA0C0393608B
:1039E0004A0612D50268D0F844C0BCF5801F53685F
:1039F00023F4801343EA0C03536006D1536823F485
:103A0000C00C836C43EA0C035360090658BF70472F
:103A10000168C06C4A6822F4002210434860704775
:103A2000806B0021A0F85E10A0F85610FFF7F4B8E4
:103A300070B584B00446006804F1080340F6004EF7
:103A4000E669C5F6000E0ECB194363690B4346F6D3
:103A5000F3110568CCF6FF71334329401943016027
:103A600041684FF2FF4321F44051704541EA0201A1
:103A70004160A269C1F2FF131CBF216A0A43816839
:103A800044F2544C1940C5F6020C1143816047F2D0
:103A9000FF72C16AC4F2000221F00F01656A904210
:103AA0004FF0800341EA0501C16221DD40F6FF715C
:103AB000C4F2010188422FDD704500F0FB8041F225
:103AC0000041C4F20101884205D041F20001C4F274
:103AD0000101884247D1DCF80010C1F3C202062A76
:103AE00080F0F08044F26C11C0F6000139E000BFB4
:103AF00044F6FF31C4F2000188421BDC44F200416D
:103B0000C4F20001884221D044F60001C4F2000151
:103B100088421BD027E000BF47F60001C4F2000135
:103B2000884213D047F60041C4F2000188420DD00C
:103B300019E000BF44F60041C4F20001884205D0FC
:103B400045F20001C4F2000188420CD1DCF80010FB
:103B500001F00702062A80F0B58044F27211C0F627
:103B600000018B181B78704540F60010C0F23D0034
:103B700000F0B080B6F5004F40F04E80402B4FF083
:103B8000010100F2A281DFE813F041001D01A00154
:103B9000A0012301A001A001A0012B01A001A0010F
:103BA000A001A001A001A001A0013301A001A0017A
:103BB000A001A001A001A001A001A001A001A001FD
:103BC000A001A001A001A001A0014301A001A0014A
:103BD000A001A001A001A001A001A001A001A001DD
:103BE000A001A001A001A001A001A001A001A001CD
:103BF000A001A001A001A001A001A001A001A001BD
:103C0000A001A001A001A001A0014101FEF7B4FBA9
:103C1000002840F0DA80E9E0402B4FF0010100F28B
:103C20005481DFE813F041001301520152011901E0
:103C3000520152015201210152015201520152011D
:103C40005201520152012901520152015201520105
:103C500052015201520152015201520152015201CC
:103C600052015201520139015201520152015201D5
:103C700052015201520152015201520152015201AC
:103C8000520152015201520152015201520152019C
:103C9000520152015201520152015201520152018C
:103CA0005201520152013701FEF766FB002840F035
:103CB000D080DFE0DCF8041001F00702062A01D210
:103CC00086A14EE78023704540F60010C0F23D000B
:103CD0007FF450AF9A1E01211E2A27D8DFE812F088
:103CE0002000F5002C00F500F500F5003400F5008B
:103CF000F500F500F500F500F500F5003C00F500D5
:103D0000F500F500F500F500F500F500F500F5000B
:103D1000F500F500F500F500F500F500490000BFDD
:103D2000FDF756FAB0B1656A23E000BF402B40F0C2
:103D3000CC804FF400401CE001A8FDF75DFA02982A
:103D40000028F0D106E000BF01A8FDF7EDFA0298C7
:103D50000028E8D10021B8E05CF8540C800649F254
:103D60000000C0F2D03004D55CF8541CC1F3C1018E
:103D7000C84044F288116268C0F6000131F815109D
:103D8000B0FBF1F002EB420188424FF00101C0F0BC
:103D90009C801303984200F29880010E00230002D9
:103DA00010EB520041F10001FCF7E6FA4FF6005229
:103DB000A0F54071C0F20F029142C0F08080012155
:103DC00083E000BFFEF708FB80B1656A20E000BF1A
:103DD00001A8FDF711FA02980028F6D106E000BF0D
:103DE00001A8FDF7A1FA02980028EED100216CE0AD
:103DF0005CF8540C800649F20000C0F2D03007D5C0
:103E00005CF8541CC1F3C101C84001E04FF400400C
:103E100044F28811C0F6000131F81510B0FBF1F042
:103E200061684A0802EB40004FF6EF72B0FBF1F018
:103E3000A0F11001914207D84FF6F0710140C0F394
:103E4000420008443BE000BF01213EE0FEF7C4FA17
:103E500080B1656A20E000BF01A8FDF7CDF90298A6
:103E60000028F6D106E000BF01A8FDF75DFA029830
:103E70000028EED1002128E05CF8540C800649F2BD
:103E80000000C0F2D03007D55CF8541CC1F3C1016A
:103E9000C84001E04FF4004044F288116268C0F667
:103EA000000131F81510B0FBF1F000EB5200B0FB4F
:103EB000F2F0A0F110014FF6EF72914204D82168A0
:103EC000C860002101E000BF01214FF00110A06691
:103ED0000020C4E91C00084604B070BD02040810AC
:103EE00020400000000000002DE9F0410446006879
:103EF0000D46C7693940491BB1FA81F14909914220
:103F000040F0A780DDF81880B8F1000F2AD01646DF
:103F100018F1010140F08680C1692940491BB1FABE
:103F200081F14909B14240F09480C1692940491B9F
:103F3000B1FA81F14909B14201BFC1692940491B68
:103F4000B1FA81F104BF4909B14240F08280C169F0
:103F50002940491BB1FA81F14909B142DCD0002066
:103F6000BDE8F081FCF7E8FF206850E8000F216809
:103F700020F4D07041E80002F2B1206850E8000F50
:103F8000216820F4D07041E80002002A1FBF206899
:103F900050E8000F216820F4D0701CBF41E80002F7
:103FA000002A09D0206850E8000F216820F4D07062
:103FB00041E80002002AD7D1206850E8020F2168AA
:103FC00020F0010041E80202F2B1206850E8020F3F
:103FD000216820F0010041E80202002A1FBF20688A
:103FE00050E8020F216820F001001CBF41E80202E6
:103FF000002A09D0206850E8020F216820F0010053
:1040000041E80202002AD7D12020C4F8840004F13C
:10401000880020210160002084F880000320BDE892
:10402000F08100BF1F4600BFFCF786FFC01B404564
:104030009AD820680168490744BFC1695FEA015105
:104040000AD4C0692840401BB0FA80F04009B04251
:10405000EAD00020BDE8F0814FF40061016200E089
:10406000206850E8000F216820F4D07041E8000279
:10407000EAB1206850E8000F216820F4D07041E8D0
:104080000002A2B1206850E8000F216820F4D0702F
:1040900041E80002002A1FBF206850E8000F216895
:1040A00020F4D0701CBF41E80002002AD8D120685B
:1040B00050E8020F216820F0010041E80202F2B14D
:1040C000206850E8020F216820F0010041E8020258
:1040D000002A1FBF206850E8020F216820F001006D
:1040E0001CBF41E80202002A09D0206850E8020FF4
:1040F000216820F0010041E80202002AD7D12020E7
:10410000C4F88400C4F8880004F18C0081E7000042
:10411000FEE700000000000084B001200090FCF7E2
:10412000AFFF0020019048F21F70029040F2011092
:1041300003906846FCF774FF0420FCF7B1FFFCF71E
:1041400013FFFFF7EDFAFFF753F9FFF76DF900BF23
:10415000FEE7F1EE100A4FF6FF71C0F2C03120EA1F
:10416000010040F04070E1EE100A704701040810B1
:104170002040000408102040000000000102030459
:1041800001020304060708090100020004000600FA
:1041900008000A000C001000200040008000000110
:1041A00001010103070100000804020408010101E4
:1041B000D04100080000002410000000D4020008D4
:1041C000E041000810000024F8060000F00200089A
:1041D00001000000100000000090D0030090D00308
:040000050800029954
:00000001FF
