:020000040800F2
:1000000090160024AD020008A135000881340008D4
:100010009935000839080008A146000800000000D2
:10002000000000000000000000000000013800088F
:100030004108000800000000A93500080938000840
:10004000C7020008C7020008C7020008C70200086C
:10005000C7020008C7020008C7020008C70200085C
:10006000C7020008C7020008C7020008C70200084C
:10007000C7020008C7020008C7020008C70200083C
:10008000C7020008C7020008C7020008C70200082C
:10009000C7020008C7020008C7020008C70200081C
:1000A000C7020008C7020008C7020008C70200080C
:1000B000C7020008C7020008C7020008C7020008FC
:1000C000C7020008C7020008C7020008C7020008EC
:1000D000C7020008C7020008C7020008C7020008DC
:1000E000C7020008C702000800000000C70200089D
:1000F000C7020008C7020008C7020008C7020008BC
:10010000C7020008C7020008C7020008C7020008AB
:10011000D1390008C7020008C7020008C70200085A
:10012000C7020008C7020008C7020008C70200088B
:10013000C7020008C7020008C7020008C70200087B
:1001400000000000000000000000000000000000AF
:10015000C7020008C7020008C7020008C70200085B
:10016000C7020008C7020008C7020008C70200084B
:10017000C7020008C7020008C7020008C70200083B
:10018000C7020008C7020008C7020008C70200082B
:10019000C7020008C7020008C7020008C70200081B
:1001A000C7020008C7020008C7020008C70200080B
:1001B000C7020008C7020008C7020008C7020008FB
:1001C000C7020008C7020008C7020008C7020008EB
:1001D000C7020008C7020008C7020008C7020008DB
:1001E000C7020008C7020008C7020008C7020008CB
:1001F000C7020008C7020008C7020008C7020008BB
:10020000C7020008C7020008C7020008C7020008AA
:10021000C7020008C7020008C7020008C70200089A
:10022000C7020008C7020008C7020008000000005B
:10023000C7020008C702000800000000C70200084B
:10024000C7020008C7020008C7020008C70200086A
:10025000C7020008C7020008C7020008C70200085A
:10026000C7020008C7020008C7020008C70200084A
:10027000C7020008C7020008C7020008000000000B
:10028000C7020008C7020008C702000800000000FB
:1002900000000000C7020008DFF80CD000F048FAA8
:1002A0000048004731470008901600240648804760
:1002B00006480047FEE7FEE7FEE7FEE7FEE7FEE74B
:1002C000FEE7FEE7FEE7FEE7F138000899020008C6
:1002D0002DE9F05F0546002092469B46884606467B
:1002E000814640241BE0284641464746224600F00E
:1002F00057F853465A46C01A914110D31146184632
:10030000224600F03EF82D1A67EB01084F462246C0
:100310000120002100F035F817EB00094E41201EA6
:10032000A4F10104DFDC484631462A464346BDE8D5
:10033000F09FD2B201E000F8012B491EFBD27047BA
:100340000022F6E710B513460A4604461946FFF7A1
:10035000F0FF204610BD30B50B460146002020229C
:10036000012409E021FA02F59D4205D303FA02F5C2
:10037000491B04FA02F52844151EA2F10102F1DC22
:1003800030BD202A04DB203A00FA02F10020704739
:100390009140C2F1200320FA03F3194390407047C3
:1003A000202A04DB203A21FA02F00021704721FACA
:1003B00002F3D040C2F12002914008431946704731
:1003C0002DE9FE4F804681EA0300C00F0C460090E5
:1003D00021F0004123F00045B8EB0200A94105D20D
:1003E0004046214690461C460B46024623F00040FC
:1003F000104347D0270DC7F30A00C3F30A510290F8
:10040000401A019040286BDAC3F3130040F4801BBC
:100410000098924620B10023D2EB030A63EB0B0B4A
:1004200001985946C0F140025046FFF7AAFF064620
:100430000D4650465946019A00F08CF910EB080021
:100440006141002487EA115284EAE7731A4340D0DD
:10045000009A62B3019A012A4FEA075215DC001B89
:1004600061EB02014FF0004202EA0752CDE900427F
:10047000001C41F5801132462B4600F08CF903B088
:10048000BDE8F08F40462146F9E7001B61EB020111
:10049000001C41F5801300185B412018A2F50017DD
:1004A00047EB030140EAD570B6196D4111E06D08C4
:1004B0004FEA360645EAC0754FEA0752001B61EB6A
:1004C0000201001C41F5801149084FEA3000001973
:1004D000514132462B4603B0BDE8F04F00F04CB915
:1004E0000098012240000023D0EB020263EBE0738E
:1004F000009821464FEAE074B8EB000061EB04017C
:10050000E9E783F000435BE781F0004158E72DE91C
:10051000FE4F81EA030404F0004421F000410094FE
:100520004FF0000B23F0004350EA01045ED052EA82
:1005300003045BD0C3F30A54C1F30A552C44A4F25C
:10054000F3340194A0FB0254C1F3130141F4801170
:10055000C3F3130343F4801301FB024400FB034E77
:10056000840A970A44EA815447EA8357A4FB076840
:1005700002958D0A05FB07854FEA932C04FB0C546A
:100580002705029D4FEA065847EA1637B5EB0805DE
:100590006EEB070C870E920E47EA811742EA831230
:1005A000A7FB0201B6EB0B0164EB00042B0D43EA41
:1005B0000C335E1844EB1C50DA465146E7FB02014F
:1005C000C5F313044FEA0B3343EA14534FEA0432E2
:1005D000019C43EA0603A4F10C040294009CCDE9BB
:1005E00000B400F0D8F803B0BDE8F08F0020014659
:1005F000F9E72DE9F04D81EA030404F0004B21F006
:10060000004514464FF0000A23F0004150EA05026D
:1006100020D054EA01021DD0C5F30A570246C5F3A3
:100620001303C1F31300C1F30A5640F4801543F4D9
:100630008013A7EB0608101BD64608F2FD3873EBB3
:10064000050002D308F1010801E092185B41B8F1FE
:10065000000F03DA00200146BDE8F08D00204FF4C2
:100660008011064684460EE0171B73EB050705D381
:10067000121B63EB050306434CEA010C49084FEAE1
:10068000300092185B4150EA0107EDD152EA0300B5
:1006900012D082EA040083EA0501084305D0101B4A
:1006A000AB4106D20122002306E000224FF00043B6
:1006B00002E06FF0010253101AEB06004CEB0851F8
:1006C00010EB0A0041EB0B01BDE8F04D00F054B80F
:1006D000C1F30A52C1F3130140F2FF3341F4801118
:1006E0009A4202DA00200146704740F233439A42B0
:1006F000A2F2334202DC5242FFF752BEFFF741BE84
:1007000030B5041E71F1000404DB4FF00044404298
:1007100064EB0101141E73F1000405DB1C464FF06D
:100720000043524263EB0403994208BF904230BD3C
:10073000064C074D06E0E06840F0010394E807002E
:1007400098471034AC42F6D3FFF7AAFD9451000845
:10075000B4510008202A06DBCB17203A41FA02F0F8
:1007600043EAE07306E041FA02F3D040C2F120020E
:10077000914008431946704710B5141E73F10004E8
:1007800008DA401C41F1000192185B411A4301D183
:1007900020F0010010BD2DE9F04D92469B4611B1AD
:1007A000B1FA81F202E0B0FA80F220329046FFF70F
:1007B000E8FD04460F4640EA0A0041EA0B015346B1
:1007C0005A46084313D0114653EA010019D0C8F124
:1007D00040025046FFF7E4FD05460E465046594696
:1007E0004246FFF7CEFD084305D0012004E0204635
:1007F0003946BDE8F08D0020054346EAE0762C43FB
:1008000037430A986305E40AA0EB08000022FD0ABA
:1008100044EA47540A3002D500200146E9E70105C1
:1008200010196941DDE9084500196941BDE8F04D3D
:10083000A2E7000000000000FEE70000000000004A
:100840007047000000000000EFF3108072B600BF98
:10085000FEE70000000000002DE9F041044600F032
:10086000F7FC1CB3054694F83500022822D140F26B
:100870000F462768C4F2020640F26F48B7426FF095
:100880000E00C4F202081DDC6F21C4F202018F4287
:100890002ADC3F21C4F202018F4241DC1021C4F264
:1008A00002018F4263D028215CE000BF0120BDE837
:1008B000F08100BF80206065002084F834000120B2
:1008C000BDE8F08147451BDC40F23F41C4F2020124
:1008D0008F422DDC40F21041C4F202018F4246D01B
:1008E00040F228413EE000BF9F21C4F202018F4246
:1008F00028DC7021C4F202018F4238D0882131E017
:1009000040F29F41C4F202018F4223DC40F2704169
:10091000C4F202018F422AD040F2884122E000BF97
:100920004021C4F202018F4221D058211AE000BFB9
:1009300040F24041C4F202018F4218D040F25841C7
:1009400010E000BFA021C4F202018F420FD0B821F5
:1009500008E000BF40F2B841C4F202018F4206D065
:1009600040F2A041C4F202018F42394607D1394614
:10097000386820F01E0041F8140B6FF080000A6800
:10098000474500EA020008601ADC9F20C4F202001A
:10099000874233DC5720C4F2020087425ADC102021
:1009A000C4F20200874200F097802820C4F20200BF
:1009B000874200F091804020C4F202008AE000BF2C
:1009C00045F22F40C5F6020087422DDC40F2B740C9
:1009D000C4F2020087424BDC40F27040C4F20200D5
:1009E000874279D040F28840C4F20200874273D037
:1009F00040F2A040C4F202006CE000BF40F2274089
:100A0000C4F20200874243DCA020C4F20200874205
:100A100062D0B820C4F2020087425DD040F210409C
:100A2000C4F2020056E000BF45F26B40C5F602007A
:100A300087423FDC45F23040C5F6020087424BD08A
:100A400045F24440C5F60200874245D045F2584081
:100A50003EE000BF5820C4F2020087423CD0702024
:100A6000C4F20200874237D08820C4F2020031E08D
:100A700040F2B840C4F2020087422DD045F208404F
:100A8000C5F60200874227D045F21C4020E000BF97
:100A900040F22840C4F2020087421DD040F240409C
:100AA000C4F20200874217D040F25840C4F202005C
:100AB00010E000BF45F26C40C5F6020087420BD043
:100AC00045F29440C5F60200874205D045F28040C9
:100AD000C5F60200874204D1206E016821F48071BE
:100AE0000160386820F00100386000BF3868C00736
:100AF00010D000F0ADFB401B0628F7D32020606526
:100B0000002084F83400032084F835000120BDE87B
:100B1000F08100BF2068B04210DC6F21C4F20201F6
:100B200088421DDC3F21C4F20201884234DC1021DE
:100B3000C4F20201884255D028214FE040451BDC19
:100B400040F23F41C4F2020188422DDC40F21041E4
:100B5000C4F20201884245D040F228413EE000BF85
:100B60009F21C4F20201884228DC7021C4F20201F4
:100B7000884237D0882131E040F29F41C4F202011F
:100B8000884223DC40F27041C4F20201884229D03D
:100B900040F2884122E000BF4021C4F202018842B5
:100BA00020D058211AE000BF40F24041C4F20201B7
:100BB000884217D040F2584110E000BFA021C4F293
:100BC000020188420ED0B82108E000BF40F2B841CF
:100BD000C4F20201884205D040F2A041C4F20201F1
:100BE00088425BD1D4E9161202F01F023F2303FAB8
:100BF00002F28A6040455BDC9F21C4F20201884218
:100C000014DC5721C4F20201884227DC1021C4F20F
:100C10000201884200F0A2802821C4F20201884229
:100C200000F09C804021C4F2020195E040F227418F
:100C3000C4F2020188421FDCA021C4F202018842F2
:100C400000F08C80B821C4F20201884200F0868056
:100C500040F21041C4F202017EE000BF5821C4F20C
:100C6000020188427AD07021C4F20201884275D014
:100C70008821C4F202016FE040F22841C4F202016F
:100C800088426BD040F24041C4F20201884265D0F4
:100C900040F25841C4F202015EE000BFD4E91612EE
:100CA00002F01F02012303FA02F24A604045A3DD6D
:100CB00045F22F41C5F60201884217DC40F2B741E8
:100CC000C4F20201884227DC40F27041C4F2020102
:100CD000884243D040F28841C4F2020188423DD0AC
:100CE00040F2A041C4F2020136E000BF45F26B4180
:100CF000C5F6020188421FDC45F23041C5F602010B
:100D000088422BD045F24441C5F60201884225D0E5
:100D100045F258411EE000BF40F2B841C4F2020162
:100D200088421BD045F20841C5F60201884215D021
:100D300045F21C410EE000BF45F26C41C5F60201D0
:100D400088420BD045F29441C5F60201884205D095
:100D500045F28041C5F6020188420BD1616EA26E58
:100D6000E06E4A6030B1016821F480710160D4E91D
:100D70001C014160002084F83400012184F8351002
:100D8000BDE8F0810000000080B5D8B190F83510C2
:100D9000022919D140F20F420168C4F202029142C5
:100DA00016DC6F23C4F20203994227DC3F23C4F20E
:100DB000020399423EDC1023C4F2020399425FD041
:100DC000282359E0012080BD80214165012080BD9C
:100DD00040F26F43C4F2020399421BDC40F23F43EE
:100DE000C4F2020399422DDC40F21043C4F2020324
:100DF000994245D040F228433EE000BF9F23C4F211
:100E00000203994228DC7023C4F20203994237D0CE
:100E1000882331E040F29F43C4F20203994223DC6D
:100E200040F27043C4F20203994229D040F2884351
:100E300022E000BF4023C4F20203994220D058238D
:100E40001AE000BF40F24043C4F20203994217D0B7
:100E500040F2584310E000BFA023C4F202039942BD
:100E60000ED0B82308E000BF40F2B843C4F202033A
:100E7000994205D040F2A043C4F20203994275D1D1
:100E800091424FF0040280F8352011DC6F20C4F24B
:100E90000200814222DC3F20C4F20200814239DCA0
:100EA0001020C4F20200814259D0282054E000BF33
:100EB00040F26F40C4F2020081421BDC40F23F402E
:100EC000C4F2020081422DDC40F21040C4F2020064
:100ED000814244D040F228403EE000BF9F20C4F24F
:100EE0000200814228DC7020C4F20200814236D028
:100EF000882031E040F29F40C4F20200814223DCAE
:100F000040F27040C4F20200814228D040F2884092
:100F100022E000BF4020C4F2020081421FD05820CE
:100F20001AE000BF40F24040C4F20200814216D0F5
:100F300040F2584010E000BFA020C4F202008142FD
:100F40000DD0B82008E000BF40F2B840C4F2020063
:100F5000814204D040F2A040C4F2020081420868FD
:100F600020F001000860002080BD00BF0A6822F068
:100F70000E020A6045F25742C5F6020291420A6823
:100F800022F001020A600FDC45F22F42C5F6020290
:100F9000914219DC45F20842C5F60202914229D07D
:100FA00045F21C4222E000BF45F27F42C5F6020234
:100FB000914213DC45F25842C5F60202914219D023
:100FC00045F26C4212E000BF45F23042C5F6020223
:100FD00091420FD045F2444208E000BF45F29442EE
:100FE000C5F60202914205D045F28042C5F60202E2
:100FF00091421AD1D0E9181CD0E916E30A6822F40C
:1010000080720A6003F01F01012202FA01F1CEF89A
:101010000410816ECCF80410C16E31B10A6822F45C
:1010200080720A60D0E91C124A60002180F83410F6
:10103000012280F83520026D0AB190470021084650
:1010400080BD0000000000002DE9F04F86B08C4606
:1010500042F20042C5F602020A2102909042DCF8F8
:10106000007008BF0921002F009100F0DD80029878
:101070004FF0000900F12642009902F1FF720126AB
:101080004FEAB2224FF0000A092A4FF0000838BF99
:1010900011460122CDF804C000910DE0DCF800708B
:1010A00008F1010837FA06F10AF1020A06F1010611
:1010B00009F1040900F0B880701E02FA00FE17EA78
:1010C0000E01EBD0DCF804B00491BBF1120F00F27A
:1010D000A38002FA0BF717F0061F00F09D80029C18
:1010E000032101FA0AF3A268DCF80C709A43D94391
:1010F00007FA0AF31A43A26062684FEA1B134FEA29
:10110000480522EA0E0283401A4362604BF0100346
:10111000E268122BDCF8083002EA010203FA05F358
:10112000039142EA0302E26014D16FF0030109F077
:101130001C0701EA50020F212244B940D2F820E0F6
:10114000DCF810302EEA0101BB40029C1943116209
:10115000DCF804B00BF003012268039BA9401A409D
:101160005FEACB0341EA02012160DDF804C04FF0E1
:101170000102049C92D544F2F44240F2084EC5F6B6
:101180000202C5F6000E0F27116841F0020111603E
:10119000116801F00201059120F00301059A09F0A0
:1011A0000C024FF0B04051F80E309740BB43009F07
:1011B00007FA02F21A4341F80E2040F2040EC5F677
:1011C000000EDEF87C10DCF8042041EA0403D703AB
:1011D00058BF21EA04039703CEF87C30DEF8801074
:1011E00041EA040358BF21EA0403D702CEF8803055
:1011F000016841EA040358BF21EA040392024FF058
:1012000001020360DEF8001041EA040358BF21EA3E
:101210000403CEF8003041E70321554601FA0AF7EE
:10122000029CF94372E700BF06B0BDE8F08F0000F2
:10123000002A08BF09048161704700000000000017
:1012400041F20000C5F600400068000C7047000045
:1012500040F28C60C2F2004000687047000000005D
:1012600040F2000040F28C61C2F20040C2F2004144
:1012700000780A6810440860704700000000000011
:1012800080B5032000F0A8F801F012FA44F21841EA
:1012900045F25C13C5F60201C0F600030A6809684E
:1012A00001F00F01C2F30322595C9A5C01F01F01A7
:1012B00002F01F02D04040F20C02C2F2004220FABB
:1012C00001F1116040F20801C2F2004108600F20F4
:1012D00000F00AF800281CBF012080BD00F02CF8A7
:1012E000002080BD0000000070B540F20006C2F290
:1012F00000463178E1B1044640F20800C2F20040F5
:101300004FF47A72B2FBF1F10068B0FBF1F001F03A
:10131000DBFC0F2C4FF0010508D838B94FF0FF3037
:1013200000222146002500F027F87460284670BD91
:10133000012070BD0000000081B044F2F440C5F609
:101340000200016841F002010160006800F0020043
:101350000090009801B07047002848BF704700F027
:101360001F01012202FA01F14EF200124009CEF2F1
:10137000000242F820107047B0B54EF60C5C00F049
:101380000F05CEF2000C043D6544DCF800304FF050
:10139000FF3CC3F3022E8EF00703042B28BF042367
:1013A000BEF1030438BF00240CFA03F3B0F1FF3F91
:1013B00021EA030105F10C0300F160450CFA04F089
:1013C000C8BF05F56443A14022EA000008430001BC
:1013D0001870B0BD000000004EF60C514FF6FF0330
:1013E000CEF200010A681A4060F30A2242F08060DF
:1013F00040F0FD7008607047B0B544F60C05C5F6C6
:10140000020529684907296806D401F00701081A6E
:1014100018BF0120B0BD00BF21F0070108432860BC
:10142000FFF716FF044600BF55F8080C800407D4E8
:10143000FFF70EFF001BB0F57A7FF5D90120B0BD94
:101440000020B0BD0000000080B501F0A9F844F212
:10145000204145F25C12C5F60201C0F6000209689F
:10146000C1F30211515C01F01F01C84080BD0000B2
:1014700080B544F2384EC5F6020E5EF8103C5EF8B8
:10148000101CC1F3053C5EF80C1CBCF1000FDEF82B
:10149000042015D0C1F30011C2F3CC02514300EE79
:1014A000101A03F003010229B8EE400A0ED089B9E0
:1014B0005EF8381C890611D49FED361A1CE000BF77
:1014C00000218160C0E9001180BD00BF9FED301A8E
:1014D00012E000BF9FED2D1A0EE000BF5EF8381C31
:1014E00049F20002C0F2D032C1F3C10122FA01F187
:1014F00001EE101AB8EE411ADEF800109FED263A00
:101500006FF35F2102EE101ADEF80010C1F34621DE
:10151000B8EE422A00EE032A00EE10CAB7EE003AF7
:10152000B8EE400A81EE000A32EE031A02EE101AFB
:10153000B8EE422A20EE010A32EE031A80EE011ABA
:10154000BCEEC11A80ED001ADEF80010C1F30641AE
:1015500001EE101AB8EE411A31EE031A80EE011AAC
:10156000BCEEC11A80ED011ADEF80010C1F306616D
:1015700001EE101AB8EE411A31EE031A80EE010A9C
:10158000BCEEC00A10EE101A816080BD0024744ABF
:1015900020BCBE4B0024744C000000390000000049
:1015A00080B544F2404EC5F6020E5EF8183C5EF877
:1015B000181CC1F3055C5EF8141CBCF1000FDEF8CA
:1015C000042015D0C1F30021C2F3CC02514300EE38
:1015D000101A03F003010229B8EE400A0ED089B9AF
:1015E0005EF8401C890611D49FED361A1CE000BF3E
:1015F00000218160C0E9001180BD00BF9FED301A5D
:1016000012E000BF9FED2D1A0EE000BF5EF8401CF7
:1016100049F20002C0F2D032C1F3C10122FA01F155
:1016200001EE101AB8EE411ADEF800109FED263ACE
:101630006FF35F2102EE101ADEF80010C1F34621AD
:10164000B8EE422A00EE032A00EE10CAB7EE003AC6
:10165000B8EE400A81EE000A32EE031A02EE101ACA
:10166000B8EE422A20EE010A32EE031A80EE011A89
:10167000BCEEC11A80ED001ADEF80010C1F306417D
:1016800001EE101AB8EE411A31EE031A80EE011A7B
:10169000BCEEC11A80ED011ADEF80010C1F306613C
:1016A00001EE101AB8EE411A31EE031A80EE010A6B
:1016B000BCEEC00A10EE101A816080BD0024744A8E
:1016C00020BCBE4B0024744C000000390000000018
:1016D0002DE9F0470446C07844F22C480007C5F6CF
:1016E000020845D5606E4FEA305103290CD8DFE877
:1016F00001F003112F3800BFD8F8001041F4003179
:10170000C8F800102DE000BF01266078C0070AD09D
:1017100032E000BF201D022101F04AFF0646F8B169
:101720006078C00728D135463746607880073BD4BB
:101730003E466078400750D4B1466078000700F11B
:1017400067804F46E078800740F15F817AE000BF14
:1017500004F12400022101F0BFFF06460028DFD17A
:10176000606ED8F8241021F440110843C8F8240012
:1017700000266078C007D6D0606D042800F2A680ED
:101780003546DFE800F003ABB10A0A00D8F80000E4
:10179000354640F40030C8F80000002D2F4600F018
:1017A000AD8060788007C3D5A06D4FEAB0100428E3
:1017B00000F2B480DFE800F004BAC00A0A0000BFFB
:1017C000D8F8000040F40030C8F80000002D2E4684
:1017D00000F0BC8060784007AED5D4F8A4004FEA92
:1017E0007050042800F2C280DFE800F004C8CE0A7E
:1017F0000A0000BFD8F8000040F40030C8F800002C
:10180000002DA94600F0CA80607800077FF599AFE7
:10181000D4F8A8004FEA3060042800F2CF80DFE857
:1018200000F003D5DB090900D8F8000040F40030CF
:10183000C8F80000002D2F4600F0D880E07880071F
:1018400040F1E380A06C4FEA301003281AD8DFE89B
:1018500000F003212B0300BF2E466DB36078C00655
:1018600000F1D88037466078800600F1ED803E4672
:101870006078400600F1FC8037466078000640F151
:10188000BA8109E1012501266078C00600F1C28015
:10189000E8E700BFD8F8000040F40030C8F80000C6
:1018A000002D2E46DAD107E0201D022101F080FE36
:1018B0000546002D2E46D1D1D8F82000A16C20F08D
:1018C000300000250843C8F820009EE001250127CC
:1018D000607880073FF568AF2AE700BF201D002130
:1018E00001F066FE05E000BF04F12400002101F0D4
:1018F000F3FE0546002D2F467FF453AFD8F82400A1
:10190000616D20F0070000250843C8F82400374621
:10191000607880077FF50CAF46E700BF0125012600
:10192000607840073FF559AF06E700BF201D002152
:1019300001F03EFE05E000BF04F12400002101F0AB
:10194000CBFE0546002D2E467FF444AFD8F8240088
:10195000A16D20F4E07000250843C8F824003E463D
:10196000607840077FF5E8AE37E700BF01254FF00C
:101970000109607800073FF54BAFE2E6201D00212A
:1019800001F016FE05E000BF04F12400002101F083
:10199000A3FE0546002DA9467FF436AFD8F82C00EB
:1019A000D4F8A41020F4600000250843C8F82C00E7
:1019B000B146607800077FF5C4AE29E7012501270D
:1019C000E07880073FF53EAF1FE000BF201D0021FB
:1019D00001F0EEFD05E000BF04F12400002101F05C
:1019E0007BFE0546002D2F467FF428AFD8F82C004B
:1019F000D4F8A81020F0E06000250843C8F82C00B7
:101A00004F46E07880073FF51DAF3E466078C00640
:101A10007FF528AFE06D4FEA3030042800F26C808B
:101A2000DFE800F00472780A0A0000BFD8F800006E
:101A300040F40030C8F80000002D2F4600F07480FC
:101A4000607880067FF513AF206E4FEA304005289E
:101A500000F27A80DFE800F004808A04040400BF0A
:101A6000002D2E4600F08C80607840067FF504AF94
:101A7000D4F8AC004FEA3070052800F29180DFE81E
:101A800000F00397A1030303002D2F4600F0A4806C
:101A90006078000640F1AF80E06E58B1B0F1005FB1
:101AA00010D0B0F1805F1FD1D8F8000040F40030B2
:101AB000C8F800002E466DB1E078C00700F0CF8076
:101AC0009DE000BF201D012101F072FD0546002DA3
:101AD0002E46F1D1D8F82400E16E20F040500025C8
:101AE0000843C8F8240086E001250126E078C007F5
:101AF00040F08580B3E000BF0125012760788006B3
:101B00003FF5A2AFB3E600BF201D002101F050FD5C
:101B100005E000BF04F12400002101F0DDFD0546D1
:101B2000002D2F467FF48CAFD8F82400E16D20F40F
:101B3000E04000250843C8F8240037466078800656
:101B40007FF595AE80E700BF01250126607840064D
:101B50003FF58EAF90E600BF201D012101F028FD6A
:101B60000546002D2E467FF47FAF09E004F12400E6
:101B7000012101F0B1FD0546002D2E467FF474AF22
:101B8000D8F82400216E20F4E02000250843C8F88E
:101B900024003E46607840067FF56EAE68E700BFE1
:101BA00001250127607800063FF576AF23E000BFEE
:101BB000201D012101F0FCFC0546002D2F467FF47D
:101BC00067AF09E004F12400012101F085FD05461D
:101BD000002D2F467FF45CAFD8F82C00D4F8AC1061
:101BE00020F0E04000250843C8F82C003746607814
:101BF00000063FF551AF3E46E078C0072FD0606C3D
:101C0000032809D8DFE800F002101A02A946EDB156
:101C1000A07840062AD426E001254FF00109A078DB
:101C2000400620D522E000BFD8F8000040F4003084
:101C3000C8F80000002DA946EAD107E0201D0221C6
:101C400001F0B6FC0546002DA946E1D1D8F82000E8
:101C5000616C20F0030000250843C8F82000B1465D
:101C6000A078400602D44F4619E000BFD8F8D4034C
:101C700040F48070C8F8D403FFF7EAFA064600BFC4
:101C8000D8F8D403C00507D4FFF7E2FA801B642814
:101C9000F6D90325032702E0002D2F4664D02078D3
:101CA000C00700F0B680A06F4FEAF000052800F2F0
:101CB0008D80DFE800F003919B030303002D2E4687
:101CC00000F09E802078800700F1A88037462078B9
:101CD000400700F1B7803E462078800600F1C880BA
:101CE00037462078400600F1DB803E46207800062B
:101CF00000F1EE8037462068010740F10181D4F8F9
:101D00008000B0F5805F09D104F12400022101F0C8
:101D1000E3FC002818BF0127D4F88000D8F8281069
:101D200021F440510843C8F828002068C10640F15A
:101D3000EA80D4F89400B0F5807F09D104F1240042
:101D4000022101F0C9FC002818BF0127D4F8940033
:101D5000D8F82C1021F440710843C8F82C002068F2
:101D6000000340F1F780D0E0D8F84410D4F8B00078
:101D7000414011F4407F11D0D8F84410D8F84420E5
:101D800042F48032C8F84420D8F8442021F440714D
:101D900022F48032C8F84420C8F84410B0F5807F9F
:101DA00040F0AC82FFF754FA064641F2883A032528
:101DB000032700BFD8F84400800700F19D82FFF799
:101DC00047FA801B5045F5D969E700BF0125012678
:101DD0002078800722D479E7201D012101F0E8FB5B
:101DE0000546002D2E467FF46DAF09E004F1240076
:101DF000012101F071FC0546002D2E467FF462AFF3
:101E0000D8F82800A16F20F0380000250843C8F852
:101E100028003E46207880077FF558AF606F052880
:101E200000F28E81DFE810F0060094019E010600AA
:101E300006000600002D2F4600F09E812078400706
:101E40007FF549AFD4F89000052800F2A581DFE8BE
:101E500010F00700AB01B50107000700070000BF45
:101E6000002D2E4600F0B481207880067FF538AF33
:101E7000D4F88C004FEA3070052800F2B981DFE811
:101E800010F00700BF01C90107000700070000BFED
:101E9000002D2F4600F0C881207840067FF525AF41
:101EA000D4F898004FEAB020052800F2CD81DFE891
:101EB00010F00700D301DD0107000700070000BF95
:101EC000002D2E4600F0DC81207800067FF512AF51
:101ED000D4F89C004FEA7030052800F2E181DFE879
:101EE00010F00700E701F10107000700070000BF3D
:101EF000002D2F4600F0F081206801073FF5FFAE6E
:101F0000C1063FF516AF000324D5D4F8A000B0F504
:101F1000003F0FD0B0F5803F06D0B8BB201D002198
:101F200001F046FB05E000BF04F12400022101F0AE
:101F3000D3FB05462E461DB1A07840073FD50DE0E6
:101F4000D8F82C00D4F8A01020F440300025084325
:101F5000C8F82C003E46A078400730D5D4F884005D
:101F6000B0F5401F0BD0B0F5001F15D0B0F5801FA5
:101F700070D1D8F8000040F40030C8F800002F46B7
:101F80009DB1A078C0071ED169E000BF01260125E0
:101F9000A0784007E2D412E004F12400012101F00E
:101FA0009BFB0546002D2F46EBD1D8F82800D4F82E
:101FB000841020F4401000250843C8F82800374654
:101FC000A078C0074BD0E06CB0F5803F2AD0D8BBDA
:101FD000D8F8000040F40030C8F800002E464DB399
:101FE000206881003FD4810348D4C1025DD4C10080
:101FF00065D481026FD4410078D4B0F1FF3F40F343
:102000008680000208D5D8F82800D4F8881020F47B
:1020100040000843C8F82800002E18BF01263046AB
:10202000BDE8F087201D022101F0C2FA0546002D0F
:102030002E46D5D1D8F82000E16C20F48030002560
:102040000843C8F820000AE0012601252068810025
:10205000C9D508E001270125A078C007B3D13E46C5
:1020600020688100BFD504F12400022101F034FB77
:10207000002818BF012620688103B6D5E16F6FF0F4
:10208000010202EB3122022A0AD34FEA31223AB18D
:10209000012A07D1D8F8002042F40032C8F8002005
:1020A000002D41D00126C102A1D5D8F82410226FFD
:1020B00021F000411143C8F82410C10099D558F807
:1020C0001C1CD4F8B42021F48041114348F81C1C96
:1020D00081027FF590AFD8F82410A26E21F08071B4
:1020E0001143C8F8241041007FF587AF58F81C1C35
:1020F00021F4004148F81C1CD4F8B81058F81C2CE6
:10210000114348F81C1CB0F1FF3F3FF77AAFD8F8F5
:102110002010226D21F040511143C8F82010000218
:102120007FF57AAF6FE700BFD8F8282022F440721D
:102130001143C8F82810C1027FF559AFB5E700BFB9
:1021400001250127207840073FF57CAEC3E500BF9D
:10215000201D012101F02CFA0546002D2F467FF4A9
:102160006DAE09E004F12400012101F0B5FA054645
:10217000002D2F467FF462AED8F82800616F20F062
:10218000070000250843C8F8280037462078400794
:102190007FF5A1AD56E600BF012601252078800617
:1021A0003FF566AE9CE500BF201D012101F000FA5D
:1021B0000546002D2E467FF457AE09E004F12400B9
:1021C000012101F089FA0546002D2E467FF44CAE20
:1021D000D8F82C00D4F8901020F007000025084310
:1021E000C8F82C003E46207880067FF579AD3FE6A2
:1021F00001270125207840063FF552AE75E500BF66
:10220000201D002101F0D4F90546002D2F467FF452
:1022100043AE09E004F12400022101F05DFA054615
:10222000002D2F467FF438AED8F82800D4F88C1053
:1022300020F0E04000250843C8F828003746207801
:1022400040067FF552AD2BE60126012520780006D9
:102250003FF53EAE4EE500BF201D002101F0A8F97C
:102260000546002D2E467FF42FAE09E004F1240030
:10227000022101F031FA0546002D2E467FF424AEEE
:10228000D8F82C00D4F8981020F4E050002508432A
:10229000C8F82C003E46207800067FF52BAD17E6E7
:1022A00001270125206801077FF52AAE27E500BF39
:1022B000201D002101F07CF90546002D2F467FF4FA
:1022C0001BAE09E004F12400022101F005FA0546E5
:1022D000002D2F467FF410AED8F82C00D4F89C10B7
:1022E00020F4604000250843C8F82C0037462068D9
:1022F00001077FF505AE02E5D4F8B0004FF6CF73C5
:1023000058F81C2CC0F2FF0300F4407122F47C52F8
:1023100003EA10136FF31F30B1F5407F08BF1A4373
:10232000002548F81C2CD8F844100843C8F844008D
:10233000FFF799BC000000002DE9F04381B00028B0
:1023400000F02A8142F200080446C5F200288946BE
:10235000D8F8000000F00F0088420ED2D8F8000034
:1023600020F00F0040EA0900C8F80000D8F800008B
:1023700000F00F00484540F00F81206844F21847F4
:102380004107C5F602070AD521693A6802F07002D2
:10239000914204D93A6822F0700211433960010772
:1023A0000AD561697A6802F07002914204D97A68AC
:1023B00022F0700211437960C1060AD5A1697A68DA
:1023C00002F4E062914204D97A6822F4E062114397
:1023D000796081060AD5E169BA6802F0700291421B
:1023E00004D9BA6822F070021143B96010F00201FA
:1023F0000AD0E2683B6803F00F039A4204D93B68B5
:1024000023F00F031A433A60C20746D0386820F41D
:102410007061D4E90102012841EA0201396009D062
:1024200003280DD0022811D157F8181C890340F158
:10243000B38010E057F8181CC90540F1AD800AE0E0
:1024400057F8181C890140F1A78004E057F8181CC0
:10245000490740F1A18057F8081C21F00701084303
:1024600047F8080CFEF7F4FE064641F2883500BF37
:1024700057F8080C616800F03800B0EBC10F09D0C4
:10248000FEF7E6FE801BA842F2D9032001B0BDE8AA
:10249000F08300BF206800F0020151B1E1683A68A2
:1024A00002F00F02914204D23A6822F00F02114367
:1024B0003960D8F8001001F00F0149450DD9D8F85E
:1024C000001021F00F0141EA0901C8F80010D8F806
:1024D000001001F00F0149455ED141070AD521697D
:1024E0003A6802F07002914204D23A6822F0700217
:1024F0001143396001070AD561697A6802F07002F8
:10250000914204D27A6822F0700211437960C106C8
:102510000AD5A1697A6802F4E062914204D27A682D
:1025200022F4E0621143796080060AD5E069B96857
:1025300001F07001884204D2B96821F070010843AB
:10254000B86000F0B5F8396845F25C133A68C0F637
:102550000003C1F3032102F00F02595C9A5C01F001
:102560001F0120FA01F102F01F0040F20C0221FAD3
:1025700000F0C2F20042106040F2040040F2080293
:10258000C2F20040C2F200420068116001B0BDE832
:10259000F043FEF7A9BE00BF012001B0BDE8F08303
:1025A00080B500F085F844F2184145F25C13C5F699
:1025B0000201C0F600030A68096801F00F01C2F3C6
:1025C0000322595C9A5C02F01F0220FA02F201F029
:1025D0001F0040F20C0122FA00F0C2F20041086034
:1025E00040F20801C2F200410A6080BD0000000014
:1025F00080B500F05DF844F2184C45F25C11C5F668
:10260000020CC0F60001DCF80020DCF8003003F01A
:102610000F03C2F30322CB5C8A5C02F01F02D0409E
:1026200003F01F0240F20C0320FA02F2C2F2004350
:102630001A6040F20803C2F200431860DCF804009C
:10264000C0F30210085C00F01F0022FA00F080BD09
:1026500080B500F02DF844F2184C45F25C11C5F637
:10266000020CC0F60001DCF80020DCF8003003F0BA
:102670000F03C2F30322CB5C8A5C02F01F02D0403E
:1026800003F01F0240F20C0320FA02F2C2F20043F0
:102690001A6040F20803C2F200431860DCF804003C
:1026A000C0F30220085C00F01F0022FA00F080BD99
:1026B00044F20041C5F602010869C0F3C2000328D4
:1026C00010D002282CD088BB0868800649F2000090
:1026D000C0F2D03058BF70470968C1F3C101C8408B
:1026E000704700BF8A6A886AC0F3051CC86ABCF1DB
:1026F000000F4B6B20D0C3F3CC0300F00100584314
:1027000002F00302022A00EE100AB8EE400A15D0C9
:10271000C2B90868800619D49FED281A23E000BFCB
:1027200047F64000C0F27D10704700BF40F6001031
:10273000C0F23D00704700BF002070479FED1E1A99
:1027400011E000BF9FED1B1A0DE000BF086849F2C1
:102750000002C0F2D032C0F3C10022FA00F001EE54
:10276000100AB8EE411A086B9FED153A6FF35F201F
:1027700002EE100A086BC0F34620B8EE422A013080
:1027800000EE032A00EE10CAB7EE003AB8EE400A97
:1027900081EE000A32EE031A20EE010A01EE100A61
:1027A000B8EE411A80EE010ABCEEC00A10EE100A23
:1027B000704700BF0024744A20BCBE4B0024744CF8
:1027C0000000003900000000F0B581B0002800F0E2
:1027D00043810446007844F20046C007C5F602066D
:1027E00012D0306900F03801B06A102905D01829DC
:1027F0002ED100F0030002282AD13068800303D5CF
:102800006068002800F028812078800740F19380DC
:10281000306910F03801B06A2CD0182908BF5FEA7F
:10282000807027D0E0683168002841D021F019017C
:1028300008433060FEF70CFD054600BF30684007D6
:102840001FD4FEF705FD401B0228F7D953E100BF56
:10285000606800283ED0B0F5A02F53D0B0F5803F7F
:1028600054D0306820F480303060306820F480200C
:102870004FE000BF3068400703D5E068002800F053
:10288000EB80FEF7DDFC41F20301884208D82069A5
:102890007168402821F47C314AD141F4003049E08C
:1028A0007068216920F0FE4040EA016042E000BF0C
:1028B00021F001003060FEF7CBFC05463068400790
:1028C00039D5FEF7C5FC401B02284FF00300F5D9AF
:1028D000EBE100BF306820F480303060306820F4D5
:1028E00080203060FEF7B4FC054600BF30688003EE
:1028F0007FF58AAFFEF7ACFC401B64284FF0030065
:10290000F4D9D2E1306840F480203060306840F47F
:1029100080303060FEF79CFC054600BF30688003C5
:102920003FF572AFFEF794FC401B6428F6D9E2E055
:1029300041EA003070602078C00652D5306900F05E
:102940003801B06A082905D0182919D100F0030010
:10295000012815D13068C00502D5E06980287BD1F7
:10296000FEF76EFC41F2030188421DD8206A7168AF
:10297000202821F0F84131D141F0804030E000BF03
:10298000E0690028306817D040F080003060FEF722
:102990005FFC05463068C005E2D4FEF759FC401BD9
:1029A0000228F7D9A7E000BFF068216A20F07C5028
:1029B00040EA0160F06014E020F080003060FEF733
:1029C00047FC05463068C0050BD5FEF741FC401BAF
:1029D00002284FF00300F5D967E100BF41EA8060AB
:1029E0007060207800073BD4207880064CD4207893
:1029F00040075DD4656A65B3306900F03800182877
:102A000040F09E80012DB16A306B25D001F00302A9
:102A1000A36A9A4220D1C1F30511E26A91421BD107
:102A20000146226B6FF35F21013A914214D1C0F34A
:102A30004622616B01398A420ED1C0F30642A16B76
:102A400001398A4208D1C0F30660E16B013988423E
:102A500002D1002001B0F0BD012001B0F0BD00BFE7
:102A600060690028706F37D040F001007067FEF792
:102A7000EFFB0546706F8007B6D4FEF7E9FB401BFD
:102A80000228F7D937E000BFA0690028306845D098
:102A900040F480503060FEF7DBFB05463068800470
:102AA000A5D4FEF7D5FB401B0228F7D923E000BFD1
:102AB000D6F8000440F48070C6F80004FEF7C8FBA6
:102AC000054600BFD6F80004C00517D4FEF7C0FBCA
:102AD000401B6428F6D90EE020F001007067FEF775
:102AE000B7FB0546706F80077FF57EAFFEF7B0FB42
:102AF000401B0228F6D9032001B0F0BDA0680028D1
:102B000040D0052858D001285AD0306F20F001005D
:102B10003067306F20F0040055E000BF20F4805093
:102B20003060FEF795FB0546306880047FF55FAFA7
:102B3000FEF78EFB401B02284FF00300F4D9B4E0EF
:102B4000306820F080703060FEF782FB022D054671
:102B50000CD100BF3068800148D5FEF779FB401BDF
:102B600002284FF00300F5D99FE000BF30688001D4
:102B70007FF56FAFFEF76CFB401B02284FF00300A0
:102B8000F4D992E0306F20F001003067306F20F010
:102B900004003067FEF75CFB054641F2883700BF52
:102BA000306F80077FF526AFFEF752FB401BB8421F
:102BB0004FF00300F4D978E0306F40F00400306744
:102BC000306F40F001003067FEF742FB054641F2EE
:102BD000883700BF306F80073FF50CAFFEF738FB3A
:102BE000401BB8424FF00300F4D95EE004F128071F
:102BF000B06A40F2F33188438ECF0843591E40EA51
:102C000002104FF47E426FF35F21B06202EB472067
:102C10004FF4FE0280B2E36B0844A16B02EB01416A
:102C20004FF0FE4201F4FE0102EB0362084402F0A1
:102C3000FE4108443063F06A4FF6F87120F001005D
:102C4000F062706BA26C884340EAC2007063F06A65
:102C5000216C20F00C000843F062F06A616C20F0F7
:102C600002000843F062F06A40F48030F062F06ADB
:102C700040F40030F062F06A40F48020F062F06AC4
:102C800040F00100F062306840F080703060FEF784
:102C9000DFFA0446306880013FF5DBAEFEF7D8FA74
:102CA000001B02284FF00300F4D901B0F0BD000072
:102CB0004EF210010428CEF200010A6822F004024C
:102CC00008BF04320A607047411E0020B0EB116F4C
:102CD00002D00120704700BF4EF21002F023CEF266
:102CE000000251604EF62351CEF200010B70072115
:102CF000906011607047000090F88010012901D1A8
:102D0000022070472421C0F88410026813681168FB
:102D100023F0005321F0010111600021416613608E
:102D20002022C0F8842080F88010084670470000F8
:102D30007047000000000000704700000000000025
:102D400070B590F88020012A02D1022070BD00BF2A
:102D50002422C0F884200268D0F864E0BEF1000F9D
:102D6000D2F800C0136823F001031360936823F0C6
:102D7000606341EA030191601AD0916845F2841EB4
:102D80009368C0F6000E5B0F45F28C15C1F34266E6
:102D9000C0F600051EF80340E95C2301B3FBF1F126
:102DA0001EF80630AE5D1B01B3FBF6F302E000BF78
:102DB00001210123A0F86A102021A0F86830C2F890
:102DC00000C0C0F88410002180F88010084670BD53
:102DD00070B590F88020012A02D1022070BD00BF9A
:102DE0002422C0F884200268D0F864E0BEF1000F0D
:102DF000D2F800C0136823F001031360936823F036
:102E0000604341EA030191601AD0916845F2841E43
:102E10009368C0F6000E5B0F45F28C15C1F3426655
:102E2000C0F600051EF80340E95C2301B3FBF1F195
:102E30001EF80630AE5D1B01B3FBF6F302E000BFE7
:102E400001210123A0F86A102021A0F86830C2F8FF
:102E500000C0C0F88410002180F88010084670BDC2
:102E600070470000000000007047000000000000F4
:102E70007047000000000000D0F88410D0F88800EF
:102E8000084370470000000070B50268044640F631
:102E90002F00D16908402028106896680CD100F0F6
:102EA000200306F080555B1918D0216F002959D0F6
:102EB0002046BDE87040084740F60F0319420DD088
:102EC000012340F22015C1F20003C0F2004506EADA
:102ED000030C00EA050313EB0C0345D1E36E012B51
:102EE00005D111F0100318BF10F0100328D1CB0248
:102EF0000AD516F4800307D04FF4801010622046E4
:102F0000BDE87040FFF7B0BF0B0606D500F08003A8
:102F100006F400069B1940F0D5804B0662D510F0F0
:102F200040035FD0106820F0400010602020C4F8FB
:102F30008400002060672046BDE8704000F09CBA25
:102F4000102010629068400618D4B4F85C00B4F801
:102F50005E10B4F85E30002B1CBF401A5FEA0041DF
:102F600040F0F88070BD00BFCB0718BF10F480732D
:102F700044D18B0706F0010E4CD456E0E06F016897
:102F80004B6899B20029EDD0B4F85CC06145E9D234
:102F9000A4F85E30C169B1F5807F18D0116821F4C2
:102FA00080711160916821F001019160916821F0B8
:102FB000400191602021C4F888100021E166116869
:102FC00021F010011160FDF747FCB4F85CC0B4F8C3
:102FD0005E00ACEB000081B22046BDE87040FFF718
:102FE000A7BE00BF0A0240F1A38010F0804200F0AB
:102FF0009F802046BDE87040FFF732BF0123136277
:10300000D4F88C3043F00103C4F88C308B0706F001
:10301000010E0AD5BEF1000F07D002231362D4F8C7
:103020008C3043F00403C4F88C304B070AD5BEF152
:10303000000F07D004231362D4F88C3043F002034E
:10304000C4F88C300B070CD500F0200353EA0C03B6
:1030500007D008231362D4F88C3043F00803C4F877
:103060008C300B050BD510F0806308D04FF4006353
:103070001362D4F88C3043F02003C4F88C30D4F8B9
:103080008C30002B3FF46EAF11F020010AD000F01D
:10309000200006F08051401804D0216F11B1204665
:1030A00088472268D4F88C00916801F0400100F054
:1030B000280040180CD12046FFF7DAFE0020C4F8A3
:1030C0008C0070BD616F00297FF4F2AE4AE700BF4B
:1030D00010684FF6FE7120F4907010609068CEF684
:1030E000FF7108409060E06E012803D1106820F065
:1030F000100010602020C4F888000020E0662067DF
:103100009068400620D5906820F040009060E06F05
:10311000D0B143F66941C0F600010165FDF734FE08
:1031200000283FF41FAFE06F016DBDE87040084715
:10313000C9017FF517AFB0F1FF3FC8BF70BD204692
:10314000BDE87040FFF7F8BD2046BDE87040FFF7CE
:103150008FBE00BF11684FF6FE7321F490711160AD
:103160009168CEF6FF73194091602021C4F8881051
:103170000021E166216781B2136823F0100010601E
:103180002046BDE87040FFF7D3BD000000000000FE
:1031900010B5B0B10446D0F8840028B9002084F8F6
:1031A0008000204600F028F82420C4F8840020681D
:1031B000016821F001010160204600F031FF012883
:1031C00002D1012010BD00BFA06A10B1204600F05E
:1031D00053FC2068416821F490414160816821F0EE
:1031E0002A018160016841F0010101602046BDE8CB
:1031F000104000F0B1BC000010B5B4B06946044600
:10320000081DB821FDF79CF844F600412068C4F27F
:103210000001884202D034B010BD00BF68460224CD
:103220000094FEF755FA08B1FDF70EFB44F2E040BA
:10323000C5F60200816841F400218160816801F4D3
:1032400000212F912F99016841F00201016000686F
:103250002FA900F002002F902F984FF44070CDE975
:103260002F040020CDE931000820339040F20040C7
:10327000C5F60200FDF7E8FE342004210022FEF727
:103280007BF83420FEF768F834B010BD0000000071
:1032900080B5D0F88830202B0AD10123002918BF2F
:1032A000002A01D1184680BD90F88030012B01D151
:1032B000022080BD012380F880300023C36640F6E1
:1032C0000043D0F800C0C5F600039C4509D0DCF8E7
:1032D00004301B0205D5DCF8003043F08063CCF8E5
:1032E000003001F0EDF80023184680BD000000001A
:1032F000B0B544F600410068C4F20001884201D034
:10330000B0BD00BF40F21805C2F200456888010454
:10331000F6D42A78410405D40D2A0FD140F4804117
:103320006980B0BD48F200030021CFF6FF730A2A7E
:1033300008BF40EA03016980B0BD00BF411C40F2F4
:103340001C0C6FF39F30C2F2004C8CB240F2DC5385
:103350009C420CF80020698038BFB0BD40F21004D8
:103360000020C2F20044688002220A2360682146DD
:1033700000F012F860680068C169490609D4C169A3
:1033800049065CBFC1695FEA416102D4C16949066F
:10339000F2D500216980B0BD2DE9F04381B004462B
:1033A000D0F8840020280BD10E4600294FF00100F0
:1033B0005CD01746002A59D094F88000012803D128
:1033C000022001B0BDE8F0831D46012084F8800092
:1033D0004FF00009C4F88C902120C4F88400FDF758
:1033E00037FFA4F85470A4F856700746A168B1F5E9
:1033F000805F07D1206900281CBF30464E46B0468A
:10340000064601E04FF0000884F8809009E000BF14
:10341000206816F8011B8162B4F856000138A4F840
:103420005600B4F8560088B18021002220463B4661
:10343000009501F0B5F888B9002EE9D138F8020BF3
:10344000216800266FF35F208862E5E740210022B3
:1034500020463B46009501F0A3F818B1032001B0C7
:10346000BDE8F0832020C4F88400002001B0BDE84E
:10347000F083000000000000704700000000000022
:10348000FEE7000000000000F0B585B044F2E04027
:1034900040F60044C5F60200C5F6020400224826A4
:1034A0000168002741F080010160016801F080019E
:1034B00000910099016841F002010160016801F08A
:1034C000020100910099016841F008010160006863
:1034D000482100F00800009000982046FDF7A8FE63
:1034E0006D464FF4404000900220CDE90107CDE940
:1034F0000370A4F500602946FDF7A6FD01202946CA
:10350000CDE90107204600960397FDF79DFD05B024
:10351000F0BD00000000000080B540F2FC5044F611
:103520000041C2F20040C4F200010C2201604FF4DD
:10353000165141600021C0E902110161C0E9052175
:10354000C0E90711C0E90911FFF722FE08B1FDF734
:103550007BF940F2FC500021C2F20040FFF738FC3A
:1035600008B1FDF771F940F2FC500021C2F20040B1
:10357000FFF7E6FB08B1FDF767F940F2FC50C2F235
:103580000040FFF7B9FB002808BF80BDBDE88040C0
:10359000FDF75AB900000000FEE70000000000003F
:1035A000FEE700000000000070470000000000007F
:1035B000F0B581B044F22C47C5F6020757F8042C49
:1035C00002F00302032A03D1012001B0F0BD00BFC5
:1035D000054657F82C0C0C4620F0806047F82C0C60
:1035E000FDF736FE064600BF57F82C0C000105D546
:1035F000FDF72EFE801B0228F6D964E057F8040C74
:10360000EE6895E80E0020F47C30012C40EA013091
:10361000A2F101016FF35F214FF47E4202EB4322DE
:1036200047F8040C92B24FF0FE4302EB01004FF456
:10363000FE012A6901EB064101F4FE0103EB02627F
:10364000084402F0FE410844F8603868696920F0D7
:10365000C00040EA010038603868A96920F0200005
:1036600040EA0100386038684FF6F87120F0100029
:1036700038603869EA6920EA01004FF4001140EA35
:10368000C2003861386808BF4FF4801140F0100064
:10369000002C386008BF4FF40021386808433860B8
:1036A00057F82C0C40F0806047F82C0CFDF7D0FD4B
:1036B000044600BF57F82C0C000107D4FDF7C8FDE5
:1036C000001B0328F6D3032001B0F0BD002001B099
:1036D000F0BD000000000000F0B581B044F22C47BE
:1036E000C5F6020757F8042C02F00302032A03D19F
:1036F000012001B0F0BD00BF054657F82C0C0C4668
:1037000020F0805047F82C0CFDF7A2FD064600BFC4
:1037100057F82C0C800005D5FDF79AFD801B022878
:10372000F6D964E057F8040CEE6895E80E0020F036
:103730007C70012C40EA0150A2F101016FF35F217E
:103740004FF47E4202EB432247F8040C92B24FF052
:10375000FE4302EB01004FF4FE012A6901EB064132
:1037600001F4FE0103EB0262084402F0FE4108444A
:1037700078613868696920F4406040EA0100386087
:103780003868A96920F4007040EA010038603868A0
:103790004FF6F87120F480703860B869EA6920EA61
:1037A00001004FF0807140EAC200B861386808BF7C
:1037B0004FF4000140F48070002C386008BF4FF4D3
:1037C000800138680843386057F82C0C40F080506E
:1037D00047F82C0CFDF73CFD044600BF57F82C0CB5
:1037E000800007D4FDF734FD001B0328F6D3032027
:1037F00001B0F0BD002001B0F0BD000000000000ED
:103800007047000000000000FDF72ABD0000000026
:10381000B0B59CB044F6180409A84C21C5F60204C2
:10382000FCF78EFD02200025CDE90755CDE90555B1
:10383000CDE90355CDE90155FDF7DEFD0095206882
:1038400040F440402060206800F44040009040F286
:103850002C40C5F60000016841F0010101600068DC
:1038600000F00100009000982068800409D42068CE
:1038700080045CBF20685FEA804002D42068800436
:10388000F2D5012009904FF480300A9002200521E2
:10389000CDE912001491C021CDE91510CDE9170032
:1038A00009A8082419940025CDE91A55FEF78CFFC4
:1038B00020B1EFF3108072B6FEE700BF3F20019009
:1038C00003204FF48061CDE9020540200494CDE946
:1038D0000500CDE9071001A80421FEF72DFD28B150
:1038E000EFF3108072B600BFFEE700BF1CB0B0BDA2
:1038F00080B54EF6885C42F2000ECEF2000CC5F2A6
:10390000002EDCF8001041F47001CCF80010DEF855
:10391000001001F00F01062906D8DEF8001007227A
:1039200062F30301CEF8001044F200414EF67F53DB
:10393000C5F60201CEF6F6230A6842F001020A60DB
:1039400000220A61086818400860DEF800000007DD
:1039500006D5DEF80000072363F30300CEF800006D
:1039600040F200208A61CA61C0F202200A628862C5
:103970000020C0F2FF10C86240F28020C0F20110A7
:1039800008634A638863CA6308644A64086820F469
:103990008020086041F200000A66C5F60040006819
:1039A000B2EB507F05D148F208100121C5F200109A
:1039B000016044F2000043F2D201C5F20020016030
:1039C0004FF000604CF8800C80BD0000000000004B
:1039D00070B540F21004C2F200446068FFF754FA78
:1039E0004FF400356068FFF747FA20281CD0013DEE
:1039F000F8D1606802220A232146FFF7CDFC6068F7
:103A00000068C169490609D4C16949065CBFC1693A
:103A10005FEA416102D4C1694906F2D540F218005B
:103A20000021C2F20040418040F218054FF40036F8
:103A3000C2F20045606801222946FFF729FCC0B1A7
:103A4000013EF7D1606802220A232146FFF7A4FC59
:103A500060680068C169490609D4C16949065CBF4C
:103A6000C1695FEA416102D4C1694906F2D500200B
:103A7000688070BD00000000816ACA070CD18A0707
:103A800015D44A071ED40A0727D4CA0630D48A069A
:103A900039D44A0655D541E00268D0F82CC05368A5
:103AA00023F4003343EA0C0353608A07E9D5026824
:103AB000D0F830C0536823F4803343EA0C035360DA
:103AC0004A07E0D50268D0F834C0536823F4802355
:103AD00043EA0C0353600A07D7D50268D0F838C010
:103AE000536823F4004343EA0C035360CA06CED55F
:103AF0000268D0F83CC0936823F4805343EA0C0377
:103B000093608A06C5D50268D0F840C0936823F454
:103B1000005343EA0C0393604A0612D50268D0F8BA
:103B200044C0BCF5801F536823F4801343EA0C03A0
:103B3000536006D1536823F4C00C836C43EA0C0332
:103B40005360090658BF70470168C06C4A6822F488
:103B5000002210434860704770B504460020264696
:103B600046F88C0FFDF774FB216805460A681207BA
:103B700022D40868400714D5C869400211D400BF98
:103B8000FDF766FB411B2068B1F1007F016843D25D
:103B9000490744BFC1695FEA01514BD4C069400283
:103BA000EED52020C4F88400C4F888000020E06628
:103BB000002184F8801070BDC8698002D9D4FDF757
:103BC00047FB2168401BB0F1007F086816D2400710
:103BD00044BFC8695FEA0050EED54FF40060086248
:103BE000086820F4D0700860886820F001008860C0
:103BF0002020C4F88400C4F888002BE020F4D070A2
:103C00000860886804F1880620F0010088602020A0
:103C1000C4F884001EE000BF21F4D0710160816807
:103C200004F1880621F0010181602020C4F884009D
:103C300010E000BF4FF400610162016821F4D0710F
:103C40000160816821F0010181602020C4F88400B6
:103C5000C4F88800202030600320002184F8801000
:103C600070BD000000000000806B0021A0F85E1015
:103C7000A0F85610FFF7FCB810B50446B0F8601075
:103C80000068D4F88820222A2CD1426AA36D114002
:103C900023F8021BA365B4F85E100139A4F85E1086
:103CA000B4F85E10002918BF10BD016821F49071AE
:103CB0000160816821F0010181602021C4F8881031
:103CC00000212167E16E012912D1016821F0100164
:103CD0000160B4F85C102046FFF72AF80020E06687
:103CE00010BD00BF816941F00801816110BD00BFB6
:103CF0002046FFF7FDFA0020E06610BD000000003E
:103D00002DE9F04F81B004460068B4F86050C369F3
:103D100001688268D4F88870222F19D1B4F86870CD
:103D2000002F18BF13F020031AD1B4F85E00A0B121
:103D3000B4F86810884210D22068816821F0805160
:103D4000816043F67941C0F600012167202101E03E
:103D50001830082102681143016001B0BDE8F08FFE
:103D60004FF6FE7801F4807A02F00107CEF6FF7874
:103D70004FF02009002600BF416AA26D294022F8B9
:103D8000021BA265B4F85E100139A4F85E10D0F8E9
:103D90001CB05FEA4B7130D05FEACB7218BFBAF14A
:103DA000000F03D15FEA8B720BD413E00122026291
:103DB000D4F88C2042F00102C4F88C205FEA8B72A8
:103DC00008D53FB102220262D4F88C2042F00402EE
:103DD000C4F88C20002908D53FB104210162D4F831
:103DE0008C0040F00200C4F88C00D4F88C0020B1A4
:103DF0002046FFF73DF8C4F88C60B4F85E00E8B9DF
:103E00002068016821F480710160816801EA08017D
:103E10008160C4F888902667E16E01290AD10168A3
:103E200021F010010160B4F85C102046FEF780FF1D
:103E300003E000BF2046FFF75BFAE6665FEA8B60AF
:103E40007FF573AF206897E710B50446B0F86000BF
:103E50002168D4F88820222A2ED1496AA26D084010
:103E60001070A06D0130A065B4F85E000138A4F8B0
:103E70005E00B4F85E00002818BF10BD206801681D
:103E800021F490710160816821F00101816020219D
:103E9000C4F8881000212167E16E012912D1016860
:103EA00021F010010160B4F85C102046FEF740FFDD
:103EB0000020E06610BD00BF886940F008008861FE
:103EC00010BD00BF2046FFF713FA0020E06610BDCA
:103ED0002DE9F04F81B004460068B4F86050C36922
:103EE00001688268D4F88870222F19D1B4F86870FC
:103EF000002F18BF13F020031AD1B4F85E00A0B150
:103F0000B4F86810884210D22068816821F080518E
:103F1000816043F64961C0F600012167202101E07C
:103F20001830082102681143016001B0BDE8F08F2C
:103F30004FF6FE7801F4807A02F00107CEF6FF78A2
:103F40004FF02009002600BF406AA16D284008708C
:103F5000A06D0130A0652068B4F85E100139A4F8A6
:103F60005E10D0F81CB05FEA4B7130D05FEACB72C4
:103F700018BFBAF1000F03D15FEA8B720BD413E0C4
:103F800001220262D4F88C2042F00102C4F88C2095
:103F90005FEA8B7208D53FB102220262D4F88C200E
:103FA00042F00402C4F88C20002908D53FB1042156
:103FB0000162D4F88C0040F00200C4F88C00D4F800
:103FC0008C0020B12046FEF753FFC4F88C60B4F893
:103FD0005E00E8B92068016821F4807101608168A1
:103FE00001EA08018160C4F888902667E16E012922
:103FF0000AD1016821F010010160B4F85C1020467C
:10400000FEF796FE03E000BF2046FFF771F9E66673
:104010005FEA8B607FF571AF206895E700000000D4
:1040200070B584B00446006804F1080340F6004E01
:10403000E669C5F6000E0ECB194363690B4346F6DD
:10404000F3110568CCF6FF71334329401943016031
:1040500041684FF2FF4321F44051704541EA0201AB
:104060004160A269C1F2FF131CBF216A0A43816843
:1040700044F2544C1940C5F6020C1143816047F2DA
:10408000FF72C16AC4F2000221F00F01656A90421A
:104090004FF0800341EA0501C16221DD40F6FF7166
:1040A000C4F2010188422FDD704500F0FB8041F22F
:1040B0000041C4F20101884205D041F20001C4F27E
:1040C0000101884247D1DCF80010C1F3C202062A80
:1040D00080F0F08045F25011C0F6000139E000BFD9
:1040E00044F6FF31C4F2000188421BDC44F2004177
:1040F000C4F20001884221D044F60001C4F200015C
:1041000088421BD027E000BF47F60001C4F200013F
:10411000884213D047F60041C4F2000188420DD016
:1041200019E000BF44F60041C4F20001884205D006
:1041300045F20001C4F2000188420CD1DCF8001005
:1041400001F00702062A80F0B58045F25611C0F64C
:1041500000018B181B78704540F60010C0F23D003E
:1041600000F0B080B6F5004F40F04E80402B4FF08D
:10417000010100F29681DFE813F041001B01940178
:104180009401210194019401940129019401940165
:1041900094019401940194019401310194019401DA
:1041A0009401940194019401940194019401940167
:1041B00094019401940194019401410194019401AA
:1041C0009401940194019401940194019401940147
:1041D0009401940194019401940194019401940137
:1041E0009401940194019401940194019401940127
:1041F000940194019401940194013F01FEF7F8F9B0
:10420000002840F0D880E7E0402B4FF0010100F299
:104210004881DFE813F041000B014601460111011E
:104220004601460146011901460146014601460183
:10423000460146014601210146014601460146016B
:104240004601460146014601460146014601460136
:10425000460146014601310146014601460146013B
:104260004601460146014601460146014601460116
:104270004601460146014601460146014601460106
:1042800046014601460146014601460146014601F6
:104290004601460146012F01FEF7AAF9002840F029
:1042A000C880D7E0DCF8041001F00702062A01D22A
:1042B00080A14EE78023704540F60010C0F23D001B
:1042C0007FF450AF9A1E01211E2A27D8DFE812F092
:1042D0002000E9002C00E900E900E9003400E900D1
:1042E000E900E900E900E900E900E9003C00E90033
:1042F000E900E900E900E900E900E900E900E90076
:10430000E900E900E900E900E900E900490000BF2F
:10431000FDF79AF8B0B1656A23E000BF402B40F08A
:10432000C0804FF400401CE001A8FDF7A1F80298FE
:104330000028F0D106E000BF01A8FDF731F902988E
:104340000028E8D10021ACE05CF8540C800649F26A
:104350000000C0F2D03004D55CF8541CC1F3C10198
:10436000C84045F26C116268C0F6000131F81510C2
:10437000B0FBF1F002EB420188424FF00101C0F0C6
:1043800090801303984200F28C80010E00230002FB
:1043900010EB520041F10001FBF79AFF4FF600527B
:1043A000A0F54071C0F20F02914275D3012178E06F
:1043B000FEF74EF980B1656A20E000BF01A8FDF765
:1043C00057F802980028F6D106E000BF01A8FDF7D3
:1043D000E7F802980028EED1002162E05CF8540C66
:1043E000800649F20000C0F2D03007D55CF8541CBA
:1043F000C1F3C101C84001E04FF4004045F26C1127
:10440000C0F6000131F81510B0FBF1F061684A0800
:1044100002EB4000B0FBF1F04FF6F071014003D029
:10442000C0F34200084337E001213AE0FEF710F9FB
:1044300080B1656A20E000BF01A8FDF719F8029875
:104440000028F6D106E000BF01A8FDF7A9F8029800
:104450000028EED1002124E05CF8540C800649F2DB
:104460000000C0F2D03007D55CF8541CC1F3C10184
:10447000C84001E04FF4004045F26C116268C0F69C
:10448000000131F81510B0FBF1F000EB5200B0FB69
:10449000F2F080B2102803D32168C860002100E048
:1044A00001214FF00110A0660020C4E91C0008465D
:1044B00004B070BD0204081020400000000000009D
:1044C00010B58165A0F85C20A0F85E20D0F808E067
:1044D000BEF1000F0AD0BEF1805F0BD0BEF5805F49
:1044E0000CD1036923B940F2FF130AE003693BB919
:1044F000FF2306E003691BB13F2302E0002300E035
:104500007F23A0F860300023C0F88C302223C0F84D
:104510008830D0F800C0416E6346B1F1005F53F8B7
:10452000084F44F00101196003D1B0F868109142BE
:1045300010D9BEF5805F01D1016929B343F6496105
:10454000C0F600010167002180F880104FF49071DF
:10455000634614E0BEF5805F01D10169D1B143F635
:10456000D161C0F600010167002180F880104FF092
:104570008051DCF8000040F48070CCF800001A682C
:1045800000201143196010BD43F67941C0F60001C7
:10459000D8E700BF43F60151C0F60001E3E7000091
:1045A0002DE9F041044600680D46C7693940491BB2
:1045B000B1FA81F1490991425BD1DDF81880B8F177
:1045C000000F27D0164618F101013BD1C1692940DF
:1045D000491BB1FA81F14909B1424AD1C169294067
:1045E000491BB1FA81F14909B14201BFC1692940B2
:1045F000491BB1FA81F104BF4909B14239D1C169FE
:104600002940491BB1FA81F14909B142DED00020AD
:10461000BDE8F081FCF71CFE2068016821F4D07130
:104620000160816821F0010181602020C4F88400CC
:1046300004F1880020210160002084F8800003201C
:10464000BDE8F0811F4600BFFCF702FEC01B4045DD
:10465000E2D820680168490744BFC1695FEA015197
:104660000AD4C0692840401BB0FA80F04009B0422B
:10467000EAD00020BDE8F0814FF4006101620168DA
:1046800021F4D0710160816821F001018160202056
:10469000C4F88400C4F8880004F18C00CAE7000064
:1046A000FEE700000000000010B504460420FEF7FD
:1046B000FFFA40F2F850C2F20040046010BD000062
:1046C000B0B5002808BFB0BD40F2F8514FF47A727F
:1046D000C2F200414EF218034FF0000CCEF200037C
:1046E000096801FB02FE03E00CF1010C84451BD0BC
:1046F00053F8042C1C68002109E000BF2144AC429F
:10470000A1EB05012C4698BF11447145ECD21D6800
:10471000AC42F3D11D68AC4204BF1D68AC42EDD180
:104720001D68AC42F3D0E9E7B0BD00000000000016
:104730009AB0FCF7A5FDFFF76BF8FEF7A5FEFEF7B4
:10474000EBFE4FF4F070FFF7AFFFB2EE048A40F2D9
:10475000FC544FF0FF36C2F200446D460FF2D00811
:104760000DF164099FED389A06E000BF4FF47A70AE
:1047700038EE098AFFF7A4FF032264232046294666
:104780008DF80260ADF80060FEF706FE2068C16992
:10479000490609D4C16949065CBFC1695FEA416144
:1047A00002D4C1694906F2D5B7EEC80A2846414687
:1047B00053EC102B00F04AF89DF80000F0B10027F0
:1047C000294605E00137F8B255FA87F1285CA8B10F
:1047D00001224FF47A732046FEF7DEFD2068C1699E
:1047E0004906EFD4C16949065CBFC1695FEA41610E
:1047F000E8D4C1694906F2D5E4E700BF0322642387
:10480000204649468DF86660ADF86460FEF7C4FD49
:104810002068C1694906A9D4C16949065CBFC1695C
:104820005FEA4161A2D4C1694906F2D59EE700BFA3
:104830006D61696E2E74322E7478743D2225362E89
:10484000346620487A220000CDCC24410FB4084BB6
:1048500010B504A902AA039800F0DEF8044602A9E4
:10486000002000F070FC204610BC5DF814FB000036
:104870004751000802E008C8121F08C1002AFAD1F7
:1048800070477047002001E001C1121F002AFBD1D0
:10489000704700002DE9FF5F82B00021DDE90430A0
:1048A000020DDDF840B0034318D044F61050A2F2D8
:1048B000FF3242431514119801281FD0A5EB0B00BD
:1048C000401C5FEA000A4FF000064E4FDFF83891B7
:1048D000B046504615D5CAF1000413E011980124E2
:1048E0004AA3012801D16FEA0B010298119AC0E98D
:1048F0000031C0E9024206B0BDE8F09FCBF10000F4
:10490000DFE704460021404A491842EB0450CDE954
:10491000001012E0E00707D032463B4640464946C9
:10492000FBF7F5FD8046894632463B461046194660
:10493000FBF7EDFD06460F466410002CEAD1DDE9D9
:104940000401DDE90023BAF1000F06DAFBF7DFFD11
:1049500042464B46FBF7DBFD05E0FBF74AFE4246CD
:104960004B46FBF746FE04460E460022284BFBF75B
:10497000C7FE03D84FF0FF30014607E00022254B69
:1049800020463146FBF71CFDFBF7A2FE102409E090
:10499000002C0ADB0A220023FBF79AFC039B30322F
:1049A0001A55641E50EA0102F2D1641C039AC4F144
:1049B00011031444119A012A03D0012208430DD196
:1049C0000AE0084304D000204FF0110B119072E769
:1049D000A3EB0B056D1E0DE05B4504DD4FF00002FF
:1049E00005F1010504E003DA4FF00002A5F101052D
:1049F000002AECD002981199C0E90231C0E90045C3
:104A000079E70000000014400000F03F3000000093
:104A10000000F0430000E03F2DE9FF4F95B09B46BA
:104A20008946064600250FE2252877D1002427462F
:104A3000F84A0121059400E0044316F8013F203BA9
:104A400001FA03F01042F7D130782A2811D06FF024
:104A50002F033078A0F13002092A16D8059A44F0C5
:104A6000020402EB820203EB42021044761C059022
:104A7000EFE759F8042B0592002A03DA504244F478
:104A80000054059044F00204761C30782E2816D18C
:104A900016F8010F44F004042A280DD06FF02F02FD
:104AA0003078A0F13003092B09D807EB870302EB1C
:104AB0004303C718761CF3E759F8047B761C30785B
:104AC0006C280FD006DC4C2817D068280DD06A2837
:104AD00014D104E0742810D07A280FD10DE044F4EA
:104AE00000140AE044F4801401E044F440147278A5
:104AF000824202D104F58014761C761C3078662838
:104B00000BD013DC582877D009DC002875D0452855
:104B1000F6D04628F4D047281AD19DE118E0632842
:104B200035D0642879D0652812D195E1702873D0EA
:104B300008DC6728F1D069286FD06E280DD06F2867
:104B400006D1B5E073282CD0752875D0782874D09C
:104B50005A46179990476D1C75E1C4F3025002281C
:104B600009D003280DD0D9F8001004280DD00D600D
:104B700009F1040967E1D9F80010EA17C1E9005208
:104B8000F6E7D9F800100D80F2E70D70F0E719F89C
:104B9000041B8DF8001000208DF80100EA4601206A
:104BA00003E059F804AB4FF0FF3061074FF000010C
:104BB00002D40DE008F101018846B9420FDA8045C0
:104BC000F8DB1AF808100029F4D108E008F1010117
:104BD00088468142FADB1AF808100029F6D10598B8
:104BE0005B46A0EB080721463846179A00F094FA76
:104BF000284400EB080507E04DE029E10DE01AF834
:104C0000010B5A4617999047B8F10108F7D25B4655
:104C100021463846179A13E142E00A220092C4F373
:104C200002524FF0000A022A08D059F804CB032A96
:104C30004FEAEC710AD00DE029E02AE009F1070102
:104C400021F00702F2E802C1914609E00FFA8CFC5C
:104C50004FEAEC71042A03D14FFA8CFC4FEAEC7155
:104C6000002907DA0A460021DCF1000C61EB0201A1
:104C70002D2202E0220504D52B228DF804200122EA
:104C800003E0E20701D02022F7E7904659E00A212D
:104C900002E010220DE010214FF0000A00910BE01D
:104CA00010224FF0000A44F004040827009203E0A9
:104CB00008224FF0000A0092C4F30252022A05D0E3
:104CC00059F804CB0021032A08D009E009F10701B3
:104CD00021F00702F2E802C1914605E01FFA8CFCC0
:104CE000042A01D10CF0FF0C4FF00008220728D550
:104CF000702806D0009B83F0100353EA0A0305D006
:104D00000EE040228DF80420012208E05CEA010256
:104D100006D030228DF804208DF80500022290463E
:104D2000009B83F0080353EA0A030AD15CEA0102FC
:104D300001D1620705D530228DF804204FF001081B
:104D40007F1E582804D034A003900EA802900DE0D6
:104D500036A0F9E753466046009AFBF7B9FA844655
:104D60000398825C0298401E029002705CEA010087
:104D7000F0D1029806A9081A00F1200A600702D5AE
:104D800024F4803400E00127574502DDA7EB0A0038
:104D900000E0002000EB0A01009005984144401A11
:104DA0000590E00306D45B462146179A059800F06B
:104DB000B3F90544002706E001A85A46C05D1799DB
:104DC00090476D1C7F1C4745F6DBE0030CD55B4626
:104DD0002146179A059800F09FF9054404E0302019
:104DE0005A46179990476D1C0099481E009000295B
:104DF000F5DC08E0029802995A460078491C0291B5
:104E0000179990476D1CBAF10001AAF1010AF1DC73
:104E100065E100000928010030313233343536377E
:104E200038396162636465660000000030313233F6
:104E30003435363738394142434445460000000096
:104E400000F058F90544761C307800287FF4ECAD6A
:104E500019B02846BDE8F08F620700D4062709F193
:104E6000070222F0070CFCE80223E14603F00048A9
:104E70005FEA080C02D00FF2702C0DE05FEA045CD0
:104E800002D50FF2682C07E05FEAC47C02D00FF273
:104E9000602C01E0AFF2700C4FF0FF3823F00043BC
:104EA000CDF850C065280CD006DC452809D046282E
:104EB0001DD047283DD13DE0662818D067287ED117
:104EC00038E00021112F01DB112000E0781CCDE932
:104ED000000106A90EA8FFF7DDFCDDE90F010E9A1F
:104EE00003910021009207F1010A04914DE04FF077
:104EF00000400097CDE9011006A90EA8FFF7CAFCF3
:104F0000DDE90F0203920E9B11990022DDF80CA03F
:104F10000093049211B9791C00EB010AB7EB0A0067
:104F200004D4C0F1FF3007F1010A0490AAEB070096
:104F3000019044E0012F00DA01270021112F01DD4B
:104F4000112000E03846CDE9000106A90EA8FFF7C0
:104F5000A1FCDDE90F010E9A03910021049100925A
:104F6000BA4621070CD40399514500DA8A46BAF1B2
:104F7000010F05DD009AAAF10101515C302908D02A
:104F8000B84202DA10F1040F06DA0121CDE901106E
:104F900015E0AAF10101E9E7002805DC04990144C4
:104FA0000491AAEB000102E0411C514500DD8A4654
:104FB0000499401A401C01904FF0004002902007D5
:104FC00004D40198504501DBCDF8048000208DF811
:104FD0004F0002980DF14F07B0F1004F25D02B2064
:104FE0000E9002984FF0020800280CDA404202901E
:104FF0002D200E9007E00A210298FBF7ACF9303122
:10500000029007F8011DB8F10001A8F10108F2DCD7
:1050100002980028EFD1791E0E980870307800F0C1
:10502000200040F0450007F8020D12A8C01B00F157
:1050300007081498007800B1012000EB0A010198DC
:1050400001EBE07105984144401A401E0590E003D1
:1050500006D45B462146179A059800F05DF8054492
:105060001498007818B15A46179990476D1CE003C0
:1050700024D55B462146179A059800F04DF8054463
:105080001CE00498002807DBDDE90301884203DD0A
:105090000098405C179901E0179930205A469047D4
:1050A000049805F10105401C04900198401E0190F0
:1050B00004D12E205A46179990476D1CBAF1000171
:1050C000AAF1010ADDDC05E017F8010B5A46179931
:1050D00090476D1CB8F10001A8F10108F4DC5B46B3
:1050E0002146179A0598ABE62D0000002B00000022
:1050F000200000002DE9F041044600251E46174619
:10510000880404D405E039462020B0476D1C641E95
:10511000F9D52846BDE8F0812DE9F0410446002587
:105120001E469046C80301D5302700E0202788049A
:1051300004D505E041463846B0476D1C641EF9D5DC
:105140002846BDE8F0810A68531C0B601070704758
:105150000104081020400004081020400000000056
:10516000010203040102030406070809010002000A
:105170000400060008000A000C0010002000400097
:10518000800000010101010307010000080402047E
:1051900008010101B85100080000002418000000B7
:1051A00074480008D0510008180000247816000048
:1051B000844800080000000001000000100000000A
:1051C0000090D0030090D00345520000FC0500245D
:040000050800029954
:00000001FF
