:020000040800F2
:10000000B0060024390300082927000851220008FF
:100010002127000841040008B12B0008000000005F
:100020000000000000000000000000008929000816
:100030004904000800000000312700089129000849
:100040005303000853030008530300085303000838
:100050005303000853030008530300085303000828
:100060005303000859040008530300085303000811
:100070005303000853030008530300085303000808
:1000800053030008530300085303000853030008F8
:1000900053030008530300085303000853030008E8
:1000A00053030008530300085303000853030008D8
:1000B00053030008530300085303000853030008C8
:1000C00053030008530300085303000853030008B8
:1000D00053030008530300085303000853030008A8
:1000E00051040008530300080000000053030008F7
:1000F0005303000853030008530300085303000888
:100100005303000853030008530300085303000877
:100110005303000853030008530300085303000867
:100120005303000853030008530300085303000857
:100130005303000853030008530300085303000847
:1001400000000000000000000000000000000000AF
:100150005303000853030008530300085303000827
:100160005303000853030008530300085303000817
:100170005303000853030008530300085303000807
:1001800053030008530300085303000853030008F7
:1001900053030008530300085303000853030008E7
:1001A00053030008530300085303000853030008D7
:1001B00053030008592200085303000853030008A2
:1001C00053030008530300085303000853030008B7
:1001D00053030008530300085303000853030008A7
:1001E0005303000853030008530300085303000897
:1001F0005303000853030008530300085303000887
:100200005303000853030008530300085303000876
:100210005303000853030008530300085303000866
:1002200053030008530300085303000800000000B4
:1002300053030008530300080000000053030008A4
:100240005303000853030008530300085303000836
:100250005303000853030008530300085303000826
:100260005303000853030008530300085303000816
:100270005303000853030008530300080000000064
:100280005303000853030008530300080000000054
:10029000000000005303000800F002F800F03CF8F2
:1002A0000AA090E8000C82448344AAF10107DA45D1
:1002B00001D100F031F8AFF2090EBAE80F0013F0E7
:1002C000010F18BFFB1A43F00103184778290000FB
:1002D00098290000103A24BF78C878C1FAD852078C
:1002E00024BF30C830C144BF04680C6070470000B0
:1002F0000023002400250026103A28BF78C1FBD82F
:10030000520728BF30C148BF0B6070471FB502F0CD
:1003100084FC1FBD10B510BD00F058F81146FFF762
:10032000F5FF02F049FC00F076F803B4FFF7F2FFA6
:1003300003BC00F07DF800000948804709480047E9
:10034000FEE7FEE7FEE7FEE7FEE7FEE7FEE7FEE785
:10035000FEE7FEE704480549054A064B70470000E2
:10036000E12A000899020008B0000024B006002429
:10037000B0020024B00200244FF0000200B5134682
:1003800094469646203922BFA0E80C50A0E80C50B5
:10039000B1F12001BFF4F7AF090728BFA0E80C5066
:1003A00048BF0CC05DF804EB890028BF40F8042B5F
:1003B00008BF704748BF20F8022B11F0804F18BFCC
:1003C00000F8012B7047704770477047754600F082
:1003D0002BF8AE4605006946534620F007008546D7
:1003E00018B020B5FFF7B6FFBDE820404FF000067B
:1003F0004FF000074FF000084FF0000BAC46ACE8A0
:10040000C009ACE8C009ACE8C009ACE8C00921F0FB
:1004100007018D46704710B50446AFF300802046B3
:10042000BDE81040FFF781BF00487047100000246E
:1004300001491820ABBEFEE726000200704700000D
:10044000FEE7000000000000704700000000000010
:100450004FF4805000F014B8082000F011B80000EC
:10046000EFF3108072B600BFFEE70000000000004E
:1004700040F270004FF41671C2F2004000F0C0B9B3
:100480008821C5F600010A68024208BF704708606B
:10049000FFF7EEBF000000002DE9F04F85B08E465B
:1004A00042F20042C5F602020A2102909042DEF8B2
:1004B000005008BF0921002D009100F0DD80029856
:1004C000002400F12642009802F1FF7201274FEA52
:1004D000B2230026092B4FF0000838BF1846CDF88C
:1004E0000CE000900EE000BFDEF8005008F10108BB
:1004F00035FA07F006F1020607F1010704F10404DA
:1005000000F0BA80A7F1010A012000FA0AF315EA07
:100510000309E9D0DEF804B00BF003056A1E012AD6
:1005200022D802984FEA4801D0F808C0019103216F
:1005300001FA06F203992CEA020CD1F80CE00EFA4B
:1005400006F1DDF80CE041EA0C01816041686FEAD8
:10055000020CCBF3001299430346019802FA0AF207
:10056000114359600CE000BF0320032D00FA06F090
:10057000029B6FEA000C304602D13046032526E08C
:10058000D968DEF8082001EA0C018240022D41EA18
:100590000201D9601BD102466FF0030000EA5A0144
:1005A0000F20194404F01C0300FA03F51046D1F89B
:1005B00020E0039A2EEA0505DDF80CE012699A4066
:1005C000029B2A430A62DEF804B00BF003051968A7
:1005D00005FA00F001EA0C011BF4403F40EA01007B
:1005E00018603FF481AF44F2F44140F20845C5F68B
:1005F0000201C5F600050F23086840F002000860FC
:10060000086800F0020004902AF00300049904F046
:100610000C0142598B409A43009B03FA01F11143AC
:1006200041514FF0B0452868DEF8041040EA090255
:10063000CB0258BF20EA09028B022A6040F204056F
:10064000C5F60005286840EA090258BF20EA0902F9
:100650008B032A60D5F8800040EA090258BF20EADF
:100660000902C903C5F88020E86F40EA090258BFB3
:1006700020EA0902EA6737E705B0BDE8F08F00001D
:100680000069084018BF012070470000000000000A
:10069000426902EA0103914341EA034181617047E3
:1006A000002A08BF090481617047000000000000B3
:1006B00041F20000C5F600400068000C70470000E1
:1006C00040F2A800C2F2004000687047000000003D
:1006D00040F2000040F2A801C2F20040C2F2004124
:1006E00000780A68104408607047000000000000AD
:1006F00080B5032000F0D8FA01F076FA44F21841F0
:1007000042F63443C5F60201C0F600030A680968E0
:1007100001F00F01C2F30322595C9A5C01F01F0142
:1007200002F01F02D04040F20C02C2F2004220FA56
:1007300001F1116040F20801C2F2004108600F208F
:1007400000F00AF800281CBF012080BD00F05CFA10
:10075000002080BD0000000070B540F20006C2F22B
:1007600000463178E1B1044640F20800C2F2004090
:100770004FF47A72B2FBF1F10068B0FBF1F001F0D6
:100780004FFD0F2C4FF0010508D838B94FF0FF305E
:1007900000222146002500F057FA7460284670BDFB
:1007A000012070BD0000000010B540F60004C5F641
:1007B000020400F089F804F500600821FFF760FFEB
:1007C00018B980212046FFF763FF4FF4805120467F
:1007D000FFF756FF002818BF10BD40212046BDE896
:1007E0001040FFF755BF00007047000000000000F8
:1007F000704700000000000070470000000000008B
:1008000010B50446022084F836006068012808D03C
:10081000A06AB0F5000F04D12068C26822F46062BB
:10082000C2602068026942F0010202611022426047
:10083000816140F20801C2F2004141F25972CDF2E9
:10084000B7120968A1FB0212910B4FF47A7251435F
:10085000C1F1040200210368DB0610D40368DB0643
:100860005CBF03685FEAC36309D4002A08BF0321A1
:100870000368DB0603D4002A02F10402EBD1C8B2FC
:10088000032806D0204601F0EFFC94F83600032838
:1008900002D1032010BD00BF2068816841F0100123
:1008A0008160816841F002018160016941F00101CC
:1008B0000161016941F004010161012084F8360001
:1008C000002010BD0000000010B50446022084F88E
:1008D0003600204601F0C8FC94F83600032801D108
:1008E000032010BD2068816821F0100181608168BB
:1008F00021F002018160012084F83600002010BD43
:100900007047000000000000704700000000000079
:1009100010B5044600680168C9071CBF81685FEA1A
:10092000C17131D10168890744BF81685FEA817173
:1009300032D40168490744BF81685FEA417133D40A
:100940000168090744BF81685FEA017134D4016816
:10095000C90644BF81685FEAC16135D40168890670
:1009600044BF81685FEA816136D40168490646BFA9
:1009700081685FEA416110BD402141602046BDE8C9
:100980001040FFF7BDBF00BF012141602046FFF7C7
:100990002FFF2068C6E700BF022141602046FFF715
:1009A00003FF2068C5E700BF04214160204600F036
:1009B000D7F82068C4E700BF082141602046FFF750
:1009C0001BFF2068C3E700BF102141602046FFF7EE
:1009D0000BFF2068C2E700BF202141602046FFF7DF
:1009E00093FF2068C1E70000002865D02DE9F041A1
:1009F000044690F8360028B9002084F835002046D7
:100A000000F07AF8022084F83600D4E900C1012908
:100A1000D4F828E0DCF80C0004D0BEF5000F03D1B8
:100A20004FF4000E20F01E0041F23E18A2686369E8
:100A30004FF6FF77CFF61978BB42D4E9085618BFB6
:100A400000EA08000A434FF2FE17CFF619772A434F
:100A500038403243104340EA0E0079B3012918BFF1
:100A6000BEF5000F33D04FF6FF718B4204D0A16961
:100A70001843E2690843104342F20041CCF80C00ED
:100A8000C4F200018C450BD042F60000C5F6000010
:100A9000844525D042F20040C5F60000844504D1CB
:100AA000D4E90B010843CCF82400012084F8360077
:100AB0000020BDE8F08100BF01207047E269256990
:100AC00010432843012918BFBEF5000FCBD1D4E94C
:100AD0000312084310434FF6FF718B42C7D1CBE797
:100AE00042F62400E16AC5F600000160012084F8A6
:100AF00036000020BDE8F08110B5B0B001A9044671
:100B0000081DB821FFF738FC42F200412068C4F20A
:100B10000001884202D030B010BD00BF20200190FB
:100B20004FF0A040249001A800F0F6F808B1FFF7BC
:100B300097FC44F2E8400022C5F60200016841F447
:100B40000071016000680D2100F4007000900098B1
:100B50005D2000F079F85D2000F066F830B010BD3F
:100B60007047000000000000B0B502784EF69C5CB3
:100B7000CEF2000C43784CF8043CFAB14368CCF850
:100B80000030037BC17A90F80AE0457B447A42EA60
:100B90000372837B42EA0161C27B41EACE41007A63
:100BA00041EA854141EA434141EA024141EA0421E7
:100BB00041EA4000CCF80400B0BD00BF0020CCF8F2
:100BC0000000CCF80400B0BD4EF62450CEF2000078
:100BD000BFF35F8F016821F480310160002101675C
:100BE00070470000000000004EF6245140F0010064
:100BF000CEF200010867086840F480300860BFF357
:100C00004F8FBFF36F8F704781B044F2F440C5F649
:100C10000200016841F002010160006800F002007A
:100C20000090009801B07047002848BF704700F05E
:100C30001F01012202FA01F14EF200124009CEF228
:100C4000000242F820107047B0B54EF60C5C00F080
:100C50000F05CEF2000C043D6544DCF800304FF087
:100C6000FF3CC3F3022E8EF00703042B28BF04239E
:100C7000BEF1030438BF00240CFA03F3B0F1FF3FC8
:100C800021EA030105F10C0300F160450CFA04F0C0
:100C9000C8BF05F56443A14022EA000008430001F3
:100CA0001870B0BD000000004EF60C514FF6FF0367
:100CB000CEF200010A681A4060F30A2242F0806016
:100CC00040F0FD7008607047B0B544F60C05C5F6FD
:100CD000020529684907296806D401F00701081AA6
:100CE00018BF0120B0BD00BF21F0070108432860F4
:100CF000FFF7E6FC044600BF55F8080C800407D453
:100D0000FFF7DEFC001BB0F57A7FF5D90120B0BDFE
:100D10000020B0BD000000002DE9F0470446C07877
:100D200044F22C480007C5F6020845D5606E4FEA2C
:100D3000305103290CD8DFE801F003112F3800BF30
:100D4000D8F8001041F40031C8F800102DE000BFC1
:100D500001266078C0070AD032E000BF201D0221C2
:100D600001F0EAFC0646F8B16078C00728D13546A4
:100D70003746607880073BD43E466078400750D4C1
:100D8000B1466078000700F167804F46E078800741
:100D900040F15F817AE000BF04F12400022101F0FC
:100DA0005FFD06460028DFD1606ED8F8241021F4DC
:100DB00040110843C8F8240000266078C007D6D048
:100DC000606D042800F2A6803546DFE800F003AB32
:100DD000B10A0A00D8F80000354640F40030C8F8DF
:100DE0000000002D2F4600F0AD8060788007C3D54D
:100DF000A06D4FEAB010042800F2B480DFE800F0E4
:100E000004BAC00A0A0000BFD8F8000040F400305D
:100E1000C8F80000002D2E4600F0BC806078400726
:100E2000AED5D4F8A4004FEA7050042800F2C28076
:100E3000DFE800F004C8CE0A0A0000BFD8F80000BE
:100E400040F40030C8F80000002DA94600F0CA8028
:100E5000607800077FF599AFD4F8A8004FEA3060BA
:100E6000042800F2CF80DFE800F003D5DB09090099
:100E7000D8F8000040F40030C8F80000002D2F46DC
:100E800000F0D880E078800740F1E380A06C4FEA62
:100E9000301003281AD8DFE800F003212B0300BF2D
:100EA0002E466DB36078C00600F1D8803746607872
:100EB000800600F1ED803E466078400600F1FC803F
:100EC00037466078000640F1BA8109E10125012624
:100ED0006078C00600F1C280E8E700BFD8F80000E3
:100EE00040F40030C8F80000002D2E46DAD107E0AB
:100EF000201D022101F020FC0546002D2E46D1D1F7
:100F0000D8F82000A16C20F0300000250843C8F874
:100F100020009EE001250127607880073FF568AF3B
:100F20002AE700BF201D002101F006FC05E000BFFC
:100F300004F12400002101F093FC0546002D2F460A
:100F40007FF453AFD8F82400616D20F0070000252E
:100F50000843C8F824003746607880077FF50CAF57
:100F600046E700BF01250126607840073FF559AFED
:100F700006E700BF201D002101F0DEFB05E000BFF9
:100F800004F12400002101F06BFC0546002D2E46E3
:100F90007FF444AFD8F82400A16D20F4E070002560
:100FA0000843C8F824003E46607840077FF5E8AE65
:100FB00037E700BF01254FF00109607800073FF5D2
:100FC0004BAFE2E6201D002101F0B6FB05E000BFBB
:100FD00004F12400002101F043FC0546002DA94640
:100FE0007FF436AFD8F82C00D4F8A41020F46000B9
:100FF00000250843C8F82C00B146607800077FF54B
:10100000C4AE29E701250127E07880073FF53EAF10
:101010001FE000BF201D002101F08EFB05E000BF96
:1010200004F12400002101F01BFC0546002D2F4691
:101030007FF428AFD8F82C00D4F8A81020F0E06096
:1010400000250843C8F82C004F46E07880073FF59C
:101050001DAF3E466078C0067FF528AFE06D4FEAD1
:101060003030042800F26C80DFE800F00472780A67
:101070000A0000BFD8F8000040F40030C8F80000B3
:10108000002D2F4600F07480607880067FF513AF46
:10109000206E4FEA3040052800F27A80DFE800F049
:1010A00004808A04040400BF002D2E4600F08C80CA
:1010B000607840067FF504AFD4F8AC004FEA30709A
:1010C000052800F29180DFE800F00397A1030303F5
:1010D000002D2F4600F0A4806078000640F1AF801C
:1010E000E06E58B1B0F1005F10D0B0F1805F1FD159
:1010F000D8F8000040F40030C8F800002E466DB16A
:10110000E078C00700F0CF809DE000BF201D0121E6
:1011100001F012FB0546002D2E46F1D1D8F824002F
:10112000E16E20F0405000250843C8F8240086E016
:1011300001250126E078C00740F08580B3E000BFBC
:1011400001250127607880063FF5A2AFB3E600BF16
:10115000201D002101F0F0FA05E000BF04F1240099
:10116000002101F07DFB0546002D2F467FF48CAF5A
:10117000D8F82400E16D20F4E04000250843C8F8C9
:1011800024003746607880067FF595AE80E700BF83
:1011900001250126607840063FF58EAF90E600BF3E
:1011A000201D012101F0C8FA0546002D2E467FF4CE
:1011B0007FAF09E004F12400012101F051FB054655
:1011C000002D2E467FF474AFD8F82400216E20F451
:1011D000E02000250843C8F824003E466078400619
:1011E0007FF56EAE68E700BF012501276078000635
:1011F0003FF576AF23E000BF201D012101F09CFAEE
:101200000546002D2F467FF467AF09E004F1240066
:10121000012101F025FB0546002D2F467FF45CAF30
:10122000D8F82C00D4F8AC1020F0E040002508439A
:10123000C8F82C003746607800063FF551AF3E46AF
:10124000E078C0072FD0606C032809D8DFE800F0F1
:1012500002101A02A946EDB1A07840062AD426E071
:1012600001254FF00109A078400620D522E000BFFB
:10127000D8F8000040F40030C8F80000002DA9465E
:10128000EAD107E0201D022101F056FA0546002DA3
:10129000A946E1D1D8F82000616C20F003000025B8
:1012A0000843C8F82000B146A078400602D44F4653
:1012B00019E000BFD8F8D40340F48070C8F8D40314
:1012C000FFF7FEF9064600BFD8F8D403C00507D4DF
:1012D000FFF7F6F9801B6428F6D90325032702E0FF
:1012E000002D2F4664D02078C00700F0B680A06F94
:1012F0004FEAF000052800F28D80DFE800F003914E
:101300009B030303002D2E4600F09E80207880076B
:1013100000F1A88037462078400700F1B7803E46AC
:101320002078800600F1C88037462078400600F11A
:10133000DB803E462078000600F1EE8037462068CC
:10134000010740F10181D4F88000B0F5805F09D138
:1013500004F12400022101F083FA002818BF0127BC
:10136000D4F88000D8F8281021F440510843C8F878
:1013700028002068C10640F1EA80D4F89400B0F556
:10138000807F09D104F12400022101F069FA0028CC
:1013900018BF0127D4F89400D8F82C1021F440711C
:1013A0000843C8F82C002068000340F1F780D0E023
:1013B000D8F84410D4F8B000414011F4407F11D067
:1013C000D8F84410D8F8442042F48032C8F84420B9
:1013D000D8F8442021F4407122F48032C8F8442027
:1013E000C8F84410B0F5807F40F0AC82FFF768F990
:1013F000064641F2883A0325032700BFD8F8440087
:10140000800700F19D82FFF75BF9801B5045F5D9FD
:1014100069E700BF012501262078800722D479E7FB
:10142000201D012101F088F90546002D2E467FF48C
:101430006DAF09E004F12400012101F011FA054625
:10144000002D2E467FF462AFD8F82800A16F20F05F
:10145000380000250843C8F828003E462078800759
:101460007FF558AF606F052800F28E81DFE810F03D
:10147000060094019E01060006000600002D2F467E
:1014800000F09E81207840077FF549AFD4F89000A6
:10149000052800F2A581DFE810F00700AB01B501D7
:1014A00007000700070000BF002D2E4600F0B481A2
:1014B000207880067FF538AFD4F88C004FEA307082
:1014C000052800F2B981DFE810F00700BF01C9016B
:1014D00007000700070000BF002D2F4600F0C8815D
:1014E000207840067FF525AFD4F898004FEAB02069
:1014F000052800F2CD81DFE810F00700D301DD01FF
:1015000007000700070000BF002D2E4600F0DC8119
:10151000207800067FF512AFD4F89C004FEA7030B7
:10152000052800F2E181DFE810F00700E701F10192
:1015300007000700070000BF002D2F4600F0F081D4
:10154000206801073FF5FFAEC1063FF516AF000367
:1015500024D5D4F8A000B0F5003F0FD0B0F5803FFF
:1015600006D0B8BB201D002101F0E6F805E000BF61
:1015700004F12400022101F073F905462E461DB145
:10158000A07840073FD50DE0D8F82C00D4F8A01083
:1015900020F4403000250843C8F82C003E46A078CF
:1015A000400730D5D4F88400B0F5401F0BD0B0F51B
:1015B000001F15D0B0F5801F70D1D8F8000040F49E
:1015C0000030C8F800002F469DB1A078C0071ED19A
:1015D00069E000BF01260125A0784007E2D412E0AF
:1015E00004F12400012101F03BF90546002D2F46AE
:1015F000EBD1D8F82800D4F8841020F4401000254E
:101600000843C8F828003746A078C0074BD0E06CE4
:10161000B0F5803F2AD0D8BBD8F8000040F40030A5
:10162000C8F800002E464DB3206881003FD48103E6
:1016300048D4C1025DD4C10065D481026FD4410099
:1016400078D4B0F1FF3F40F38680000208D5D8F887
:101650002800D4F8881020F440000843C8F8280077
:10166000002E18BF01263046BDE8F087201D02215C
:1016700001F062F80546002D2E46D5D1D8F820009D
:10168000E16C20F4803000250843C8F820000AE00F
:101690000126012520688100C9D508E00127012520
:1016A000A078C007B3D13E4620688100BFD504F1C1
:1016B0002400022101F0D4F8002818BF0126206878
:1016C0008103B6D5E16F6FF0010202EB3122022AED
:1016D0000AD34FEA31223AB1012A07D1D8F80020C3
:1016E00042F40032C8F80020002D41D00126C1028A
:1016F000A1D5D8F82410226F21F000411143C8F879
:101700002410C10099D558F81C1CD4F8B42021F439
:101710008041114348F81C1C81027FF590AFD8F836
:101720002410A26E21F080711143C8F824104100EA
:101730007FF587AF58F81C1C21F4004148F81C1CA9
:10174000D4F8B81058F81C2C114348F81C1CB0F100
:10175000FF3F3FF77AAFD8F82010226D21F04051BB
:101760001143C8F8201000027FF57AAF6FE700BF81
:10177000D8F8282022F440721143C8F82810C1027A
:101780007FF559AFB5E700BF012501272078400755
:101790003FF57CAEC3E500BF201D012100F0CCFF6A
:1017A0000546002D2F467FF46DAE09E004F12400BC
:1017B000012101F055F80546002D2F467FF462AE59
:1017C000D8F82800616F20F0070000250843C8F80A
:1017D00028003746207840077FF5A1AD56E600BFC8
:1017E00001260125207880063FF566AE9CE500BF06
:1017F000201D012100F0A0FF0546002D2E467FF49C
:1018000057AE09E004F12400012101F029F8054652
:10181000002D2E467FF44CAED8F82C00D4F8901052
:1018200020F0070000250843C8F82C003E46207829
:1018300080067FF579AD3FE6012701252078400637
:101840003FF552AE75E500BF201D002100F074FF8A
:101850000546002D2F467FF443AE09E004F1240035
:10186000022100F0FDFF0546002D2F467FF438AE23
:10187000D8F82800D4F88C1020F0E0400025084368
:10188000C8F828003746207840067FF552AD2BE691
:1018900001260125207800063FF53EAE4EE500BF4B
:1018A000201D002100F048FF0546002D2E467FF444
:1018B0002FAE09E004F12400022100F0D1FF05461B
:1018C000002D2E467FF424AED8F82C00D4F89810C2
:1018D00020F4E05000250843C8F82C003E4620784C
:1018E00000067FF52BAD17E60127012520680107CB
:1018F0007FF52AAE27E500BF201D002100F01CFF68
:101900000546002D2F467FF41BAE09E004F12400AC
:10191000022100F0A5FF0546002D2F467FF410AEF2
:10192000D8F82C00D4F89C1020F46040002508431F
:10193000C8F82C003746206801077FF505AE02E5A0
:10194000D4F8B0004FF6CF7358F81C2CC0F2FF0348
:1019500000F4407122F47C5203EA10136FF31F303D
:10196000B1F5407F08BF1A43002548F81C2CD8F871
:1019700044100843C8F84400FFF799BC0000000079
:101980002DE9F04381B0002800F02A8142F20008DE
:101990000446C5F200288946D8F8000000F00F0080
:1019A00088420ED2D8F8000020F00F0040EA09006B
:1019B000C8F80000D8F8000000F00F00484540F0DB
:1019C0000F81206844F218474107C5F602070AD57F
:1019D00021693A6802F07002914204D93A6822F013
:1019E00070021143396001070AD561697A6802F013
:1019F0007002914204D97A6822F070021143796032
:101A0000C1060AD5A1697A6802F4E062914204D95C
:101A10007A6822F4E0621143796081060AD5E169AF
:101A2000BA6802F07002914204D9BA6822F07002DA
:101A30001143B96010F002010AD0E2683B6803F07C
:101A40000F039A4204D93B6823F00F031A433A600C
:101A5000C20746D0386820F47061D4E90102012839
:101A600041EA0201396009D003280DD0022811D1C2
:101A700057F8181C890340F1B38010E057F8181C80
:101A8000C90540F1AD800AE057F8181C890140F102
:101A9000A78004E057F8181C490740F1A18057F8C7
:101AA000081C21F00701084347F8080CFEF708FE60
:101AB000064641F2883500BF57F8080C616800F00F
:101AC0003800B0EBC10F09D0FEF7FAFD801BA84229
:101AD000F2D9032001B0BDE8F08300BF206800F018
:101AE000020151B1E1683A6802F00F02914204D25A
:101AF0003A6822F00F0211433960D8F8001001F063
:101B00000F0149450DD9D8F8001021F00F0141EA25
:101B10000901C8F80010D8F8001001F00F0149457C
:101B20005ED141070AD521693A6802F070029142FC
:101B300004D23A6822F070021143396001070AD5D5
:101B400061697A6802F07002914204D27A6822F0E8
:101B5000700211437960C1060AD5A1697A6802F45E
:101B6000E062914204D27A6822F4E0621143796023
:101B700080060AD5E069B96801F07001884204D294
:101B8000B96821F070010843B86000F02DF8396899
:101B900042F634433A68C0F60003C1F3032102F071
:101BA0000F02595C9A5C01F01F0120FA01F102F06A
:101BB0001F0040F20C0221FA00F0C2F20042106055
:101BC00040F2040040F20802C2F20040C2F20042B9
:101BD0000068116001B0BDE8F043FEF7BDBD00BF75
:101BE000012001B0BDE8F08344F20041C5F60201D6
:101BF0000869C0F3C200032810D002282CD088BB8B
:101C00000868800649F20000C0F2D03058BF704723
:101C10000968C1F3C101C840704700BF8A6A886A79
:101C2000C0F3051CC86ABCF1000F4B6B20D0C3F396
:101C3000CC0300F00100584302F00302022A00EE38
:101C4000100AB8EE400A15D0C2B90868800619D447
:101C50009FED281A23E000BF47F64000C0F27D1038
:101C6000704700BF40F60010C0F23D00704700BF53
:101C7000002070479FED1E1A11E000BF9FED1B1A58
:101C80000DE000BF086849F20002C0F2D032C0F394
:101C9000C10022FA00F001EE100AB8EE411A086BFA
:101CA0009FED153A6FF35F2002EE100A086BC0F348
:101CB0004620B8EE422A013000EE032A00EE10CA98
:101CC000B7EE003AB8EE400A81EE000A32EE031A8F
:101CD00020EE010A01EE100AB8EE411A80EE010A68
:101CE000BCEEC00A10EE100A704700BF0024744A10
:101CF00020BCBE4B0024744C0000003900000000E2
:101D0000F0B581B0002800F05B810446007844F211
:101D10000046C007C5F6020612D0306900F038014F
:101D2000B06A102905D018292ED100F0030002282E
:101D30002AD13068800303D56068002800F0408114
:101D40002078800740F1A980306910F03801B06A2E
:101D50002CD0182908BF5FEA807027D0E06831686E
:101D600000284FD021F0190108433060FEF7A8FC8D
:101D7000054600BF3068400734D4FEF7A1FC401B85
:101D80000228F7D95BE100BF606800284CD0B0F5AD
:101D9000A02F61D0B0F5803F62D0306820F4803051
:101DA0003060306820F480205DE000BF306840077C
:101DB000E06802D5002800F00381316821F01901A4
:101DC00008433060FEF77CFC054600BF30684007E2
:101DD00008D4FEF775FC401B02284FF00300F5D92C
:101DE00019E200BFFEF764FC41F20301884249D8C2
:101DF00020697168402821F47C314BD141F40030D6
:101E00004AE000BF21F001003060FEF759FC0546B2
:101E10003068400741D5FEF753FC401B02284FF0C5
:101E20000300F5D9F7E100BF306820F4803030605E
:101E3000306820F480203060FEF742FC054600BF89
:101E4000306880037FF57CAFFEF73AFC401B6428C6
:101E50004FF00300F4D9DEE1306840F480203060B8
:101E6000306840F480303060FEF72AFC054600BF41
:101E7000306880033FF564AFFEF722FC401B642806
:101E8000F6D9DCE07068216920F0FE4040EA01608C
:101E900002E000BF41EA003070602078C00654D5EF
:101EA000306900F03801B06A082905D0182919D125
:101EB00000F00300012815D13068C00503D5E069A2
:101EC000802840F07D80FEF7F3FB41F20301884259
:101ED0001ED8206A7168202821F0F84132D141F0E3
:101EE000804031E0E0690028306819D040F080007F
:101EF0003060FEF7E5FB05463068C005E3D4FEF729
:101F0000DFFB401B02284FF00300F5D983E100BF3F
:101F1000F068216A20F07C5040EA0160F06014E033
:101F200020F080003060FEF7CBFB05463068C0052E
:101F30000BD5FEF7C5FB401B02284FF00300F5D977
:101F400069E100BF41EA80607060207800073BD4FF
:101F5000207880064CD4207840075DD4656A65B34C
:101F6000306900F03800182840F0A080012DB16AD7
:101F7000306B25D001F00302A36A9A4220D1C1F34D
:101F80000511E26A91421BD10146226B6FF35F217A
:101F9000013A914214D1C0F34622616B01398A4261
:101FA0000ED1C0F30642A16B01398A4208D1C0F3B9
:101FB0000660E16B0139884202D1002001B0F0BD1A
:101FC000012001B0F0BD00BF60690028706F39D0FA
:101FD00040F001007067FEF773FB0546706F8007E5
:101FE000B6D4FEF76DFB401B0228F7D927E000BFEF
:101FF000A0690028306847D040F480503060FEF778
:102000005FFB054630688004A5D4FEF759FB401BF2
:102010000228F7D913E000BFD6F8000440F480701E
:10202000C6F80004FEF74CFB054600BFD6F80004D6
:10203000C00519D4FEF744FB401B6428F6D90320E1
:1020400001B0F0BD20F001007067FEF739FB0546D6
:10205000706F80077FF57CAFFEF732FB401B0228D4
:102060004FF00300F4D9D6E0A068002840D005283E
:1020700058D001285AD0306F20F001003067306FFF
:1020800020F0040055E000BF20F480503060FEF7DF
:1020900017FB0546306880047FF55DAFFEF710FB47
:1020A000401B02284FF00300F4D9B4E0306820F060
:1020B00080703060FEF704FB022D05460CD100BF96
:1020C0003068800148D5FEF7FBFA401B02284FF02C
:1020D0000300F5D99FE000BF306880017FF56DAF48
:1020E000FEF7EEFA401B02284FF00300F4D992E00D
:1020F000306F20F001003067306F20F0040030674F
:10210000FEF7DEFA054641F28837306F80077FF52B
:1021100025AFFEF7D5FA401BB8424FF00300F4D9C3
:1021200079E000BF306F40F004003067306F40F05E
:1021300001003067FEF7C4FA054641F2883700BF58
:10214000306F80073FF50AAFFEF7BAFA401BB8427E
:102150004FF00300F4D95EE004F12807B06A40F2C2
:10216000F33188438ECF0843591E40EA02104FF4E2
:102170007E426FF35F21B06202EB47204FF4FE0214
:1021800080B2E36B0844A16B02EB01414FF0FE42C9
:1021900001F4FE0102EB0362084402F0FE41084430
:1021A0003063F06A4FF6F87120F00100F062706B56
:1021B000A26C884340EAC2007063F06A216C20F090
:1021C0000C000843F062F06A616C20F002000843E2
:1021D000F062F06A40F48030F062F06A40F400305F
:1021E000F062F06A40F48020F062F06A40F0010092
:1021F000F062306840F080703060FEF761FA0446AB
:10220000306880013FF5D9AEFEF75AFA001B02286C
:102210004FF00300F4D901B0F0BD00000000000051
:10222000411E0020B0EB116F02D00120704700BFAB
:102230004EF21002F023CEF2000251604EF623510E
:10224000CEF200010B700721906011607047000012
:10225000FEE700000000000040F27000C2F2004003
:10226000FEF756BB000000002DE9F04F84B00121BD
:10227000EFF3108881F3108842F2FF750268C5F60B
:10228000000544F2584EAA42C5F6020E2EDD42F673
:102290000001C5F600018A4250D042F60041C5F661
:1022A00000018A4266D043F20001C5F600018A426D
:1022B00040F09880DEF800109768D3685469D2F82F
:1022C00018A0D2F824C0DEF8446046F48056CEF858
:1022D000446001F46046DEF8441021F48051CEF8E9
:1022E000441054EA0A0100F0878187E042F200417D
:1022F000C4F200018A4259D042F20041C5F6000101
:102300008A426FD1DEF800109768D3685469D2F81A
:1023100018A0D2F824C0DEF8446046F40076CEF867
:10232000446001F4E056DEF8441021F40071CEF868
:10233000441054EA0A0100F05F815FE0DEF800100B
:102340009768D3685469D2F818A0D2F824C0DEF890
:10235000446046F48066CEF8446001F46046DEF8DE
:10236000441021F48061CEF8441054EA0A0100F0D0
:10237000438143E0DEF800109768D3685469D2F8CF
:1023800018A0D2F824C0DEF8446046F40066CEF807
:10239000446001F46046DEF8441021F40061CEF898
:1023A000441054EA0A0100F0278127E05EF8041C7B
:1023B0009768D3685469D2F818A0D2F824C0DEF820
:1023C000386046F40076CEF8386001F0E046DEF87A
:1023D000381021F40071CEF8381054EA0A0100F0E8
:1023E0000B810BE09768D3685469D2F818A0D2F833
:1023F00024C0002654EA0A0100F0FE80AA42CDE97A
:102400000278CDE9006319DD42F60001C5F600014E
:102410008A420BD042F60041C5F600018A4205D03F
:1024200043F20001C5F600018A4221D1DEF8001016
:1024300021F46041CEF800101AE000BF42F20041E2
:10244000C4F200018A420DD042F20041C5F60001FB
:102450008A420DD1DEF8001021F4E051CEF80010D0
:1024600006E000BF5EF8041C21F0E0414EF8041CB9
:1024700040F2080941F2597BC2F20049CDF2B71B84
:102480006CB3116941F0010111615461D9F8001078
:10249000A1FB0B14A10B4FF47A7461430024C1F12A
:1024A0000401D2F800805FEA087610D41668360777
:1024B0005CBF16685FEA067609D4002908BF0324CA
:1024C0001668360703D4002901F10401E9D1E1B20D
:1024D000032902D1032180F8361008215160BAF196
:1024E000000F2CD0116941F001011161C2F818A050
:1024F000D9F80010A1FB0B14A10B4FF47A746143BF
:10250000C1F1040400211668F60610D41668F60618
:102510005CBF16685FEAC66609D4002C08BF0321B9
:102520001668F60603D4002C04F10404EBD1C9B2FA
:10253000032902D1032180F8361010205060AA42EE
:102540001CDD42F60000C5F6000082422CD042F6A7
:102550000040C5F60000824234D043F20000C5F6C8
:10256000000082429DE88A0146D1DEF8000020F496
:1025700060400843CEF800003EE000BF42F2004059
:10258000C4F2000082422BD042F20040C5F60000A7
:1025900082429DE88A012FD1DEF8000020F4E0504D
:1025A0000843CEF8000027E0DEF80000009920F490
:1025B00060400DF104080843CEF8000098E8880157
:1025C0001AE000BFDEF80000009920F460400DF131
:1025D00004080843CEF8000098E888010CE000BF2A
:1025E0005EF8040C009920F0E0400DF10408084367
:1025F0004EF8040C98E88801106920F00100106181
:102600009760D360C2F824C088F3108804B0BDE896
:10261000F08F0000000000002DE9F04186B044F288
:10262000E0400026C5F6020040F60004CDE904664D
:102630000168C5F6020441F0100101600168002242
:1026400001F0100100910099016841F080010160E2
:1026500001684FF0C00801F0800100910099016805
:1026600041F0040101600068C02100F00400009006
:1026700000982046FEF714F801AD0820019004F5FB
:10268000006029464FF40417CDE90276FDF704FFF8
:1026900001202946CDE902062046CDF804800496A3
:1026A000FDF7FAFE4FF480502946CDE90107204698
:1026B0000396FDF7F1FE09200E210022FEF7C4FA71
:1026C0000920FEF7B1FA28200E210022FEF7BCFAFD
:1026D0002820FEF7A9FA06B0BDE8F081000000004E
:1026E00080B540F2700042F20041C2F20040C4F2F4
:1026F00000014FF4606201600021416082604FF68A
:10270000FF724261C0E90811C0E90A110163FEF7D6
:102710006BF9002808BF80BDBDE88040FDF7A0BE72
:10272000FEE7000000000000FEE7000000000000DF
:102730007047000000000000F0B581B044F22C4763
:10274000C5F6020757F8042C02F00302032A03D14E
:10275000012001B0F0BD00BF054657F82C0C0C4617
:1027600020F0806047F82C0CFDF7AAFF064600BF5A
:1027700057F82C0C000105D5FDF7A2FF801B02289D
:10278000F6D964E057F8040CEE6895E80E0020F4E2
:102790007C30012C40EA0130A2F101016FF35F218E
:1027A0004FF47E4202EB432247F8040C92B24FF002
:1027B000FE4302EB01004FF4FE012A6901EB0641E2
:1027C00001F4FE0103EB0262084402F0FE410844FA
:1027D000F8603868696920F0C00040EA010038609C
:1027E0003868A96920F0200040EA010038603868A4
:1027F0004FF6F87120F0100038603869EA6920EA75
:1028000001004FF4001140EAC2003861386808BF87
:102810004FF4801140F01000002C386008BF4FF4D6
:10282000002138680843386057F82C0C40F080606D
:1028300047F82C0CFDF744FF044600BF57F82C0C5A
:10284000000107D4FDF73CFF001B0328F6D303204B
:1028500001B0F0BD002001B0F0BD0000000000009C
:10286000F0B581B044F22C47C5F6020757F8042CA6
:1028700002F00302032A03D1012001B0F0BD00BF22
:10288000054657F82C0C0C4620F0805047F82C0CCD
:10289000FDF716FF064600BF57F82C0C800005D543
:1028A000FDF70EFF801B0228F6D964E057F8040CF0
:1028B000EE6895E80E0020F07C70012C40EA015093
:1028C000A2F101016FF35F214FF47E4202EB43223C
:1028D00047F8040C92B24FF0FE4302EB01004FF4B4
:1028E000FE012A6901EB064101F4FE0103EB0262DD
:1028F000084402F0FE41084478613868696920F4B0
:10290000406040EA010038603868A96920F400702E
:1029100040EA0100386038684FF6F87120F48070A2
:102920003860B869EA6920EA01004FF0807140EA36
:10293000C200B861386808BF4FF4000140F48070ED
:10294000002C386008BF4FF48001386808433860B5
:1029500057F82C0C40F0805047F82C0CFDF7B0FED7
:10296000044600BF57F82C0C800007D4FDF7A8FEE2
:10297000001B0328F6D3032001B0F0BD002001B0F6
:10298000F0BD0000000000007047000000000000E3
:10299000FDF79EBE0000000070B59CB044F6180420
:1029A00040F22C4509A84C21C5F60204C5F60005E5
:1029B000FDF7E2FC02200026CDE90766CDE90566B9
:1029C000CDE90366CDE90166FEF77EF90096286839
:1029D00020F001002860286800F0010000902068C5
:1029E00040F440402060206800F44040009000988F
:1029F0002068800409D4206880045CBF20685FEAF6
:102A0000804002D420688004F2D54FF6DC40CFF637
:102A1000FF70215841F002012150205800F00200BF
:102A20000090009800200090206840F44040206012
:102A3000206800F440400090286840F001002860C1
:102A4000286800F00100009000982068800409D4F4
:102A5000206880045CBF20685FEA804002D4206860
:102A60008004F2D5112009904FF480300A90802024
:102A700010902020119002200521CDE91200149120
:102A8000C021CDE91510CDE9170009A80824199433
:102A90000025CDE91A55FFF733F928B1EFF310807F
:102AA00072B600BFFEE700BF3F20019003204FF445
:102AB0008061CDE9020540200494CDE90500CDE90F
:102AC000071001A80421FEF75BFF28B1EFF3108087
:102AD00072B600BFFEE700BF1CB070BD0000000072
:102AE0004EF6885042F2000CCEF20000C5F2002CE7
:102AF000016841F470010160DCF8000000F00F0093
:102B0000062806D8DCF80000072161F30300CCF8A2
:102B1000000044F200404EF67F52C5F60200CEF6A9
:102B2000F622016841F001010160002101610368A2
:102B30001A400260DCF80020120706D5DCF80020FD
:102B4000072363F30302CCF8002040F200228161E6
:102B5000C161C0F20222016282620022C0F2FF1251
:102B6000C26240F28022C0F20112026341638263BA
:102B7000C16302644164026822F48022026001663B
:102B800041F20000C5F600400068B1EB507F05D16E
:102B900048F208100121C5F20010016044F2000063
:102BA00043F2D201C5F2002001607047000000002E
:102BB000FEE7000000000000B0B001200190FEF729
:102BC00003F801AC0020029048F21F70039040F21D
:102BD000011004902046FDF7C7FF0420FEF704F81B
:102BE000FDF786FDFFF7D8FE201DB821FDF7C4FBD9
:102BF0004FF0004001904FF0805015902046FEF7B6
:102C00008BF828B1EFF3108072B600BFFEE700BF6B
:102C1000FFF702FDFFF764FDFEE7F1EE100A4FF645
:102C2000FF71C0F2C03120EA010040F04070E1EED7
:102C3000100A7047000000000102030401020304AF
:102C400006070809682C0008000000241000000096
:102C5000D4020008782C000810000024A006000010
:102C6000F002000800000000010000001000000059
:082C70000090D0030090D00396
:040000050800029954
:00000001FF
