:020000040800F2
:10000000C0570024B102000833690008BD6600082B
:1000100031690008910C00086B7F000800000000A7
:10002000000000000000000000000000B96B0008A4
:10003000B51100080000000035690008BB6B00081E
:10004000CB020008CB020008CB020008CB0200085C
:10005000CB020008CB020008CB020008CB0200084C
:10006000CB020008CB020008CB020008950C000868
:10007000CB020008CB020008CB020008CB0200082C
:10008000CB020008CB020008850C0008CB02000858
:10009000CB020008CB020008CB020008CB0200080C
:1000A000CB0200089D6D0008CB020008CB020008BF
:1000B000CB020008CB020008CB020008CB020008EC
:1000C000CB020008CB020008CB020008CB020008DC
:1000D000CB020008CB020008CB020008CB020008CC
:1000E000CB020008CB02000800000000CB02000891
:1000F000CB020008CB020008CB020008CB020008AC
:10010000CB020008CB020008CB020008CB0200089B
:10011000C1710008CB020008CB020008CB02000826
:10012000CB020008CB020008CB020008CB0200087B
:10013000CB020008CB020008CB020008CB0200086B
:1001400000000000000000000000000000000000AF
:10015000CB020008CB020008CB020008CB0200084B
:10016000CB020008CB020008CB020008CB0200083B
:10017000CB020008CB020008CB020008CB0200082B
:10018000CB020008CB020008CB020008CB0200081B
:10019000CB020008CB020008CB020008CB0200080B
:1001A000CB020008CB020008CB020008CB020008FB
:1001B000CB020008CB020008CB020008CB020008EB
:1001C000CB020008CB020008CB020008CB020008DB
:1001D000CB020008CB020008CB020008CB020008CB
:1001E000CB020008CB020008CB020008CB020008BB
:1001F000CB020008CB020008CB020008CB020008AB
:10020000CB020008CB020008CB020008CB0200089A
:10021000CB020008CB020008CB020008CB0200088A
:10022000CB020008CB020008CB020008000000004F
:10023000CB020008CB02000800000000CB0200083F
:10024000CB020008CB020008CB020008CB0200085A
:10025000CB020008CB020008CB020008CB0200084A
:10026000CB020008CB020008CB020008CB0200083A
:10027000CB020008CB020008CB02000800000000FF
:10028000CB020008CB020008CB02000800000000EF
:1002900000000000CB020008DFF810D000F05CFA8C
:1002A00000480047AD880008AFF30080C057002425
:1002B0000648804706480047FEE7FEE7FEE7FEE700
:1002C000FEE7FEE7FEE7FEE7FEE7FEE7A96C0008B3
:1002D000990200082DE9F05F0546002092469B46F2
:1002E00088460646814640241BE02846414647464C
:1002F000224600F069F853465A46C01A914110D37D
:1003000011461846224600F016F82D1A67EB010830
:100310004F4622460120002100F00DF817EB00099E
:100320004E41201EA4F10104DFDC484631462A4636
:100330004346BDE8F09F202A04DB203A00FA02F190
:10034000002070479140C2F1200320FA03F31943C3
:1003500090407047202A06DBCB17203A41FA02F082
:1003600043EAE07306E041FA02F3D040C2F1200212
:100370009140084319467047D2B201E000F8012BC2
:10038000491EFBD270470022F6E710B513460A4615
:1003900004461946FFF7F0FF204610BD30B50B4666
:1003A000014600202022012409E021FA02F59D42A5
:1003B00005D303FA02F5491B04FA02F52844151E79
:1003C000A2F10102F1DC30BD202A04DB203A21FA3F
:1003D00002F00021704721FA02F3D040C2F120025E
:1003E00091400843194670472DE9FE4F804681EA47
:1003F0000300C00F0C46009021F0004123F000459F
:10040000B8EB0200A94105D24046214690461C4661
:100410000B46024623F00040104347D0270DC7F398
:100420000A00C3F30A510290401A019040286BDA87
:10043000C3F3130040F4801B0098924620B10023C0
:10044000D2EB030A63EB0B0B01985946C0F1400253
:100450005046FFF770FF06460D4650465946019A32
:10046000FFF778FF10EB08006141002487EA115282
:1004700084EAE7731A4340D0009A62B3019A012AD2
:100480004FEA075215DC001B61EB02014FF00042FE
:1004900002EA0752CDE90042001C41F580113246C4
:1004A0002B4600F07AF903B0BDE8F08F40462146B4
:1004B000F9E7001B61EB0201001C41F580130018F5
:1004C0005B412018A2F5001747EB030140EAD57005
:1004D000B6196D4111E06D084FEA360645EAC07560
:1004E0004FEA0752001B61EB0201001C41F580112D
:1004F00049084FEA30000019514132462B4603B0FB
:10050000BDE8F04F00F03AB9009801224000002306
:10051000D0EB020263EBE073009821464FEAE074EF
:10052000B8EB000061EB0401E9E783F000435BE70F
:1005300081F0004158E72DE9FE4F81EA030404F001
:10054000004421F0004100944FF0000B23F00043E1
:1005500050EA01045ED052EA03045BD0C3F30A54AC
:10056000C1F30A552C44A4F2F3340194A0FB0254C5
:10057000C1F3130141F48011C3F3130343F4801357
:1005800001FB024400FB034E840A970A44EA8154AB
:1005900047EA8357A4FB076802958D0A05FB078588
:1005A0004FEA932C04FB0C542705029D4FEA065892
:1005B00047EA1637B5EB08056EEB070C870E920E6F
:1005C00047EA811742EA8312A7FB0201B6EB0B014F
:1005D00064EB00042B0D43EA0C335E1844EB1C5013
:1005E000DA465146E7FB0201C5F313044FEA0B3329
:1005F00043EA14534FEA0432019C43EA0603A4F190
:100600000C040294009CCDE900B400F0C6F803B0DD
:10061000BDE8F08F00200146F9E72DE9F04D81EAB1
:10062000030404F0004B21F0004514464FF0000A8B
:1006300023F0004150EA050220D054EA01021DD007
:10064000C5F30A570246C5F31303C1F31300C1F300
:100650000A5640F4801543F48013A7EB0608101BDC
:10066000D64608F2FD3873EB050002D308F1010805
:1006700001E092185B41B8F1000F03DA0020014657
:10068000BDE8F08D00204FF48011064684460EE050
:10069000171B73EB050705D3121B63EB050306431A
:1006A0004CEA010C49084FEA300092185B4150EACD
:1006B0000107EDD152EA030012D082EA040083EA76
:1006C0000501084305D0101BAB4106D201220023CF
:1006D00006E000224FF0004302E06FF001025310E9
:1006E0001AEB06004CEB085110EB0A0041EB0B0132
:1006F000BDE8F04D00F042B8C1F30A52C1F3130156
:1007000040F2FF3341F480119A4202DA00200146A0
:10071000704740F233439A42A2F2334202DC524223
:10072000FFF752BEFFF707BE30B5041E71F100049B
:1007300004DB4FF00044404264EB0101141E73F1EE
:10074000000405DB1C464FF00043524263EB0403F8
:10075000994208BF904230BD064C074D06E0E06864
:1007600040F0010394E8070098471034AC42F6D3F8
:10077000FFF796FDF8890008188A000810B5141EC6
:1007800073F1000408DA401C41F1000192185B414A
:100790001A4301D120F0010010BD2DE9F04D924621
:1007A0009B4611B1B1FA81F202E0B0FA80F2203238
:1007B0009046FFF7C0FD04460F4640EA0A0041EAB2
:1007C0000B0153465A46084313D0114653EA010021
:1007D00019D0C8F140025046FFF7F6FD05460E4617
:1007E000504659464246FFF7A6FD084305D0012072
:1007F00004E020463946BDE8F08D0020054346EA76
:10080000E0762C4337430A986305E40AA0EB08001E
:100810000022FD0A44EA47540A3002D5002001466E
:10082000E9E7010510196941DDE908450019694149
:10083000BDE8F04DA2E7000070B5054641492868C3
:10084000884202D0404A904205D1D1F8080310F402
:10085000403F05D118E03D48006810F4403F13D0F8
:1008600004F06AFB04466868B0F5803F06D0B0F536
:10087000003F03D0B0F5403F29D103E0000CB4FBAA
:10088000F0F424E0A40822E04FF4002003F04EFA34
:10089000044668688103890B19D180140C2816D28C
:1008A000DFE800F0150606060606060C0E10121408
:1008B0006868800C4000B4FBF0F408E0240906E00E
:1008C000640904E0A40902E0E40900E0240A02F05B
:1008D00059FE41F2030188420ED81D48844205D9D1
:1008E0002868816841F48071816070BD28688168E2
:1008F00021F48071816070BD60081649884205D876
:100900002868816821F44071816070BD1249884275
:1009100007D82868816821F4407141F480718160B2
:1009200070BD0E49884207D82868816821F440715B
:1009300041F40071816070BD2868816841F44071A4
:10094000816070BD0020024000210240086302580F
:10095000002D3101105E5F0020BCBE0040787D019B
:1009600070B50446002220688368C3F38003D0F882
:1009700008C0CCF3C00C53EA0C0370D0C36813F06A
:10098000007F1FD0637D012B1CD1237D012B19D14A
:100990000121036813F0400F12D1324B9A4209D360
:1009A000606D40F010006065A06D40F00100A06532
:1009B000012070BD521CD0F800C01CF0400FEDD0DB
:1009C00040220260022910D020688268C2F38002AF
:1009D0005AB18268C2F340023AB9826822F03F02FB
:1009E00022F0004242F010028260012910D02068FB
:1009F0008268C2F3C0025AB18268C2F340023AB9B7
:100A0000826822F03F0222F0004242F0200282601F
:100A100002291ED003291AD0042502F0B9FD06468A
:100A20002068806828421AD002F0B2FD801B052899
:100A300011D92068806828420DD0606D40F0100008
:100A40006065A06D40F00100A065012070BD0C251F
:100A5000E3E70825E1E7206880682842E4D1002028
:100A600070BD000000DC0C00024610B5906B416DBB
:100A700011F0500F06D0416D11F0100F38D000F07A
:100A800080FE10BD416D41F40071416501680A6846
:100A900012F0080F19D0CA6812F4406F06D0002275
:100AA0001AB3C96811F4005F02D01EE00122F7E713
:100AB000416D21F480714165416D11F4805F14D165
:100AC000416D41F0010141650FE0C96811F0030F6C
:100AD0000BD1416D21F480714165416D11F4805F4E
:100AE00003D1416D41F00101416500F037FE10BDB9
:100AF000C06CC16C1046BDE81040084710B5806B53
:100B0000416D41F040014165816D41F00401816515
:100B100000F037FE10BD10B5806B00F031FE10BD47
:100B200070B5044620688168C1F34001826802F014
:100B30000102002A3CD000293AD1816801F00D0160
:100B4000012909D0606D40F010006065A06D40F093
:100B50000100A065012070BD816821F03F0121F0F6
:100B6000004141F00201816021680320086002F029
:100B70000FFD05462068806810F0010F18D002F0C4
:100B800007FD401B02280ED92068806810F0010F75
:100B900009D0606D40F010006065A06D40F001006C
:100BA000A065012070BD2068806810F0010FE6D1BB
:100BB000002070BD70B504462068816801F0010115
:100BC00000294BD181686FF39E1149B1606D40F0EF
:100BD00010006065A06D40F00100A065012070BDAF
:100BE000816821F03F0121F0004141F00101816065
:100BF00002F0CEFC05461F4920681F4B884201D0F9
:100C0000984201D11D4A00E01D4A926802F01F027D
:100C1000984200D00146814200D0FAB9006810F035
:100C2000010F1BD12068816801F0010139B9816889
:100C300021F03F0121F0004141F00101816002F00B
:100C4000A7FC401B022804D92068006810F0010F9F
:100C500006D02068006810F0010FE3D0002070BDBE
:100C6000606D40F010006065A06D40F00100A0656F
:100C7000012070BD002002400021024000230240FC
:100C800000630258014800F07DBD000028400024A8
:100C9000FEE70000014801F049BC00008C40002440
:100CA000264A016891422CD0254A914229D0254AF2
:100CB000914226D0244A914223D0244A914220D006
:100CC000234A91421DD0234A91421AD0224A91428E
:100CD00017D0224A914214D0214A914211D0214A80
:100CE00091420ED0204A91420BD0204A914208D026
:100CF0001F4A914205D01F4A914202D01E4A91429A
:100D000017D11E4BCAB2103AA3FB02321209DFF808
:100D100070C002F007031CF80330C365032A04D92E
:100D20006FF30901091D816506E06FF30901816513
:100D300002E021F0FF018165806D704710000240E4
:100D4000280002404000024058000240700002406B
:100D500088000240A0000240B80002401004024097
:100D6000280402404004024058040240700402403B
:100D700088040240A0040240B8040240ABAAAAAA18
:100D8000B889000801680123DFF894C0CAB2614540
:100D90001BD0DFF890C0614517D0DFF88CC06145EB
:100DA00013D0DFF888C061450FD0DFF884C06145FB
:100DB0000BD0DFF880C0614507D0DFF87CC061450B
:100DC00003D0DFF878C0614511D1A2F108011C4AB7
:100DD000A2FB012109091B4A02EB810202661A4AA1
:100DE000426601F01F0103FA01F181667047DFF8E6
:100DF0005CC0103AACFB02C21209DFF854C0614477
:100E0000A82900D80832134901EB82010166124972
:100E1000416602F01F0103FA01F18166704700008C
:100E2000085402581C540258305402584454025872
:100E3000585402586C540258805402589454025822
:100E4000CDCCCCCC0058025880580258ABAAAAAAE4
:100E5000F0FBFDBF000802408008024001794A1EF5
:100E6000072A28D8144B0168994214D0134B994291
:100E700011D0134B99420ED0124B99420BD0124B0A
:100E8000994208D0114B994205D0114B994202D09A
:100E9000104B994206D1104901EB8201C1660F49FE
:100EA000016705E00E4901EB8201C1660D4901674A
:100EB0000121914041677047085402581C54025860
:100EC0003054025844540258585402586C54025832
:100ED00080540258945402580059025840590258FC
:100EE0000009024040090240014600208B698A6ADD
:100EF000002B0FD0B3F5005F1DD08AB3012A30D08C
:100F0000022A2ED0032A04D1C96A11F0807F00D0B2
:100F1000012070471AB1012A07D0022AF9D1C96A03
:100F200011F0807FF5D001207047C96AB1F1C07F10
:100F3000FAD1012070475AB1012A0BD0022A07D0FA
:100F4000032AF7D1C96AB1F1C07FF3D101207047FC
:100F500001207047C96A11F0807FFAD001207047E4
:100F6000FFE70120704700002DE9F04F846D794EB6
:100F7000D0F800C0784FDFF8E481B445DFF8E091A5
:100F8000DFF8E0A1DFF8E0B1784D4FD0BC454DD09F
:100F9000C4454BD0CC4549D0D44547D0DC4545D09D
:100FA000DFF8CCE1F44541D0AC453FD0DFF8C4E1F7
:100FB000F4453BD0DFF8C0E1F44537D0DFF8BCE1C1
:100FC000F44533D0DFF8B8E1F4452FD0DFF8B4E1D1
:100FD000F4452BD0DFF8B0E1F44527D0DFF8ACE1E1
:100FE000F44523D0DFF8A8E1F4451FD0DFF8A4E1F1
:100FF000F4451BD0DFF8A0E1F44517D0DFF89CE101
:10100000F44513D0DFF898E1F4450FD0DFF894E110
:10101000F4450BD0DFF890E1F44507D0DFF88CE120
:10102000F44503D0DFF888E1F44510D1D0F864E04E
:10103000D0F868C0CEF804C0D0F86CC0BCF1000F86
:1010400005D0D0F870E0D0F874C0CEF804C0D0F865
:1010500000C0B44526D0BC4524D0C44522D0CC45E0
:1010600020D0D4451ED0DC451CD0414EB44519D00B
:10107000AC4517D03F4DAC4514D03F4DAC4511D0D9
:101080003E4DAC450ED03E4DAC450BD03D4DAC4534
:1010900008D03D4DAC4505D03C4DAC4502D03C4D53
:1010A000AC4523D190F85CC03F250CF01F0C05FA2D
:1010B0000CFCC4F808C0D0F800C0DCF8004024F4F0
:1010C0008024CCF80040D0F800C0CCF8043083680D
:1010D000402B05D0036899600068C260BDE8F08FBE
:1010E00003689A600068C160BDE8F08F294DAC4587
:1010F00014D0294DAC4511D0284DAC450ED0284D0B
:10110000AC450BD0274DAC4508D0274DAC4505D09C
:10111000264DAC4502D0264DAC45E5D190F85CC0DB
:1011200001250CF01F0C05FA0CFCC4F804C0D0F823
:1011300000C0CCF804308368402B05D00368996068
:101140000068C260BDE8F08F03689A600068C16003
:10115000BDE8F08F1000024028000240400002402D
:10116000580002407000024088000240B80002406F
:10117000A000024010040240280402404004024043
:10118000580402407004024088040240A004024057
:10119000B8040240085402581C54025830540258F3
:1011A00044540258585402586C54025880540258FF
:1011B00094540258704772B6FEE770477047704704
:1011C000704770472DE9F00199B000250A6890F842
:1011D0005020012A0ED0012280F8502000241594BE
:1011E0001694404E0268DFF800C1B24207D1CDF834
:1011F00000C005E019B00220BDE8F001704700947E
:10120000009B43B1009B9B68C3F380039768C7F3BF
:1012100080075FB10BE0416D41F02001416580F82E
:10122000504019B00120BDE8F00170475BB1416D3D
:1012300041F020014165012580F8504019B0284651
:10124000BDE8F0017047B24201D0624501D1274AA2
:1012500000E0274A274F0B6833B39368D1F8048026
:1012600023F4404343EA080393600368B34201D088
:10127000634509D1B36803F00103DCF808C00CF042
:10128000010C43EA0C0302E0BB6803F00103002BEE
:10129000D2D10B6889681943936823F01F0323F4A4
:1012A000706319439160C7E7916821F440419160F0
:1012B0000168B14201D0614508D1B16801F0010176
:1012C000DCF8083003F00103194302E0B96801F0CB
:1012D00001010029B0D1916821F01F0121F4706152
:1012E0009160A9E700200240002102400023024053
:1012F00000630258006002582DE9F84F00230022D5
:101300000092DFF8F8A3DFF8F893FE4ADFF8F8C39D
:10131000CC6890F85040012C13D04FF0010880F8B1
:1013200050800468A568C5F380056DB1416D41F03A
:10133000200141650123002180F850101846BDE8C6
:10134000F88F0220BDE8F88FE6690D682F033F0B88
:101350002BD095FAA5F5B5FA85F505F01F0508FA25
:1013600005F53543E5618C8805680E6804F440771F
:1013700005EB97152F6B04F01F044FF01F0BC6F3FE
:1013800084660BFA04FB06FA04F427EA0B073C43D5
:101390002C630468A568C5F38005A668C6F3C0067B
:1013A0004FF0070B354303D097E0C5F38465D4E7CE
:1013B0008E680D6805F0007704EBD7546769C5F3B4
:1013C00004550BFA05FE06FA05F527EA0E073D431C
:1013D0006561CE4C246804F07044B4F1805F36D06F
:1013E0000468E56815F0100F39D04D69E46804F021
:1013F0001004640805FA04F40D69042D3DD0066854
:101400000F6806EB85052E6E07F0F8473C4306F0A3
:10141000004634432C664D7E04680E69012D26D0AB
:10142000002504EB8604266E26F00046354325662B
:101430000D7E04680E69012D1CD00025276906F079
:101440001F0627F4F047B5403D43256145E0056898
:101450004C69ED68C5F382056D00AC40CCE74D6981
:10146000E468C4F38204640005FA04F4C4E74FF0AE
:101470000045D6E74FF40065E0E70468256E0E7876
:1014800005F0F845B5EB866F03D1256E25F00045D4
:1014900025660468656E0E7805F0F845B5EB866F35
:1014A00003D1656E25F0004565660468A56E0E786B
:1014B00005F0F845B5EB866F03D1A56E25F0004524
:1014C000A5660468E56E0E7805F0F845B5EB866F05
:1014D00003D1E56E25F00045E5660468A56805F0D2
:1014E0000105002D7FF427AF0E7B0D68D4F8C07086
:1014F00006F01806C5F3130E27EA0E07DFF810E210
:101500002EFA06F635403D43C4F8C050CC68544529
:101510007ED10C68066814EA0E051AD094FAA4F578
:10152000B5FA85F56D1C05F01F05092D32D8C4F3F9
:101530001305002D10D094FAA4F5B5FA85F505F140
:10154000010505F01F0508FA05F708D1C4F3846505
:1015500009E0C4F38465E5E7C4F38465EFE794FA32
:10156000A4F5B5FA85F505F1010505F01F0547EA73
:10157000856502D1C4F3846403E094FAA4F4B4FA58
:1015800084F404F1010404F01F0404EB440445EA6C
:10159000045432E0C4F31305002D0DD094FAA4F5E1
:1015A000B5FA85F505F1010505F01F0508FA05F7FF
:1015B00005D1C4F3846506E0C4F38465F2E794FAC8
:1015C000A4F5B5FA85F505F1010505F01F0547EA13
:1015D000856502D1C4F3846403E094FAA4F4B4FAF8
:1015E00084F404F1010404F01F04A4F10A0404EBE0
:1015F000440445EA045444F000748F6804F0007514
:1016000006EBD5556E69C4F304540BFA04F800E0F8
:1016100006E007FA04F426EA080646EA04046C61C8
:101620000D6815F0004F3FF486AE0168394EDFF8C3
:10163000E880494501D0914201D1344600E044465A
:10164000A46804F0E074494501D091420AD1D9F868
:10165000087007F00107D2F808A00AF0010A47EA6B
:101660000A0703E0DCF8087007F001072FB1416DAD
:1016700041F02001416501235DE605F1505717F562
:10168000F80702D114F4000F21D005F1605717F5C7
:101690002E0702D114F0807F50D005F1405717F586
:1016A00090077FF448AE14F4800F7FF444AE614598
:1016B0007FF441AE494502D0914200D0464644F401
:1016C0008001B26822F0E0721143B16033E66145F7
:1016D0007FF431AE494502D0914200D0464644F4F1
:1016E0000001B26822F0E0721143B1600B490C4A6C
:1016F0000968B1FBF2F1491C490013E00000FF4703
:101700000020024000210240006002580010005CEE
:10171000FFFF0F0000230240006302582000002456
:10172000400D03000091009900293FF404AE009998
:10173000491E009100990029F9D1FCE561457FF42B
:10174000FAAD494502D0914200D0464644F080713E
:10175000B26822F0E0721143B160ECE5006805491F
:10176000884205D1044901200870044804F0BEB93C
:1017700070470000002002400000002404410024C3
:10178000704770472DE9F05F04464FF0000820686D
:1017900005684668DFF8D092DFF8D0B2DFF8D0A253
:1017A000484501D0504501D1584600E0B148806815
:1017B00000F01F0715F0020F10D016F0020F0DD029
:1017C000606D10F0100F03D1606D40F40060606533
:1017D0002046FFF7F2FC21680220086015F0040F94
:1017E00002D016F0040F05D115F0080F40D016F006
:1017F000080F3DD0606D10F0100F03D1606D40F404
:10180000007060652068C16811F4406F05D0002148
:1018100041B3504503D1494602E00121F8E70146B2
:10182000814208D03FB1052F05D0092F03D0504584
:1018300003D1494602E0C16801E00146C96811F4DC
:10184000005F0FD1016811F0080F0BD08168C1F360
:101850008001A1B1606D40F010006065A06D40F0A6
:101860000100A0652046FFF779FF21680C20086081
:1018700015F0200F14D016F0200F17D110E041689A
:1018800021F00C014160606D20F480706065606D36
:1018900010F4805FE6D1606D40F001006065E1E723
:1018A00015F0400F4ED016F0400F4BD0606D10F089
:1018B000100F03D1606D40F4005060652068C16C6A
:1018C00011F4C07F09D00022C16811F4406F06D026
:1018D0000023504505D1494604E00122F4E70123E5
:1018E000F7E70146814208D03FB1062F05D0072F08
:1018F00003D0504503D1494602E0C16801E00146EA
:10190000C968CAB111F0007F03D0ABB111F4005F18
:1019100012D1026812F0400F0ED011F4001F0BD14B
:101920008168C1F3C001E1B3606D40F010006065F3
:10193000A06D40F00100A0652046FFF73FFC216844
:101940006020086015F0800F0CD016F0800F09D0D1
:10195000606D40F480306065204600F0A5F9216894
:101960008020086015F4807F0DD016F4807F0AD0A7
:10197000606D40F4003060652046FFF721FC21686F
:101980004FF48070086015F4007F0FD016F4007FCC
:101990000CD0606D40F4802060652046FFF711FC9C
:1019A00000E01BE021684FF40070086015F0100F94
:1019B00040D016F0100F3DD0206B00B317B3206855
:1019C000484503D0504501D0DFF8A8B0DBF8080047
:1019D00000F44040E8B14FF001081AE0416821F0FE
:1019E00060014160606D20F480506065606D10F4AE
:1019F000807FA1D1606D40F0010060659CE74FF0F1
:101A0000010806E02068C06810F0030F01D04FF015
:101A10000108B8F1010F0AD1606D40F48060606583
:101A2000A06D40F00200A0652046FFF7AAFE2168E5
:101A30001020086015F4806F13D016F4806F10D05A
:101A4000606D40F480406065A06D40F00800A065C6
:101A500021684FF4806008602046BDE8F05FFFF722
:101A6000AEBBBDE8F09F0000002002400023024012
:101A70000021024000630258F8B504460025002604
:101A80000096002C02D0606D10B107E00120F8BD77
:101A9000204600F00BF9A66584F850602068816844
:101AA000C1F3407129B1816821F03F0121F020414B
:101AB000816020688168C1F30071B1B9816821F04B
:101AC0003F0121F0004141F0805181606D486E4935
:101AD0000068B0FBF1F0401C0090009828B100981D
:101AE000401E009000980028F9D120688168C1F359
:101AF000007141B9616D41F010016165A16D41F066
:101B00000101A16501258168C1F38001626D12F0B8
:101B1000100F00D131B1606D40F0100060650125FB
:101B20002846F8BD616D21F4807141F002016165C4
:101B3000816801F0010109BB544A554B904201D024
:101B4000984209D1916801F00101D3F808C00CF066
:101B5000010C41EA0C0103E04E49896801F00101E2
:101B600061B9904201D0984201D14B4800E04B4806
:101B70006168826822F47C121143816001F002FDE9
:101B800041F20301884202D9A06810280CD0A16854
:101B9000206B227F0843617D490341EA02410843EB
:101BA000217F01290CD00FE0617D227F206B49034A
:101BB00040F0100041EA0241084340F00C00EFE71A
:101BC000218C491E40EA4140616A21B1A26A01F4B8
:101BD0007871084310432168CA68314B1A4010439A
:101BE000C86020688168C1F380018268C2F3C002C6
:101BF00011431DD1227DE16A41EA8231C26822F09F
:101C0000030222F480421143C16094F83800012895
:101C10001DD02068016921F001010161206801697E
:101C2000626B21F07041114301612046FEF704FE12
:101C3000E06801281DD02068016B21F00F010163CD
:101C4000606D20F0020040F00100606568E7616CA3
:101C5000206CA28F0143A06C521E40EA0240014357
:101C6000206802690F4B1A40114341F001010161E4
:101C7000D4E72068016BA26921F00F01521E1143C5
:101C80000163DDE720000024400D03000020024036
:101C90000021024000600258002302400063025805
:101CA00003C0F0FF1EF800FC70470000F0B5B5B0AF
:101CB000064614212FA8FEF766FBBC216846FEF7F6
:101CC00062FB2C493068884252D102240C21A004C6
:101CD000CDE9000402A80122002580E81600C023F7
:101CE00068462027CDE907752895CDE9054302F020
:101CF000EDFA08B1FFF75FFA1F48016841F02001D3
:101D00000160006800F0200034901B480830016832
:101D100041F00201016000682FA9319500F0020036
:101D200034900320CDE92F40144801F029FB1548D9
:101D30000921134C0215C3142060D001C4E9011518
:101D4000C4E90352D700C4E9075065622046C4E9DC
:101D5000053700F0ABFF08B1FFF72DFA0022F4645D
:101D600012201146A66301F09FFC122001F08EFCA8
:101D700035B0F0BD00200240D8440258000402589B
:101D80008C400024100002402DE9F04704468946AB
:101D900092463D4FDFF8F4802068B84201D04045BC
:101DA00001D13B4900E03B49896801F01F0580688B
:101DB000C0F3800010B10220BDE8F08794F8500015
:101DC00001280CD0012084F85000002655B1052DC3
:101DD00008D0092D06D084F85060BDE8F0870220B5
:101DE000BDE8F0872046FEF7E5FE18B184F85060A4
:101DF000BDE8F087606D20F0010020F4606040F4E1
:101E0000807060652068404500D00746874200D05A
:101E10001DB9606D20F480106065606D10F4805F06
:101E200004D0A06D20F00600A06500E0A665E16C7E
:101E30001948C863E16C19480864E16C1848C86423
:101E40001C202168086084F850602068416841F0D7
:101E500010014160E16A2068C26822F00302114368
:101E6000C160206853464A4600F14001E06C01F031
:101E700017F921688A6822F03F0222F0004242F0FE
:101E800004028A60BDE8F087002002400021024081
:101E90000023024000630258690A0008170B00087B
:101EA000FD0A000870B5044694F85000012809D0D6
:101EB000012084F8500003212046FEF751FD05461D
:101EC00015B129E0022070BD2068C16821F003012E
:101ED000C160E06C90F83510022907D100F022F8BB
:101EE00005461DB1606D40F04000606520684168A6
:101EF00021F01001416025B12046FEF711FE2DB101
:101F00000AE02046FEF70CFE0546F8E7606D20F477
:101F1000885040F001006065002084F85000284699
:101F200070BD00002DE9F84F044601F031FB009030
:101F30005CB194F8350002280AD08020606500204A
:101F400084F834000120BDE8F88F0120BDE8F88F47
:101F5000B6492068B64EB74F8842DFF8DC82DFF81A
:101F6000DC92DFF8DCA2DFF8DCB226D0B04224D06D
:101F7000B84222D0404520D048451ED050451CD004
:101F800058451AD0B04A904217D0B04A904214D067
:101F9000AF4A904211D0AF4A90420ED0AE4A904222
:101FA0000BD0AE4A904208D0AD4A904205D0AD4A1F
:101FB000904202D0AC4A90420AD1026822F01E023E
:101FC00002602068426922F080024261256804E0D4
:101FD000026822F00E0202602568206888423ED026
:101FE000B0423CD0B8423AD0404538D0484536D0CF
:101FF000504534D0584532D0934A90422FD0934A1E
:1020000090422CD0924A904229D0924A904226D0B7
:10201000914A904223D0914A904220D0904A9042D7
:102020001DD0904A90421AD08F4A904217D08F4AC2
:10203000904214D08E4A904211D08E4A90420ED0D7
:102040008D4A90420BD08D4A904208D08C4A9042E3
:1020500005D08C4A904202D08B4A904204D1206E27
:10206000026822F48072026070492068884226D09B
:10207000B04224D0B84222D0404520D048451ED09E
:1020800050451CD058451AD06F49884217D06F4927
:10209000884214D06E49884211D06E4988420ED0D1
:1020A0006D4988420BD06D49884208D06C498842FE
:1020B00005D06C49884202D06B49884204D101683E
:1020C00021F00101016003E0016821F001010160DC
:1020D000286810F0010F14D001F05AFA0099401A44
:1020E00005280AD920206065032084F835000020E7
:1020F00084F834000120BDE8F88F286810F0010F43
:10210000EAD14A4A01212068904226D0B04224D028
:10211000B84222D0404520D048451ED050451CD062
:1021200058451AD0484B984217D0484B984214D083
:10213000474B984211D0474B98420ED0464B98429D
:102140000BD0464B984208D0454B984205D0454BA2
:10215000984202D0444B98420AD1A06D4FF03F0CF8
:1021600094F85C3003F01F030CFA03F3836007E07C
:10217000A06D94F85C3003F01F0301FA03F3436091
:10218000206890423ED0B0423CD0B8423AD0404560
:1021900038D0484536D0504534D0584532D02A4AF8
:1021A00090422FD0294A90422CD0294A904229D0DF
:1021B000284A904226D0284A904223D0274A90426B
:1021C00020D0274A90421DD0264A90421AD0264A53
:1021D000904217D0254A904214D0254A904211D0FF
:1021E000244A90420ED0244A90420BD0234A904277
:1021F00008D0234A904205D0224A904202D0224A77
:1022000090420BD1626EA06E5060E06E30B10268F9
:1022100022F480720260226F606F506084F8351083
:10222000002084F83400BDE8F88F00001000024060
:102230002800024040000240580002407000024066
:1022400088000240A0000240B80002401004024092
:102250002804024040040240580402407004024036
:1022600088040240A0040240B80402400854025806
:102270001C540258305402584454025858540258BE
:102280006C54025880540258945402582DE9F05F5F
:10229000002808D090F83510022907D08021416528
:1022A0000120BDE8F09F0120BDE8F09FDFF81CE2AF
:1022B0000168874BDFF81CC27145874C874D884EFB
:1022C000884FDFF82482DFF82492DFF824A2DFF8B9
:1022D00024B2894A25D0994223D0614521D0A14218
:1022E0001FD0A9421DD0B1421BD0B94219D0DFF88E
:1022F0000CE2714515D0DFF808E2714511D0DFF826
:1023000004E271450DD041450BD0494509D0DFF8B5
:10231000F8E1714505D0514503D0594501D09142AE
:1023200032D14FF0040E80F835E06848814221D068
:1023300099421FD061451DD0A1421BD0A94219D09E
:10234000B14217D0B94215D06C48814212D06C48C6
:1023500081420FD06B4881420CD041450AD049459B
:1023600008D06948814205D0514503D0594501D074
:10237000914204D1086820F001000860A3E00868D9
:1023800020F0010008609EE0D1F800E02EF00E0E73
:10239000C1F800E0DFF834E10168714525D09942C9
:1023A00023D0614521D0A1421FD0A9421DD0B14206
:1023B0001BD0B94219D0DFF844E1714515D0DFF8E0
:1023C00040E1714511D0DFF83CE171450DD0414548
:1023D0000BD0494509D0DFF830E1714505D05145B2
:1023E00003D0594501D0914206D1D1F800E02EF03A
:1023F000010EC1F800E005E0D1F800E02EF0010E7A
:10240000C1F800E0DFF8C4E00168714539D09942B5
:1024100037D0614535D0A14233D0A94231D0B14245
:102420002FD0B9422DD0354B99422AD0344B994206
:1024300027D0344B994224D0414522D0494520D061
:10244000314B99421DD051451BD0594519D091426D
:1024500017D02E4A914214D02D4A914211D02D4AC4
:1024600091420ED02C4A91420BD02C4A914208D076
:102470002B4A914205D02B4A914202D02A4A9142DE
:1024800018D1016E0A6822F480720A60816D90F89A
:102490005C2002F01F0301229A404A60426E816E66
:1024A0005160C16E31B10A6822F480720A60026F15
:1024B000416F5160012180F83510002180F83410FF
:1024C000016D01B188470020BDE8F09F1000024077
:1024D00028000240400002405800024070000240C4
:1024E00088000240A000024040040240580402401C
:1024F00088040240A0040240B8040240B800024030
:10250000100402402804024070040240085402589B
:102510001C5402583054025844540258585402581B
:102520006C54025880540258945402582DE9F04FCC
:1025300083B00446002002904FF41651FD48006815
:10254000B0FBF1F00190A56D2E682968FA4F206864
:10255000DFF8E8A3DFF8E8B3B842DFF8E883DFF894
:10256000E8932DD0524690422AD05A46904227D026
:10257000404525D0484523D0F44A904220D0F44A23
:1025800090421DD0F34A90421AD0F34A904217D09D
:10259000DFF8C8C3604513D0F14A904210D0DFF88D
:1025A000C4E370450CD0F04A904209D0EF4A904203
:1025B00006D0EF4A904203D0EE4B984240F0408262
:1025C00094F85C10082201F01F0102FA01F1314277
:1025D00041D0B84228D0504526D0584524D0404557
:1025E00022D0484520D0D94988421DD0D8498842B8
:1025F0001AD0D849884217D0D749884214D0D74931
:10260000884211D0D64988420ED0D64988420BD094
:10261000D549884208D0D549884205D0D449884256
:1026200002D0D449884203D1016801F0040102E0DC
:10263000016801F0080171B1016821F00401016035
:1026400094F85C0000F01F0002FA00F0A860606DD2
:1026500040F00100606594F85C0000F01F0101206B
:1026600000FA01F1314234D02068B84228D05045F8
:1026700026D0584524D0404522D0484520D0B34AE2
:1026800090421DD0B24A90421AD0B24A904217D01E
:10269000B14A904214D0B14A904211D0B04A90420F
:1026A0000ED0B04A90420BD0AF4A904208D0AF4A09
:1026B000904205D0AE4A904202D0AE4A90427DD1BF
:1026C000406910F0800F04D0A960606D40F00200F6
:1026D000606594F85C0000F01F01042000FA01F12D
:1026E000314234D02068B84228D0504526D05845D1
:1026F00024D0404522D0484520D0944A90421DD055
:10270000934A90421AD0934A904217D0924A9042EC
:1027100014D0924A904211D0914A90420ED0914AE0
:1027200090420BD0904A904208D0904A904205D0F7
:102730008F4A904202D08F4A904245D1006810F0F3
:10274000020F04D0A960606D40F00400606594F849
:102750005C0000F01F01102000FA01F1314259D055
:102760002068B84228D0504526D0584524D040454E
:1027700022D0484520D0754A90421DD0744A9042DC
:102780001AD0744A904217D0734A904214D0734AB8
:10279000904211D0724A90420ED0724A90420BD0B1
:1027A000714A904208D0714A904205D0704A9042D6
:1027B00002D0704A904209D1006800E002E000F0C7
:1027C000080006E0006884E70068C0E7006800F0E1
:1027D0000400F8B1A9602068016811F4802F0DD0C1
:1027E000006810F4002F04D0A16C99B120468847EE
:1027F00010E0216C71B1204688470BE0016811F4AC
:10280000807F03D1016821F008010160216C09B1CA
:102810002046884794F85C0000F01F01202000FA51
:1028200001F131426FD02068B84228D0504526D0FF
:10283000584524D0404522D0484520D0434A9042B4
:102840001DD0434A90421AD0424A904217D0424A81
:10285000904214D0414A904211D0414A90420ED049
:10286000404A90420BD0404A904208D03F4A9042A2
:1028700005D03F4A904202D03E4A904203D10068C0
:1028800000F0100002E0006800F00200D8B3A96078
:1028900094F8350004280DD02068016811F4802FC9
:1028A00037D0006810F4002F2ED0E16B59B32046CA
:1028B000884764E02068016821F016010160206803
:1028C000416921F080014161206C08B9A06C20B100
:1028D0002068016821F00801016094F85C003F2144
:1028E00000F01F0001FA00F0A860012084F8350014
:1028F000002084F83400216D00297BD003B02046ED
:10290000BDE8F04F084737E0616CA9B3204688471F
:1029100035E0016811F4807F09D1016821F01001D0
:102920000160012084F83500002084F83400E16B58
:1029300011B322E0200000241000024028000240D1
:1029400040000240580002407000024088000240EF
:10295000A0000240B80002401004024028040240D7
:1029600040040240580402407004024088040240BF
:10297000A0040240B804024001E020468847606D90
:10298000002837D0606D10F0010F51D0042084F87A
:1029900035002068B84228D0504526D0584524D06C
:1029A000404522D0484520D0AB4988421DD0AB4994
:1029B00088421AD0AA49884217D0AA49884214D01E
:1029C000A949884211D0A94988420ED0A849884215
:1029D0000BD0A849884208D0A749884205D0A7490A
:1029E000884202D0A649884205D1016821F0010140
:1029F000016004E096E0016821F0010101602168B6
:102A00000298019A401C0290904203D8086810F086
:102A1000010FF5D1086810F0010F03D0032084F8EE
:102A2000350002E0012084F83500002084F83400ED
:102A3000E16C002976D003B02046BDE8F04F08478E
:102A4000904B984214D0904B984211D08F4B9842A3
:102A50000ED08F4B98420BD08E4B984208D08E4BA5
:102A6000984205D08D4B984202D08D4B984259D157
:102A700003684FF0040A94F85C6006F01F060AFA37
:102A800006FA1AEA010F5AD013F0040F57D0C5F80E
:102A900004A013F4004F12D013F4803F07D0216C30
:102AA00000293FD003B02046BDE8F04F0847A16C95
:102AB000002937D003B02046BDE8F04F084713F097
:102AC000200F34D12068B84227D07649884224D0DC
:102AD0007549884221D040451FD048451DD05E49E8
:102AE00088421AD05D49884217D05D49884214D087
:102AF0005C49884211D060450FD05C4988420CD0B7
:102B000070450AD05B49884207D05B49884204D0AF
:102B1000904202D05A49884205D1016821F008014B
:102B2000016004E083E0016821F004010160216C90
:102B300000297CD003B02046BDE8F04F08474FF095
:102B4000020A0AFA06FA1AEA010F5FD013F0020F1E
:102B50005CD0C5F804A013F4004F12D013F4803FEA
:102B600007D0E16B002974D003B02046BDE8F04FD8
:102B70000847616C00296CD003B02046BDE8F04FD7
:102B8000084713F0200F39D12068B84227D04549B3
:102B9000884224D04449884221D040451FD048452E
:102BA0001DD02D4988421AD02C49884217D02C4973
:102BB000884214D02B49884211D060450FD02B4950
:102BC00088420CD070450AD02A49884207D02A4949
:102BD000884204D0904202D02949884204D1016839
:102BE00021F01401016003E0016821F00A01016095
:102BF000012084F83500002084F83400E16B0029BE
:102C000027D003B02046BDE8F04F08470822B24065
:102C10000A421ED013F0080F1BD0016821F00E01EC
:102C2000016094F85C0000F01F01012000E010E05A
:102C300000FA01F16960606584F83500002084F8CD
:102C40003400E16C002904D003B02046BDE8F04F09
:102C5000084703B0BDE8F08F88000240A0000240A2
:102C6000B800024010040240280402404004024020
:102C7000580402407004024088040240A00402404C
:102C8000B8040240085402581C54025830540258E8
:102C900044540258585402586C54025880540258F4
:102CA0009454025828000240400002402DE9F05F91
:102CB000044600F06DFC0646002C6AD0DC4F022270
:102CC00020680025DFF86C83DFF86C93B842DFF8EA
:102CD0006CA3DFF86CB328D0DA49884225D0404590
:102CE00023D0484521D050451FD058451DD0D64946
:102CF00088421AD0D549884217D0D549884214D085
:102D0000D449884211D0D44988420ED0D349884250
:102D10000BD0D349884208D0D249884205D0D24945
:102D2000884202D0D14988427ED184F8352084F887
:102D30003450B84228D0C349884225D0404523D0DA
:102D4000484521D050451FD058451DD0BE49884226
:102D50001AD0BE49884217D0BD49884214D0BD4917
:102D6000884211D0BC4988420ED0BC4988420BD061
:102D7000BB49884208D0BB49884205D0BA4988423D
:102D800002D0BA49884207D1016821F001010160EF
:102D900006E00120BDE8F09F016821F0010101601B
:102DA0002068006810F0010F11D000F0F1FB801BCB
:102DB000052807D920206065032084F8350001200C
:102DC000BDE8F09F2068006810F0010FEDD1226887
:102DD0001068A7490840E368A168D4F814C01943F3
:102DE000236943EA0C031943A3691943E3691943AF
:102DF000236A19430843616A042903D1236BE16AFA
:102E0000194308439B4909686FF30F01B1F1005F53
:102E100011D36168A1F12903052B0AD9163B032BB5
:102E200007D9083B012B00E02CE002D94F390329D8
:102E300001D840F4801010602068406920F007013C
:102E4000606A40EA010604280ED1A06A0643E06ADF
:102E500050B12046FEF748F830B1402060650120AF
:102E600084F83500BDE8F09F206846612046FDF7F4
:102E700017FF94F85C103F2201F01F0102FA01F1E4
:102E800081605BE07C49884214D07C4B984211D031
:102E90007B4B98420ED07B4B98420BD07A4B98429A
:102EA00008D07A4B984205D0794B984202D0794BA2
:102EB00098427DD188420CD07049884209D070492F
:102EC000884206D06F49884203D06F49884200D0BB
:102ED0006E4984F8352084F8345002686FF310127C
:102EE000A168402979D0802979D00021E36841EA9E
:102EF000D301236941EAD301636941EAD301A3699C
:102F000041EAD301E36941EAD301236A41EA13119B
:102F1000114301606049206801446048A0FB011032
:102F200000098000E0652046FDF7BAFE94F85C10C9
:102F3000012201F01F0102FA01F141602068B8424C
:102F400042D0404988423FD040453DD048453BD0E3
:102F5000504539D0584537D03B49884234D03B4959
:102F6000884231D03A4988422ED03A4988422BD003
:102F70003949884228D03949884225D03849884281
:102F800022D0384988421FD0374988421CD037495F
:102F9000884219D03849884216D03849884213D01F
:102FA0003749884210D0374988420DD0364900E071
:102FB00018E0884208D03549884205D03449884213
:102FC00002D0344988422CD12046FDF7DBFEA068B0
:102FD00080280FD00FE000E001E0102186E74FF4D9
:102FE000804183E740206065032084F8350001209C
:102FF000BDE8F09F6560216E20790860616EA06E6B
:1030000048606068401E072808D82046FDF726FF64
:10301000E06E0560216F606F486002E0E56625673D
:1030200065676565012084F835000020BDE8F09FE4
:103030001000024040000240580002407000024070
:103040008800024028000240A0000240B800024070
:103050001004024028040240400402405804024088
:103060007004024088040240A0040240B8040240F8
:103070003F8010FE0010005C085402581C54025897
:103080003054025844540258585402586C54025850
:103090008054025894540258F8ABFDA7CDCCCCCC48
:1030A0002DE9F84F044600200090002C16D094F82B
:1030B0003400012815D0012084F8340094F835C07C
:1030C0000020BCF1010F0FD04FF40061616584F85E
:1030D0003400012000900098BDE8F88F0120BDE881
:1030E000F88F0220BDE8F88F4FF0020C84F835C04D
:1030F0006065DFF82CC220688A4D8B4E60458B4F8F
:10310000DFF82C82DFF82C92DFF82CA2DFF82CB24B
:103110002DD0A8422BD0B04229D0B84227D040456C
:1031200025D0484523D0504521D058451FD0DFF841
:1031300010C260451BD0DFF80CC2604517D0DFF825
:1031400008C2604513D0DFF804C260450FD0DFF835
:1031500000C260450BD0DFF8FCC1604507D0DFF846
:10316000F8C1604503D0DFF8F4C1604506D1D0F85E
:1031700000C02CF0010CC0F800C005E0D0F800C081
:103180002CF0010CC0F800C02046FDF7EDFE6449AC
:103190002068884225D0A84223D0B04221D0B8422E
:1031A0001FD040451DD048451BD0504519D058452B
:1031B00017D0634A904214D0624A904211D0624ABA
:1031C00090420ED0614A90420BD0614A904208D0A2
:1031D000604A904205D0604A904202D05F4A9042D5
:1031E0000DD1026822F01E0242F016020260206C2D
:1031F00090B12068026842F0080202600CE00268A8
:1032000022F00E0242F00A020260206C20B1206817
:10321000026842F004020260206888423DD0A84261
:103220003BD0B04239D0B84237D0404535D0484580
:1032300033D0504531D058452FD0414A90422CD000
:10324000404A904229D0404A904226D03F4A90427C
:1032500023D03F4A904220D03E4A90421DD03E4A61
:1032600090421AD03D4A904217D03D4A904214D025
:103270003C4A904211D03C4A90420ED03B4A904288
:103280000BD03B4A904208D03A4A904205D03A4A85
:10329000904202D0394A90420ED1206E026812F458
:1032A000803F03D0026842F480720260E06E18B181
:1032B000026842F4807202602068884225D0A842E9
:1032C00023D0B04221D0B8421FD040451DD0484540
:1032D0001BD0504519D0584517D01949884214D0F1
:1032E0001849884211D0184988420ED0174988429F
:1032F0000BD01749884208D01649884205D0164994
:10330000884202D01549884204D1016841F0010188
:103310000160E0E6016841F001010160DBE60000C8
:1033200010000240280002404000024058000240C5
:103330007000024088000240A0000240B800024035
:103340001004024028040240400402405804024095
:103350007004024088040240A0040240B804024005
:10336000085402581C54025830540258445402580D
:10337000585402586C5402588054025894540258BD
:103380002DE9F84F0022DFF8E4C10B68002B7DD057
:10339000DFF8DCB14FF0B04A4FF0010E4FF00308F8
:1033A0004FF00F090B680EFA02F52B40002B6ED080
:1033B0000C7904F00304012C01D0022C11D1866891
:1033C000540008FA04F7BE43CF6807FA04F4344304
:1033D00084604468AC430D79C5F3001595402C43D7
:1033E00044604C6838EA040409D0C568540008FAFF
:1033F00004F6B5438E6806FA04F42C43C4600C79D5
:1034000004F00304022C0DD1D40800EB84052E6ACD
:103410005407E40E09FA04F7BE430F6907FA04F4EF
:1034200034432C620568540008FA04F6B5430E795B
:1034300006F0030606FA04F42C4304604C6814F406
:10344000403F78D0DBF8004044F00204CBF8004065
:10345000DBF8004004F00204009422F0030404F1BD
:10346000B046D6F8084495072D0F09FA05F724EA67
:103470000707A0F1B044B4F5003463D0A0F1B04424
:10348000B4F5013460D0A0F1B04401E058E052E05E
:10349000B4F502345AD0A0F1B044B4F5033457D097
:1034A000A0F1B044B4F5043454D0A0F1B044B4F564
:1034B000053451D0A0F1B044B4F506344ED0A0F19B
:1034C000B044B4F507344BD0A0F1B044B4F508349F
:1034D00048D0A0F1B044B4F5093445D00A24AC403A
:1034E0003C43C6F80844DAF800409C434D6815F4A4
:1034F000801F00D01C43CAF80040DAF804409C4307
:103500004D6815F4001F00D01C43CAF80440DCF8D5
:1035100004409C434D6815F4003F00D01C43CCF898
:103520000440DCF800409C434D6815F4803F00D017
:103530001C43CCF80040521C0B68D3407FF432AFE0
:10354000BDE8F88F0024CAE70124C8E70224C6E7D3
:103550000324C4E70424C2E70524C0E70624BEE729
:103560000724BCE70824BAE70924B8E7800000581C
:10357000F4440258002A01D0816170470904816136
:103580007047000001480068000C70470010005CA4
:1035900001488068704700001400002402488168D8
:1035A00002781144816070471400002410B5032094
:1035B00000F0B0F801F00CFD0F4A1168C1F30323CD
:1035C0000E49CB5C03F01F03D840126802F00F02D3
:1035D000895C0B4A01F01F0120FA01F111600949D1
:1035E00008600F2000F010F808B1012010BD00F0B5
:1035F00031F8002010BD000018440258E889000886
:10360000240000242000002470B504460F4D2A78C1
:10361000002A0CD04FF47A700D49B0FBF2F0096823
:10362000B1FBF0F002F060F918B1012070BD01208B
:1036300070BD102C07D200222146501E00F034F835
:103640006C60002070BD012070BD000014000024DB
:10365000200000240C4808B5016841F00201016017
:10366000016801F002010091016841F4004101602C
:10367000006800F40040009002F016F9BDE8084030
:10368000022002F019B90000F444025800280ADBB5
:10369000012200F01F0102FA01F14009800000F14F
:1036A000E020C0F8001170474DF8044D184B1B681E
:1036B000C3F30223C3F1070CBCF1040F01D94FF08F
:1036C000040C1C1D072C01D2002300E0DB1E01248A
:1036D00004FA0CFCACF1010C0CEA0101994004FA6B
:1036E00003F35B1E1A401143002807DB00F1E020C2
:1036F000090180F800145DF8044B704700F00F00DA
:1037000000F1E020090180F8141D5DF8044B7047BA
:103710000CED00E000F00700064A11684FF6FF03C9
:10372000194041EA002040F0FD7040F080601060D8
:10373000704700000CED00E070B515490A6812F002
:10374000040F0DD00A6822F0070210430860FFF74B
:103750001FFF04460F4D286810F4005F09D014E0E5
:10376000096801F00701814201D0012070BD0020ED
:1037700070BDFFF70DFF001BB0F57A7F01D9012066
:1037800070BD286810F4005FF3D0002070BD000009
:103790000C4802580448025810B501F0CDFB054909
:1037A0000968054AC1F30211515C01F01F01C840CC
:1037B00010BD000020440258E889000869490A68E1
:1037C00002F003020968C1F30511674B1B6803F09F
:1037D0000103DFF898C1DCF800C0CCF3CC0C1CFB73
:1037E00003F300EE103AB8EE400A002972D09FEDC4
:1037F000601ADFED601A604B002AF7EE000A44D031
:10380000012A7ED0022A67D002EE101A1968F8EE5B
:10381000422A81EEA22AC1F3080101EE901AF8EEC5
:10382000611A40EE011A31EEA00A22EE000A196870
:10383000C1F3462101EE101AB8EE411A31EE201AFA
:10384000C0EE011ABCEEE11A80ED001A1968C1F34E
:10385000064101EE101AB8EE411A31EE201AC0EE00
:10386000011ABCEEE11A80ED011A1968C1F3066174
:1038700001EE101AB8EE411A71EE200A80EE201AFD
:10388000BCEEC10A80ED020A70473C4AD2F800C083
:103890001CF0200F21D01268DFF8E4C0C2F3C1028F
:1038A0002CFA02F201EE902AF8EE612A01EE901A4B
:1038B0001968F8EE611A82EEA12AC1F3080101EE3F
:1038C000901AF8EE611A40EE011A31EEA00A22EECB
:1038D000000AACE741E014E029E002EE101A196892
:1038E000F8EE422A81EEA22AC1F3080101EE901AF5
:1038F000F8EE611A40EE011A31EEA00A22EE000A3B
:1039000095E701EE901A1968F8EE612ADFED1D1AAD
:1039100081EEA22AC1F3080101EE901AF8EE611AB5
:1039200040EE011A31EEA00A22EE000A7FE701EE16
:10393000901ADFED152A1968F8EE611A82EEA12AB5
:10394000C1F3080101EE901AF8EE611A40EE011A77
:1039500031EEA00A22EE000A69E700210160416011
:1039600081607047284402582C440258344402585D
:10397000000000390024744C3044025800440258BE
:103980000090D0030024744A20BCBE4B69490A68E9
:1039900002F003020968C1F30531674B1B68C3F3EA
:1039A0000013DFF898C1DCF800C0CCF3CC0C1CFB92
:1039B00003F300EE103AB8EE400A002972D09FEDF2
:1039C000601A604B002AF7EE000A46D0DFED5E1A5F
:1039D000012A68D0022A67D002EE101A1968F8EEA0
:1039E000422A81EEA22AC1F3080101EE901AF8EEF4
:1039F000611A40EE011A31EEA00A22EE000A19689F
:103A0000C1F3462101EE101AB8EE411A31EE201A28
:103A1000C0EE011ABCEEE11A80ED001A1968C1F37C
:103A2000064101EE101AB8EE411A31EE201AC0EE2E
:103A3000011ABCEEE11A80ED011A1968C1F30661A2
:103A400001EE101AB8EE411A71EE200A80EE201A2B
:103A5000BCEEC10A80ED020A70473C4AD2F800C0B1
:103A60001CF0200F21D01268DFF8E4C0C2F3C102BD
:103A70002CFA02F201EE902AF8EE612A01EE901A79
:103A80001968F8EE611A82EEA12AC1F3080101EE6D
:103A9000901AF8EE611A40EE011A31EEA00A22EEF9
:103AA000000AACE741E016E029E001EE901ADFEDF4
:103AB000292A1968F8EE611A82EEA12AC1F30801D9
:103AC00001EE901AF8EE611A40EE011A31EEA00AEA
:103AD00022EE000A93E702EE101A1968F8EE422A65
:103AE00081EEA22AC1F3080101EE901AF8EE611AE4
:103AF00040EE011A31EEA00A22EE000A7FE701EE45
:103B0000901ADFED152A1968F8EE611A82EEA12AE3
:103B1000C1F3080101EE901AF8EE611A40EE011AA5
:103B200031EEA00A22EE000A69E70021016041603F
:103B300081607047284402582C4402583C44025883
:103B400000000039384402580024744A00440258E6
:103B50000090D0030024744C20BCBE4B69490A6815
:103B600002F003020968C1F30551674B1B68C3F3F8
:103B70000023DFF898C1DCF800C0CCF3CC0C1CFBB0
:103B800003F300EE103AB8EE400A002972D09FED20
:103B9000601A604B002AF7EE000A46D0DFED5E1A8D
:103BA000012A68D0022A67D002EE101A1968F8EECE
:103BB000422A81EEA22AC1F3080101EE901AF8EE22
:103BC000611A40EE011A31EEA00A22EE000A1968CD
:103BD000C1F3462101EE101AB8EE411A31EE201A57
:103BE000C0EE011ABCEEE11A80ED001A1968C1F3AB
:103BF000064101EE101AB8EE411A31EE201AC0EE5D
:103C0000011ABCEEE11A80ED011A1968C1F30661D0
:103C100001EE101AB8EE411A71EE200A80EE201A59
:103C2000BCEEC10A80ED020A70473C4AD2F800C0DF
:103C30001CF0200F21D01268DFF8E4C0C2F3C102EB
:103C40002CFA02F201EE902AF8EE612A01EE901AA7
:103C50001968F8EE611A82EEA12AC1F3080101EE9B
:103C6000901AF8EE611A40EE011A31EEA00A22EE27
:103C7000000AACE741E016E029E001EE901ADFED22
:103C8000292A1968F8EE611A82EEA12AC1F3080107
:103C900001EE901AF8EE611A40EE011A31EEA00A18
:103CA00022EE000A93E702EE101A1968F8EE422A93
:103CB00081EEA22AC1F3080101EE901AF8EE611A12
:103CC00040EE011A31EEA00A22EE000A7FE701EE73
:103CD000901ADFED152A1968F8EE611A82EEA12A12
:103CE000C1F3080101EE901AF8EE611A40EE011AD4
:103CF00031EEA00A22EE000A69E70021016041606E
:103D000081607047284402582C44025844440258A9
:103D100000000039404402580024744A004402580C
:103D20000090D0030024744C20BCBE4BF0B589B089
:103D30000246FA4EDFF8E8C3FA48341FFA4DB2F5EE
:103D4000807FFA494FEA2C1320D0B2F5007F78D05B
:103D5000F74FB2F5806F6CD0B2F5006F6AD0B2F554
:103D6000805F00F07581B2F5002F00F0CA81B2F5D6
:103D7000803F00F01782B2F5804F00F03282B2F53A
:103D8000004F00F0798209B00020F0BD326802F0E7
:103D90000702052A53D2DFE802F003101D502A0063
:103DA000086810F0007F05D006A8FFF707FD079808
:103DB00009B0F0BD09B00020F0BD086810F0006F38
:103DC00005D003A8FFF7E2FD039809B0F0BD09B0E4
:103DD0000020F0BD086810F0005F05D06846FFF7CE
:103DE000BDFE009809B0F0BD002009B0F0BD22680A
:103DF00002F040520C6814F0040F00D08AB1D1F8E0
:103E000000C01CF4807F02D0B2F1805F13D009683B
:103E100011F4003F02D0B2F1005FE6D009B00020FB
:103E2000F0BD0868C0F3C1002CFA00F009B0F0BD85
:103E300007E05BE0B3E01846F8E72846F6E7002025
:103E4000F4E7326802F4E072802A21D003DC4AB140
:103E5000402A05D111E0C02A46D0B2F5807F22D099
:103E60000020E3E7086810F0007F04D006A8FFF701
:103E7000A5FC0798DAE70020D8E7086810F0006F83
:103E800004D003A8FFF782FD0398CFE70020CDE719
:103E9000086810F0005F04D06846FFF75FFE0098E6
:103EA000C4E70020C2E7226802F040520C6814F018
:103EB000040F00D082B1D1F800C01CF4807F02D082
:103EC000B2F1805F0ED0096811F4003F02D0B2F168
:103ED000005FABD00020A9E70868C0F3C1002CFA4E
:103EE00000F0A3E71846A1E728469FE73A6802F4E6
:103EF0006002B2F5800F23D004DC5AB1B2F5001F86
:103F000006D112E0B2F5C00F47D0B2F5000F22D0B3
:103F100000208BE7086810F0007F04D006A8FFF7A8
:103F20004DFC079882E7002080E7086810F0006FDA
:103F300004D003A8FFF72AFD039877E7002075E770
:103F4000086810F0005F04D06846FFF707FE00988D
:103F50006CE700206AE7226802F040520C6814F017
:103F6000040F00D08AB1D1F800C01CF4807F02D0C9
:103F7000B2F1805F0FD0096811F4003F03D0B2F1B5
:103F8000005F3FF453AF002050E70868C0F3C10062
:103F90002CFA00F04AE7184648E7284646E73A6810
:103FA00002F0E062B2F1007F23D004DC5AB1B2F13A
:103FB000807F06D112E0B2F1407F47D0B2F1806F2E
:103FC00022D0002032E7086810F0007F04D006A855
:103FD000FFF7F4FB079829E7002027E7086810F0AF
:103FE000006F04D003A8FFF7D1FC03981EE7002060
:103FF0001CE7086810F0005F04D06846FFF7AEFDCC
:10400000009813E7002011E7226802F040520C6884
:1040100014F0040F00D08AB1D1F800C01CF4807FE6
:1040200002D0B2F1805F0FD0096811F4003F03D0D5
:10403000B2F1005F3FF4FAAE0020F7E60868C0F383
:10404000C1002CFA00F0F1E61846EFE62846EDE64E
:10405000326802F4E042B2F5005F23D004DC5AB1CA
:10406000B2F5805F06D112E0B2F5405F47D0B2F5FD
:10407000804F22D00020D9E6086810F0007F04D0DD
:1040800006A8FFF79BFB0798D0E60020CEE608685D
:1040900010F0006F04D003A8FFF778FC0398C5E682
:1040A0000020C3E6086810F0005F04D06846FFF700
:1040B00055FD0098BAE60020B8E6226802F04052AA
:1040C0000C6814F0040F00D08AB1D1F800C01CF4C1
:1040D000807F02D0B2F1805F0FD0096811F4003FF9
:1040E00003D0B2F1005F3FF4A1AE00209EE6086865
:1040F000C0F3C1002CFA00F098E6184696E6284670
:1041000094E63A6802F44032A2B1B2F5803F1CD086
:10411000B2F5003F24D0002088E600005044025849
:104120000090D00340787D010080BB00004402581D
:1041300058440258086810F0006F04D003A8FFF735
:1041400025FC039872E6002070E6086810F0005F16
:1041500004D06846FFF702FD029867E6002065E696
:10416000226802F040520C6814F0040F00D08AB1AB
:10417000D1F800C01CF4807F02D0B2F1805F0FD074
:10418000096811F4003F03D0B2F1005F3FF44EAE76
:1041900000204BE60868C0F3C1002CFA00F045E6A9
:1041A000184643E6206800F4803020B1B0F5803F27
:1041B0000CD000203AE6086810F0007F04D006A872
:1041C000FFF7FCFA079831E600202FE6086810F0A8
:1041D000006F04D003A8FFF7D9FB059826E600205E
:1041E00024E63A6802F0E042B2F1405F29D007DCF1
:1041F00072B1B2F1805F0ED0B2F1005F06D115E06E
:10420000B2F1804F29D0B2F1A04F2ED000200DE6A0
:10421000FFF7C2FA0AE6086810F0006F04D003A89E
:10422000FFF7B4FB049801E60020FFE5086810F0F2
:10423000005F04D06846FFF791FC0198F6E5002086
:10424000F4E5086810F0040F05D00868C0F3C10059
:104250002CFA00F0EAE50020E8E5086810F4807F19
:1042600001D01846E2E50020E0E5096811F4003FBE
:104270007FF4DCAD0020D9E5326802F040523AB15B
:10428000B2F1805F0BD0B2F1005F13D00020CDE51A
:10429000096811F4003F7FF4C9AD0020C6E5086845
:1042A00010F0007F04D006A8FFF788FA0798BDE554
:1042B0000020BBE5086810F0006F04D003A8FFF7EA
:1042C00065FB0498B2E50020B0E500002DE9F84F49
:1042D000044600250026FC4F2068DFF8F08310F02C
:1042E000006F0DD0606EB8B1B0F5801F19D0B0F579
:1042F000001F1CD0B0F5401F00D00125F5B12E469F
:10430000208810F4807F37D0606D052831D2DFE837
:1043100000F01E2329313100386840F40030386045
:10432000ECE70221201D02F007FB0546E6E702212B
:1043300004F1240002F0A0FB0546DFE7D8F80000F6
:10434000616E20F440100843C8F80000D8E73868D0
:1043500040F4003038600DE00021201D02F0ECFA3E
:10436000054607E0002104F1240002F085FB054624
:1043700000E0012565B12E46208810F4007F18D09A
:10438000A06D802831D00CDC20B340280ED126E06F
:10439000D8F80000616D20F007000843C8F800005D
:1043A000EAE7C02803D0B0F5807F00D001251DB317
:1043B0002E462088DFF8189310F4806F2ED0D4F8A2
:1043C000A400B0F5800F44D01FDCB0B3B0F5001FDF
:1043D00021D138E0386840F400303860E7E7002148
:1043E000201D02F0A9FA0546E1E7002104F12400AE
:1043F00002F042FB0546DAE7D8F80000A16D20F490
:10440000E0700843C8F80000D3E7B0F5C00F03D050
:10441000B0F5000F00D0012515B32E46208810F40A
:10442000006F30D0D4F8A800B0F1007F55D021DC67
:10443000F0B3B0F1807F23D149E0FFE7386840F462
:1044400000303860E8E70021201D02F075FA0546CB
:10445000E2E7002104F1240002F00EFB0546DBE751
:10446000D9F80000D4F8A41020F460000843C9F87B
:104470000000D3E7B0F1407F03D0B0F1806F00D0EF
:1044800001258DB32E46206810F0007F0AD0A06C65
:1044900030B1102833D0202837D0302800D0012563
:1044A00095B32E46208810F4805F46D0E06D00E082
:1044B00008E0B0F5005F5CD036DCA0B3B0F5805FFB
:1044C00038D150E0386840F400303860D9E7002136
:1044D000201D02F031FA0546D3E7002104F1240043
:1044E00002F0CAFA0546CCE7FFE7D9F80000D4F895
:1044F000A81020F0E0600843C9F80000C3E738685E
:1045000040F400303860CBE705E00221201D02F0C6
:1045100013FA0546C4E76F480168A26C21F0300128
:1045200011430160BEE719E0B0F5405F03D0B0F57C
:10453000804F00D001251DB32E46208810F4005F67
:1045400030D0206EB0F5403F2AD022DC40B3B0F529
:10455000803F39D0B0F5003F21D13BE0386840F4CE
:1045600000303860E7E70021201D02F0E5F905463C
:10457000E1E7002104F1240002F07EFA0546DAE7C3
:10458000D8F80000E16D20F4E0400843C8F80000CE
:10459000D3E7B0F5802F03D0B0F5A02F00D00125D0
:1045A000FDB12E46208810F4804F2CD0D4F8AC00FA
:1045B000B0F1405F25D01DDC18B3B0F1805F56D05C
:1045C000B0F1005F1CD158E00121201D02F0B4F9C8
:1045D0000546E5E7012104F1240002F04DFA054605
:1045E000DEE7D8F80000216E20F4E0200843C8F888
:1045F0000000D7E7B0F1804F03D0B0F1A04F00D05A
:1046000001259DB32E46208810F4004F0AD0E06E9D
:1046100030B1B0F1805F43D0B0F1005F45D00125EB
:1046200095B32E46206810F0807F0AD0606C30B1C0
:10463000012855D0022858D0032800D0012575B391
:104640002E462068DFF890B010F4800F6AD023481F
:10465000006840F4807121480160FEF799FF8246AE
:104660001E48006810F4807F4DD059E00DE0012114
:10467000201D02F061F90546C3E7012104F1240081
:1046800002F0FAF90546BCE715E0D9F80000D4F8C5
:10469000AC1020F0E0400843C9F80000B3E72AE07E
:1046A000386840F400303860BAE70121201D02F07C
:1046B00043F90546B4E7D8F80000E16E20F0405019
:1046C0000843C8F80000ADE72C4402585044025893
:1046D000584402584C4402581044025800480258AA
:1046E000386840F400303860A9E70221201D02F04C
:1046F00023F90546A3E7FD480168626C21F0030138
:10470000114301609DE7FEF743FFA0EB0A00642818
:1047100001D9032504E0F648006810F4807FF2D048
:1047200085B12E462078DFF8CCA310F0010F71D0B0
:10473000A06F18286CD066DCC8B3082876D0102883
:1047400065D179E0DFF8B0A3DAF80000B4F8B01072
:1047500000F4407001F44071884211D0DAF8000092
:1047600020F44070DAF8001041F48031CAF80010EB
:10477000DAF8001021F48031CAF80010CAF80000FD
:10478000D4F8B000B0F5807F17D1FEF701FF00909C
:10479000DAF8000010F0020F0FD1FEF7F9FE0099D1
:1047A000411A41F28830814202D9032505E02FE009
:1047B000DAF8000010F0020FEFD00DB12E46B1E78D
:1047C000D4F8B0004FF4407181430FD0DBF8000003
:1047D00020F47C50CBF80000DAF80000B4F8B010F8
:1047E000C1F30B010843CAF800009BE7DBF8001097
:1047F00020F4407020F0704021F47C5141EA101008
:10480000CBF80000E8E7202802D0282800D00125B6
:10481000CDB12E46207810F0020F2DD0606F062803
:1048200027D2DFE800F027191F2727270121201DA5
:1048300002F082F80546EBE7012104F1240002F0C2
:104840001BF90546E4E7DAF80000A16F20F0380014
:104850000843CAF80000DDE70121201D02F06CF8D2
:10486000054607E0012104F1240002F005F90546A0
:1048700000E001256DB12E46207810F0040F21D004
:10488000D4F8900006281AD2DFE800F01A0C121AA9
:104890001A1ADAF80000616F20F007000843CAF81E
:1048A0000000E9E70121201D02F046F8054607E077
:1048B000012104F1240002F0DFF8054600E00125A3
:1048C00095B12E46207810F0200F20D0D4F88C001F
:1048D000B0F1405F19D011DCB8B1B0F1805F28D0E1
:1048E000B0F1005F10D12AE0D9F80000D4F89010A0
:1048F00020F007000843C9F80000E3E7B0F1804F5B
:1049000003D0B0F1A04F00D00125FDB12E46207894
:1049100010F0400F2DD0D4F89800B0F5406F26D09D
:104920001EDC20B3B0F5806F35D0B0F5006F1DD11F
:1049300037E00021201D01F0FFFF0546E5E70221D9
:1049400004F1240002F098F80546DEE7DAF80000EA
:10495000D4F88C1020F0E0400843CAF80000D6E7F5
:10496000B0F5805F03D0B0F5A05F00D00125FDB1A8
:104970002E46207810F0800F2DD0D4F89C00B0F592
:10498000C04F26D01EDC20B3B0F5005F2DD0B0F5AF
:10499000804F1DD12FE00021201D01F0CDFF0546E5
:1049A000E5E7022104F1240002F066F80546DEE79F
:1049B000D9F80000D4F8981020F4E0500843C9F862
:1049C0000000D6E7B0F5004F03D0B0F5204F00D07F
:1049D0000125BDB12E46207810F0080F2CD0D4F858
:1049E0008000B0F5805F17D01DE00021201D01F090
:1049F000A3FF0546EDE7022104F1240002F03CF894
:104A00000546E6E7D9F80000D4F89C1020F4604091
:104A10000843C9F80000DEE7022104F1240002F097
:104A20002BF800B10126DAF80000D4F8801020F449
:104A300040500843CAF80000207810F0100F14D03E
:104A4000D4F89400B0F5807F06D1022104F124004F
:104A500002F012F800B10126D9F80000D4F8941041
:104A600020F440700843C9F80000206810F4002FBB
:104A70000BD0D4F8A000C0B3B0F5803F7DD0B0F526
:104A8000003F00D00125CDB32E46206810F4802FC2
:104A90000DD0D4F88400B0F5801F70D0B0F5001FA1
:104AA0006ED0B0F5401F00D0012545B32E462068DA
:104AB00010F4803F07D0E06CF0B3B0F5803F7DD0BC
:104AC0000125D5B32E46206810F0005F06D00221E4
:104AD00004F1240001F0D0FF00B10126206810F499
:104AE000003F19D0E06FA8B10AE071E04C440258D1
:104AF00000480258544402587044025876E08BE053
:104B0000B0F5807F71D0B0F5007F03D0B0F5407F65
:104B100000D0012595B32E46206810F4801F07D0E1
:104B2000D8F80000216F20F000400843C8F80000CA
:104B3000206810F0805F01E079E083E008D0DBF8C6
:104B40000000D4F8B41020F480400843CBF80000F3
:104B5000206810F4001F07D0D8F80000A16E20F0E4
:104B600080700843C8F80000206810F0804F11D012
:104B7000DBF8000020F4004003E02FE06FE03FE0AE
:104B800043E0CBF80000DBF80000D4F8B81008438D
:104B9000CBF80000206810F0004F06D036480168BE
:104BA000226D21F0405111430160206810F4000F84
:104BB0000AD0DAF8000020F4400000E03CE0D4F82D
:104BC00088100843CAF8000086B30120BDE8F88FBA
:104BD0000021201D01F0B0FE054654E7022104F13A
:104BE000240001F049FF05464DE733E0D9F8000005
:104BF000D4F8A01020F440300843C9F8000044E77E
:104C0000386840F4003038604FE7012104F1240097
:104C100001F032FF054648E7DAF80000D4F88410C6
:104C200020F440100843CAF8000040E720E038684C
:104C300040F40030386044E70221201D01F07CFE82
:104C400005463EE70C480168E26C21F480311143CF
:104C5000016038E7386840F4003038605AE7DAF825
:104C60000000E16F20F440700843CAF8000053E7E9
:104C70000020BDE8F88F00004C4402582DE9F05F99
:104C800004460D46002C17D0DFF88492D9F80000B6
:104C900000F00F00A84212D2D9F8000020F00F0057
:104CA0002843C9F80000D9F8000000F00F00A8421E
:104CB00005D00120BDE8F09F0120BDE8F09F2078DD
:104CC000944E10F0040F0AD02069316801F0700191
:104CD000884204D9316821F070010843306020789F
:104CE0008D4F10F0080F0AD06069396801F070012B
:104CF000884204D9396821F070010843386020786F
:104D000010F0100F0AD0A069396801F4E061884200
:104D100004D9396821F4E061084338602078DFF86D
:104D2000FCB110F0200F0DD0E069DBF8001001F0AD
:104D30007001884206D9DBF8001021F070010843A9
:104D4000CBF80000207810F0020F0AD0E06831683C
:104D500001F00F01884204D9316821F00F010843A6
:104D60003060207810F0010F51D03068A16820F435
:104D700070600843306060686949022808D00328E1
:104D80000DD0012812D0096811F0040F34D011E0C1
:104D9000096811F4003F0DD10120BDE8F09F0968BA
:104DA00011F0007F06D10120BDE8F09F096811F4E1
:104DB000807F1ED0DFF86CA1DAF8001021F0070127
:104DC0000843CAF80000FEF7E3FB8046DAF800006B
:104DD000616800F03800B0EBC10F18D0FEF7D8FBC7
:104DE000A0EB080141F28830814208D90320BDE8D8
:104DF000F09F0120BDE8F09F0120BDE8F09FDAF8A8
:104E00000000616800F03800B0EBC10FE6D12078F7
:104E100010F0020F0AD0E068316801F00F018842FB
:104E200004D2316821F00F0108433060D9F8000046
:104E300000F00F00A8420FD9D9F8000020F00F00B1
:104E40002843C9F80000D9F8000000F00F00A8427C
:104E500002D00120BDE8F09F207810F0040F0AD0A6
:104E60002069316801F07001884204D2316821F074
:104E7000700108433060207810F0080F0AD0606994
:104E8000396801F07001884204D2396821F070015C
:104E900008433860207810F0100F0AD0A0693968F4
:104EA00001F4E061884204D2396821F4E0610843EA
:104EB0003860207810F0200F0DD0E069DBF800108A
:104EC00001F07001884206D2DBF8001021F0700179
:104ED0000843CBF8000000F07BF83168C1F30322EF
:104EE00011498A5C02F01F02D040326802F00F02C2
:104EF000895C0E4A01F01F0120FA01F111600C4992
:104F000008600C480068BDE8F05FFEF77DBB00005C
:104F100000200052184402581C44025820440258F1
:104F20000044025810440258E88900082400002474
:104F300020000024180000244DF804ED00F048F88B
:104F40000B4A11680B4BC1F30321595C01F01F019F
:104F500020FA01F11068084A00F00F00185C00F018
:104F60001F0021FA00F01060044A11605DF804FB94
:104F700018440258E8890008240000242000002476
:104F80004DF804EDFFF7D8FF05490968054AC1F35C
:104F90000211515C01F01F01C8405DF804FB0000E4
:104FA0001C440258E88900084DF804EDFFF7C4FFDF
:104FB00005490968054AC1F30221515C01F01F014E
:104FC000C8405DF804FB00001C440258E889000852
:104FD0004DF8044D69480068DFF8A4C1694B10F032
:104FE00038014ED008294FEA2C1047D0102959D04B
:104FF000182943D16448016801F003010068C0F337
:105000000510624A126802F00102614C2468C4F380
:10501000CC0414FB02F200EE102AB8EE400A00287D
:105020007BD0DFED5C0A5C4AB7EE001AA9B39FEDB6
:105030005B2A012974D0022971D001EE900A106810
:10504000F8EE611AC2EE212AC0F3080001EE900AC0
:10505000F8EE611A40EE201A31EE810A22EE800A43
:105060001068C0F34620401C00EE900AF8EE600A7B
:1050700080EE201ABCEEC10A10EE100A5DF8044B57
:105080007047186810F0200F08D018685DF8044BBE
:10509000C0F3C1002CFA00F0704707E05DF8044B44
:1050A000604670473E485DF8044B7047196811F040
:1050B000200F1CD01968C1F3C1012CFA01F101EED7
:1050C000901AF8EE612A01EE900A1068F8EE611A63
:1050D00082EEA12AC0F3080001EE900AF8EE611AF0
:1050E00040EE201A31EE810A22EE000AB8E701EE06
:1050F000900ADFED2C2A1068F8EE611A82EEA12AE0
:10510000C0F3080001EE900AF8EE611A40EE201A92
:1051100031EE810A22EE000AA2E72BE000E013E064
:1051200001EE900A1068F8EE611AC2EE212AC0F36F
:10513000080001EE900AF8EE611A40EE201A31EEF6
:10514000810A22EE800A8BE701EE900ADFED162A33
:105150001068F8EE611A82EEA12AC0F3080001EE91
:10516000900AF8EE611A40EE201A31EE810A22EE22
:10517000000A75E75DF8044B0020704710440258A0
:105180000090D00300440258284402582C4402588E
:105190003444025800000039304402580024744A54
:1051A00040787D010024744C20BCBE4B2DE9F05F9B
:1051B0000446002C11D02078DFF8F883FE4F10F061
:1051C000010FFE4D6BD0D8F8000000F038003968B0
:1051D000102823D0182803D006E00120BDE8F09F56
:1051E00001F00300022819D06068B0F5803F1ED09E
:1051F00010B3B0F5A02F28D0286820F480302860A4
:10520000286820F480202860606878B3FEF7C0F931
:105210000646286810F4003F20D040E0286810F4CB
:10522000003F3CD0606830BB0120BDE8F09F28689B
:1052300040F480302860E7E7286820F48030286058
:10524000286820F480202860DEE7286840F4802069
:105250002860286840F480302860D5E7FEF798F988
:10526000801B642803D90320BDE8F09F04E0286870
:1052700010F4003FF2D012E0FEF78AF906462868E3
:1052800010F4003F0BD0FEF783F9801B642802D98D
:105290000320BDE8F09F286810F4003FF3D1207888
:1052A00041F20309C64E10F0020F4BD0D8F80000AF
:1052B00000F038003968A0B1182802D111F0030FAE
:1052C0000FD0E068002878D0296821F01901084340
:1052D0002860FEF75DF98246286810F0040F41D07F
:1052E0004DE0286810F0040F01D0E06868B128682C
:1052F000E16820F0190008432860FEF749F982466A
:10530000286810F0040F03D00FE00120BDE8F09FE3
:10531000FEF73EF9A0EB0A00022802D90320BDE8FF
:10532000F09F286810F0040FF2D0FEF72BF94845E3
:1053300010D82069402806D0316821F47C3141EA38
:105340000030306051E0306820F47C3040F40030B0
:1053500030604AE03068217C20F0FE4040EA016085
:10536000306042E0FEF714F9A0EB0A00022802D9EF
:105370000320BDE8F09F286810F0040FF2D0FEF77C
:1053800001F9484511D82069402806D0316821F438
:105390007C3141EA0030306027E0306820F47C3016
:1053A00040F40030306020E007E03068217C20F0DD
:1053B000FE4040EA0160306017E0286820F00100FC
:1053C0002860FEF7E5F88246286810F0040F0CD03C
:1053D000FEF7DEF8A0EB0A00022802D90320BDE8A0
:1053E000F09F286810F0040FF2D1207810F0100F11
:1053F00045D0D8F8000000F038003968DFF8C4B1B3
:10540000082813D0182803D101F0030001280DD07B
:10541000E069A8B3286840F080002860FEF7B8F87B
:105420008246286810F4807F2BD037E0286810F47B
:10543000807F05D0E069802802D00120BDE8F09F80
:10544000FEF7A0F8484510D8206A202806D0316819
:1054500021F0F84141EA8060306056E0306820F089
:10546000F84040F0804030604FE0DBF8000094F8F6
:10547000201020F07C5040EA0160CBF8000044E0AE
:105480002CE0FEF785F8A0EB0A00022802D90320E1
:10549000BDE8F09F286810F4807FF2D0FEF772F824
:1054A000484510D8206A202806D0316821F0F841FC
:1054B00041EA8060306028E0306820F0F84040F039
:1054C0008040306021E0DBF8000094F8201020F0EC
:1054D0007C5040EA0160CBF8000016E0286820F01C
:1054E00080002860FEF754F80646286810F4807F94
:1054F0000BD0FEF74DF8801B022802D90320BDE82F
:10550000F09F286810F4807FF3D1207810F0080F06
:105510003AD0DFF8B4906069D8B1D9F8000040F013
:105520000100C9F80000FEF733F80646D9F800007C
:1055300010F0020F28D1FEF72BF8801B022802D9A9
:105540000320BDE8F09FD9F8000010F0020FF2D060
:105550001AE0D9F8000020F00100C9F80000FEF7B9
:1055600017F80646D9F8000010F0020F0CD0FEF72D
:105570000FF8801B022802D90320BDE8F09FD9F85C
:10558000000010F0020FF2D1207810F0200F3DD073
:10559000A06920B3286840F480502860FDF7F8FF28
:1055A0000646286810F4005F30D1FDF7F1FF801B3C
:1055B00002280BE0104402582844025800440258C4
:1055C000044402580C4402587444025802D903207F
:1055D000BDE8F09F286810F4005FE6D016E0286868
:1055E00020F480502860FDF7D3FF0646286810F4A9
:1055F000005F0BD0FDF7CCFF801B022802D90320EF
:10560000BDE8F09F286810F4005FF3D1207810F017
:10561000040F6CD09F4E306840F480703060FDF70E
:10562000B7FF8146306810F4807F0CD1FDF7B0FFE2
:10563000A0EB0900642802D90320BDE8F09F306880
:1056400010F4807FF2D0A068934E012816D0D0B11C
:10565000052821D0306820F001003060306820F04B
:1056600004003060A06841F2883A60B3FDF790FF13
:105670008146306810F0020F17D038E0306840F0F3
:1056800001003060EEE7306820F0010030603068E3
:1056900020F004003060E5E7306840F0040030603E
:1056A000306840F001003060DCE7FDF771FFA0EBEF
:1056B0000900504502D90320BDE8F09F306810F082
:1056C000020FF2D013E0FDF763FF8146306810F05F
:1056D000020F0CD0FDF75CFFA0EB0900504502D98A
:1056E0000320BDE8F09F306810F0020FF2D1616A2C
:1056F00079B3D8F80000DFF8A48100F0380018284A
:105700007ED0022912D0286820F080702860FDF732
:105710003FFF0446286810F0007F1AD0FDF738FFDD
:10572000001B02286DD90320BDE8F09F286820F0F7
:1057300080702860FDF72CFF0646286810F0007F77
:105740000CD0FDF725FF801B022803D90320BDE8FC
:10575000F09F9CE0286810F0007FF2D13868E16A81
:1057600020F0F30020F4407040EA0110A16A0843E1
:105770003860208E4FF47E42616B401E491EC0F39C
:10578000080002EA41210843218FD201491E02EAA2
:105790000141084394F83C10491E120202EA0161DB
:1057A0000843C8F800003E48016821F0010101608B
:1057B0003C490A68A36C6FF3CF0242EAC3020A6055
:1057C0000168226C21F00C01114301600168626CD8
:1057D00021F0020111430160016841F48031016050
:1057E000016841F400310160016841F480210160E9
:1057F000016841F001010160286840F0807001E01B
:105800001BE014E02860FDF7C3FE0446286810F092
:10581000007F3CD1FDF7BCFE001B022802D903200B
:10582000BDE8F09F286810F0007FF3D02FE02868D3
:1058300010F0007F7FF472AF29E03A68D8F80000DA
:10584000012921D0A36A02F0030199421CD1E16A27
:10585000C2F30512914217D1226BC0F30801521E08
:10586000914211D1616BC0F34622491E91420BD186
:10587000A16BC0F30642491E914205D1E16BC0F312
:105880000660491E814202D00120BDE8F09F002041
:10589000BDE8F09F00480258704402583044025856
:1058A0002C440258344402580248016821F0010196
:1058B00001607047003C005803490A6822F0020268
:1058C0001043086070470000003C005804284FF067
:1058D000E02104D0086920F00400086170470869DD
:1058E00040F0040008617047401EB0F1807F01D392
:1058F000012070474FF0E0214861F020034A10700A
:1059000000208861072008610020704723ED00E037
:105910007047704770474DF8044D90F83C20012ABD
:1059200041D0012280F83C20CA684FF0000C8B68FF
:1059300022F440721A434B6822F480621A430B68C7
:1059400022F400621A430B6922F480521A434B6915
:1059500022F400521A438B6A22F480421A430B8BC2
:1059600022F4702242EA03420368A3F18044B4F5B2
:10597000803404D0A3F18044B4F582340CD18C8CF3
:1059800022F4700242EA0452CC6922F0807222436F
:10599000096A22F000720A435A6480F83CC0002071
:1059A0005DF8044B70475DF8044B0220704700001F
:1059B000F0B490F83C20012A46D0012480F83C4005
:1059C000022280F83D2003685A68D3F808C0204DB1
:1059D000204EAB4201D0B34203D122F470024F6893
:1059E0003A4322F070020F683A435A600268AA42B2
:1059F0001DD0B2F1804F1AD0A2F18043B3F580637D
:105A000015D0A2F18043B3F5006310D0A2F180431A
:105A1000B3F540630BD0B24209D0A2F18043B3F595
:105A2000C05304D0A2F18043B3F5A03304D12CF0CD
:105A3000800389681943916080F83D40002180F817
:105A40003C100020F0BC7047F0BC02207047000002
:105A5000000001400004014090F83D10012901D0F0
:105A600001207047022180F83D100168CA6842F0A9
:105A70000102CA600068A0F18041B1F5803126D0F2
:105A8000B0F1804F23D0A0F18041B1F580611ED0EC
:105A9000A0F18041B1F5006119D0A0F18041B1F5CC
:105AA000406114D0A0F18041B1F582310FD0A0F156
:105AB0008041B1F5C0510AD0A0F18041B1F5A031CB
:105AC00005D0016841F00101016000207047816844
:105AD000054A11400629F8D0B1F5803FF5D001689C
