:020000040800F2
:100000007806002439030008D911000829110008D6
:10001000D111000841040008091400080000000084
:10002000000000000000000000000000E9110008CE
:100030004904000800000000E1110008F111000867
:100040005303000853030008530300085303000838
:100050005303000853030008530300085303000828
:100060005303000853030008530300085303000818
:100070005303000853030008530300085303000808
:1000800053030008530300085303000853030008F8
:1000900053030008530300085303000853030008E8
:1000A00053030008530300085303000853030008D8
:1000B00053030008530300085303000853030008C8
:1000C00053030008530300085303000853030008B8
:1000D00053030008530300085303000853030008A8
:1000E00053030008530300080000000053030008F6
:1000F0005303000853030008530300085303000888
:100100005303000853030008530300085303000877
:100110005303000853030008530300085303000867
:100120005303000853030008530300085303000857
:100130005303000853030008530300085303000847
:1001400000000000000000000000000000000000AF
:100150005303000853030008530300085303000827
:100160005303000853030008530300085303000817
:100170005303000853030008530300085303000807
:1001800053030008530300085303000853030008F7
:1001900053030008530300085303000853030008E7
:1001A00053030008530300085303000853030008D7
:1001B00053030008530300085303000853030008C7
:1001C00053030008530300085303000853030008B7
:1001D00053030008530300085303000853030008A7
:1001E0005303000853030008530300085303000897
:1001F0005303000853030008530300085303000887
:100200005303000853030008530300085303000876
:100210005303000853030008530300085303000866
:1002200053030008530300085303000800000000B4
:1002300053030008530300080000000053030008A4
:100240005303000853030008530300085303000836
:100250005303000853030008530300085303000826
:100260005303000853030008530300085303000816
:100270005303000853030008530300080000000064
:100280005303000853030008530300080000000054
:10029000000000005303000800F002F800F03CF8F2
:1002A0000AA090E8000C82448344AAF10107DA45D1
:1002B00001D100F031F8AFF2090EBAE80F0013F0E7
:1002C000010F18BFFB1A43F0010318474812000042
:1002D00068120000103A24BF78C878C1FAD85207D3
:1002E00024BF30C830C144BF04680C6070470000B0
:1002F0000023002400250026103A28BF78C1FBD82F
:10030000520728BF30C148BF0B6070471FB501F0CE
:10031000ECF81FBD10B510BD00F058F81146FFF7FE
:10032000F5FF01F075F800F076F803B4FFF7F2FF7F
:1003300003BC00F07DF800000948804709480047E9
:10034000FEE7FEE7FEE7FEE7FEE7FEE7FEE7FEE785
:10035000FEE7FEE704480549054A064B70470000E2
:100360003913000899020008780000247806002458
:1003700078020024780200244FF0000200B51346F2
:1003800094469646203922BFA0E80C50A0E80C50B5
:10039000B1F12001BFF4F7AF090728BFA0E80C5066
:1003A00048BF0CC05DF804EB890028BF40F8042B5F
:1003B00008BF704748BF20F8022B11F0804F18BFCC
:1003C00000F8012B7047704770477047754600F082
:1003D0002BF8AE4605006946534620F007008546D7
:1003E00018B020B5FFF7B6FFBDE820404FF000067B
:1003F0004FF000074FF000084FF0000BAC46ACE8A0
:10040000C009ACE8C009ACE8C009ACE8C00921F0FB
:1004100007018D46704710B50446AFF300802046B3
:10042000BDE81040FFF781BF00487047100000246E
:1004300001491820ABBEFEE726000200704700000D
:10044000FEE7000000000000704700000000000010
:10045000B0B5044600F014F940F200010546C2F2BE
:100460000041621C097818BF0C4400BF00F008F975
:10047000401BA042FAD3B0BD2DE9F04F85B08E46A7
:1004800042F20042C5F602020A2102909042DEF8D2
:10049000005008BF0921002D009100F0DD80029876
:1004A000002400F12642009802F1FF7201274FEA72
:1004B000B2230026092B4FF0000838BF1846CDF8AC
:1004C0000CE000900EE000BFDEF8005008F10108DB
:1004D00035FA07F006F1020607F1010704F10404FA
:1004E00000F0BA80A7F1010A012000FA0AF315EA28
:1004F0000309E9D0DEF804B00BF003056A1E012AF7
:1005000022D802984FEA4801D0F808C0019103218F
:1005100001FA06F203992CEA020CD1F80CE00EFA6B
:1005200006F1DDF80CE041EA0C01816041686FEAF8
:10053000020CCBF3001299430346019802FA0AF227
:10054000114359600CE000BF0320032D00FA06F0B0
:10055000029B6FEA000C304602D13046032526E0AC
:10056000D968DEF8082001EA0C018240022D41EA38
:100570000201D9601BD102466FF0030000EA5A0164
:100580000F20194404F01C0300FA03F51046D1F8BB
:1005900020E0039A2EEA0505DDF80CE012699A4086
:1005A000029B2A430A62DEF804B00BF003051968C7
:1005B00005FA00F001EA0C011BF4403F40EA01009B
:1005C00018603FF481AF44F2F44140F20845C5F6AB
:1005D0000201C5F600050F23086840F0020008601C
:1005E000086800F0020004902AF00300049904F067
:1005F0000C0142598B409A43009B03FA01F11143CD
:1006000041514FF0B0452868DEF8041040EA090275
:10061000CB0258BF20EA09028B022A6040F204058F
:10062000C5F60005286840EA090258BF20EA090219
:100630008B032A60D5F8800040EA090258BF20EAFF
:100640000902C903C5F88020E86F40EA090258BFD3
:1006500020EA0902EA6737E705B0BDE8F08F00003D
:10066000002A08BF090481617047000000000000F3
:1006700041F20000C5F600400068000C7047000021
:1006800040F27000C2F200400068704700000000B5
:1006900040F2000040F27001C2F20040C2F200419C
:1006A00000780A68104408607047000000000000ED
:1006B00080B5032000F098F800F002FA44F21841E7
:1006C00041F20453C5F60201C0F600030A68096846
:1006D00001F00F01C2F30322595C9A5C01F01F0183
:1006E00002F01F02D04040F20C02C2F2004220FA97
:1006F00001F1116040F20801C2F2004108600F20D0
:1007000000F00AF800281CBF012080BD00F02CF882
:10071000002080BD0000000070B540F20006C2F26B
:1007200000463178E1B1044640F20800C2F20040D0
:100730004FF47A72B2FBF1F10068B0FBF1F000F017
:10074000DBFC0F2C4FF0010508D838B94FF0FF3013
:1007500000222146002500F017F87460284670BD7D
:10076000012070BD0000000081B044F2F440C5F6E5
:100770000200016841F002010160006800F002001F
:100780000090009801B07047B0B54EF60C5C00F0D8
:100790000F05CEF2000C043D6544DCF800304FF04C
:1007A000FF3CC3F3022E8EF00703042B28BF042363
:1007B000BEF1030438BF00240CFA03F3B0F1FF3F8D
:1007C00021EA030105F10C0300F160450CFA04F085
:1007D000C8BF05F56443A14022EA000008430001B8
:1007E0001870B0BD000000004EF60C514FF6FF032C
:1007F000CEF200010A681A4060F30A2242F08060DB
:1008000040F0FD7008607047B0B544F60C05C5F6C1
:10081000020529684907296806D401F00701081A6A
:1008200018BF0120B0BD00BF21F0070108432860B8
:10083000FFF726FF044600BF55F8080C800407D4D4
:10084000FFF71EFF001BB0F57A7FF5D90120B0BD80
:100850000020B0BD000000002DE9F04381B0002869
:1008600000F02A8142F200080446C5F200288946B9
:10087000D8F8000000F00F0088420ED2D8F800002F
:1008800020F00F0040EA0900C8F80000D8F8000086
:1008900000F00F00484540F00F81206844F21847EF
:1008A0004107C5F602070AD521693A6802F07002CD
:1008B000914204D93A6822F070021143396001076D
:1008C0000AD561697A6802F07002914204D97A68A7
:1008D00022F0700211437960C1060AD5A1697A68D5
:1008E00002F4E062914204D97A6822F4E062114392
:1008F000796081060AD5E169BA6802F07002914216
:1009000004D9BA6822F070021143B96010F00201F4
:100910000AD0E2683B6803F00F039A4204D93B68AF
:1009200023F00F031A433A60C20746D0386820F418
:100930007061D4E90102012841EA0201396009D05D
:1009400003280DD0022811D157F8181C890340F153
:10095000B38010E057F8181CC90540F1AD800AE0DB
:1009600057F8181C890140F1A78004E057F8181CBB
:10097000490740F1A18057F8081C21F007010843FE
:1009800047F8080CFFF77CFE064641F2883500BFA9
:1009900057F8080C616800F03800B0EBC10F09D0BF
:1009A000FFF76EFE801BA842F2D9032001B0BDE81C
:1009B000F08300BF206800F0020151B1E1683A689D
:1009C00002F00F02914204D23A6822F00F02114362
:1009D0003960D8F8001001F00F0149450DD9D8F859
:1009E000001021F00F0141EA0901C8F80010D8F801
:1009F000001001F00F0149455ED141070AD5216978
:100A00003A6802F07002914204D23A6822F0700211
:100A10001143396001070AD561697A6802F07002F2
:100A2000914204D27A6822F0700211437960C106C3
:100A30000AD5A1697A6802F4E062914204D27A6828
:100A400022F4E0621143796080060AD5E069B96852
:100A500001F07001884204D2B96821F070010843A6
:100A6000B86000F02DF8396841F204533A68C0F6D6
:100A70000003C1F3032102F00F02595C9A5C01F0FC
:100A80001F0120FA01F102F01F0040F20C0221FACE
:100A900000F0C2F20042106040F2040040F208028E
:100AA000C2F20040C2F200420068116001B0BDE82D
:100AB000F043FFF731BE00BF012001B0BDE8F08375
:100AC00044F20041C5F602010869C0F3C2000328E0
:100AD00010D002282CD088BB0868800649F200009C
:100AE000C0F2D03058BF70470968C1F3C101C84097
:100AF000704700BF8A6A886AC0F3051CC86ABCF1E7
:100B0000000F4B6B20D0C3F3CC0300F0010058431F
:100B100002F00302022A00EE100AB8EE400A15D0D5
:100B2000C2B90868800619D49FED281A23E000BFD7
:100B300047F64000C0F27D10704700BF40F600103D
:100B4000C0F23D00704700BF002070479FED1E1AA5
:100B500011E000BF9FED1B1A0DE000BF086849F2CD
:100B60000002C0F2D032C0F3C10022FA00F001EE60
:100B7000100AB8EE411A086B9FED153A6FF35F202B
:100B800002EE100A086BC0F34620B8EE422A01308C
:100B900000EE032A00EE10CAB7EE003AB8EE400AA3
:100BA00081EE000A32EE031A20EE010A01EE100A6D
:100BB000B8EE411A80EE010ABCEEC00A10EE100A2F
:100BC000704700BF0024744A20BCBE4B0024744C04
:100BD0000000003900000000F0B581B0002800F0EE
:100BE0005B810446007844F20046C007C5F6020661
:100BF00012D0306900F03801B06A102905D01829E8
:100C00002ED100F0030002282AD13068800303D5DA
:100C10006068002800F040812078800740F1A980BA
:100C2000306910F03801B06A2CD0182908BF5FEA8B
:100C3000807027D0E068316800284FD021F019017A
:100C400008433060FFF71CFD054600BF30684007D1
:100C500034D4FFF715FD401B0228F7D95BE100BF34
:100C6000606800284CD0B0F5A02F61D0B0F5803F6F
:100C700062D0306820F480303060306820F480200A
:100C80005DE000BF30684007E06802D5002800F052
:100C90000381316821F0190108433060FFF7F0FC4F
:100CA000054600BF3068400708D4FFF7E9FC401B49
:100CB00002284FF00300F5D919E200BFFFF7D8FC76
:100CC00041F20301884249D820697168402821F423
:100CD0007C314BD141F400304AE000BF21F00100EB
:100CE0003060FFF7CDFC05463068400741D5FFF77F
:100CF000C7FC401B02284FF00300F5D9F7E100BF05
:100D0000306820F480303060306820F4802030601B
:100D1000FFF7B6FC054600BF306880037FF57CAF67
:100D2000FFF7AEFC401B64284FF00300F4D9DEE16E
:100D3000306840F480203060306840F480303060AB
:100D4000FFF79EFC054600BF306880033FF564AFA7
:100D5000FFF796FC401B6428F6D9DCE07068216937
:100D600020F0FE4040EA016002E000BF41EA0030AE
:100D700070602078C00654D5306900F03801B06A40
:100D8000082905D0182919D100F00300012815D130
:100D90003068C00503D5E069802840F07D80FFF70A
:100DA00067FC41F2030188421ED8206A716820283E
:100DB00021F0F84132D141F0804031E0E069002873
:100DC000306819D040F080003060FFF759FC0546CC
:100DD0003068C005E3D4FFF753FC401B02284FF0F6
:100DE0000300F5D983E100BFF068216A20F07C5050
:100DF00040EA0160F06014E020F080003060FFF70E
:100E00003FFC05463068C0050BD5FFF739FC401B99
:100E100002284FF00300F5D969E100BF41EA806084
:100E20007060207800073BD4207880064CD420786E
:100E300040075DD4656A65B3306900F03800182852
:100E400040F0A080012DB16A306B25D001F0030283
:100E5000A36A9A4220D1C1F30511E26A91421BD1E3
:100E60000146226B6FF35F21013A914214D1C0F326
:100E70004622616B01398A420ED1C0F30642A16B52
:100E800001398A4208D1C0F30660E16B013988421A
:100E900002D1002001B0F0BD012001B0F0BD00BFC3
:100EA00060690028706F39D040F001007067FFF76B
:100EB000E7FB0546706F8007B6D4FFF7E1FB401BE8
:100EC0000228F7D927E000BFA0690028306847D082
:100ED00040F480503060FFF7D3FB05463068800453
:100EE000A5D4FFF7CDFB401B0228F7D913E000BFC4
:100EF000D6F8000440F48070C6F80004FFF7C0FB89
:100F0000054600BFD6F80004C00519D4FFF7B8FBAA
:100F1000401B6428F6D9032001B0F0BD20F0010089
:100F20007067FFF7ADFB0546706F80077FF57CAFFC
:100F3000FFF7A6FB401B02284FF00300F4D9D6E0D0
:100F4000A068002840D0052858D001285AD0306F1A
:100F500020F001003067306F20F0040055E000BF42
:100F600020F480503060FFF78BFB0546306880042A
:100F70007FF55DAFFFF784FB401B02284FF00300B5
:100F8000F4D9B4E0306820F080703060FFF778FB6F
:100F9000022D05460CD100BF3068800148D5FFF70F
:100FA0006FFB401B02284FF00300F5D99FE000BF04
:100FB000306880017FF56DAFFFF762FB401B0228B0
:100FC0004FF00300F4D992E0306F20F00100306759
:100FD000306F20F004003067FFF752FB054641F206
:100FE0008837306F80077FF525AFFFF749FB401B3F
:100FF000B8424FF00300F4D979E000BF306F40F001
:1010000004003067306F40F001003067FFF738FBB5
:10101000054641F2883700BF306F80073FF50AAFC1
:10102000FFF72EFB401BB8424FF00300F4D95EE0FF
:1010300004F12807B06A40F2F33188438ECF0843A9
:10104000591E40EA02104FF47E426FF35F21B062F6
:1010500002EB47204FF4FE0280B2E36B0844A16B21
:1010600002EB01414FF0FE4201F4FE0102EB03628C
:10107000084402F0FE4108443063F06A4FF6F8710C
:1010800020F00100F062706BA26C884340EAC2005D
:101090007063F06A216C20F00C000843F062F06A83
:1010A000616C20F002000843F062F06A40F4803086
:1010B000F062F06A40F40030F062F06A40F48020A0
:1010C000F062F06A40F00100F062306840F0807039
:1010D0003060FFF7D5FA0446306880013FF5D9AE9D
:1010E000FFF7CEFA001B02284FF00300F4D901B03D
:1010F000F0BD000000000000411E0020B0EB116FA9
:1011000002D00120704700BF4EF21002F023CEF251
:10111000000251604EF62351CEF200010B70072100
:101120009060116070470000FEE7000000000000C2
:101130002DE9F04387B044F2E0404FF00009C5F6D6
:101140000200CDF8189040F6000400220168C5F6B0
:10115000020441F0800101600168C02601F08001B5
:1011600001910199016841F004010160016801F0F9
:10117000040101910199016841F0080101600068D2
:10118000C02100F00800019001982046FFF768FA9E
:1011900004F580654821002228464FF04808FFF7F3
:1011A0005FFA029602AE204631460127CDF8149030
:1011B000CDE90379FFF760F928463146CDE902878A
:1011C000CDE90499FFF758F907B0BDE8F0830000B6
:1011D000FEE7000000000000FEE700000000000045
:1011E0007047000000000000704700000000000091
:1011F000FFF74EBA0000000070B59CB044F618042A
:1012000040F22C4509A84C21C5F60204C5F600059C
:10121000FFF7B2F802200026CDE90766CDE90566A2
:10122000CDE90366CDE90166FFF7EEFA009628687E
:1012300020F001002860286800F00100009020687C
:1012400040F440402060206800F440400090009846
:101250002068800409D4206880045CBF20685FEAAD
:10126000804002D420688004F2D54FF6DC40CFF6EF
:10127000FF70215841F002012150205800F0020077
:101280000090009800200090206840F440402060CA
:10129000206800F440400090286840F00100286079
:1012A000286800F00100009000982068800409D4AC
:1012B000206880045CBF20685FEA804002D4206818
:1012C0008004F2D5012009904FF480300A9002206A
:1012D0000521CDE912001491C021CDE91510CDE909
:1012E000170009A8082419940025CDE91A55FFF71D
:1012F00073FC28B1EFF3108072B600BFFEE700BFA9
:101300003F20019003204FF48061CDE90205402089
:101310000494CDE90500CDE9071001A80421FFF7E9
:101320009BFA28B1EFF3108072B600BFFEE700BF52
:101330001CB070BD000000004EF6885042F2000C58
:10134000CEF20000C5F2002C016841F4700101608A
:10135000DCF8000000F00F00062806D8DCF80000DA
:10136000072161F30300CCF8000044F200404EF680
:101370007F52C5F60200CEF6F622016841F0010167
:1013800001600021016103681A400260DCF800205E
:10139000120706D5DCF80020072363F30302CCF81C
:1013A000002040F200228161C161C0F2022201628C
:1013B00082620022C0F2FF12C26240F28022C0F2BA
:1013C0000112026341638263C16302644164026883
:1013D00022F480220260016641F20000C5F600405E
:1013E0000068B1EB507F05D148F208100121C5F229
:1013F0000010016044F2000043F2D201C5F2002067
:101400000160704700000000FEE7000000000000DF
:1014100040F60004C5F60204FFF74AF9FFF7ECFEB8
:10142000FFF786FE04F58065402101222046FFF784
:1014300017F9802100222046FFF712F940210022EF
:101440002846FFF70DF9082100222846FFF708F982
:101450004FF47A70FEF7FCFF402100222046FFF790
:10146000FFF8802101222046FFF7FAF840210022F0
:101470002846FFF7F5F8082100222846FFF7F0F884
:101480004FF47A70FEF7E4FF402100222046FFF778
:10149000E7F8802100222046FFF7E2F840210122F0
:1014A0002846FFF7DDF8082100222846FFF7D8F884
:1014B0004FF47A70FEF7CCFF402100222046FFF760
:1014C000CFF8802100222046FFF7CAF840210022F1
:1014D0002846FFF7C5F8082101222846FFF7C0F883
:1014E0004FF47A70FEF7B4FF9EE7F1EE100A4FF664
:1014F000FF71C0F2C03120EA010040F04070E1EE1F
:10150000100A7047000000000102030401020304F6
:101510000607080938150008000000241000000024
:10152000D4020008481500081000002468060000D6
:10153000F0020008000000000100000010000000A0
:081540000090D0030090D003DD
:040000050800029954
:00000001FF
