:020000040800F2
:1000000058270024AD020008C96B0008B968000831
:10001000C16B000859070008417E0008000000007D
:10002000000000000000000000000000296E000831
:10003000A90B000800000000D16B0008316E000819
:10004000C7020008C7020008C7020008C70200086C
:10005000C7020008C7020008C7020008C70200085C
:10006000C7020008C7020008C702000861070008AD
:10007000C7020008C7020008C7020008C70200083C
:10008000C7020008C702000849070008C7020008A5
:10009000C7020008C7020008C7020008C70200081C
:1000A000C702000809700008C7020008C70200085C
:1000B000C7020008C7020008C7020008C7020008FC
:1000C000C7020008C7020008C7020008C7020008EC
:1000D000C7020008C7020008C7020008C7020008DC
:1000E000C7020008C702000800000000C70200089D
:1000F000C7020008C7020008C7020008C7020008BC
:10010000C7020008C7020008C7020008C7020008AB
:1001100071710008C7020008C7020008C702000882
:10012000C7020008C7020008C7020008C70200088B
:10013000C7020008C7020008C7020008C70200087B
:1001400000000000000000000000000000000000AF
:10015000C7020008C7020008C7020008C70200085B
:10016000C7020008C7020008C7020008C70200084B
:10017000C7020008C7020008C7020008C70200083B
:10018000C7020008C7020008C7020008C70200082B
:10019000C7020008C7020008C7020008C70200081B
:1001A000C7020008C7020008C7020008C70200080B
:1001B000C7020008C7020008C7020008C7020008FB
:1001C000C7020008C7020008C7020008C7020008EB
:1001D000C7020008C7020008C7020008C7020008DB
:1001E000C7020008C7020008C7020008C7020008CB
:1001F000C7020008C7020008C7020008C7020008BB
:10020000C7020008C7020008C7020008C7020008AA
:10021000C7020008C7020008C7020008C70200089A
:10022000C7020008C7020008C7020008000000005B
:10023000C7020008C702000800000000C70200084B
:10024000C7020008C7020008C7020008C70200086A
:10025000C7020008C7020008C7020008C70200085A
:10026000C7020008C7020008C7020008C70200084A
:10027000C7020008C7020008C7020008000000000B
:10028000C7020008C7020008C702000800000000FB
:1002900000000000C7020008DFF80CD000F090F862
:1002A00000480047497E0008582700240648804738
:1002B00006480047FEE7FEE7FEE7FEE7FEE7FEE74B
:1002C000FEE7FEE7FEE7FEE7296F00089902000857
:1002D0002DE9F05F0546002092469B46884606467B
:1002E000814640241BE0284641464746224600F00E
:1002F00057F853465A46C01A914110D31146184632
:10030000224600F03EF82D1A67EB01084F462246C0
:100310000120002100F035F817EB00094E41201EA6
:10032000A4F10104DFDC484631462A464346BDE8D5
:10033000F09FD2B201E000F8012B491EFBD27047BA
:100340000022F6E710B513460A4604461946FFF7A1
:10035000F0FF204610BD30B50B460146002020229C
:10036000012409E021FA02F59D4205D303FA02F5C2
:10037000491B04FA02F52844151EA2F10102F1DC22
:1003800030BD202A04DB203A00FA02F10020704739
:100390009140C2F1200320FA03F3194390407047C3
:1003A000202A04DB203A21FA02F00021704721FACA
:1003B00002F3D040C2F12002914008431946704731
:1003C000064C074D06E0E06840F0010394E80700A2
:1003D00098471034AC42F6D3FFF762FF488100081B
:1003E0006881000800000000B0B50446006842F2D1
:1003F000001140F48070C4F20201884218D142F228
:100400000830C4F20200006810F4403F18D004F035
:1004100013FD61680546B1F5803F05D0B1F5403F59
:100420002AD0B1F5003F28D1080CB5FBF0F524E047
:1004300046F20830C5F60200006810F4403FE6D1ED
:100440004FF4002003F098FB61680546A1F5802277
:100450004FEAB2420A2A10D8DFE802F00606060682
:1004600006065052545658006FF0010000EA514001
:10047000B5FBF0F501E000BFAD0803F089F841F2EB
:10048000030188420ED8206842F60151C0F23111B2
:100490008D4281682CBF41F4807121F480718160AC
:1004A000B0BD00BF4BF62140C0F2BE00854205D86A
:1004B0002068816821F440718160B0BD47F6410039
:1004C000C0F27D10854207D820680122816862F35E
:1004D00009218160B0BD00BF20684FF28101C0F2E8
:1004E000FA218D42816805D8022262F309218160D8
:1004F000B0BD00BF41F440718160B0BD2D09BCE7C3
:100500006D09BAE7AD09B8E7ED09B6E72D0AB4E71A
:1005100070B5044600688268836802F0040203F044
:100520000803D2186CD0C268920121D5627D012ADD
:100530001ED1227D012A1BD10168490613D44DF634
:100540000441C0F20C01043950D0026852065CBF6D
:1005500002685FEA426206D4026852065CBF026823
:100560005FEA4262EFD540210160012106E000BF51
:10057000022903D10221082612E000BF8268520737
:100580000AD58268920707D44FF6C0738268C7F60F
:10059000FF731A401032826001294FF0040610D018
:1005A000826812070AD58268920707D44FF6C07393
:1005B0008268C7F6FF731A4020328260032908BFA1
:1005C0000C2602F0EDFF21688968314218D00546FB
:1005D00003E000BF8068304212D002F0E1FF401B10
:1005E00006282068F6D381683142F3D0606D40F070
:1005F00010006065A06D40F00100A065012070BD95
:10060000002070BD000000000146806B426D12F0BA
:10061000500F426D06D0D20610D4C06CC26C084692
:10062000104700BF42F40071416501680A68120773
:10063000CA6805D4910709D000F01ABD00F03CBD8E
:1006400012F4406FF8D1C9688904F5D4416D21F4E2
:1006500080714165416DC904EED4416D41F00101E5
:10066000416500F005BD0000806B416D41F0400127
:100670004165816D41F00401816500F01DBD000000
:10068000806B00F015BD0000F0B581B00446006835
:100690008168C90752D14FF6C0778168C7F6FF77E6
:1006A00007F17F0211420BD0606D40F010006065D1
:1006B000A06D40F00100A065012001B0F0BD00BFB9
:1006C0008168394041F00101816002F069FF42F226
:1006D000000246F20836C4F20202216802F5807375
:1006E00002F54275C5F60206994208BF2E469142B0
:1006F0000A4608BF2E469942054604BF42F2000250
:10070000C4F2020230688A4218BF10F01F0015D1EF
:100710000868C00712D18868C00704D188683840CB
:1007200040F00100886002F03BFF401B2168032875
:10073000EED30868C007EBD1B6E700BF002001B0D8
:10074000F0BD00000000000041F29C50C2F20040E9
:1007500000F0B6BC00000000FEE700000000000052
:1007600041F20060C2F2004001F0EABC000000006B
:1007700040F20F42D0F800C0C4F20202944511DCEE
:100780006F22C4F20202944522DC3F22C4F202022C
:10079000944539DC1022C4F2020294455AD0282232
:1007A00054E000BF40F26F42C4F2020294451BDCE9
:1007B00040F23F42C4F2020294452DDC40F2104266
:1007C000C4F20202944545D040F228423EE000BF08
:1007D0009F22C4F20202944528DC7022C4F2020275
:1007E000944537D0882231E040F29F42C4F20202A1
:1007F000944523DC40F27042C4F20202944529D0B1
:1008000040F2884222E000BF4022C4F20202944536
:1008100020D058221AE000BF40F24042C4F2020247
:10082000944517D040F2584210E000BFA022C4F215
:10083000020294450ED0B82208E000BF40F2B84250
:10084000C4F20202944505D040F2A042C4F2020272
:10085000944519D16FF00F024AF6AB2352FA8CF28D
:10086000CAF6AA23A2FB03310AA35F2AC1F302112D
:100870005B5C40F2FF312CEA0101C36588BF0431A3
:1008800081650846704700BF2CF0FF01816508466E
:10089000704700BF0006101600061016000000008A
:1008A00070B540F26F44D0F800C0C4F20204D0F832
:1008B00058E0A4451ADC9F25C4F20205AC4533DCA0
:1008C0005725C4F20205AC455ADC1025C4F20205D6
:1008D000AC4500F098802825C4F20205AC4500F034
:1008E00092804025C4F202058AE000BF45F22F4500
:1008F000C5F60205AC452DDC40F2B745C4F2020551
:10090000AC454BDC40F27045C4F20205AC457AD0F0
:1009100040F28845C4F20205AC4574D040F2A045CF
:10092000C4F202056CE000BF40F22745C4F20205A4
:10093000AC4543DCA025C4F20205AC4563D0B82524
:10094000C4F20205AC455ED040F21045C4F2020587
:1009500056E000BF45F26B45C5F60205AC453FDCED
:1009600045F23045C5F60205AC454CD045F244454C
:10097000C5F60205AC4546D045F258453EE000BFFD
:100980005825C4F20205AC453DD07025C4F20205DD
:10099000AC4538D08825C4F2020531E040F2B845B4
:1009A000C4F20205AC452ED045F20845C5F6020555
:1009B000AC4528D045F21C4520E000BF40F2284558
:1009C000C4F20205AC451ED040F24045C4F2020517
:1009D000AC4518D040F25845C4F2020510E000BF03
:1009E00045F26C45C5F60205AC450CD045F2944580
:1009F000C5F60205AC4506D045F28045C5F60205B0
:100A0000AC4540F0CF80456EC66E002E866E6E609F
:100A10001CBFD0E91C566E60A44515DC9F24C4F2AF
:100A20000204A4452CDC5724C4F20204A44551DC82
:100A30001024C4F20204A4457AD02824C4F202048B
:100A4000A44575D040246FE045F22F44C5F602045A
:100A5000A44529DC40F2B744C4F20204A44545DCB5
:100A600040F27044C4F20204A44561D040F28844CC
:100A7000C4F20204A4455BD040F2A04454E000BF9D
:100A800040F22744C4F20204A4453FDCA024C4F28F
:100A90000204A4454CD0B824C4F20204A44547D0B3
:100AA00040F2104440E000BF45F26B44C5F602043A
:100AB000A44553DC45F23044C5F60204A4455FD09A
:100AC00045F24444C5F60204A44559D045F25844C1
:100AD00052E000BF5824C4F20204A44528D0702478
:100AE000C4F20204A44523D088241DE040F2B84497
:100AF000C4F20204A4451BD045F20844C5F6020422
:100B0000A4453DD045F21C4436E000BF40F22844E5
:100B1000C4F20204A4450BD040F24044C4F20204E3
:100B2000A44505D040F25844C4F20204A44539D18A
:100B30008468C06D00F01F003F2505FA00F0CEF874
:100B40000800DCF80000402C20F48020CCF80000E5
:100B5000CCF8043021D1CCF8082021E045F26C44D7
:100B6000C5F60204A4450BD045F28044C5F6020444
:100B7000A44505D045F29444C5F60204A44511D11C
:100B8000C46D806804F01F040125402805FA04F4B0
:100B9000CEF80440CCF80430DDD0CCF80810114673
:100BA000CCF80C1070BD0000704700000000000081
:100BB000EFF3108072B600BFFEE7000000000000F7
:100BC00070470000000000007047000000000000B7
:100BD00070470000000000007047000000000000A7
:100BE0007047000000000000B0B582B090F85020BF
:100BF000012A03D10221084602B0B0BD42F20832F8
:100C000000230193C4F202020093A2F54274036828
:100C1000A34227D14FF6006C4FF60055CFF6FF7C6C
:100C2000CFF6FF7552F80C40535923435B0719D494
:100C3000D1F800E01368BEF1000F23F440441DD04A
:100C40004B6823431360535952F80C502B43DB0776
:100C500022D1136840F61F758968AB4341EA0E0143
:100C6000194316E0416D41F0200141650121002248
:100C700080F85020084602B0B0BD00BF1460515942
:100C800052F80C301943C90708D1116840F61F7398
:100C9000994311600021EAE70021E8E70021E6E737
:100CA000F0B581B00022009290F85020012A03D1C3
:100CB0000221084601B0F0BD0768012380F85030DA
:100CC000BC68640700F170810C68250394FAA4F2F3
:100CD000B2FA82F208BFA20EC4F384644D6802F037
:100CE0001F02C5F3012603FA02F2FB691A43FA61F7
:100CF00007EB860205F01F031F26156B9E4025EAB1
:100D0000060604FA03F333431363BA68BB6802F0C0
:100D1000040203F00803D21878D10A6807258E6808
:100D2000C2F34063C2F3045207EB830395405C694E
:100D300006FA02F224EA05052A435A6141F200024A
:100D4000C5F60042126802F07042B2F1805F33D102
:100D50004A69FB680E2606EA530302FA03F30C699C
:100D6000042C39D007F160020E6806F0F84652F8FC
:100D70002450334305F000452B4342F824300B69DF
:100D80004E7E52F82350012E25F0004508BF05F194
:100D9000004542F823500A7E0B693E69013A03F090
:100DA0001F03B2FA82F226F4F0465209D2029A40A8
:100DB00032433A612AE000BFFA684B69FE68D20606
:100DC0004FEA560402D404F00E0201E004F00802D7
:100DD00093400C69042CC5D13A6E0B6802F0F842BE
:100DE0009B069A4244D07A6E02F0F8429A4248D06A
:100DF000BA6E02F0F8429A424CD0FA6E02F0F84213
:100E00009A4203D1FA6E22F00042FA66BA68D2071B
:100E10002CD14FF6FF7CCE68C0F20F0C0B6806F0A9
:100E2000180203EA0C042CFA02F240F2000CD7F884
:100E3000C050C4F2FF7CA5431A40664542EA050251
:100E4000C7F8C02056D17CB393FAA3F2B2FA82F26B
:100E5000013202F01E03092B02F01F032DD80122DC
:100E600003EB43069A4042EA065332E00021A0E039
:100E70003A6E22F000423A667A6E02F0F8429A42E6
:100E8000B6D17A6E22F000427A66BA6E02F0F8426B
:100E90009A42B2D1BA6E22F00042BA66FA6E02F0FD
:100EA000F8429A42AED0B1E7012202EB936202F01F
:100EB0001E030A2B02F01F03D1D3012203EB4306CA
:100EC0009A400023CFF6206303EB06531A4342F007
:100ED0000073C3F340620725C3F304538E6807EB26
:100EE00082029D40546906FA03F324EA05052B4368
:100EF00053610B68B3F1FF3F02DD002159E000BFF1
:100F000042F2000146F2083CC4F20201C5F6020CAE
:100F100001F5807201F542769742624608BF32467B
:100F20008F4242F2001508BF324647F48076C4F281
:100F30000205AE4214682FD18A68D1F80811114316
:100F4000C90731D1002104F0E07ECCF684318B4218
:100F500008BF14F4000133D00021CCF252718B424F
:100F600008BF14F0807131D00021CCF6B8718B42EB
:100F70004FF000011DD114F4800204BFACF54272A1
:100F8000974216D1DCF8001021F0E07141EA0E0121
:100F900041F480015EE000BF4FF60051CFF6FF71D3
:100FA0005CF80110C907CDD0416D41F020014165C9
:100FB0000121002280F85020084601B0F0BD00BF9A
:100FC000ACF542718F4207D00021F2E7ACF54271D7
:100FD0008F4237D00021ECE7DCF8001042F6635274
:100FE00021F0E071C0F23E5241EA0E0141F40001ED
:100FF000CCF8001040F21001C2F2004109688909E2
:10100000A1FB02129109022202EB41010091009919
:1010100021B3009901390091009909B30099013970
:1010200000910099F1B10099013900910099D9B16D
:10103000009901390091009900294FF00001E8D191
:10104000B7E700BFDCF8001021F0E07141EA0E01C3
:1010500041F08071CCF800100021AAE70021A8E738
:101060000021A6E70021A4E70021A2E7000000007C
:1010700080B542F200010068C4F20201884218BF44
:1010800080BD40F2F8500121C2F20040017041F2EF
:101090007860C2F2004004F0EBFB41F29C50C2F2D7
:1010A0000040BDE8804000F0ABBB00000000000045
:1010B00070470000000000007047000000000000C2
:1010C0002DE9F04F81B046F2083942F20002C5F630
:1010D0000209C4F202020446006802F5807A02F5B1
:1010E000427B4946504508BF5946904208BF594681
:1010F00006684568B2070F680FD515F002010CD0DD
:10110000606DC00603D4606D40F4006060652046E9
:10111000FFF756FD206802210160710707F01F08E4
:1011200002D515F0040104D131074DD515F00801A1
:101130004AD0214651F8542FD20603D40A6842F40B
:1011400000720A60C26812F4406F37D142F20003A5
:101150000246C4F20203504508BF1A46B8F1090F0F
:10116000134608BF0346B8F1050F08BF0346B8F1A0
:10117000000F08BF0346824208BF1346DA68920494
:101180001CD40268120719D5826852070CD4426831
:1011900022F00C024260086820F480700860086841
:1011A000C00407D50AE000BF606D04F1580140F0AB
:1011B00010006065086840F0010008602046FFF7F5
:1011C00057FF20680C210160B10602D515F02001FF
:1011D00004D1710656D515F0400153D0214651F87F
:1011E000542FD20603D40A6842F400520A6042F235
:1011F00000020346C4F20202504508BF1346B8F18C
:10120000070F1A4608BF0246B8F1060F08BF02468C
:10121000B8F1000F08BF0246834208BF1A46C36CEC
:1012200013F4C07FC368D26807D0970124D413F4A5
:10123000406308BF12F400531ED103685B061BD540
:1012400012F4001218D1826812070BD4426822F0FF
:1012500060024260086820F4805008600868C00599
:1012600006D509E0606D04F1580140F0100060659A
:10127000086840F0010008602046FFF7A5FC2068E0
:101280006021016031060CD515F0800109D0606D38
:1012900040F480306065204600F0A6F92068802187
:1012A0000160F1050DD515F480710AD0606D40F430
:1012B000003060652046FFF78FFC20684FF4807196
:1012C0000160B1050DD515F400710AD0606D40F4D0
:1012D000802060652046FFF783FC20684FF4007192
:1012E0000160F10624D515F0100121D0216B89B1E0
:1012F000B8F1000F36D042F20001504508BFD94680
:10130000C4F20201884208BFD946D9F8001011F48E
:10131000404F0BD0606D40F480606065A06D40F080
:101320000200A0652046FFF7C7FE2068102101607B
:10133000710513D515F4806110D0616D41F48041C1
:101340006165A16D41F00801A1654FF48061016004
:10135000204601B0BDE8F04FFFF73ABC01B0BDE850
:10136000F08F00BFC1688907D4D1DFE7000000001B
:10137000B0B582B0044600284FF00000019009D0BB
:10138000606D58B120688168890012D48168C900F5
:1013900019D54AE00125284602B0B0BD204600F02C
:1013A00027F90020A06584F8500020688168890032
:1013B000ECD54FF6C0728168C5F6FF7211408160AE
:1013C0008168C90031D44FF6C0718268C5F6FF71DB
:1013D00001F18051114042F6635201F18051816068
:1013E00040F21001C0F23E52C2F200410968890980
:1013F000A1FB0212012101EB921101E001990139D7
:101400000191019989B1019901390191019961B164
:10141000019901390191019900291FBF01990139F1
:101420000191019918BF0029E8D18168C90009D448
:10143000616D012541F010016165A16D41F001016F
:10144000A16500E000258168626D02F0100201F0E4
:1014500004018918616D45D121F481710231616502
:101460008168C90728D142F2001240F48071C4F2A9
:101470000202914242F20001C4F2020140F0A8804F
:101480008A68D1F808311A43D20715D101F5807264
:1014900001F5427346F2080C9042C5F6020C1A465A
:1014A00018BF0CF54072884208BF1A466068116880
:1014B00021F47C110843106002F06AF8617D41F26A
:1014C0000402A36890424FEA4131226B12D3102BE1
:1014D00010D1207F114341EA004141F01C01012855
:1014E0000FD015E041F0100001256065284602B0DC
:1014F000B0BD00BF207F1143194341EA00410128DC
:1015000006D1206A0022CFF6FE7202EB4040014372
:10151000606A28B100F47870A26A084340EA0201C8
:1015200020684CF20303CFF6F073C2681A401143EF
:10153000C1608168826801F0040102F00802891824
:1015400032D1217D44F2030CE26AC36842EA813160
:1015500023EA0C021143C16094F838100129016993
:1015600016D14FF61E02CFF6004201EA020C00210E
:10157000D4E90F23CFF6FF7101EB02414CEA0302DD
:10158000636C1143A26C1943114341F0010101E066
:1015900021F0010101610169626B21F07041114389
:1015A00001612046FEF720FF2068E1680129026BF7
:1015B00022F00F0102D1A269013A11430163012116
:1015C000606D61F301006065284602B0B0BD00BFE8
:1015D00046F20802C5F602021268D2073FF456AF7F
:1015E0006AE70000000000007047000000000000F3
:1015F00070B5B6B0044602A80430B8210025359570
:101600003495FEF79DFE42F200012068C4F202010B
:10161000884201D036B070BD4FF4002002901920EE
:101620000B90C8200C900A200F90CDE90D004FF4CC
:1016300080302A9002A8119502F096FC08B1FFF7BD
:10164000B7FA44F2D8400026C5F60200016841F01E
:1016500020010160016801F0200101910199816878
:1016600041F002018160806831A900F00200019020
:101670000198022031900320329040F20040C5F6DC
:101680000200339601F090FE41F200651020C2F294
:101690000045C4F2020028600920C5E901064FF4A4
:1016A000806028614FF4805068614FF48040EE60A4
:1016B000C5E906062846C5E9086601F059F908B1EA
:1016C000FFF776FA122003210222E564AC6302F0F0
:1016D0000FF8122001F0FCFF36B070BD00000000D2
:1016E0002DE9F04381B042F2000746F20836C4F219
:1016F00002070446036807F5807507F54270C5F6D2
:101700000206AB4208BF0646BB4208BF0646306829
:101710009B685B0704D4894694F85010012903D1D3
:10172000022001B0BDE8F08300F01F060120092E61
:1017300084F850005CD8B04040F22121084257D0D4
:1017400020469046FEF7A0FF30B1002184F85010EB
:1017500001B0BDE8F08300BF216840F60172A942E4
:1017600018BF0F46606D90438F4200F58070606532
:1017700018BF002E03D1606D20F480106065606D8D
:1017800040F20963C0044FF0000044BFA06D20F098
:10179000060040F28167C0F60003A065C0F60007AE
:1017A000E06C0022C0E90F3740F26963E76AC0F6D7
:1017B0000003C3641C230B6084F8502043464A682E
:1017C00042F010024A60CA6822F003023A43CA603B
:1017D00040314A4601F014FC21684FF6C073C7F649
:1017E000FF738A681A4004328A6001B0BDE8F08352
:1017F000002084F85000012001B0BDE8F083000013
:1018000070B5044690F85000012801D1022070BD47
:10181000012084F8500003212046FEF779FE05469A
:1018200020B1002084F85000284670BD2168E06C8B
:10183000CA6822F00302CA6090F83520022A40D11B
:1018400000F086F8E0B305462068616D41F0400184
:101850006165416821F01001416081688268D207AA
:10186000DFD011F00201DCD1816801F00D01012906
:101870001ED14FF6C0728168C7F6FF721140023167
:1018800081600321016001F08BFE21688968C9072E
:10189000C7D0064603E000BF8068C007C1D001F092
:1018A0007FFE801B03282068F6D38168C907F3D028
:1018B000606D40F010006065204650F8581F3FE012
:1018C0002168486820F01000486088688A68D2075C
:1018D00017D010F0020014D1886800F00D00012824
:1018E00026D14FF6C0728868C7F6FF7210400230EA
:1018F00088600320086001F053FE21688968C907E9
:1019000008D1204641F20112002550F8541F91439E
:1019100016E000BF054602E08068C007F1D001F084
:101920003FFE401B03282068F6D38168C907F3D027
:10193000606D012540F010006065204650F8581F8A
:1019400041F001010160002084F85000284670BD7C
:101950002DE9F041044601F023FE1CB3054694F83E
:101960003500022822D140F20F462768C4F2020651
:1019700040F26F48B7426FF00E00C4F202081DDC5F
:101980006F21C4F202018F422ADC3F21C4F202011E
:101990008F4241DC1021C4F202018F4263D0282122
:1019A0005CE000BF0120BDE8F08100BF80206065E1
:1019B000002084F834000120BDE8F08147451BDC9D
:1019C00040F23F41C4F202018F422DDC40F210414F
:1019D000C4F202018F4246D040F228413EE000BFEF
:1019E0009F21C4F202018F4228DC7021C4F202015F
:1019F0008F4238D0882131E040F29F41C4F2020189
:101A00008F4223DC40F27041C4F202018F422AD09F
:101A100040F2884122E000BF4021C4F202018F421F
:101A200021D058211AE000BF40F24041C4F2020127
:101A30008F4218D040F2584110E000BFA021C4F2FC
:101A400002018F420FD0B82108E000BF40F2B84138
:101A5000C4F202018F4206D040F2A041C4F202015A
:101A60008F42394607D13946386820F01E0041F8C8
:101A7000140B6FF080000A68474500EA0200086016
:101A80001ADC9F20C4F20200874233DC5720C4F2E4
:101A9000020087425ADC1020C4F20200874200F0A4
:101AA00097802820C4F20200874200F091804020F5
:101AB000C4F202008AE000BF45F22F40C5F60200E2
:101AC00087422DDC40F2B740C4F2020087424BDC73
:101AD00040F27040C4F20200874279D040F2884060
:101AE000C4F20200874273D040F2A040C4F2020068
:101AF0006CE000BF40F22740C4F20200874243DCA2
:101B0000A020C4F20200874262D0B820C4F20200D2
:101B100087425DD040F21040C4F2020056E000BFA0
:101B200045F26B40C5F6020087423FDC45F230408B
:101B3000C5F6020087424BD045F24440C5F602008C
:101B4000874245D045F258403EE000BF5820C4F2DD
:101B5000020087423CD07020C4F20200874237D096
:101B60008820C4F2020031E040F2B840C4F2020022
:101B700087422DD045F20840C5F60200874227D0A3
:101B800045F21C4020E000BF40F22840C4F20200B1
:101B900087421DD040F24040C4F20200874217D075
:101BA00040F25840C4F2020010E000BF45F26C4021
:101BB000C5F6020087420BD045F29440C5F60200FC
:101BC000874205D045F28040C5F60200874204D125
:101BD000206E016821F480710160386820F00100F6
:101BE000386000BF3868C00710D001F0D9FC401B36
:101BF0000628F7D320206065002084F834000320F5
:101C000084F835000120BDE8F08100BF2068B042B3
:101C100010DC6F21C4F2020188421DDC3F21C4F2B6
:101C20000201884234DC1021C4F20201884255D0FE
:101C300028214FE040451BDC40F23F41C4F2020145
:101C400088422DDC40F21041C4F20201884245D0A6
:101C500040F228413EE000BF9F21C4F202018842C9
:101C600028DC7021C4F20201884237D0882131E09B
:101C700040F29F41C4F20201884223DC40F27041ED
:101C8000C4F20201884229D040F2884122E000BF1C
:101C90004021C4F20201884220D058211AE000BF3E
:101CA00040F24041C4F20201884217D040F258414C
:101CB00010E000BFA021C4F2020188420ED0B8217A
:101CC00008E000BF40F2B841C4F20201884205D0EA
:101CD00040F2A041C4F2020188425BD1D4E916125D
:101CE00002F01F023F2303FA02F28A6040455BDCE8
:101CF0009F21C4F20201884214DC5721C4F2020180
:101D0000884227DC1021C4F20201884200F0A28040
:101D10002821C4F20201884200F09C804021C4F2D4
:101D2000020195E040F22741C4F2020188421FDC23
:101D3000A021C4F20201884200F08C80B821C4F2D4
:101D40000201884200F0868040F21041C4F2020194
:101D50007EE000BF5821C4F2020188427AD070218F
:101D6000C4F20201884275D08821C4F202016FE0FA
:101D700040F22841C4F2020188426BD040F2404157
:101D8000C4F20201884265D040F25841C4F2020117
:101D90005EE000BFD4E9161202F01F02012303FA2D
:101DA00002F24A604045A3DD45F22F41C5F602012B
:101DB000884217DC40F2B741C4F20201884227DCB6
:101DC00040F27041C4F20201884243D040F288419F
:101DD000C4F2020188423DD040F2A041C4F20201A7
:101DE00036E000BF45F26B41C5F6020188421FDCB8
:101DF00045F23041C5F6020188422BD045F24441FC
:101E0000C5F60201884225D045F258411EE000BFC8
:101E100040F2B841C4F2020188421BD045F20841A9
:101E2000C5F60201884215D045F21C410EE000BF04
:101E300045F26C41C5F6020188420BD045F294414F
:101E4000C5F60201884205D045F28041C5F602017F
:101E500088420BD1616EA26EE06E4A6030B10168BB
:101E600021F480710160D4E91C014160002084F8F4
:101E70003400012184F83510BDE8F0810000000035
:101E800080B5D8B190F83510022919D140F20F422F
:101E90000168C4F20202914216DC6F23C4F202030D
:101EA000994227DC3F23C4F2020399423EDC10230F
:101EB000C4F2020399425FD0282359E0012080BD7B
:101EC00080214165012080BD40F26F43C4F20203CE
:101ED00099421BDC40F23F43C4F2020399422DDCDD
:101EE00040F21043C4F20203994245D040F2284325
:101EF0003EE000BF9F23C4F20203994228DC702316
:101F0000C4F20203994237D0882331E040F29F4364
:101F1000C4F20203994223DC40F27043C4F202038C
:101F2000994229D040F2884322E000BF4023C4F206
:101F30000203994220D058231AE000BF40F24043E8
:101F4000C4F20203994217D040F2584310E000BF98
:101F5000A023C4F2020399420ED0B82308E000BFC8
:101F600040F2B843C4F20203994205D040F2A043C4
:101F7000C4F20203994275D191424FF0040280F8F5
:101F8000352011DC6F20C4F20200814222DC3F20A8
:101F9000C4F20200814239DC1020C4F20200814206
:101FA00059D0282054E000BF40F26F40C4F2020034
:101FB00081421BDC40F23F40C4F2020081422DDC32
:101FC00040F21040C4F20200814244D040F2284066
:101FD0003EE000BF9F20C4F20200814228DC702056
:101FE000C4F20200814236D0882031E040F29F40A6
:101FF000C4F20200814223DC40F27040C4F20200CD
:10200000814228D040F2884022E000BF4020C4F244
:10201000020081421FD058201AE000BF40F2404029
:10202000C4F20200814216D040F2584010E000BFD6
:10203000A020C4F2020081420DD0B82008E000BF09
:1020400040F2B840C4F20200814204D040F2A04005
:10205000C4F202008142086820F0010008600020FC
:1020600080BD00BF0A6822F00E020A6045F25742A6
:10207000C5F6020291420A6822F001020A600FDCF2
:1020800045F22F42C5F60202914219DC45F20842A0
:10209000C5F60202914229D045F21C4222E000BF5F
:1020A00045F27F42C5F60202914213DC45F25842E6
:1020B000C5F60202914219D045F26C4212E000BF0F
:1020C00045F23042C5F6020291420FD045F2444239
:1020D00008E000BF45F29442C5F60202914205D0E5
:1020E00045F28042C5F6020291421AD1D0E9181C8D
:1020F000D0E916E30A6822F480720A6003F01F0137
:10210000012202FA01F1CEF80410816ECCF804101D
:10211000C16E31B10A6822F480720A60D0E91C12E3
:102120004A60002180F83410012280F83520026DC9
:102130000AB190470021084680BD00000000000061
:102140002DE9F04782B00021019140F210010446D0
:10215000C2F2004148F2B512C1F64E32A56D0968CF
:1021600040F26F490068C4F20209A1FB0218484519
:102170002E68296816DC9F21C4F2020188422DDCFA
:102180005721C4F20201884252DC1021C4F202013C
:1021900088427CD02821C4F20201884277D04021B5
:1021A00070E000BF45F22F42C5F60202904229DCE2
:1021B00040F2B742C4F20202904245DC40F2704164
:1021C000C4F20201884262D040F28841C4F20201A6
:1021D00088425CD040F2A04154E000BF40F2274169
:1021E000C4F2020188423FDCA021C4F2020188420D
:1021F0004DD0B821C4F20201884248D040F21041CB
:1022000040E000BF45F26B42C5F60202904275DC29
:1022100045F23042C5F60202904200F0828045F25B
:102220004442C5F6020290427BD045F2584273E028
:102230005821C4F20201884229D07021C4F202015F
:10224000884224D088211DE040F2B842C4F2020244
:1022500090421CD045F20842C5F60202904260D07E
:1022600045F21C4258E000BF40F22841C4F202018E
:1022700088420CD040F24041C4F20201884206D0AC
:1022800040F25841C4F20201884240F05A83E16DA5
:10229000082201F01F0140F20F4A8A40C4F2020AEC
:1022A000324200F0E68050454FF0040312DC6F2705
:1022B000C4F20207B8426FDC3F27C4F20207B842FB
:1022C00000F3A4801027C4F20207B84200F0C580D2
:1022D0002827BDE048456BDC40F23F47C4F20207C7
:1022E000B84200F39B8040F21047C4F20207B842A4
:1022F00000F0B38040F22847AAE000BF45F26C42EC
:10230000C5F6020290420CD045F28042C5F60202A8
:10231000904206D045F29442C5F60202904240F047
:1023200010830268E36D03F01F0304279F400F42F0
:1023300018BF12F0040621D102279F400F4218BF98
:1023400012F002064CD1D940090740F1FA8212F08E
:10235000080100F0F682016821F00E010160012001
:1023600000FA03F169606065002184F8341084F894
:102370003500E16C002940F0DC82E2E211046F607C
:1023800026D4910603D4016821F004010160216C78
:10239000002940F0CE82D4E29F27C4F20207B8425F
:1023A00046DC7027C4F20207B84256D088274FE0B7
:1023B00040F29F47C4F20207B84241DC40F2704746
:1023C000C4F20207B84248D040F2884740E000BF5C
:1023D000D00300F1B382A16C002940F0AA82B0E2E0
:1023E00011046F6000F1B082910609D4016821F0F8
:1023F0000A010160002084F83400012084F83500CF
:10240000E16B002940F095829BE200BF4027C4F2B7
:102410000207B84221D058271AE000BF40F24047D7
:10242000C4F20207B84218D040F2584710E000BF8B
:10243000A027C4F20207B8420FD0B82708E000BFB7
:1024400040F2A047C4F20207B84206D040F2B847B3
:10245000C4F20207B84218BF082307681F4208D019
:10246000036823F004030360AA60626D42F0010276
:10247000626501228A4032426FD0504510DC6F23E2
:10248000C4F2020398421DDC3F23C4F202039842C7
:1024900034DC1023C4F20203984256D028234FE0C4
:1024A00048451BDC40F23F43C4F2020398422DDC56
:1024B00040F21043C4F20203984246D040F228434F
:1024C0003EE000BF9F23C4F20203984228DC702341
:1024D000C4F20203984238D0882331E040F29F438F
:1024E000C4F20203984223DC40F27043C4F20203B8
:1024F00098422AD040F2884322E000BF4023C4F231
:102500000203984221D058231AE000BF40F2404312
:10251000C4F20203984218D040F2584310E000BFC2
:10252000A023C4F2020398420FD0B82308E000BFF2
:1025300040F2A043C4F20203984206D040F2B843EE
:10254000C4F20203984240F0058243691B0604D599
:10255000AA60626D42F00202626504228A40324241
:102560006FD0504510DC6F23C4F2020398421DDC8B
:102570003F23C4F20203984234DC1023C4F2020366
:10258000984256D028234FE048451BDC40F23F4399
:10259000C4F2020398422DDC40F21043C4F202035D
:1025A000984246D040F228433EE000BF9F23C4F249
:1025B0000203984228DC7023C4F20203984238D008
:1025C000882331E040F29F43C4F20203984223DCA7
:1025D00040F27043C4F2020398422AD040F288438A
:1025E00022E000BF4023C4F20203984221D05823C6
:1025F0001AE000BF40F24043C4F20203984218D0F0
:1026000040F2584310E000BFA023C4F202039842F6
:102610000FD0B82308E000BF40F2A043C4F2020389
:10262000984206D040F2B843C4F20203984240F008
:10263000998103689B0704D5AA60626D42F0040289
:102640006265102202FA01F1314200F081805045AA
:102650004FF0080210DC6F23C4F2020398421DDC25
:102660003F23C4F20203984234DC1023C4F2020375
:10267000984256D028234FE048451BDC40F23F43A8
:10268000C4F2020398422DDC40F21043C4F202036C
:10269000984246D040F228433EE000BF9F23C4F258
:1026A0000203984228DC7023C4F20203984238D017
:1026B000882331E040F29F43C4F20203984223DCB6
:1026C00040F27043C4F2020398422AD040F2884399
:1026D00022E000BF4023C4F20203984221D05823D5
:1026E0001AE000BF40F24043C4F20203984218D0FF
:1026F00040F2584310E000BFA023C4F20203984206
:102700000FD0B82308E000BF40F2A043C4F2020398
:10271000984206D040F2B843C4F20203984218BF70
:1027200004220368134213D0A960016849030168B9
:1027300008D4C90508D4016821F008010160216CA2
:1027400021B905E008034FD4216C09B12046884720
:10275000E06D00F01F01202000FA01F2324200F08B
:10276000AB8020681023504510DC6F27C4F20207AD
:10277000B8421DDC3F27C4F20207B84238DC1027FC
:10278000C4F20207B8425AD0282753E048451BDC60
:1027900040F23F47C4F20207B84231DC40F2104732
:1027A000C4F20207B8424AD040F2284742E000BFD4
:1027B0009F27C4F20207B8422CDC7027C4F202073C
:1027C000B8423CD0882735E040F29F47C4F2020768
:1027D000B84227DC40F27047C4F20207B8422ED05C
:1027E00040F2884726E000BFA16C0029AED1AFE7D8
:1027F0004027C4F20207B84221D058271AE000BF90
:1028000040F24047C4F20207B84218D040F258479D
:1028100010E000BFA027C4F20207B8420FD0B827CB
:1028200008E000BF40F2A047C4F20207B84206D059
:1028300040F2B847C4F20207B84218BF0223076843
:102840001F4239D0AA6094F83520042A02681BD1AF
:1028500022F016020260426922F080024261226C7C
:102860000AB9A26C1AB1026822F0080202603F2085
:102870008840A860002084F83400012084F83500E6
:10288000216D002955D15CE0510301680CD4C905C4
:102890000ED4016821F010010160002084F834009A
:1028A000012084F8350003E0080301D4616C00E0E6
:1028B000E16B09B120468847606D002841D0606D0A
:1028C000C00734D0042084F8350020684FEA9821EE
:1028D000026822F001020260019A013201928A42EA
:1028E0001AD80268D20717D0019A013201928A429F
:1028F00012D80268D2070FD0019A013201928A429F
:102900000AD80268D20707D0019A013201928A429E
:1029100002D80268D207DFD1002184F834100068A1
:10292000C0074FF0030008BF012084F83500E16CB8
:1029300039B1204602B0BDE8F0470847216C0029B4
:10294000F7D102B0BDE8F087D0030DD4616C002947
:10295000EFD1F6E7026804228A4032427FF401AEEA
:102960006FE600BF02686CE6E16B0029E1D1E8E7A1
:10297000F0B581B0044600F013FE002C00F0178182
:1029800040F26F4705462068C4F20207B84217DCE0
:102990009F21C4F2020188422EDC5721C4F20201B9
:1029A000884255DC1021C4F20201884200F07F8089
:1029B0002821C4F20201884279D0402172E000BF90
:1029C00045F22F41C5F60201884229DC40F2B741A9
:1029D000C4F20201884247DC40F27041C4F20201B5
:1029E000884264D040F28841C4F2020188425ED03D
:1029F00040F2A04156E000BF40F22741C4F202017C
:102A0000884241DCA021C4F2020188424FD0B821A3
:102A1000C4F2020188424AD040F2104142E000BFB5
:102A200045F26B41C5F60201884200F3C38045F2CE
:102A30003041C5F60201884200F0CF8045F24441A2
:102A4000C5F60201884200F0C88045F25841BFE057
:102A50005821C4F20201884229D07021C4F2020137
:102A6000884224D088211DE040F2B841C4F202011E
:102A700088421CD045F20841C5F60201884200F0A8
:102A8000AC8045F21C41A3E040F22841C4F20201AF
:102A900088420CD040F24041C4F20201884206D084
:102AA00040F25841C4F20201884240F07182002194
:102AB00084F83410022184F83510016821F00101F6
:102AC00001600168C90709D000F06AFD401B0528B4
:102AD00000F2688020680168C907F5D148F23F021A
:102AE00004F108060168CFF6106211406CCE114364
:102AF000A2691943E3692943256A0E43616A1643B3
:102B0000042943EA060343EA050303D1D4E90B652C
:102B100033432B4341F20006C5F600463668B6F152
:102B2000005F1DD36668A6F12905292D18D8DFE8B6
:102B300005F015151515151517171717171717176A
:102B4000171717171717171715151515171717171D
:102B500015151717171717171515151543F48013A3
:102B600003600429436923F0070341EA030140F0AD
:102B7000F180D4E90A53002B41EA050100F0EA8014
:102B8000B2F5005F00F0CC80002A40F0D580022D25
:102B900000F0D580012D00F0C980002D00F0CF801D
:102BA000D8E000BF20206065032084F835000120B4
:102BB00001B0F0BD45F26C41C5F6020188420CD06F
:102BC00045F28041C5F60201884206D045F29441A3
:102BD000C5F60201884240F0DB81002184F8341000
:102BE000022184F835100168A268A2F18003E6682A
:102BF000B3FA83F3402A4FEA53134FEA83336FF358
:102C0000101108BF1023226941EAD60166691943F1
:102C1000A36941EAD201E26941EAD60141EAD3015E
:102C20004CF6CD4341EAD2014AF6F832CAF2FD72BF
:102C3000266A0244CCF6CC43A2FB032341EA1611D8
:102C400001606FF0030000EA9300E0652046FDF7A5
:102C50008FFDE16D012201F01F0102FA01F14160D7
:102C60002068B84240F3858045F22F41C5F6020145
:102C7000884217DC40F2B741C4F20201884229DCE5
:102C800040F27041C4F20201884200F0BC8040F280
:102C90008841C4F20201884200F0B58040F2A041B0
:102CA000ACE000BF45F26B41C5F60201884223DC6F
:102CB00045F23041C5F60201884200F0A48045F299
:102CC0004441C5F60201884200F09D8045F258411A
:102CD00022E000BF40F2B841C4F20201884200F095
:102CE000928045F20841C5F60201884200F08B80CF
:102CF00045F21C4110E000BF45F26C41C5F60201EF
:102D0000884200F0808045F29441C5F60201884275
:102D100000F0798045F28041C5F6020170E000BF05
:102D2000032D17D8DFE805F00E0B0E02A3F1C072D9
:102D3000B2FA82F2520904E0032D03D30AD1C3F39D
:102D400000623AB140206065012084F8350001B08E
:102D5000F0BD00BF41612046FDF70AFDE16D3F2255
:102D600001F01F0102FA01F181602068B8423FF7CB
:102D70007BAF9F21C4F20201884211DC5721C4F2CB
:102D80000201884220DC1021C4F2020188423AD0BC
:102D90002821C4F20201884235D040212EE000BF34
:102DA00040F22741C4F20201884219DCA021C4F29A
:102DB0000201884227D0B821C4F20201884222D001
:102DC00040F210411AE000BF5821C4F202018842CB
:102DD00019D07021C4F20201884214D088210DE07C
:102DE00040F22841C4F2020188420CD040F2404136
:102DF000C4F20201884206D040F25841C4F20201F6
:102E0000884240F0E98045F2574C45F6FC01C5F692
:102E1000020CC5F60201604512DC45F22F42C5F6F0
:102E20000202904220DC45F20842C5F602029042BE
:102E300034D045F21C42C5F6020290422ED075E015
:102E400045F27F42C5F6020290421BDC45F2584231
:102E5000C5F60202904221D045F26C42C5F602024C
:102E600090421BD062E000BF45F23042C5F602023C
:102E7000904213D045F24442C5F6020290420DD072
:102E800054E000BF45F29442C5F60202904205D0DC
:102E900045F28042C5F60202904247D16FF0070228
:102EA0004CF6CD4352FA80F2CCF6CC43A2FB03237E
:102EB000A1F1FC05A1F17C061B0905EB830503F0DC
:102EC0001F02A3682566802B4FF0010303FA02F26C
:102ED0006666A26604D100206060286072601DE012
:102EE0006768FBB2013F072F2B60726016D85E1E29
:102EF000082E19D2604501F1440239DC45F22F4712
:102F0000C5F60207B84245DC45F20847C5F6020798
:102F1000B84255D045F21C474EE000BF0020606724
:102F2000C4E91B0058E000BFE06E50E06FF00F02F4
:102F30004AF6AB2352FA80F2CAF6AA23A2FB032771
:102F400040F20F43C4F2020308253A09984203F104
:102F5000AA06134688BF05EB171340F60005B042DA
:102F6000C4F2020505F1800628BF1346A5E700BF9D
:102F700045F27F47C5F60207B84215DC45F25847CF
:102F8000C5F60207B8421BD045F26C4714E000BFFB
:102F9000402008E645F23047C5F60207B8420FD098
:102FA00045F2444708E000BF45F28047C5F60207F6
:102FB000B84205D045F29447C5F60207B84213D18E
:102FC00001EB83000121E066B140226761670021C7
:102FD0000160D4E91C01416000206065012184F892
:102FE000351001B0F0BD00BF40F60000C4F2020091
:102FF00000F1FC0100F5A072E2E700000000000013
:10300000B0B500283CD0054690F83400012801D125
:103010000220B0BD012085F8340095F83500012864
:1030200028D1022085F835000020686528680468EA
:1030300024F0010404602846FDF732FC40F20F4200
:103040002868C4F2020240F26F419042C4F20201C9
:1030500018DC6F23C4F20203984225DC3F23C4F23C
:10306000020398423CDC1023C4F2020398425ED073
:10307000282357E0002085F834004FF4006068658D
:103080000120B0BD88421BDC40F23F43C4F2020382
:1030900098422DDC40F21043C4F20203984246D01D
:1030A00040F228433EE000BF9F23C4F2020398424F
:1030B00028DC7023C4F20203984238D0882331E020
:1030C00040F29F43C4F20203984223DC40F2704373
:1030D000C4F2020398422AD040F2884322E000BFA3
:1030E0004023C4F20203984221D058231AE000BFC3
:1030F00040F24043C4F20203984218D040F25843D1
:1031000010E000BFA023C4F2020398420FD0B823FE
:1031100008E000BF40F2B843C4F20203984206D070
:1031200040F2A043C4F20203984240F02F810368AA
:103130000B2464F3440303602B6C1BB10823046865
:1031400023430360884219DC9F23C4F202039842A0
:1031500032DC5723C4F20203984259DC1023C4F234
:103160000203984200F096802823C4F2020398429A
:1031700000F090804023C4F2020389E045F22F431F
:10318000C5F6020398422DDC40F2B743C4F20203B5
:1031900098424BDC40F27043C4F20203984279D06B
:1031A00040F28843C4F20203984273D040F2A04335
:1031B000C4F202036CE000BF40F22743C4F20203F2
:1031C000984243DCA023C4F20203984262D0B823A1
:1031D000C4F2020398425DD040F21043C4F20203ED
:1031E00056E000BF45F26B43C5F6020398423FDC50
:1031F00045F23043C5F6020398424BD045F24443B2
:10320000C5F60203984245D045F258433EE000BF60
:103210005823C4F2020398423CD07023C4F2020344
:10322000984237D08823C4F2020331E040F2B84319
:10323000C4F2020398422DD045F20843C5F60203BA
:10324000984227D045F21C4320E000BF40F22843BB
:10325000C4F2020398421DD040F24043C4F202037C
:10326000984217D040F25843C4F2020310E000BF66
:1032700045F26C43C5F6020398420BD045F29443E5
:10328000C5F60203984205D045F28043C5F6020315
:10329000984274D12B6E1C68E40303D51C6844F477
:1032A00080741C60EB6E1BB11D6845F480751D6059
:1032B000904211DC6F21C4F2020188421EDC3F21E2
:1032C000C4F20201884235DC1021C4F202018842B6
:1032D00055D0282150E000BF88421BDC40F23F411E
:1032E000C4F2020188422DDC40F21041C4F2020116
:1032F000884244D040F228413EE000BF9F21C4F202
:103300000201884228DC7021C4F20201884236D0D2
:10331000882131E040F29F41C4F20201884223DC5F
:1033200040F27041C4F20201884228D040F2884144
:1033300022E000BF4021C4F2020188421FD0582180
:103340001AE000BF40F24041C4F20201884216D0A8
:1033500040F2584110E000BFA021C4F202018842AF
:103360000DD0B82108E000BF40F2B841C4F202011C
:10337000884204D040F2A041C4F2020188420168B0
:1033800041F0010101600020B0BD00BF03680524C9
:1033900064F3430303602B6C002B3FF4D3AE042390
:1033A000CDE60000000000002DE9F04F86B08C460D
:1033B00042F20042C5F602020A2102909042DCF875
:1033C000007008BF0921002F009100F0DD800298F5
:1033D0004FF0000900F12642009902F1FF72012628
:1033E0004FEAB2224FF0000A092A4FF0000838BF16
:1033F00011460122CDF804C000910DE0DCF8007008
:1034000008F1010837FA06F10AF1020A06F101068D
:1034100009F1040900F0B880701E02FA00FE17EAF4
:103420000E01EBD0DCF804B00491BBF1120F00F2F6
:10343000A38002FA0BF717F0061F00F09D80029C94
:10344000032101FA0AF3A268DCF80C709A43D9430D
:1034500007FA0AF31A43A26062684FEA1B134FEAA5
:10346000480522EA0E0283401A4362604BF01003C3
:10347000E268122BDCF8083002EA010203FA05F3D5
:10348000039142EA0302E26014D16FF0030109F0F4
:103490001C0701EA50020F212244B940D2F820E073
:1034A000DCF810302EEA0101BB40029C1943116286
:1034B000DCF804B00BF003012268039BA9401A401A
:1034C0005FEACB0341EA02012160DDF804C04FF05E
:1034D0000102049C92D544F2F44240F2084EC5F633
:1034E0000202C5F6000E0F27116841F002011160BB
:1034F000116801F00201059120F00301059A09F01D
:103500000C024FF0B04051F80E309740BB43009F83
:1035100007FA02F21A4341F80E2040F2040EC5F6F3
:10352000000EDEF87C10DCF8042041EA0403D70327
:1035300058BF21EA04039703CEF87C30DEF88010F0
:1035400041EA040358BF21EA0403D702CEF88030D1
:10355000016841EA040358BF21EA040392024FF0D4
:1035600001020360DEF8001041EA040358BF21EABB
:103570000403CEF8003041E70321554601FA0AF76B
:10358000029CF94372E700BF06B0BDE8F08F00006F
:1035900041F20000C5F600400068000C70470000D2
:1035A00041F25470C2F20040006870470000000011
:1035B00040F2080041F25471C2F20040C2F20041F0
:1035C00000780A681044086070470000000000009E
:1035D00080B5032000F0BCF801F0B6FC44F21841BD
:1035E00048F20E13C5F60201C0F600030A68096826
:1035F00001F00F01C2F30322595C9A5C01F01F0134
:1036000002F01F02D04040F21402C2F2004220FA3F
:1036100001F1116040F21001C2F200410860032084
:1036200000F00AF800281CBF012080BD00F02CF833
:10363000002080BD0000000070B540F20806C2F214
:1036400000463178E1B1044640F21000C2F2004079
:103650004FF47A72B2FBF1F10068B0FBF1F001F0C7
:103660008BFF0F2C4FF0010508D838B94FF0FF3011
:1036700000222146002500F03BF87460284670BD0A
:10368000012070BD0000000010B582B044F2F44487
:10369000C5F60204206840F002002060206800F0B7
:1036A000020001900198052000F052F8206840F4D3
:1036B00000402060206800F400400090009801F075
:1036C00043FF022002B0BDE8104001F049BF0000F6
:1036D000002848BF704700F01F01012202FA01F1E3
:1036E0004EF200124009CEF2000242F8201070475C
:1036F000B0B54EF60C5C00F00F05CEF2000C043DA8
:103700006544DCF800304FF0FF3CC3F3022E8EF02E
:103710000703042B28BF0423BEF1030438BF002491
:103720000CFA03F3B0F1FF3F21EA030105F10C03AA
:1037300000F160450CFA04F0C8BF05F56443A140F0
:1037400022EA0000084300011870B0BD000000002C
:103750004EF60C514FF6FF03CEF200010A681A40F4
:1037600060F30A2242F0806040F0FD70086070470C
:10377000B0B544F60C05C5F6020529684907296865
:1037800006D401F00701081A18BF0120B0BD00BF20
:1037900021F0070108432860FFF702FF044600BF3D
:1037A00055F8080C800407D4FFF7FAFE001BB0F5AB
:1037B0007A7FF5D90120B0BD0020B0BD0000000027
:1037C00080B501F039FB44F2204148F20E12C5F6F3
:1037D0000201C0F600020968C1F30211515C01F058
:1037E0001F01C84080BD000080B544F2304EC5F6D0
:1037F000020E5EF8083C5EF8081CC1F3051C5EF87A
:10380000041CBCF1000FDEF8042017D0C2F3CC0278
:1038100001F00101514303F00303022B00EE101AE3
:10382000B8EE400A10D0012B12D01BB95EF8301C44
:10383000890611D49FED361A1CE000BF002181607B
:10384000C0E9001180BD00BF9FED301A12E000BF3B
:103850009FED2D1A0EE000BF5EF8301C49F2000209
:10386000C0F2D032C1F3C10122FA01F101EE101A07
:10387000B8EE411ADEF800109FED263A6FF35F2193
:1038800002EE101ADEF80010C1F34621B8EE422A0B
:1038900000EE032A00EE10CAB7EE003AB8EE400A76
:1038A00081EE000A32EE031A02EE101AB8EE422A36
:1038B00020EE010A32EE031A80EE011ABCEEC11AA4
:1038C00080ED001ADEF80010C1F3064101EE101A77
:1038D000B8EE411A31EE031A80EE011ABCEEC11A9D
:1038E00080ED011ADEF80010C1F3066101EE101A36
:1038F000B8EE411A31EE031A80EE010ABCEEC00A9E
:1039000010EE101A816080BD0024744A20BCBE4BAA
:103910000024744C0000003980B544F2384EC5F6DE
:10392000020E5EF8103C5EF8101CC1F3053C5EF818
:103930000C1CBCF1000FDEF8042015D0C1F30011FF
:10394000C2F3CC02514300EE101A03F00301022926
:10395000B8EE400A0ED089B95EF8381C890611D439
:103960009FED361A1CE000BF00218160C0E9001104
:1039700080BD00BF9FED301A12E000BF9FED2D1AF1
:103980000EE000BF5EF8381C49F20002C0F2D032EF
:10399000C1F3C10122FA01F101EE101AB8EE411A89
:1039A000DEF800109FED263A6FF35F2102EE101A49
:1039B000DEF80010C1F34621B8EE422A00EE032AD9
:1039C00000EE10CAB7EE003AB8EE400A81EE000AE7
:1039D00032EE031A02EE101AB8EE422A20EE010A65
:1039E00032EE031A80EE011ABCEEC11A80ED001A05
:1039F000DEF80010C1F3064101EE101AB8EE411ACC
:103A000031EE031A80EE011ABCEEC11A80ED011AE4
:103A1000DEF80010C1F3066101EE101AB8EE411A8B
:103A200031EE031A80EE010ABCEEC00A10EE101A45
:103A3000816080BD0024744A20BCBE4B0024744CBD
:103A4000000000390000000080B544F2404EC5F689
:103A5000020E5EF8183C5EF8181CC1F3055C5EF8B7
:103A6000141CBCF1000FDEF8042015D0C1F30021B6
:103A7000C2F3CC02514300EE101A03F003010229F5
:103A8000B8EE400A0ED089B95EF8401C890611D400
:103A90009FED361A1CE000BF00218160C0E90011D3
:103AA00080BD00BF9FED301A12E000BF9FED2D1AC0
:103AB0000EE000BF5EF8401C49F20002C0F2D032B6
:103AC000C1F3C10122FA01F101EE101AB8EE411A58
:103AD000DEF800109FED263A6FF35F2102EE101A18
:103AE000DEF80010C1F34621B8EE422A00EE032AA8
:103AF00000EE10CAB7EE003AB8EE400A81EE000AB6
:103B000032EE031A02EE101AB8EE422A20EE010A33
:103B100032EE031A80EE011ABCEEC11A80ED001AD3
:103B2000DEF80010C1F3064101EE101AB8EE411A9A
:103B300031EE031A80EE011ABCEEC11A80ED011AB3
:103B4000DEF80010C1F3066101EE101AB8EE411A5A
:103B500031EE031A80EE010ABCEEC00A10EE101A14
:103B6000816080BD0024744A20BCBE4B0024744C8C
:103B7000000000390000000010B584B00146B0F527
:103B8000805F4FF0000025DBB1F5004FC0F282806E
:103B900000F0AA80B1F5803F00F00681B1F5002F5A
:103BA00040F0578144F20040C5F60200816D01F4F7
:103BB0004031B1F5003F00F05381B1F5803F00F096
:103BC0003781002940F08F810068000140F18B812E
:103BD0001DE100BFB1F5806F2EDAB1F5807F00F0F6
:103BE0009780B1F5007F40F0348144F20041C5F682
:103BF0000201086DC0F38212042A00F2748148F2B7
:103C00000000C0F2BB00DFE812F0F500FF00090180
:103C100024010500C86C0A68520700F04052086889
:103C200002D5002A00F08181C00540F13381B2F154
:103C3000805F00F072812DE100F09080B1F5006F9F
:103C400040F0078144F20041C5F60201886DC0F3DF
:103C50000262042A00F2478148F20000C0F2BB0071
:103C6000DFE812F0C800D200DC00F700060000BF59
:103C7000C86C0A68520700F04052086802D5002A52
:103C800000F05381C00540F10581B2F1805F00F082
:103C90004481FFE0B1F5805F00F09880B1F5804F7E
:103CA00040F0D78044F20044C5F60204A06DC0F392
:103CB0000270052800F21781DFE810F00600FE0010
:103CC000080112011801200101F0B6F8216A48F23A
:103CD0000E12C0F60002C1F30211515C01F01F0187
:103CE000C84004B010BD00BF44F20040C5F6020059
:103CF000016D01F04051B1F1005F00F0A380B1F11E
:103D0000805F00F0A980002940F0ED800068F6E0B7
:103D100044F20041C5F60201086D00F00702042AD2
:103D200000F2E18048F20000C0F2BB00DFE802F0E0
:103D3000626C7691040000BFC86C0A68520700F0FC
:103D40004052086802D5002A00F0EF80C00540F11B
:103D5000A180B2F1805F00F0E0809BE044F200417E
:103D6000C5F60201886DC0F34252042A00F2BB80FE
:103D700048F20000C0F2BB00DFE802F03C46506BA6
:103D8000040000BFC86C0A68520700F0405208687F
:103D900002D5002A00F0C980C00540F17B80B2F155
:103DA000805F00F0BA8075E044F20040C5F6020082
:103DB000C16C0068C9031ED5000140F1948001A8C0
:103DC000FFF7AAFD039804B010BD00BF44F2004104
:103DD000C5F60201086DC0F30232042A00F28380A6
:103DE00048F20000C0F2BB00DFE802F0040E183316
:103DF000460000BF0868800175D501A8FFF7F4FCF4
:103E0000029804B010BD00BF086800016BD501A87E
:103E1000FFF782FD019804B010BD00BF0868800064
:103E200061D501A8FFF710FE019804B010BD00BFD6
:103E30000068800057D501A8FFF706FE039804B07C
:103E400010BD00BF006800014DD501A8FFF764FD5B
:103E5000029804B010BD00BF0068800143D5CCE7D4
:103E6000C16C0268520701F04051026850D5002928
:103E70004ED1C2F3C1005AE0C86C0A68520700F084
:103E80004052086801D5002A4FD0C00502D5B2F1D2
:103E9000805F42D00868B2F1005F00F400314FF05B
:103EA000000004BF47F64000C0F27D10002908BFA3
:103EB000084604B010BD00BF2068000113D501A85A
:103EC000FFF72AFD029804B010BD00BF20688000F3
:103ED00009D501A8FFF7B8FD029804B010BD00BFD6
:103EE0002068400720D4002004B010BD206840F6B0
:103EF0000011C005C0F23D0106E000BF206847F692
:103F000040018003C0F27D1101EAE07004B010BDF1
:103F1000D20515D5B1F1805F12D140F60010C0F284
:103F20003D0004B010BD00BF2068C0F3C10049F2DD
:103F30000001C0F2D03121FA00F004B010BD00BF82
:103F40000068B1F1005F00F400324FF0000004BFE0
:103F500047F64000C0F27D10002A08BF104604B0AA
:103F600010BD0000000000002DE9F0470446C078B5
:103F700044F22C480007C5F6020845D5606E4FEAAA
:103F8000305103290CD8DFE801F003112F3800BFAE
:103F9000D8F8001041F40031C8F800102DE000BF3F
:103FA00001266078C0070AD032E000BF201D022140
:103FB00002F012FE0646F8B16078C00728D13546F7
:103FC0003746607880073BD43E466078400750D43F
:103FD000B1466078000700F167804F46E0788007BF
:103FE00040F15F817AE000BF04F12400022102F079
:103FF00087FE06460028DFD1606ED8F8241021F431
:1040000040110843C8F8240000266078C007D6D0C5
:10401000606D042800F2A6803546DFE800F003ABAF
:10402000B10A0A00D8F80000354640F40030C8F85C
:104030000000002D2F4600F0AD8060788007C3D5CA
:10404000A06D4FEAB010042800F2B480DFE800F061
:1040500004BAC00A0A0000BFD8F8000040F40030DB
:10406000C8F80000002D2E4600F0BC8060784007A4
:10407000AED5D4F8A4004FEA7050042800F2C280F4
:10408000DFE800F004C8CE0A0A0000BFD8F800003C
:1040900040F40030C8F80000002DA94600F0CA80A6
:1040A000607800077FF599AFD4F8A8004FEA306038
:1040B000042800F2CF80DFE800F003D5DB09090017
:1040C000D8F8000040F40030C8F80000002D2F465A
:1040D00000F0D880E078800740F1E380A06C4FEAE0
:1040E000301003281AD8DFE800F003212B0300BFAB
:1040F0002E466DB36078C00600F1D88037466078F0
:10410000800600F1ED803E466078400600F1FC80BC
:1041100037466078000640F1BA8109E101250126A1
:104120006078C00600F1C280E8E700BFD8F8000060
:1041300040F40030C8F80000002D2E46DAD107E028
:10414000201D022102F048FD0546002D2E46D1D14A
:10415000D8F82000A16C20F0300000250843C8F8F2
:1041600020009EE001250127607880073FF568AFB9
:104170002AE700BF201D002102F02EFD05E000BF50
:1041800004F12400002102F0BBFD0546002D2F465E
:104190007FF453AFD8F82400616D20F007000025AC
:1041A0000843C8F824003746607880077FF50CAFD5
:1041B00046E700BF01250126607840073FF559AF6B
:1041C00006E700BF201D002102F006FD05E000BF4C
:1041D00004F12400002102F093FD0546002D2E4637
:1041E0007FF444AFD8F82400A16D20F4E0700025DE
:1041F0000843C8F824003E46607840077FF5E8AEE3
:1042000037E700BF01254FF00109607800073FF54F
:104210004BAFE2E6201D002102F0DEFC05E000BF0E
:1042200004F12400002102F06BFD0546002DA94693
:104230007FF436AFD8F82C00D4F8A41020F4600036
:1042400000250843C8F82C00B146607800077FF5C8
:10425000C4AE29E701250127E07880073FF53EAF8E
:104260001FE000BF201D002102F0B6FC05E000BFEA
:1042700004F12400002102F043FD0546002D2F46E5
:104280007FF428AFD8F82C00D4F8A81020F0E06014
:1042900000250843C8F82C004F46E07880073FF51A
:1042A0001DAF3E466078C0067FF528AFE06D4FEA4F
:1042B0003030042800F26C80DFE800F00472780AE5
:1042C0000A0000BFD8F8000040F40030C8F8000031
:1042D000002D2F4600F07480607880067FF513AFC4
:1042E000206E4FEA3040052800F27A80DFE800F0C7
:1042F00004808A04040400BF002D2E4600F08C8048
:10430000607840067FF504AFD4F8AC004FEA307017
:10431000052800F29180DFE800F00397A103030372
:10432000002D2F4600F0A4806078000640F1AF8099
:10433000E06E58B1B0F1005F10D0B0F1805F1FD1D6
:10434000D8F8000040F40030C8F800002E466DB1E7
:10435000E078C00700F0CF809DE000BF201D012164
:1043600002F03AFC0546002D2E46F1D1D8F8240083
:10437000E16E20F0405000250843C8F8240086E094
:1043800001250126E078C00740F08580B3E000BF3A
:1043900001250127607880063FF5A2AFB3E600BF94
:1043A000201D002102F018FC05E000BF04F12400EC
:1043B000002102F0A5FC0546002D2F467FF48CAFAE
:1043C000D8F82400E16D20F4E04000250843C8F847
:1043D00024003746607880067FF595AE80E700BF01
:1043E00001250126607840063FF58EAF90E600BFBC
:1043F000201D012102F0F0FB0546002D2E467FF422
:104400007FAF09E004F12400012102F079FC0546A8
:10441000002D2E467FF474AFD8F82400216E20F4CE
:10442000E02000250843C8F824003E466078400696
:104430007FF56EAE68E700BF0125012760780006B2
:104440003FF576AF23E000BF201D012102F0C4FB41
:104450000546002D2F467FF467AF09E004F12400E4
:10446000012102F04DFC0546002D2F467FF45CAF84
:10447000D8F82C00D4F8AC1020F0E0400025084318
:10448000C8F82C003746607800063FF551AF3E462D
:10449000E078C0072FD0606C032809D8DFE800F06F
:1044A00002101A02A946EDB1A07840062AD426E0EF
:1044B00001254FF00109A078400620D522E000BF79
:1044C000D8F8000040F40030C8F80000002DA946DC
:1044D000EAD107E0201D022102F07EFB0546002DF7
:1044E000A946E1D1D8F82000616C20F00300002536
:1044F0000843C8F82000B146A078400602D44F46D1
:1045000019E000BFD8F8D40340F48070C8F8D40391
:10451000FFF746F8064600BFD8F8D403C00507D415
:10452000FFF73EF8801B6428F6D90325032702E035
:10453000002D2F4664D02078C00700F0B680A06F11
:104540004FEAF000052800F28D80DFE800F00391CB
:104550009B030303002D2E4600F09E8020788007E9
:1045600000F1A88037462078400700F1B7803E462A
:104570002078800600F1C88037462078400600F198
:10458000DB803E462078000600F1EE80374620684A
:10459000010740F10181D4F88000B0F5805F09D1B6
:1045A00004F12400022102F0ABFB002818BF012710
:1045B000D4F88000D8F8281021F440510843C8F8F6
:1045C00028002068C10640F1EA80D4F89400B0F5D4
:1045D000807F09D104F12400022102F091FB002820
:1045E00018BF0127D4F89400D8F82C1021F440719A
:1045F0000843C8F82C002068000340F1F780D0E0A1
:10460000D8F84410D4F8B000414011F4407F11D0E4
:10461000D8F84410D8F8442042F48032C8F8442036
:10462000D8F8442021F4407122F48032C8F84420A4
:10463000C8F84410B0F5807F40F0AC82FEF7B0FFC0
:10464000064641F2883A0325032700BFD8F8440004
:10465000800700F19D82FEF7A3FF801B5045F5D92E
:1046600069E700BF012501262078800722D479E779
:10467000201D012102F0B0FA0546002D2E467FF4E0
:104680006DAF09E004F12400012102F039FB054679
:10469000002D2E467FF462AFD8F82800A16F20F0DD
:1046A000380000250843C8F828003E4620788007D7
:1046B0007FF558AF606F052800F28E81DFE810F0BB
:1046C000060094019E01060006000600002D2F46FC
:1046D00000F09E81207840077FF549AFD4F8900024
:1046E000052800F2A581DFE810F00700AB01B50155
:1046F00007000700070000BF002D2E4600F0B48120
:10470000207880067FF538AFD4F88C004FEA3070FF
:10471000052800F2B981DFE810F00700BF01C901E8
:1047200007000700070000BF002D2F4600F0C881DA
:10473000207840067FF525AFD4F898004FEAB020E6
:10474000052800F2CD81DFE810F00700D301DD017C
:1047500007000700070000BF002D2E4600F0DC8197
:10476000207800067FF512AFD4F89C004FEA703035
:10477000052800F2E181DFE810F00700E701F10110
:1047800007000700070000BF002D2F4600F0F08152
:10479000206801073FF5FFAEC1063FF516AF0003E5
:1047A00024D5D4F8A000B0F5003F0FD0B0F5803F7D
:1047B00006D0B8BB201D002102F00EFA05E000BFB4
:1047C00004F12400022102F09BFA05462E461DB199
:1047D000A07840073FD50DE0D8F82C00D4F8A01001
:1047E00020F4403000250843C8F82C003E46A0784D
:1047F000400730D5D4F88400B0F5401F0BD0B0F599
:10480000001F15D0B0F5801F70D1D8F8000040F41B
:104810000030C8F800002F469DB1A078C0071ED117
:1048200069E000BF01260125A0784007E2D412E02C
:1048300004F12400012102F063FA0546002D2F4601
:10484000EBD1D8F82800D4F8841020F440100025CB
:104850000843C8F828003746A078C0074BD0E06C62
:10486000B0F5803F2AD0D8BBD8F8000040F4003023
:10487000C8F800002E464DB3206881003FD4810364
:1048800048D4C1025DD4C10065D481026FD4410017
:1048900078D4B0F1FF3F40F38680000208D5D8F805
:1048A0002800D4F8881020F440000843C8F82800F5
:1048B000002E18BF01263046BDE8F087201D0221DA
:1048C00002F08AF90546002D2E46D5D1D8F82000F1
:1048D000E16C20F4803000250843C8F820000AE08D
:1048E0000126012520688100C9D508E0012701259E
:1048F000A078C007B3D13E4620688100BFD504F13F
:104900002400022102F0FCF9002818BF01262068CB
:104910008103B6D5E16F6FF0010202EB3122022A6A
:104920000AD34FEA31223AB1012A07D1D8F8002040
:1049300042F40032C8F80020002D41D00126C10207
:10494000A1D5D8F82410226F21F000411143C8F8F6
:104950002410C10099D558F81C1CD4F8B42021F4B7
:104960008041114348F81C1C81027FF590AFD8F8B4
:104970002410A26E21F080711143C8F82410410068
:104980007FF587AF58F81C1C21F4004148F81C1C27
:10499000D4F8B81058F81C2C114348F81C1CB0F17E
:1049A000FF3F3FF77AAFD8F82010226D21F0405139
:1049B0001143C8F8201000027FF57AAF6FE700BFFF
:1049C000D8F8282022F440721143C8F82810C102F8
:1049D0007FF559AFB5E700BF0125012720784007D3
:1049E0003FF57CAEC3E500BF201D012102F0F4F8C5
:1049F0000546002D2F467FF46DAE09E004F124003A
:104A0000012102F07DF90546002D2F467FF462AEAC
:104A1000D8F82800616F20F0070000250843C8F887
:104A200028003746207840077FF5A1AD56E600BF45
:104A300001260125207880063FF566AE9CE500BF83
:104A4000201D012102F0C8F80546002D2E467FF4F6
:104A500057AE09E004F12400012102F051F90546A6
:104A6000002D2E467FF44CAED8F82C00D4F89010D0
:104A700020F0070000250843C8F82C003E462078A7
:104A800080067FF579AD3FE60127012520784006B5
:104A90003FF552AE75E500BF201D002102F09CF8E5
:104AA0000546002D2F467FF443AE09E004F12400B3
:104AB000022102F025F90546002D2F467FF438AE7D
:104AC000D8F82800D4F88C1020F0E04000250843E6
:104AD000C8F828003746207840067FF552AD2BE60F
:104AE00001260125207800063FF53EAE4EE500BFC9
:104AF000201D002102F070F80546002D2E467FF49F
:104B00002FAE09E004F12400022102F0F9F8054675
:104B1000002D2E467FF424AED8F82C00D4F898103F
:104B200020F4E05000250843C8F82C003E462078C9
:104B300000067FF52BAD17E6012701252068010748
:104B40007FF52AAE27E500BF201D002102F044F8C2
:104B50000546002D2F467FF41BAE09E004F124002A
:104B6000022102F0CDF80546002D2F467FF410AE4D
:104B7000D8F82C00D4F89C1020F46040002508439D
:104B8000C8F82C003746206801077FF505AE02E51E
:104B9000D4F8B0004FF6CF7358F81C2CC0F2FF03C6
:104BA00000F4407122F47C5203EA10136FF31F30BB
:104BB000B1F5407F08BF1A43002548F81C2CD8F8EF
:104BC00044100843C8F84400FFF799BC00000000F7
:104BD0002DE9F04381B0002800F02A8142F200085C
:104BE0000446C5F200288946D8F8000000F00F00FE
:104BF00088420ED2D8F8000020F00F0040EA0900E9
:104C0000C8F80000D8F8000000F00F00484540F058
:104C10000F81206844F218474107C5F602070AD5FC
:104C200021693A6802F07002914204D93A6822F090
:104C300070021143396001070AD561697A6802F090
:104C40007002914204D97A6822F0700211437960AF
:104C5000C1060AD5A1697A6802F4E062914204D9DA
:104C60007A6822F4E0621143796081060AD5E1692D
:104C7000BA6802F07002914204D9BA6822F0700258
:104C80001143B96010F002010AD0E2683B6803F0FA
:104C90000F039A4204D93B6823F00F031A433A608A
:104CA000C20746D0386820F47061D4E901020128B7
:104CB00041EA0201396009D003280DD0022811D140
:104CC00057F8181C890340F1B38010E057F8181CFE
:104CD000C90540F1AD800AE057F8181C890140F180
:104CE000A78004E057F8181C490740F1A18057F845
:104CF000081C21F00701084347F8080CFEF750FC98
:104D0000064641F2883500BF57F8080C616800F08C
:104D10003800B0EBC10F09D0FEF742FC801BA8425F
:104D2000F2D9032001B0BDE8F08300BF206800F095
:104D3000020151B1E1683A6802F00F02914204D2D7
:104D40003A6822F00F0211433960D8F8001001F0E0
:104D50000F0149450DD9D8F8001021F00F0141EAA3
:104D60000901C8F80010D8F8001001F00F014945FA
:104D70005ED141070AD521693A6802F0700291427A
:104D800004D23A6822F070021143396001070AD553
:104D900061697A6802F07002914204D27A6822F066
:104DA000700211437960C1060AD5A1697A6802F4DC
:104DB000E062914204D27A6822F4E06211437960A1
:104DC00080060AD5E069B96801F07001884204D212
:104DD000B96821F070010843B86000F0B5F839688F
:104DE00048F20E133A68C0F60003C1F3032102F043
:104DF0000F02595C9A5C01F01F0120FA01F102F0E8
:104E00001F0040F2140221FA00F0C2F200421060CA
:104E100040F20C0040F21002C2F20040C2F2004226
:104E20000068116001B0BDE8F043FEF705BC00BFAB
:104E3000012001B0BDE8F08380B500F085F844F2B0
:104E4000184148F20E13C5F60201C0F600030A68C5
:104E5000096801F00F01C2F30322595C9A5C02F069
:104E60001F0220FA02F201F01F0040F2140122FAA0
:104E700000F0C2F20041086040F21001C2F20041AD
:104E80000A6080BD0000000080B500F05DF844F2CB
:104E9000184C48F20E11C5F6020CC0F60001DCF801
:104EA0000020DCF8003003F00F03C2F30322CB5CD8
:104EB0008A5C02F01F02D04003F01F0240F214038C
:104EC00020FA02F2C2F200431A6040F21003C2F26A
:104ED00000431860DCF80400C0F30210085C00F026
:104EE0001F0022FA00F080BD80B500F02DF844F2DA
:104EF000184C48F20E11C5F6020CC0F60001DCF8A1
:104F00000020DCF8003003F00F03C2F30322CB5C77
:104F10008A5C02F01F02D04003F01F0240F214032B
:104F200020FA02F2C2F200431A6040F21003C2F209
:104F300000431860DCF80400C0F30220085C00F0B5
:104F40001F0022FA00F080BD44F20041C5F60201C4
:104F50000869C0F3C200032810D002282CD088BBF7
:104F60000868800649F20000C0F2D03058BF704790
:104F70000968C1F3C101C840704700BF8A6A886AE6
:104F8000C0F3051CC86ABCF1000F4B6B20D0C3F303
:104F9000CC0300F00100584302F00302022A00EEA5
:104FA000100AB8EE400A15D0C2B90868800619D4B4
:104FB0009FED281A23E000BF47F64000C0F27D10A5
:104FC000704700BF40F60010C0F23D00704700BFC0
:104FD000002070479FED1E1A11E000BF9FED1B1AC5
:104FE0000DE000BF086849F20002C0F2D032C0F301
:104FF000C10022FA00F001EE100AB8EE411A086B67
:105000009FED153A6FF35F2002EE100A086BC0F3B4
:105010004620B8EE422A013000EE032A00EE10CA04
:10502000B7EE003AB8EE400A81EE000A32EE031AFB
:1050300020EE010A01EE100AB8EE411A80EE010AD4
:10504000BCEEC00A10EE100A704700BF0024744A7C
:1050500020BCBE4B0024744C00000039000000004E
:10506000F0B581B0002800F043810446007844F296
:105070000046C007C5F6020612D0306900F03801BC
:10508000B06A102905D018292ED100F0030002289B
:105090002AD13068800303D56068002800F0288199
:1050A0002078800740F19380306910F03801B06AB1
:1050B0002CD0182908BF5FEA807027D0E0683168DB
:1050C000002841D021F0190108433060FEF768FA4A
:1050D000054600BF306840071FD4FEF761FA401B49
:1050E0000228F7D953E100BF606800283ED0B0F530
:1050F000A02F53D0B0F5803F54D0306820F48030DA
:105100003060306820F480204FE000BF30684007F6
:1051100003D5E068002800F0EB80FEF739FA41F291
:105120000301884208D820697168402821F47C3145
:105130004AD141F4003049E07068216920F0FE4016
:1051400040EA016042E000BF21F001003060FEF75C
:1051500027FA05463068400739D5FEF721FA401B8B
:1051600002284FF00300F5D9EBE100BF306820F4CE
:1051700080303060306820F480203060FEF710FA14
:10518000054600BF306880037FF58AAFFEF708FA56
:10519000401B64284FF00300F4D9D2E1306840F49A
:1051A00080203060306840F480303060FEF7F8F9DD
:1051B000054600BF306880033FF572AFFEF7F0F997
:1051C000401B6428F6D9E2E041EA003070602078A4
:1051D000C00652D5306900F03801B06A082905D000
:1051E000182919D100F00300012815D13068C00535
:1051F00002D5E06980287BD1FEF7CAF941F20301AC
:1052000088421DD8206A7168202821F0F84131D1E8
:1052100041F0804030E000BFE0690028306817D0DE
:1052200040F080003060FEF7BBF905463068C005ED
:10523000E2D4FEF7B5F9401B0228F7D9A7E000BF7A
:10524000F068216A20F07C5040EA0160F06014E0D0
:1052500020F080003060FEF7A3F905463068C005F5
:105260000BD5FEF79DF9401B02284FF00300F5D93E
:1052700067E100BF41EA80607060207800073BD49E
:10528000207880064CD4207840075DD4656A65B3E9
:10529000306900F03800182840F09E80012DB16A76
:1052A000306B25D001F00302A36A9A4220D1C1F3EA
:1052B0000511E26A91421BD10146226B6FF35F2117
:1052C000013A914214D1C0F34622616B01398A42FE
:1052D0000ED1C0F30642A16B01398A4208D1C0F356
:1052E0000660E16B0139884202D1002001B0F0BDB7
:1052F000012001B0F0BD00BF60690028706F37D099
:1053000040F001007067FEF74BF90546706F8007AB
:10531000B6D4FEF745F9401B0228F7D937E000BFA5
:10532000A0690028306845D040F480503060FEF716
:1053300037F9054630688004A5D4FEF731F9401BE3
:105340000228F7D923E000BFD6F8000440F48070AB
:10535000C6F80004FEF724F9054600BFD6F800049D
:10536000C00517D4FEF71CF9401B6428F6D90EE0DF
:1053700020F001007067FEF713F90546706F800793
:105380007FF57EAFFEF70CF9401B0228F6D903200B
:1053900001B0F0BDA068002840D0052858D00128F1
:1053A0005AD0306F20F001003067306F20F00400D9
:1053B00055E000BF20F480503060FEF7F1F805465C
:1053C000306880047FF55FAFFEF7EAF8401B0228E3
:1053D0004FF00300F4D9B4E0306820F08070306002
:1053E000FEF7DEF8022D05460CD100BF30688001C3
:1053F00048D5FEF7D5F8401B02284FF00300F5D939
:105400009FE000BF306880017FF56FAFFEF7C8F8FE
:10541000401B02284FF00300F4D992E0306F20F0D7
:1054200001003067306F20F004003067FEF7B8F8F5
:10543000054641F2883700BF306F80077FF526AF01
:10544000FEF7AEF8401BB8424FF00300F4D978E005
:10545000306F40F004003067306F40F0010030677B
:10546000FEF79EF8054641F2883700BF306F80078F
:105470003FF50CAFFEF794F8401BB8424FF0030025
:10548000F4D95EE004F12807B06A40F2F3318843B2
:105490008ECF0843591E40EA02104FF47E426FF34C
:1054A0005F21B06202EB47204FF4FE0280B2E36B53
:1054B0000844A16B02EB01414FF0FE4201F4FE01F2
:1054C00002EB0362084402F0FE4108443063F06AD4
:1054D0004FF6F87120F00100F062706BA26C884307
:1054E00040EAC2007063F06A216C20F00C000843AF
:1054F000F062F06A616C20F002000843F062F06A2A
:1055000040F48030F062F06A40F40030F062F06AFB
:1055100040F48020F062F06A40F00100F0623068F0
:1055200040F080703060FEF73BF804463068800140
:105530003FF5DBAEFEF734F8001B02284FF0030006
:10554000F4D901B0F0BD000043F60040C5F60000FC
:10555000016821F0010101607047000000000000B7
:1055600043F60041C5F600010A6822F0020210432A
:105570000860704700000000411E0020B0EB116F72
:1055800002D00120704700BF4EF21002F023CEF28D
:10559000000251604EF62351CEF200010B7007213C
:1055A000906011607047000070470000000000002C
:1055B000704700000000000070470000000000007D
:1055C000B0B590F83C20012A02D10220B0BD00BF46
:1055D000CB6848F2FF7ED1E901C223F47C5322F468
:1055E0007052CFF6F07E1A430CEA0E03D1F800C0D9
:1055F00042EA030E2CF477230A6943EA0E0322F4ED
:105600007622D0F800E01A434B691A438B6A22F4E1
:10561000742C23F470238A6940F200454EF48064B0
:10562000C4F2010543EA0C03AC4243EA02430FD142
:10563000002523F07C724B6ACFF6F045CC6905EA71
:1056400003531A4324F00073096A1A4342EA010320
:105650000021CEF8443080F83C100846B0BD000070
:10566000B0B590F83C20012A4FF0020252D080F8E9
:105670003D2040F2004C0268C4F2010C42F4806309
:1056800063455368D2F808E002BF23F470034C6806
:10569000234340F6FF340D68C4F2000423F0700386
:1056A000A24243EA0503536012DD4FF6FF73C4F2D2
:1056B00000039A421CDC40F60043C4F200039A4205
:1056C0001DD041F60003C4F200039A4217D01BE03C
:1056D000B2F1804F13D040F20043C4F200039A426B
:1056E0000DD040F60003C4F200039A4207D00BE04D
:1056F000624504D00023C4F201039A4204D12EF083
:1057000080038968194391600022012180F83D10CF
:1057100080F83C201046B0BD60B310B5044690F848
:105720003D0028B9002084F83C00204600F024F811
:10573000022084F83D002068211D01F06DFC01204D
:1057400084F8480084F83E0084F83F0084F8400064
:1057500084F8410084F8420084F8430084F844004F
:1057600084F8450084F8460084F8470084F83D003A
:10577000002010BD0120704780B582B00021006874
:10578000C4F2010188421CBF02B080BD44F2F04067
:105790000322C5F60200016841F0010101600068C2
:1057A000032100F00100019001981920FDF7A0FFEE
:1057B000192002B0BDE88040FDF78ABF000000005C
:1057C00090F83D10012921D1022180F83D10016897
:1057D00040F6FF30C4F200008142C86840F001008A
:1057E000C86015DD4FF6FF70C4F2000081421FDC77
:1057F00040F60040C4F20000814224D041F600008F
:10580000C4F2000081421ED02AE000BF0120704790
:10581000B1F1804F17D040F20040C4F20000814245
:1058200011D040F60000C4F2000081420BD017E016
:1058300040F20040C4F20100814204D00020C4F2D2
:10584000010081420CD107228868C0F201020240A7
:105850000020062A18BFB2F5803F01D1704700BF73
:10586000086840F001000860002070470000000058
:105870000146006841F21113C26822F00102C260C1
:10588000026A1A4204D00020012281F83D207047AC
:10589000026A40F244431A42F5D1026822F0010242
:1058A00002600020012281F83D20704700000000C6
:1058B00080B590F83C20012A4FF0020200F09C8055
:1058C00080F83D208822D0F800C0CFF6CE72DCF8F8
:1058D00008301A40CCF808200B686F2B2ADC2F2BDD
:1058E00036DD4F2B46DC302B74D0402B40F07E80D1
:1058F000D1F804E0C968DCF82030DCF8202022F080
:105900000102CCF82020DCF8182022F0F00242EA54
:10591000011123F00A02CCF8181042EA0E01CCF86B
:1059200020104FF68872DCF80810CFF6CF721140C5
:10593000473159E0B3F1101F12DB2F21C0F21001E3
:105940008B423DDCB3F1101F44D020213EE000BF6C
:10595000002B18BF102B3DD0202B3BD046E000BFC2
:10596000702B4BD0B3F5005F5CD0B3F5801F31D006
:105970003CE000BF502B69D0602B37D1D1F804E058
:10598000C968DCF8203023F01003CCF82030DCF8B4
:105990001830DCF8202023F4704322F0A00243EA00
:1059A0000131CCF8181042EA0E11CCF820104FF655
:1059B0008872DCF80810CFF6CF721140673113E01F
:1059C0003021C0F210018B4204D04021C0F21001FE
:1059D0008B420BD14FF68872DCF80810CFF6CF72ED
:1059E0001140194341F00701CCF8081000220121B1
:1059F00080F83D1080F83C20104680BDD1E901E3DD
:105A0000C968DCF8082043EA0E0322F47F4243EA27
:105A100001211143CCF80810DCF8081041F077019F
:105A2000E2E700BFD1E901E3C968DCF8082043EAF6
:105A30000E0322F47F4243EA01211143CCF80810FF
:105A4000DCF8081041F48041CEE700BFD1F804E053
:105A5000C968DCF82030DCF8202022F00102CCF804
:105A60002020DCF8182022F0F00242EA011123F095
:105A70000A02CCF8181042EA0E01CCF820104FF6BA
:105A80008872DCF80810CFF6CF7211405731ABE7BF
:105A9000704700000000000010B50446006801696E
:105AA000890744BFC1685FEA81713FD40169490732
:105AB00044BFC1685FEA417144D40169090744BF2A
:105AC000C1685FEA01714BD40169C90644BFC1686E
:105AD0005FEAC16150D40169C9071CBFC1685FEAB0
